:400000000080002011000000AD080000AD08000008B5044B1A6803F53F5302331A6000F065FC00BFFA46004010B5054C237833B9044B13B10448AFF300800123237010BDAC
:400040004881FF1F00000000581F0000084B10B51BB108490848AFF300800848036803B910BD074B002BFBD0BDE81040184700BF000000004C81FF1F581F0000C880FF1F14
:40008000000000000122014B9A6070476481FF1F00B583B060F07F008DF8040002AA002302F8053D0123194601A800F0B3F89DF8030003B05DF804FB00B583B08DF80400FB
:4000C0008DF80510002302AA02F8053D022101A800F0A0F803B05DF804FB00BF00B583B060F03F0302A800F8043D13460A46012100F090F803B05DF804FB00BF10B50446CC
:40010000002000F01BFF204600F002FD00F0D8FC10F0080FFAD000F065FD0446012000F00DFF204610BD00BF10B50446002000F005FF204600F0ECFC002000F0E9FC00F0AA
:40014000BFFC10F0010FFAD000F04CFD00F04AFD0446012000F0F2FE204610BD2DE9F04383B006460C4617469846002000F0E6FE64B2002511E02146082CA8BF0821C9B2E1
:4001800006EBC50000F0AAFD00F09AFC10F0010FFAD0083C64B201356DB2002CEBDC00F0ADFD00F051FD0026009601964FFA88F820E0C146B8F1080FA8BF4FF008095FFA25
:4001C00089F1684600F08AFD00F07AFC10F0010FFAD0002406E004EBC60500F003FD78550134E4B24C45F6DBA8F108084FFA88F8013676B2B8F1000FDBDC012000F09EFE85
:4002000000F07CFD00F020FD00F03EFD03B0BDE8F08300BF2DE9F04383B006460C4617469846002000F07EFE64B2002511E02146082CA8BF0821C9B206EBC50001F044F8FD
:4002400000F034FF10F0010FFAD0083C64B201356DB2002CEBDC01F047F800F0EBFF0026009601964FFA88F820E0C146B8F1080FA8BF4FF008095FFA89F1684601F024F8AD
:4002800000F014FF10F0010FFAD0002406E004EBC60500F09DFF78550134E4B24C45F6DBA8F108084FFA88F8013676B2B8F1000FDBDC012000F036FE01F016F800F0BAFFEA
:4002C00000F0D8FF03B0BDE8F08300BF08B50520FFF72AFF08BD00BF08B50620FFF70EFF08BD00BF10B582B003248DF80440030A8DF805308DF8060013460A46214601A8CC
:40030000FFF72CFF02B010BD2DE9F04182B000AF054688461446FFF7DFFF012001F070F9E61C04F10A0323F00703ADEB030D02238DF800302B0A8DF801308DF80250224666
:4003400041460DF1030001F0CFF9002307F1080202F8013DF1B26846FFF700FF0837BD46BDE8F08108B5FFF7B1FF10F0010FFAD108BD00BFF0B5A7B062B600F03FFB00F051
:4003800023FD01F019F800F009F97F4801F0E8F8052001F01FF92020FFF77AFE172803D017212020FFF788FE2220FFF771FE062803D006212220FFF77FFE2320FFF768FE8C
:4003C000802803D080212320FFF776FE2420FFF75FFE402803D040212420FFF76DFE2E20FFF756FE402803D040212E20FFF764FE2E20FFF74DFE4A2803D04A212E20FFF7FF
:400400005BFE00252F46012D7FDC604B1B68012B7BD140F2F31140F2E73000F0C3F83C2217A92820FFF75AFE00210C4654E026AB234413F83C3C621C26A8024412F83C0C76
:4004400043EA002040F38910A31C26AA134413F83C3CE21C26AE324412F83C2C43EA022242F38912231D334413F83C3C661D0DF1980E764416F83C6C43EA062343F3891326
:4004800076460E444FEA201E06F864EC4E1C0DF1980E76444FEAA21E4EEA801006F8640C881C26AE30441E1246EA021200F8642CCA1C26A8024402F8643C8EB2F01901307C
:4004C00004220DAB194480B2FFF71EFFFFF74AFF311D09B2063424B23B2CA8DD2E20FFF7D7FD18B100212E20FFF7E6FD2E20FFF7CFFD402803D040212E20FFF7DDFD0A3704
:400500003FB201350022214B1A60022D7FF47BAF502203A90120FFF7E5FE012000F0FAFF00242CE0631C26AA134413F88C5C1346234413F88C2C1201A31C26A90B4413F857
:400540008C7CAB0103F47073E11C26A8014411F88C0C390201F4407101430D4E009143EA970342EA15120B49304601F0D1F8304600F05EFA084800F05BFA043424B24F2CB1
:40058000D0DD002027B0F0BD850000006C81FF1F8C81FF1F5C1F00007C1F000008B500F03FFD08BD10B50C4600F0E2FC204600F0E5FC10BDFEE700BFF0B40022174611E0CA
:4005C00050F82760F3B226F0FF0608E001EB420511F812406D78A5550132013BDBB2002BF4D10137232FEBD9F0BC70470B4B1B78DBB203F007010A4A11701B09013213705A
:400600001023A2F23272137002F6C3121370583213704422034B1A70704700BFCF0100496E5800407658004008B50A46002101F066F808BD08B501F057F808BD38B5002479
:400640003B4B1C80502202331A700B2202331A80182338490B7002310A80374A13703321023211800232137045F6BF5233490A8002310B7002310A80314A137047F22F52EE
:40068000304B1A80192502331D7004222E492F48FFF7D0FF02222E4B1A7008224FF040231A70032103F5007319702A4B1B78DBB229490B70294B1A8041F25122023B1A80AA
:4006C0000CE0274B1B7803F0010343EA440404F003044FF4F07000F0CBFF013D0DB1032CEFD115B90320FFF765FF1E4B4FF480721A8007221A7000221B490A704820023189
:4007000008701A700222033B1A7004220A331A70164A137843F07F031370013A137843F001031370013A137843F08003137038BD80400040864000408A4000409040004027
:4007400096400040984000404C090048004100400043004008010049A146004022420040254200400440004006400040A243004038B572B6394A137843F0040313700024B3
:400780000BE0374863001A19510001440A46098AD068FFF749FF0134E4B2092CF1D900240CE02F48A20011194B000344B3F85020D96C986CFFF73EFF0134E4B2022CF0D942
:4007C00028494FF09040FFF7F7FE0A24264B1C70264A137843F0020313701032137843F002031370224D2B7843F040032B70A2F58632513A137843F01003137008221D4944
:400800001D48FFF717FF22461C491D48FFF712FF22461C491C48FFF70DFF22461B491C48FFF708FF08221B491B48FFF703FF1B4A137843F008031370194C61232370FFF7A2
:40084000FDFE812323700122164B1A70FFF7CEFE0E2229461448FFF7EDFE38BDE8460040A41F0000900000488358004003500140A04300401809004802510040200900485D
:40088000C05100402C0900481051004038090048205100404409004832510040224300400048004004000840B043004008B500F0EFFE03680C2B00D1FEE7FEE708B5094BA3
:4008C0001A681044084BC31A802B02DC054B186005E000F0DDFE0C2303604FF0FF32104608BD00BFCC80FF1F3082FF1F08B5104E104D16E029686B68AC68002204E051F8A6
:40090000040B43F8040B0432A242F8D1E868002203E0002143F8041B04328242F9D11035013E002EE6D100F0B9FEFFF723FDFEE7010000006420000008B5104A104B1A606B
:40094000104A136843F40073136000230AE0032B03D80D4A52F8231000E00C490C4A42F8231001332F2BF2D90A4B1A780A4B1A70074A0A4B1A60FFF7FBFE08BD0004FA05AD
:400980000CED00E014ED00E000000000AD0800000080FF1FBC760040C080FF1F08ED00E07222074B1A702022FF3B1A7006229E331A70472210331A700022B03B1A70704708
:4009C0008965004010B500F05BFE04460A4A137843F020031370FF3A137843F010031370023A137843F01003137000F0C7FD204600F04AFE10BD00BF9965004008B5054B73
:400A00001B7823B9FFF7CCFF0122024B1A70FFF7D9FF08BD7081FF1F034B1B7813F0040FFAD1024B18707047686400404B65004038B5074B1B782BB938BDFFF7EDFF0134DE
:400A4000A4B201E005460024285D0028F5D138BD7081FF1F0222014B1A60704700E100E00122014B1A60704700E100E008B500F007FE0C4A137843F020031370FF3213786E
:400A800043F0100313700132137843F01003137000F0FAFD00F080FDFFF7DCFFFFF7E0FF08BD00BF9B6400400222014B1A60704780E100E00122014B1A60704780E100E066
:400AC00010B5FFF7F1FF064B1C78064A137803F009031C4300231370FFF7BCFF204610BD6A650040F481FF1F10B5FFF7E3FF064B1B78064A147804F040041C430023137067
:400B0000FFF7AEFF204610BD6B6500400582FF1F10B504462B4B1A7802F0FF0312B1013BDBB200E00723284A1278D2B29342F1D0FFF7BAFF254B1978254A137803F00903CA
:400B40000B4313701F4B1A78D2B21F4B1B78DBB29A4207D11E4B1B7813F0040F02D01D4B1C702CE0184A13780133DBB213701378DBB2072B02D90022134B1A70124B1A78B3
:400B8000D2B2104B1B78DBB29A420ED10D4A13780133DBB213701378DBB2072B02D90022084B1A7001220C4B1A70074B1B78DBB20A4AD4540A4A137843F004031370FFF7AD
:400BC00049FF10BD0682FF1F0482FF1F6A650040F481FF1F4A6400400082FF1FF881FF1F8A65004010B5FFF765FF134B1A78D2B2124B1B78DBB29A4214D0114B1B7813F0DE
:400C0000FF0F0CD10C4A13780133DBB213701378DBB2072B06D90022074B1A7002E00022074B1A70044B1B78DBB2064AD45CE4B2FFF716FF204610BD0382FF1F0182FF1F96
:400C40000282FF1F0882FF1F08B501E0094B1B78094B1B7813F0200FF8D1FFF72BFF0023064A1370064A1370064A1370FFF7F8FE08BD00BF5A6400406B6500400282FF1FE7
:400C80000382FF1F0182FF1F08B500F0F9FC0E4B1A7842F001021A701A7802F0FE021A7000F0F2FCFFF700FF0023084A1370084A1370084A1370084A137803F0FB031370D0
:400CC000FFF7C8FE08BD00BF9A6400400082FF1F0682FF1F0482FF1F8A65004070B506460C46002506E0705DFFF712FF0135EDB2013CE4B2002CF6D170BD00BF08B501E096
:400D00000A4B1B780A4B1B7813F0200FF8D100F0B7FC084B1A7842F001021A701A7802F0FE021A7000F0B0FC08BD00BF5A6400406B6500409A64004010B50F22174B1A7045
:400D4000174C022323600721012000F077FC1549012000F05FFC012323600721002000F06DFC1149002000F055FCFFF7C7FF00240E4B1C700E4B1C700E4B1C700E4B1C707B
:400D80000E4B1C700E4B1C70FFF79AFEFFF7ACFE0C4B1C70202201331A7010BD8B64004080E100E0E50D0000850E00000282FF1F0382FF1F0182FF1F0082FF1F0682FF1F6A
:400DC0000482FF1F8A65004008B5054B1B7823B9FFF7B2FF0122024B1A70FFF747FE08BD7281FF1F28E01F4B19781F4A137803F009030B431370137813F0040F24D01B4B30
:400E00001B7813F0FF0F0CD1194A13780133DBB213701378DBB2072B06D90022144B1A7002E00022114B1A70114B1B78DBB2114AD35CDBB2104A13700D4B1A78D2B20F4BA9
:400E40001B78DBB29A42CED1094B1A78D2B20B4B1B78DBB29A4204D1094A137803F0FB03137070476A650040F481FF1F0082FF1F0682FF1FF881FF1F4A6400400482FF1F2C
:400E80008A650040204B1A7820490B7803F0400313430B7032E01E4B1A78D2B21D490B780133DBB20B700B78DBB2072B02D90021184B1970174B1978C9B2174B1B78DBB243
:400EC00099420ED114490B780133DBB20B700B78DBB2072B02D900210F4B197001210F4B19700C4B1B78DBB20D49CA54064B1A7806490B7803F0400313430B70034B1B786E
:400F000013F0200FC7D170476B6500400582FF1F5A6400400182FF1F0382FF1F0282FF1F0882FF1F044A137803F07F03C001C0B218431070704700BF10510040044A1378A3
:400F400003F0EF03000100F0100018431070704720510040024A137843F080031370704778650040014B1880704700BF0E680040014B1880704700BF8E680040014B1880E0
:400F8000704700BF4E680040014B1870704700BF87640040014B1878704700BF67640040014B188880B27047AE68004008B501E0FFF7F6FFFFF7EEFF10F0100FF8D108BDAF
:400FC00010B5154A137803F0C00343F00B031370124C237843F001032370E03A137843F00103137040F2E730FFF7BCFF40F2E730FFF7BEFF0020FFF7C1FF0020FFF7C4FF01
:4010000000F03EFB237843F01003237000F03CFBFFF7CCFF10BD00BF786500409764004008B5054B1B7823B9FFF7CAFF0122024B1A70FFF78FFF08BD7381FF1F0822014B41
:401040001A60704700E100E00422014B1A60704700E100E008B500F013FB0D4A137843F020031370A2F58072137843F01003137002F20112137843F01003137000F004FB7D
:4010800000F098FAFFF7DAFFFFF7DEFF08BD00BF966500400822014B1A60704780E100E00422014B1A60704780E100E010B5FFF7F1FF064B1C78064A137803F009031C43B8
:4010C00000231370FFF7BAFF204610BD666400401F82FF1F10B5FFF7E3FF064B1B78064A147804F040041C4300231370FFF7ACFF204610BD676500401882FF1F10B504465E
:401100002B4B1A7802F0FF0312B1013BDBB200E00723284A1278D2B29342F1D0FFF7BAFF254B1978254A137803F009030B4313701F4B1A78D2B21F4B1B78DBB29A4207D1CF
:401140001E4B1B7813F0040F02D01D4B1C702CE0184A13780133DBB213701378DBB2072B02D90022134B1A70124B1A78D2B2104B1B78DBB29A420ED10D4A13780133DBB2DF
:4011800013701378DBB2072B02D90022084B1A7001220C4B1A70074B1B78DBB20A4AD4540A4A137843F004031370FFF747FF10BD1C82FF1F1D82FF1F666400401F82FF1FAF
:4011C000466500401B82FF1F2082FF1F8664004010B5FFF765FF134B1A78D2B2124B1B78DBB29A4214D0114B1B7813F0FF0F0CD10C4A13780133DBB213701378DBB2072B43
:4012000006D90022074B1A7002E00022074B1A70044B1B78DBB2064AD45CE4B2FFF714FF204610BD1E82FF1F1982FF1F1A82FF1F1082FF1F08B501E0094B1B78094B1B78E3
:4012400013F0200FF8D1FFF72BFF0023064A1370064A1370064A1370FFF7F6FE08BD00BF56650040676500401A82FF1F1E82FF1F1982FF1F08B500F003FA0E4B1A7842F04A
:4012800001021A701A7802F0FE021A7000F0FCF9FFF700FF0023084A1370084A1370084A1370084A137803F0FB031370FFF7C6FE08BD00BF966500401B82FF1F1C82FF1FD6
:4012C0001D82FF1F8664004070B506460C46002506E0705DFFF712FF0135EDB2013CE4B2002CF6D170BD00BF08B501E00A4B1B780A4B1B7813F0200FF8D100F0C1F9084B78
:401300001A7842F001021A701A7802F0FE021A7000F0BAF908BD00BF56650040676500409665004010B50F22184B1A70184C082323600721032000F081F91649032000F0C9
:4013400069F9042323600721022000F077F91249022000F05FF9FFF7C7FF00240F4B1C700F4B1C700F4B1C700F4B1C700F4B1C700F4B1C70FFF79AFEFFF7ACFE0D4B1C709C
:40138000202203F201131A7010BD00BF8665004080E100E0D5130000751400001A82FF1F1E82FF1F1982FF1F1B82FF1F1C82FF1F1D82FF1F8664004008B5054B1B7823B9E4
:4013C000FFF7B0FF0122024B1A70FFF743FE08BD7481FF1F28E01F4B19781F4A137803F009030B431370137813F0040F24D01B4B1B7813F0FF0F0CD1194A13780133DBB24D
:4014000013701378DBB2072B06D90022144B1A7002E00022114B1A70114B1B78DBB2114AD35CDBB2104A13700D4B1A78D2B20F4B1B78DBB29A42CED1094B1A78D2B20B4B78
:401440001B78DBB29A4204D1094A137803F0FB0313707047666400401F82FF1F1B82FF1F1C82FF1F2082FF1F466500401D82FF1F86640040204B1A7820490B7803F04003A1
:4014800013430B7032E01E4B1A78D2B21D490B780133DBB20B700B78DBB2072B02D90021184B1970174B1978C9B2174B1B78DBB299420ED114490B780133DBB20B700B7832
:4014C000DBB2072B02D900210F4B197001210F4B19700C4B1B78DBB20D49CA54064B1A7806490B7803F0400313430B70034B1B7813F0200FC7D17047676500401882FF1F7C
:40150000566500401982FF1F1E82FF1F1A82FF1F1082FF1F044A137803F0FE0300F0010018431070704700BF30510040014B1B681865704708ED00E04001C0B2014B1870A0
:40154000704700BF04E400E01022014B1A60704700E100E01022014B1A60704780E100E010B50446FFF7F6FF2046FFF7DFFF0720FFF7E2FFFFF7E8FF10BD00BF054A137858
:4015800043F0080313701032137843F008031370704700BFA2430040054A137843F0020313701032137843F002031370704700BFA2430040054A137843F0040313701032B0
:4015C000137843F004031370704700BFA243004001BE704710B5044605E0084B186800F047F8A4F50044B4F5004FF6D8034B586800FB04F000F03CF810BD00BFD080FF1FDE
:4016000008B5034B1B7A00FB03F000F031F808BDD080FF1F70B504460E46074B1D681F2802D90020FFF7D4FF04F01F04103455F8240045F8246070BD08ED00E038B5044665
:401640000D46072902D90020FFF7C2FF1F2C02D90020FFF7BDFF04F01F0000F1604000F564406D01EDB2057038BD00BF000000000230800803D000BF01380046FCD170477B
:40168000EFF3108072B6704780F31088704700BF014B1868704700BF4081FF1F0E4B70B51E460E4C0025E41AA410A54204D056F8253098470135F8E700F0C2FC084B094C7C
:4016C0001E46E41AA4100025A54204D056F8253098470135F8E770BD4C2000004C2000004C2000005420000010B5431E0A44914204D011F8014B03F8014FF8E710BD0346C8
:401700000244934202D003F8011BFAE7704700000EB400B54FF402719CB0ADF814106FF00041049107914FF6FF711DAB02900690084853F8042BADF81610006802A901931D
:4017400000F064F8029B00221A701CB05DF804EB03B070474081FF1F2DE9F0478E6882469E420C46914698463ED88A8912F4906F3AD02568096902236F1A656905EB45059C
:4017800095FBF3F57B1C43449D4238BF1D4653050FD5294600F040FB064698B13A462169FFF7A2FFA38923F4906343F08003A38113E02A4600F08EFB064670B921695046CD
:4017C00000F0DEFA0C23CAF80030A3894FF0FF3043F04003A381BDE8F08726613E44266046466561ED1BA560464528BF464649463246206800F0A8FAA36800209B1BA360BF
:4018000023681E442660BDE8F08700002DE9F04F9DB003938B8980461C060D4616460DD50B695BB9402100F0F7FA2860286118B90C23C8F80030CDE040236B6100230993EE
:4018400020238DF82930DFF89CB130238DF82A3037463C4614F8013B1BB9B7EB060910D003E0252BF9D02746F3E74B46324629464046FFF771FF013000F0A780099B4B4423
:4018800009933B78002B00F0A08000234FF0FF3204930793059206938DF853301A930126052221784E4800F041FA671C049B38B14B4A3C46801A06FA00F018430490EFE7DC
:4018C000D90644BF20228DF853201A0744BF2B228DF8532022782A2A03D0079A00210A200BE0039A111D12680391002A10DA524243F00200079204900BE027463B780134A8
:40190000303B092B03D800FB02320121F5E701B107923B782E2B1ED17B782A2B0AD1039B02371A1D1B680392002BB8BF4FF0FF33059310E0002319460593781C0A240746AD
:401940003A780130303A092A03D804FB01210123F5E703B1059103223978224800F0E6F940B14023CBEB000003FA00F0049B013718430490397806221B487E1C8DF8281042
:4019800000F0D4F988B1194B33B9039B073323F007030833039314E003AB00932A46144B04A94046AFF3008007E003AB00932A460F4B04A9404600F093F8B0F1FF3F82467B
:4019C00003D0099B5344099342E7AB895B0601D4099801E04FF0FF301DB0BDE8F08F00BF0C200000122000001620000000000000591700002DE9F04791461F460A698B6817
:401A000006469342B8BF1346C9F8003091F843200C46DDF8208012B10133C9F800302368990642BFD9F800300233C9F80030256815F0060510D104F1190A07E0012352469E
:401A400039463046C04701301AD00135E368D9F800209B1A9D42F1DB94F843302268003318BF012392060FD5E118302081F843005A1C94F845102244023382F8431003E0A3
:401A80004FF0FF30BDE8F08704F1430239463046C0470130F4D02268D9F80050E36802F00602042A08BF5D1B2269A3680CBF25EAE57500259342C4BF9B1AED184FF00009CB
:401AC0001A344D4509D00123224639463046C0470130D5D009F10109F3E70020BDE8F0872DE9F04317460A7E85B06E2A984606460C460C9B01F1430E00F0AE8011D8632AC0
:401B000022D009D8002A00F0BB80582A40F0CA8081F84520834955E0642A1ED0692A1CD0C0E0732A00F0B08009D86F2A2ED0702A40F0B8800A6842F020020A603EE0752AE3
:401B400024D0782A3AD0ADE01A6801F14205111D1960136884F84230A8E021681A6811F0800F02D0111D196008E011F0400F02F10401196002D0B2F9003000E01368002BF5
:401B80003CDA2D225B4284F8432037E021681A6811F0800F02D0111D196007E011F0400F02F10401196001D0138800E01368227E5C496F2A14BF0A2208221BE078225A496B
:401BC00084F845202268186812F0800F00F104051D6003D1550601D5038800E00368D00744BF42F0200222601BB9226822F0200222601022002084F8430001E049490A22A3
:401C00006568002DA56008DB206820F0040020602BB9002D7DD175460CE0002B79D07546B3FBF2F002FB1033CB5C05F8013D03460028F5D1082A0BD12368DA0708D5236925
:401C400062689A42DEBF302305F8013C05F1FF35C5EB0E0323612EE008681A6810F0800F496903D0101D1860136808E010F0400F02F104001860136801D0198000E019600D
:401C800000232361754616E01A68111D1960156800216268284600F049F808B1401B6060636804E004F1420584F8422001232361002384F84330CDF800803B4603AA21466B
:401CC0003046FFF797FE013002D14FF0FF3026E023692A4639463046C0470130F5D023689B0710D5002504F1190907E001234A4639463046C0470130E7D00135E368039A92
:401D00009B1A9D42F2DBE068039B9842B8BF184605E00B7804F1420584F842308AE705B0BDE8F0831D2000002E20000010B5C9B202449042034605D01C7801308C42F8D180
:401D4000184610BD002010BD884210B501EB020301D8421E0BE09842FBD28118D21AD34204D013F8014D01F8014DF8E710BD994204D011F8014B02F8014FF8E710BD00004C
:401D800038B50546002944D051F8043C0C1F002BB8BFE41800F0D4F81E4A1368114613B96360146030E0A3420DD92268A018834201BF18685B681218226063600C6023E0A0
:401DC000A24203D813465A68002AF9D118681918A1420BD12168014458188242196013D110685268014419605A600DE002D90C232B6009E021686018824201BF106852687A
:401E00000918216062605C602846BDE8384000F098B838BD7C81FF1F70B5CD1C25F0030508350C2D38BF0C25002D064601DBA94202D90C23336046E000F082F8234B1C687F
:401E40001A462146A1B10B685B1B0ED40B2B03D90B60CC18CD501EE08C420BBF63684B681360636018BF0C4615E00C464968E9E7174C23681BB9304600F052F82060294664
:401E8000304600F04DF8431C18D0C41C24F00304A0420DD12560304600F053F804F10B00231D20F00700C31A0ED05A42E25070BD211A304600F034F80130EBD10C233360B6
:401EC000304600F03EF8002070BD00BF7C81FF1F7881FF1FF8B5074615460E4621B91146BDE8F840FFF798BF1AB9FFF749FF2846F8BD00F027F885420ED929463846FFF730
:401F00008BFF044650B131462A46FFF7EDFB31463846FFF735FF01E03046F8BD2046F8BD38B5064C0023054608462360FEF7C6FC431C02D1236803B12B6038BD2882FF1FD3
:401F40007047704751F8040C0028BEBF091851F8043CC01804387047000000002A2A20454550524F4D2052656164203D202564202564202564200D0A000000002A2A2A2A71
:401F80002A2A2A2A2A2A2A2A2A2A2A2A2A2A2A2A2A2A2A2A2A2A2A2A2A2A2A2A2A2A2A2A2A0D0A00035B00402443004040000000004F00400C00405100403000F0510040FE
:401FC000100000000140000A800A0140800500140140000280160140800500400140000A004C0140000200500140200060520040100800480600000A01401808004880002D
:40200000001601409808004880004300232D302B2000686C4C00656667454647003031323334353637383941424344454600303132333435363738396162636465660000AB
:40204000F8B500BFF8BC08BC9E4670474D00000039090000F8B500BFF8BC08BC9E4670472900000078200000C880FF1F80000000E800000000000000000000003082FF1F74
:402080000000E02EC05D00001800000000366E0100000000000000000000000000000000000000000000000000000000000000000A2000000000000000000000000000000E
:4020C000000000000000000000000000000000000000000000000000000000000000000000000000000000000000000000000000E080FF1F00000000000000000000000062
:40210000000000000000000000000000000000000000000000000000000000000000000000000000000000000000000000000000000000000000000000000000000000009F
:40214000000000000000000000000000000000000000000000000000000000000000000000000000000000000000000000000000000000000000000000000000000000005F
:40218000000000000000000000000000000000000000000000000000000000000000000000000000000000000000000000000000000000000000000000000000000000001F
:4021C00000000000000000000000000000000000000000000000000000000000000000000000000000000000000000000000000000000000000000000000000000000000DF
:020000040003F7
:0200000480007A
:40000000024F00400452004004640040026500400303014007050140620601403E0701405F080140480901400E0A01403E0B0140070D0140040E0140010F01400515014016
:40004000091601404E170140541801404B1901405B1A0140501B014007400140114101400B42014005430140044401400745014004460140084701400A480140074901403F
:40008000034C0140094D0140065001400251014001400A4B0020016010021102870D880F8A388B0F860F89728740EA01EE4284408C209780E204E608EA40EE20000D0172A6
:4000C000080D0C020D630E0D0F0C100D1123135814C01501177418B219721A441C021D221E381F50200D2172280D29502B222C612D222E92316032E0331F34103501360F26
:40010000380839083A803E103F1054095604580459045B045C225D205F0186209102930D95099610970698439A049C0EA005A105A26AA30AA503A610A70CA804AA69B10F4C
:40014000B210B460B50FB60FB880BB22BE04C030C102C9FFCAFFCBFFCDA0CF04D018D405D804D904DA04DB04DC11DD55DF01E040E2C0E440E540E6C0E8C0EAC0ECC0EEC068
:4001800000040562070408280A020D800E1A0F401048130814801750180419041A021D601E1020082102244025152604274028602D222E012F0230083102348036053710C9
:4001C0003C403E02400841044204580159045B805C015E405F1467818008860488018C0497809860C0D4C2F7C4DECAB3CCF3CE90D006D6FBD890E203E410E640010303149D
:40020000043805400645071509330A020B040C560D0A0E210F3413081438164319331A291B0C2246306331103207330F36183760388039803A0A3B083E403F014040410308
:400240004621470D481D49FF4AFF4BFF4DAF4E0F4F0450185401580459045A045B045C335D355F01604062C06440654066C068C06AC06CC06EC085028602870D8801890D84
:40028000910D920295C2970899919B229C0D9D0DA10DA40DA540A90DAA04ADE2AF14B001B208B370B402B50FB604B780BB28BE10BF40D804D904DC15DF0100100220044039
:4002C0000608071009400A800E200F28100411041702189419401C601D801E201F012108228023042504279228282A8631183341371238203B043C603D013F0846604D045A
:400300005428554056205C025E085F908108842085018710880889409020940496029740988899149A969B459E01A040A110A208A508A701B085C0E6C269C416CA0FCCAFE9
:40034000CEF6D0C0D6F0E410E62096049A019C049E02B202B404B601D602D72CD804DB04DC06DD10DF010188034404200704080109580C200D800E101010120419581D8008
:400380001E182008220A280929482A822B08301031383202334038A241284280484149044A08504052145A026004638267406C116DA06F4975807602834085408D109E0100
:4003C000A020A606B202B604C00FC2EFC406CA0FCC0FCE0DD007D20CD601D88DE240EA40EE2084209E01A801B601E202E801EE4239803F4059045F0120018401A001AF4034
:40040000B408EA088F01B301D440D604D904DB04DC50DD20DF010504060207400EAA148017111C021D081E801F102104244425802C242E012F0234803604371238043A04A8
:400440003B803C403D043E124408458947024C804D804F06542057066206630A660267606E336F1576028041818C848485848602940195089601974499809B409C809E0236
:400480009F14A101A204A580A702A920AA40AB80AF12B004B104B308B594B701C0B0C2F0C450CAF0CCF0CEF8D0F0D210D84FE280EA0101140510070C090C0B11110913107C
:4004C0001D201F0325102D1C2F02311F37203F404001470449FF4A074BFF4C404D204EF04F055008528059045A045B045C305D535F01604061A8624063208304851C86531F
:4005000087E2880289188C3C8D088E4390039124947F95FF987399E79A0C9B189C2F9D109E50A008A11CA3E1A404A540A80CAB63AC01AD60B01CB160B220B40FB51FB64C86
:40054000B780B980BAA0BB28BE04D602D711D804D904DB04DC33DD30DF0100080206080109080A0510821328184019101A251B80210C2241230426402780280129282A04EB
:400580002B802E082F0130823118378239023B943C023D083F2045804F0856085A20695470807338764080018304864088408A028B0493029501968298A099049A129B4731
:4005C0009C029E09A040A194A288A310A624A705A840B004B240B340C007C20FC40FCA5FCC9FCEEFD010D604E280E402E820EC800402051E0611091E0D020E0411081305E2
:40060000150416081718220424032510270428032C012E12300431013203331C350236183E414026410342044401450E460C480549FF4AFF4BFF4C624DA04EF04F41500C5A
:4006400054095604580459045A045B045C335D135F016640670269106A306B106D106E106F1289018F019001930195019D01A101B301B401BE10BF04C035C106C5C0C60EB1
:40068000C7B0C826C9FFCAFFCBFFCEF0CF44D00CD440D604D804D904DA04DB04DD13DF01E6C0EA40EB020040010809080F8010821114180119081B011E0820082109271037
:4006C00029082E0230023108374539543C803D203E80404141044204450446084710480449204A204C014D014F2050805401574058A0590562816440669878027B408101DD
:4007000082088401850888029042915C9204950398A099049A129B459C439D289E01A040A114A288A310A407A624A701AE40B348C005C214C40FCA82CCD3CE3ED04FD23400
:40074000D60FD8F9EA4030403301358036083B40CCF0CE10332035806202662086089B049C409F01A608AB04AF40B580CC30D8C0E210EA80EE405B0481809B049C409D80BB
:400780009E209F01B202B720D640E2208D108E209C409E209F0113027D20C408DE01032157018701A910AF02C00AD6044508A320A701D0018B018D08A508A701B320E00191
:4007C000E408EA0125108001870188409C409F01A510C820E240E6207001750285029002DC80DE20E6100B028740C2021080734088809340B701C408DC01E601EA02006E32
:400800000A260C6A102E1A241C2A00FF013F000004800000400000009A0400803800C000988402009A6000002101D800FC56030902079838988402000084000013046400D1
:4008400002800004000A0010007FE08013080F0000028800000000144302600005DEFB0C1FFFFFFF2200F008040000001800040004040404113100010000C00040011011D7
:40088000C0010011400140010000000000000000000000000000000023190C0021CE1A21001100085000006002A11D425044008903193400500800110019500000000080E8
:4008C00050000010000800041FE040001F10200F800022C0000004105104300002DEB0CF3BFFFFFF2200F00C040000000000022804040404222200010000C000400110119A
:40090000C0010011400140010000000000000000000000000000000000606000600000008400508C8C008C00000000008000408B8B000000000000001400011612000200B6
:400940000000000000010100000010002500180100000000000000000000000000000000000000000000000000000000000000000000000000000000000000000000000027
:400980000000000000000000000000000000000000000000000000000000000000000000000000000000000000000000000000000000000000000000000000000000000037
:4009C00000000000000000000000000000000000000000000000000000000000000000000000000000000000000000000000000000000000000000000000000000000000F7
:400A000000000000000000000000000000000000000000000000000000000000000000000000000000000000000000000000000000000000000000000000000000000000B6
:400A40000000000000000000000000000000000000000000000000000000000000000000000000000000000000000000000000000000000000000000000000000000000076
:0200000490006A
:0400000000004005B7
:0200000490105A
:04000000BC90ACAF55
:0200000490303A
:02000000C6CD6B
:0200000490402A
:4000000000000000000000000000000000000000000000000000000000000000000000000000000000000000000000000000000000000000000000000000000000000000C0
:400040000000000000000000000000000000000000000000000000000000000000000000000000000000000000000000000000000000000000000000000000000000000080
:400080000000000000000000000000000000000000000000000000000000000000000000000000000000000000000000000000000000000000000000000000000000000040
:4000C0000000000000000000000000000000000000000000000000000000000000000000000000000000000000000000000000000000000000000000000000000000000000
:0200000490501A
:0C00000000012E16106900012E24D736D6
:00000001FF