:4000000000800020110000007D0800007D08000008B5044B1A6803F53F5302331A6000F04DFC00BFFA46004010B5054C237833B9044B13B10448AFF300800123237010BD24
:400040004881FF1F00000000201E0000084B10B51BB108490848AFF300800848036803B910BD074B002BFBD0BDE81040184700BF000000004C81FF1F201E0000C880FF1F86
:40008000000000000122014B9A6070476481FF1F00B583B060F07F008DF8040002AA002302F8053D0123194601A800F0B3F89DF8030003B05DF804FB00B583B08DF80400FB
:4000C0008DF80510002302AA02F8053D022101A800F0A0F803B05DF804FB00BF00B583B060F03F0302A800F8043D13460A46012100F090F803B05DF804FB00BF10B50446CC
:40010000002000F003FF204600F0EAFC00F0C0FC10F0080FFAD000F04DFD0446012000F0F5FE204610BD00BF10B50446002000F0EDFE204600F0D4FC002000F0D1FC00F06D
:40014000A7FC10F0010FFAD000F034FD00F032FD0446012000F0DAFE204610BD2DE9F04383B006460C4617469846002000F0CEFE64B2002511E02146082CA8BF0821C9B259
:4001800006EBC50000F092FD00F082FC10F0010FFAD0083C64B201356DB2002CEBDC00F095FD00F039FD0026009601964FFA88F820E0C146B8F1080FA8BF4FF008095FFA85
:4001C00089F1684600F072FD00F062FC10F0010FFAD0002406E004EBC60500F0EBFC78550134E4B24C45F6DBA8F108084FFA88F8013676B2B8F1000FDBDC012000F086FEE6
:4002000000F064FD00F008FD00F026FD03B0BDE8F08300BF2DE9F04383B006460C4617469846002000F066FE64B2002511E02146082CA8BF0821C9B206EBC50000F0B6FFE5
:4002400000F0A6FE10F0010FFAD0083C64B201356DB2002CEBDC00F0B9FF00F05DFF0026009601964FFA88F820E0C146B8F1080FA8BF4FF008095FFA89F1684600F096FFDA
:4002800000F086FE10F0010FFAD0002406E004EBC60500F00FFF78550134E4B24C45F6DBA8F108084FFA88F8013676B2B8F1000FDBDC012000F01EFE00F088FF00F02CFF35
:4002C00000F04AFF03B0BDE8F08300BF08B50520FFF72AFF08BD00BF08B50620FFF70EFF08BD00BF10B582B003248DF80440030A8DF805308DF8060013460A46214601A85A
:40030000FFF72CFF02B010BD2DE9F04182B000AF054688461446FFF7DFFF012001F0ACF8E61C04F10A0323F00703ADEB030D02238DF800302B0A8DF801308DF8025022462B
:4003400041460DF1030001F033F9002307F1080202F8013DF1B26846FFF700FF0837BD46BDE8F08108B5FFF7B1FF10F0010FFAD108BD00BFF0B5A7B062B600F027FB00F005
:400380000BFD00F089FF7A4801F0C6F8052001F05DF82020FFF77CFE172803D017212020FFF78AFE2220FFF773FE062803D006212220FFF781FE2320FFF76AFE802803D085
:4003C00080212320FFF778FE2420FFF761FE402803D040212420FFF76FFE2E20FFF758FE402803D040212E20FFF766FE2E20FFF74FFE4A2803D04A212E20FFF75DFE0025EE
:400400002F46012D79DC5B4B1B68012B75D13C2217A92820FFF762FE00210C4654E026AB234413F83C3C621C26A8024412F83C0C43EA002040F38910A31C26AA134413F81D
:400440003C3CE21C26AE324412F83C2C43EA022242F38912231D334413F83C3C661D0DF1980E764416F83C6C43EA062343F3891376460E444FEA201E06F864EC4E1C0DF1F5
:40048000980E76444FEAA21E4EEA801006F8640C881C26AE30441E1246EA021200F8642CCA1C26A8024402F8643C8EB2F019013004220DAB194480B2FFF726FFFFF752FFE8
:4004C000311D09B2063424B23B2CA8DD2E20FFF7DFFD18B100212E20FFF7EEFD2E20FFF7D7FD402803D040212E20FFF7E5FD0A373FB2013500221F4B1A60022D81D1502283
:4005000003A90120FFF7EEFE00242CE0631C26AA134413F88C5C1346234413F88C2C1201A31C26A90B4413F88C7CAB0103F47073E11C26A8014411F88C0C390201F44071A5
:4005400001430D4E009143EA970342EA15120B49304601F041F8304600F052FA084800F04FFA043424B24F2CD0DD002027B0F0BD850000006C81FF1F8881FF1F241E00002F
:40058000441E0000FEE700BFF0B40022174611E050F82760F3B226F0FF0608E001EB420511F812406D78A5550132013BDBB2002BF4D10137222FEBD9F0BC70470B4B1B78B8
:4005C000DBB203F007010A4A11701B09013213701023A2F23272137002F6C3121370583213704422034B1A70704700BFCF0100496E5800407658004008B50A46002100F07A
:40060000E2FF08BD08B500F0D3FF08BD38B500243B4B1C80502202331A700B2202331A80182338490B7002310A80374A13703321023211800232137045F6BF5233490A8056
:4006400002310B7002310A80314A137047F22F52304B1A80192502331D7004222E492F48FFF7D0FF02222E4B1A7008224FF040231A70032103F5007319702A4B1B78DBB23F
:4006800029490B70294B1A8041F25122023B1A800CE0274B1B7803F0010343EA440404F003044FF4F07000F047FF013D0DB1032CEFD115B90320FFF765FF1E4B4FF48072BD
:4006C0001A8007221A7000221B490A704820023108701A700222033B1A7004220A331A70164A137843F07F031370013A137843F001031370013A137843F08003137038BDA0
:4007000080400040864000408A40004090400040964000409840004008090048004100400043004008010049A146004022420040254200400440004006400040A24300401B
:4007400038B572B6394A137843F00403137000240BE0374863001A19510001440A46098AD068FFF749FF0134E4B20A2CF1D900240CE02F48A20011194B000344B3F85820B3
:40078000596D186DFFF73EFF0134E4B2032CF0D928494FF09040FFF7F7FE0A24264B1C70264A137843F0020313701032137843F002031370224D2B7843F040032B70A2F56A
:4007C0008632513A137843F01003137008221D491D48FFF717FF22461C491D48FFF712FF22461C491C48FFF70DFF22461B491C48FFF708FF08221B491B48FFF703FF1B4A7A
:40080000137843F008031370194C61232370FFF7FDFE812323700122164B1A70FFF7CEFE0E2229461448FFF7EDFE38BDE84600406C1E00008C0000488358004003500140AC
:40084000A0430040D408004802510040DC080048C0510040E808004810510040F4080048205100400009004832510040224300400048004004000840B043004008B500F0E6
:400880006BFE03680C2B00D1FEE7FEE708B5094B1A681044084BC31A802B02DC054B186005E000F059FE0C2303604FF0FF32104608BD00BFCC80FF1F2882FF1F08B5104ED5
:4008C000104D16E029686B68AC68002204E051F8040B43F8040B0432A242F8D1E868002203E0002143F8041B04328242F9D11035013E002EE6D100F035FEFFF73BFDFEE76F
:4009000001000000401F000008B5104A104B1A60104A136843F40073136000230AE0032B03D80D4A52F8231000E00C490C4A42F8231001332F2BF2D90A4B1A780A4B1A7078
:40094000074A0A4B1A60FFF7FBFE08BD0004FA050CED00E014ED00E0000000007D0800000080FF1FBC760040C080FF1F08ED00E07222074B1A70202201331A700622603BEB
:400980001A70472210331A700022B33B1A7070478A65004010B500F0D7FD04460A4A137843F0200313700132137843F010031370A2F20312137843F01003137000F01AFDE1
:4009C000204600F0C5FD10BD9A65004008B5054B1B7823B9FFF7CCFF0122024B1A70FFF7D9FF08BD7081FF1F034B1B7813F0040FFAD1024B187070476864004049640040B3
:400A000038B5074B1B782BB938BDFFF7EDFF0134A4B201E005460024285D0028F5D138BD7081FF1F0222014B1A60704700E100E00122014B1A60704700E100E008B500F067
:400A400083FD0C4A137843F020031370FD32137843F010031370FE3A137843F01003137000F076FD00F0D4FCFFF7DCFFFFF7E0FF08BD00BF9B6400400222014B1A60704700
:400A800080E100E00122014B1A60704780E100E010B5FFF7F1FF064B1C78064A137803F009031C4300231370FFF7BCFF204610BD68650040F081FF1F10B5FFF7E3FF064B37
:400AC0001B78064A147804F040041C4300231370FFF7AEFF204610BD6A6400400182FF1F10B504462B4B1A7802F0FF0312B1013BDBB200E00723284A1278D2B29342F1D00E
:400B0000FFF7BAFF254B1978254A137803F009030B4313701F4B1A78D2B21F4B1B78DBB29A4207D11E4B1B7813F0040F02D01D4B1C702CE0184A13780133DBB213701378DD
:400B4000DBB2072B02D90022134B1A70124B1A78D2B2104B1B78DBB29A420ED10D4A13780133DBB213701378DBB2072B02D90022084B1A7001220C4B1A70074B1B78DBB268
:400B80000A4AD4540A4A137843F004031370FFF749FF10BD0282FF1F0082FF1F68650040F081FF1F4B640040FC81FF1FF481FF1F8865004010B5FFF765FF134B1A78D2B257
:400BC000124B1B78DBB29A4214D0114B1B7813F0FF0F0CD10C4A13780133DBB213701378DBB2072B06D90022074B1A7002E00022074B1A70044B1B78DBB2064AD45CE4B22A
:400C0000FFF716FF204610BDFF81FF1FFD81FF1FFE81FF1F0482FF1F08B501E0094B1B78094B1B7813F0200FF8D1FFF72BFF0023064A1370064A1370064A1370FFF7F8FEEC
:400C400008BD00BF5B6400406A640040FE81FF1FFF81FF1FFD81FF1F08B500F075FC0E4B1A7842F001021A701A7802F0FE021A7000F06EFCFFF700FF0023084A1370084A9D
:400C80001370084A1370084A137803F0FB031370FFF7C8FE08BD00BF9B640040FC81FF1F0282FF1F0082FF1F8865004070B506460C46002506E0705DFFF712FF0135EDB28B
:400CC000013CE4B2002CF6D170BD00BF08B501E00A4B1B780A4B1B7813F0200FF8D100F033FC084B1A7842F001021A701A7802F0FE021A7000F02CFC08BD00BF5B6400406D
:400D00006A6400409B64004010B50F22174B1A70174C022323600721012000F0CBFB1549012000F0B3FB012323600721002000F0C1FB1149002000F0A9FBFFF7C7FF0024D4
:400D40000E4B1C700E4B1C700E4B1C700E4B1C700E4B1C700E4B1C70FFF79AFEFFF7ACFE0C4B1C702022FE3B1A7010BD8B64004080E100E0B50D0000550E0000FE81FF1F00
:400D8000FF81FF1FFD81FF1FFC81FF1F0282FF1F0082FF1F8865004008B5054B1B7823B9FFF7B2FF0122024B1A70FFF747FE08BD7281FF1F28E01F4B19781F4A137803F0D7
:400DC00009030B431370137813F0040F24D01B4B1B7813F0FF0F0CD1194A13780133DBB213701378DBB2072B06D90022144B1A7002E00022114B1A70114B1B78DBB2114A73
:400E0000D35CDBB2104A13700D4B1A78D2B20F4B1B78DBB29A42CED1094B1A78D2B20B4B1B78DBB29A4204D1094A137803F0FB031370704768650040F081FF1FFC81FF1FE5
:400E40000282FF1FF481FF1F4B6400400082FF1F88650040204B1A7820490B7803F0400313430B7032E01E4B1A78D2B21D490B780133DBB20B700B78DBB2072B02D900219D
:400E8000184B1970174B1978C9B2174B1B78DBB299420ED114490B780133DBB20B700B78DBB2072B02D900210F4B197001210F4B19700C4B1B78DBB20D49CA54064B1A788C
:400EC00006490B7803F0400313430B70034B1B7813F0200FC7D170476A6400400182FF1F5B640040FD81FF1FFF81FF1FFE81FF1F0482FF1F044A137803F07F03C001C0B20D
:400F000018431070704700BF10510040044A137803F0EF03000100F01000184310707047205100400822014B1A60704700E100E00422014B1A60704700E100E008B500F044
:400F400003FB0C4A137843F02003137002F20112137843F010031370013A137843F01003137000F0F5FA00F061FAFFF7DBFFFFF7DFFF08BD966400400822014B1A6070475B
:400F800080E100E00422014B1A60704780E100E010B5FFF7F1FF064B1C78064A137803F009031C4300231370FFF7BCFF204610BD676500401B82FF1F10B5FFF7E3FF064B04
:400FC0001B78064A147804F040041C4300231370FFF7AEFF204610BD666500401482FF1F10B504462B4B1A7802F0FF0312B1013BDBB200E00723284A1278D2B29342F1D0F9
:40100000FFF7BAFF254B1978254A137803F009030B4313701F4B1A78D2B21F4B1B78DBB29A4207D11E4B1B7813F0040F02D01D4B1C702CE0184A13780133DBB213701378D8
:40104000DBB2072B02D90022134B1A70124B1A78D2B2104B1B78DBB29A420ED10D4A13780133DBB213701378DBB2072B02D90022084B1A7001220C4B1A70074B1B78DBB263
:401080000A4AD4540A4A137843F004031370FFF749FF10BD1882FF1F1982FF1F676500401B82FF1F466500401782FF1F1C82FF1F8765004010B5FFF765FF134B1A78D2B2B8
:4010C000124B1B78DBB29A4214D0114B1B7813F0FF0F0CD10C4A13780133DBB213701378DBB2072B06D90022074B1A7002E00022074B1A70044B1B78DBB2064AD45CE4B225
:40110000FFF716FF204610BD1A82FF1F1582FF1F1682FF1F0C82FF1F08B501E0094B1B78094B1B7813F0200FF8D1FFF72BFF0023064A1370064A1370064A1370FFF7F8FE91
:4011400008BD00BF56650040666500401682FF1F1A82FF1F1582FF1F08B500F0F5F90E4B1A7842F001021A701A7802F0FE021A7000F0EEF9FFF700FF0023084A1370084A57
:401180001370084A1370084A137803F0FB031370FFF7C8FE08BD00BF966500401782FF1F1882FF1F1982FF1F8765004070B506460C46002506E0705DFFF712FF0135EDB240
:4011C000013CE4B2002CF6D170BD00BF08B501E00A4B1B780A4B1B7813F0200FF8D100F0B3F9084B1A7842F001021A701A7802F0FE021A7000F0ACF908BD00BF5665004072
:40120000666500409665004010B50F22174B1A70174C082323600721032000F04BF91549032000F033F9042323600721022000F041F91149022000F029F9FFF7C7FF0024CD
:401240000E4B1C700E4B1C700E4B1C700E4B1C700E4B1C700E4B1C70FFF79AFEFFF7ACFE0C4B1C702022013B1A7010BD8664004080E100E0B5120000551300001682FF1FDA
:401280001A82FF1F1582FF1F1782FF1F1882FF1F1982FF1F8765004008B5054B1B7823B9FFF7B2FF0122024B1A70FFF747FE08BD7381FF1F28E01F4B19781F4A137803F052
:4012C00009030B431370137813F0040F24D01B4B1B7813F0FF0F0CD1194A13780133DBB213701378DBB2072B06D90022144B1A7002E00022114B1A70114B1B78DBB2114A6E
:40130000D35CDBB2104A13700D4B1A78D2B20F4B1B78DBB29A42CED1094B1A78D2B20B4B1B78DBB29A4204D1094A137803F0FB0313707047676500401B82FF1F1782FF1F99
:401340001882FF1F1C82FF1F466500401982FF1F87650040204B1A7820490B7803F0400313430B7032E01E4B1A78D2B21D490B780133DBB20B700B78DBB2072B02D9002145
:40138000184B1970174B1978C9B2174B1B78DBB299420ED114490B780133DBB20B700B78DBB2072B02D900210F4B197001210F4B19700C4B1B78DBB20D49CA54064B1A7887
:4013C00006490B7803F0400313430B70034B1B7813F0200FC7D17047666500401482FF1F566500401582FF1F1A82FF1F1682FF1F0C82FF1F054A137843F00803137010324A
:40140000137843F008031370704700BFA2430040054A137843F0020313701032137843F002031370704700BFA2430040054A137843F0040313701032137843F004031370EC
:40144000704700BFA243004001BE704710B5044605E0084B186800F06FF8A4F50044B4F5004FF6D8034B586800FB04F000F064F810BD00BFD080FF1F08B5034B1B7A00FBBC
:4014800003F000F059F808BDD080FF1F70B504460E46074B1D681F2802D90020FFF7D4FF04F01F04103455F8240045F8246070BD08ED00E038B504460D46072902D90020DC
:4014C000FFF7C2FF1F2C02D90020FFF7BDFF04F01F0000F1604000F564406D01EDB2057038BD00BF014B1B681865704708ED00E04001C0B2014B1870704700BF04E400E02D
:401500001022014B1A60704700E100E01022014B1A60704780E100E010B50446FFF7F6FF2046FFF7DFFF0720FFF7E2FFFFF7E8FF10BD00BF000000000230800803D000BF64
:4015400001380046FCD17047EFF3108072B6704780F31088704700BF014B1868704700BF4081FF1F0E4B70B51E460E4C0025E41AA410A54204D056F8253098470135F8E710
:4015800000F0CCFC084B094C1E46E41AA4100025A54204D056F8253098470135F8E770BD281F0000281F0000281F0000301F000010B5431E0A44914204D011F8014B03F882
:4015C000014FF8E710BD03460244934202D003F8011BFAE7704700000EB400B54FF402719CB0ADF814106FF00041049107914FF6FF711DAB02900690084853F8042BADF8E7
:401600001610006802A9019300F064F8029B00221A701CB05DF804EB03B070474081FF1F2DE9F0478E6882469E420C46914698463ED88A8912F4906F3AD0256809690223A1
:401640006F1A656905EB450595FBF3F57B1C43449D4238BF1D4653050FD5294600F040FB064698B13A462169FFF7A2FFA38923F4906343F08003A38113E02A4600F08EFB12
:40168000064670B92169504600F0DEFA0C23CAF80030A3894FF0FF3043F04003A381BDE8F08726613E44266046466561ED1BA560464528BF464649463246206800F0A8FA4F
:4016C000A36800209B1BA36023681E442660BDE8F08700002DE9F04F9DB003938B8980461C060D4616460DD50B695BB9402100F0F7FA2860286118B90C23C8F80030CDE03A
:4017000040236B610023099320238DF82930DFF89CB130238DF82A3037463C4614F8013B1BB9B7EB060910D003E0252BF9D02746F3E74B46324629464046FFF771FF0130C0
:4017400000F0A780099B4B4409933B78002B00F0A08000234FF0FF3204930793059206938DF853301A930126052221784E4800F041FA671C049B38B14B4A3C46801A06FA88
:4017800000F018430490EFE7D90644BF20228DF853201A0744BF2B228DF8532022782A2A03D0079A00210A200BE0039A111D12680391002A10DA524243F002000792049074
:4017C0000BE027463B780134303B092B03D800FB02320121F5E701B107923B782E2B1ED17B782A2B0AD1039B02371A1D1B680392002BB8BF4FF0FF33059310E00023194656
:401800000593781C0A2407463A780130303A092A03D804FB01210123F5E703B1059103223978224800F0E6F940B14023CBEB000003FA00F0049B0137184304903978062296
:401840001B487E1C8DF8281000F0D4F988B1194B33B9039B073323F007030833039314E003AB00932A46144B04A94046AFF3008007E003AB00932A460F4B04A9404600F034
:4018800093F8B0F1FF3F824603D0099B5344099342E7AB895B0601D4099801E04FF0FF301DB0BDE8F08F00BFE61E0000EC1E0000F01E000000000000211600002DE9F04779
:4018C00091461F460A698B6806469342B8BF1346C9F8003091F843200C46DDF8208012B10133C9F800302368990642BFD9F800300233C9F80030256815F0060510D104F104
:40190000190A07E00123524639463046C04701301AD00135E368D9F800209B1A9D42F1DB94F843302268003318BF012392060FD5E118302081F843005A1C94F84510224403
:40194000023382F8431003E04FF0FF30BDE8F08704F1430239463046C0470130F4D02268D9F80050E36802F00602042A08BF5D1B2269A3680CBF25EAE57500259342C4BF29
:401980009B1AED184FF000091A344D4509D00123224639463046C0470130D5D009F10109F3E70020BDE8F0872DE9F04317460A7E85B06E2A984606460C460C9B01F1430E93
:4019C00000F0AE8011D8632A22D009D8002A00F0BB80582A40F0CA8081F84520834955E0642A1ED0692A1CD0C0E0732A00F0B08009D86F2A2ED0702A40F0B8800A6842F0DA
:401A000020020A603EE0752A24D0782A3AD0ADE01A6801F14205111D1960136884F84230A8E021681A6811F0800F02D0111D196008E011F0400F02F10401196002D0B2F9A3
:401A4000003000E01368002B3CDA2D225B4284F8432037E021681A6811F0800F02D0111D196007E011F0400F02F10401196001D0138800E01368227E5C496F2A14BF0A2258
:401A800008221BE078225A4984F845202268186812F0800F00F104051D6003D1550601D5038800E00368D00744BF42F0200222601BB9226822F0200222601022002084F864
:401AC000430001E049490A226568002DA56008DB206820F0040020602BB9002D7DD175460CE0002B79D07546B3FBF2F002FB1033CB5C05F8013D03460028F5D1082A0BD15A
:401B00002368DA0708D5236962689A42DEBF302305F8013C05F1FF35C5EB0E0323612EE008681A6810F0800F496903D0101D1860136808E010F0400F02F10400186013683C
:401B400001D0198000E0196000232361754616E01A68111D1960156800216268284600F049F808B1401B6060636804E004F1420584F8422001232361002384F84330CDF8FE
:401B800000803B4603AA21463046FFF797FE013002D14FF0FF3026E023692A4639463046C0470130F5D023689B0710D5002504F1190907E001234A4639463046C047013093
:401BC000E7D00135E368039A9B1A9D42F2DBE068039B9842B8BF184605E00B7804F1420584F842308AE705B0BDE8F083F71E0000081F000010B5C9B202449042034605D098
:401C00001C7801308C42F8D1184610BD002010BD884210B501EB020301D8421E0BE09842FBD28118D21AD34204D013F8014D01F8014DF8E710BD994204D011F8014B02F82D
:401C4000014FF8E710BD000038B50546002944D051F8043C0C1F002BB8BFE41800F0D4F81E4A1368114613B96360146030E0A3420DD92268A018834201BF18685B68121899
:401C8000226063600C6023E0A24203D813465A68002AF9D118681918A1420BD12168014458188242196013D110685268014419605A600DE002D90C232B6009E021686018BD
:401CC000824201BF106852680918216062605C602846BDE8384000F098B838BD7881FF1F70B5CD1C25F0030508350C2D38BF0C25002D064601DBA94202D90C23336046E06B
:401D000000F082F8234B1C681A462146A1B10B685B1B0ED40B2B03D90B60CC18CD501EE08C420BBF63684B681360636018BF0C4615E00C464968E9E7174C23681BB9304672
:401D400000F052F820602946304600F04DF8431C18D0C41C24F00304A0420DD12560304600F053F804F10B00231D20F00700C31A0ED05A42E25070BD211A304600F034F87D
:401D80000130EBD10C233360304600F03EF8002070BD00BF7881FF1F7481FF1FF8B5074615460E4621B91146BDE8F840FFF798BF1AB9FFF749FF2846F8BD00F027F8854294
:401DC0000ED929463846FFF78BFF044650B131462A46FFF7EDFB31463846FFF735FF01E03046F8BD2046F8BD38B5064C0023054608462360FEF74AFD431C02D1236803B10E
:401E00002B6038BD2482FF1F7047704751F8040C0028BEBF091851F8043CC01804387047000000002A2A20454550524F4D2052656164203D202564202564202564200D0A16
:401E4000000000002A2A2A2A2A2A2A2A2A2A2A2A2A2A2A2A2A2A2A2A2A2A2A2A2A2A2A2A2A2A2A2A2A2A2A2A2A0D0A00035B00402443004040000000004F00400C00405188
:401E800000403000F0510040100000000140800A000B01400005001401400002801601408003801A0140800100400140000A004C014000020050014020000000605200403B
:401EC0004C0700480600800A014054070048800000160140D40700488000001A01405408004880004300232D302B2000686C4C0065666745464700303132333435363738D4
:401F000039414243444546003031323334353637383961626364656600000000F8B500BFF8BC08BC9E4670474D00000009090000F8B500BFF8BC08BC9E46704729000000EB
:401F4000501F0000C880FF1F80000000E0000000000000002882FF1F0000E02EC05D00001800000000366E010000000000000000000000000000000000000000000000007C
:401F80000000000000000000E41E0000000000000000000000000000000000000000000000000000000000000000000000000000000000000000000000000000000000001F
:401FC0000000000000000000E080FF1F0000000000000000000000000000000000000000000000000000000000000000000000000000000000000000000000000000000063
:4020000000000000000000000000000000000000000000000000000000000000000000000000000000000000000000000000000000000000000000000000000000000000A0
:402040000000000000000000000000000000000000000000000000000000000000000000000000000000000000000000000000000000000000000000000000000000000060
:402080000000000000000000000000000000000000000000000000000000000000000000000000000000000000000000000000000000000000000000000000000000000020
:4020C00000000000000000000000000000000000000000000000000000000000000000000000000000000000000000000000000000000000000000000000000000000000E0
:020000040003F7
:0200000480007A
:40000000024F00400352004004640040026500400402014005030140050501405E060140400701406308014049090140090A01403A0B0140010D0140071501400B1601401C
:40004000401701404818014048190140221A0140501B01400640014010410140104201400643014002440140074501400A460140014701400848014007490140044C014065
:40008000094D0140065001400251014001400A4B002001401002860F870D880F8B0F8A728B38B908BF04D904DF01232083208C40E001E2408D108E109440E202E61100C0BC
:4000C0000110040205100611086309230A840B0C0C110D030E020F3410A812531310181D19101A221C131D021F1D2013241125212608271A28132D103203341E352036E016
:40010000371F388039203A303B805602572C580459045B045C225D205F018008852087D089948B698D338FC49202950E980D9C0DA555A7AAAA06B008B204B30FB402B5F032
:40014000B601B908BB20BE10C060C103C9FFCAFFCBFFCDA0CF04D018D405D804D904DA04DB04DC15DD55DF01E040E2C0E440E540E6C0E8C0EAC0ECC0EEC0038004190701A0
:4001800008A00B400D220E020F801008171A1A641B801C111D281F20200C22042550268029042D802F2032043690370138A43C103D0A3F80430845404601480858015A4415
:4001C00066016C046D0A6E226F117580770280C088018B4894409620A008A510A808C0F8C2DBC472CA52CCB2CEFED002D204D60BD880E201E601EA01EE060102040E0598D3
:400200000601070209020B981198130214091521160217D819FC1B031D381FC02004219A25132764280C2D9A31E033133407350F36083A203B223E40405041024501460D2F
:400240004702481D49FF4AFF4BFF4DAF4E0F4F0450185401580459045A045B045C115D355F01604062C06440654066C068C06AC06CC06EC08001820285028B028F019A0196
:400280009B029F01AA04AD02B001B402B501B604B702B980BB08BF10C023C106C50CC7BEC831C9FFCAFFCBFFCEF0CF44D00CD804D904DA04DC36DD03DF01E6C0EA40EB0222
:4002C000038004080A080D0810041501171018401A081B801C041D402144230424082508274429802C202D402E0130803110375539A83D093E10422446044A184E225201BD
:4003000053085444560457205C825E205F087E087F048020810882208844914592519320944C974098049B019D019F40A104A202A508A840AA02AE20B184B312C028C222A0
:40034000C452CAD8CCFCCEEED026D214D6F0E220E620130131015440560459045B045C505D105F010408060807400A400B800D2A0E011540160217151D021F502202241033
:40038000254026202C102E012F06310136283701380439083A083B083D803E164418450847024C044D854E08552057076090630A67406D086E156F157602808085028808CB
:4003C0009804B004C070C2F0C4F0CAF0CCE1CEF0D0E0D230D88FE040E0018C109010A804AB02E210E602EC10900196019A01B001BE01D409D604D804DB04DD20DF0105A244
:40040000060407080824092A0D020E200F06142417011A801C011D021F10241826802C442D802E08369037013C103D0A3F864440452A46084C044D0A4E024F015614574089
:4004400059285A805B02604165016610672181018602944099809B019F08A12DA210A502A904B024B410C0D0C2FEC470CAF0CCB0CEF0D0E0D230D60FD8F9E20AEE01063523
:4004800008130AE40EC81403160418131A6C1CCA1E3429012A8032A8340F350136F03AA83F1054095604580459045B045C035D105F018104853F86F3880F893C8AF08B02A5
:4004C0008C218D109008930494639518980499089C429F40A0F3A20CA340A41CA6E3A703A80CA93CAB01ACFFAD27AF18B060B20FB320B48CB51FB61CB740BA28BB20BF4402
:40050000D280D804D904DB04DC33DD50DF010004016004100620070109600A200B400E25100612601604182019321B401C101E051F84211022242301270829902A402B5023
:400540002F08300431243281388239283B405D045E405F1265406780710179027B408740910D9240932495209604970899409A019C809D919E209F08A210A308A480A804A2
:40058000B360B406B718C0E7C2EFC44FCA2FCC0FCE0FD6F0D890E202E820EA80EE40850F9B01A104A309A510A703A90FB306B501B718B988BF14C002C704C9FFCA07CBFFF7
:4005C000CC40CD20CEF0CF05D008D418D604D904DA04DB04DC30DD33DF01E040E1A8E240E32001080204038108040A4411141201184419081B1020012108221124082721B0
:400600002C042FA4310832103610380239143E04400541054720488049805280562457205A085D02674569146A40704071248040854887408C858D40910A920C930D9486E9
:400640009540962299829A019C809D049E249F01A210A380A480A560A680A710AD01AF10B002B104B312B410B580C00FC20EC407CAE0CC26CE47D02FD208D682D8B0E404EF
:40068000EC103002324035883A40CCF0CE100240311036205C02610280018D0896809D889E40A402C010CC30D680D840E28051086001824085028D08900196809C029D90B4
:4006C000A402A502A620D420D640E240E6809D80A402A620A910AC02EE607D20DE010020010857048110A510C00AD402450889088F049908A704B010D001E002E201EE012F
:40070000A5082510800285809D80A402A620C820E2307C8086208C80A620B510DE20E6400B048704A508C2021280700180018E80B508C408DC01E202EC08006E0A260C6A81
:40074000102E1A041C2A00FF013F00000884000040000000044D00000A4D1000564D09000002000D010D0040070238346000001084000000044D800080210402840200386C
:40078000840000407F0000408030080F02000080000050046503400002CEB0DF3BFFFFFF2200F008040000000000022C04040404111100010000C00040011011C001001167
:4007C0004001400100000000000000000000000000000000001B2000001B00000200006032000080011A140130000200321B00003204001A0244308803C4183003A20C440C
:40080000001B00001F0000E02001011E02000080000050104203600005DEFB0C1FFFFFFF2200F00C040000004000040004040404222200010000C00040011011C001001122
:4008400040014001000000000000000000000000000000001C12028D203E0300103E000009001000400000000C24118A10080C700000000000000000400000004000000052
:400880001400000020011F06403800C000000000000001405203040001E00C0006FFFFFF62A0F0410C000000000002120404040433330001000000000000400200103010C0
:4008C000001010120000000000000000000000000000000001626200600000008400408C8C008C00000000008000408B8B0000000000000014000116120002000000000024
:400900000000000000001000250018010000000000000000000000000000000000000000000000000000000000000000000000000000000000000000000000000000000069
:400940000000000000000000000000000000000000000000000000000000000000000000000000000000000000000000000000000000000000000000000000000000000077
:400980000000000000000000000000000000000000000000000000000000000000000000000000000000000000000000000000000000000000000000000000000000000037
:4009C00000000000000000000000000000000000000000000000000000000000000000000000000000000000000000000000000000000000000000000000000000000000F7
:400A000000000000000000000000000000000000000000000000000000000000000000000000000000000000000000000000000000000000000000000000000000000000B6
:0200000490006A
:0400000000004005B7
:0200000490105A
:04000000BC90ACAF55
:0200000490303A
:0200000033B318
:0200000490402A
:4000000000000000000000000000000000000000000000000000000000000000000000000000000000000000000000000000000000000000000000000000000000000000C0
:400040000000000000000000000000000000000000000000000000000000000000000000000000000000000000000000000000000000000000000000000000000000000080
:400080000000000000000000000000000000000000000000000000000000000000000000000000000000000000000000000000000000000000000000000000000000000040
:4000C0000000000000000000000000000000000000000000000000000000000000000000000000000000000000000000000000000000000000000000000000000000000000
:0200000490501A
:0C00000000012E16106900012E24441C83
:00000001FF