:400000000080002011000000911200009112000008B5044B1A6803F53F5302331A6001F057F900BFFA46004010B5054C237833B9044B13B10448AFF300800123237010BDE0
:400040004881FF1F00000000FC3F0000084B10B51BB108490848AFF300800848036803B910BD074B002BFBD0BDE81040184700BF000000004C81FF1FFC3F0000C880FF1F8C
:400080000000000038B501F0B9F9BE4B18703F2809D1BD4801F0F2F9BC4801F0EFF9BC4801F0ECF938BD662802D0462840F0BE80B84801F0E3F9B84801F0E0F909E00A206B
:4000C00002F03CFCB54A136801331360B3F57A7F03DA01F0A9F90028F1D0B04B1B68B3F57A7F03DB3522A74B1A7003E001F086F9A44B18700022A94B1A6001F0A1F9A14B1A
:400100001B78313B042B00F28D80DFE803F0032445668700232000F0FDFAA04B1871802804D080211971232000F008FB9B4C042565712179012000F02FFC00F089FC6179F9
:40014000284600F029FC00F083FC954801F096F900F0ECFE38BD232000F0DCFA8F4B1871902804D090211971232000F0E7FA8B4C082363712179012000F00EFC00F068FC3B
:400180006179042000F008FC00F062FC854801F075F900F0CBFE38BD232000F0BBFA7F4B1871A02804D0A0211971232000F0C6FA7A4C102363712179012000F0EDFB00F0C0
:4001C00047FC6179042000F0E7FB00F041FC764801F054F900F0AAFE38BD232000F09AFA6E4B1871B02804D0B0211971232000F0A5FA6A4C302363712179012000F0CCFB05
:4002000000F026FC6179042000F0C6FB00F020FC664801F033F900F089FE38BD644801F02DF938BD634801F029F938BD702802D0502840F0D180604801F020F95F4801F0A2
:400240001DF909E00A2002F079FB544A136801331360B3F57A7F03DA01F0E6F80028F1D04E4B1B68B3F57A7F03DB3522454B1A7003E001F0C3F8434B18700022474B1A601A
:4002800001F0DEF83F4B1B78313B042B00F2A080DFE803F003203C587400202000F03AFA3E4B1871172804D017211971202000F045FA3A4B1979002000F06EFB00F0C8FBCB
:4002C0004FF47A7001F034FE3D4801F0D7F800F02DFE38BD202000F01DFA304B1871272804D027211971202000F028FA2B4B1979002000F051FB00F0ABFB642001F018FE42
:40030000304801F0BBF800F011FE38BD202000F001FA224B1871372804D037211971202000F00CFA1D4B1979002000F035FB00F08FFB254801F0A2F8282001F0F9FD00F076
:40034000F5FD38BD202000F0E5F9144B1871472804D047211971202000F0F0F90F4B1979002000F019FB00F073FB184801F086F8142001F0DDFD00F0D9FD38BD0C4801F016
:400380007DF838BDB481FF1F0040000034400000B4400000E8400000544200006481FF1F584100006C4100008041000094410000A8410000B4410000D44100004C420000BA
:4003C00090420000A4420000B8420000CC420000754801F053F838BD742801D0542852D1724801F04BF8724801F048F809E00A2002F0A4FA6F4A136801331360B3F57A7F4B
:4004000003DA01F011F80028F1D06A4B1B68B3F57A7F03DB3322684B1A7003E000F0EEFF654B18700022634B1A6001F009F8624B1B78322B11D0332B1DD0312B1FD1002149
:400440005E4B1970032000F0A7FA00F001FB5C4801F014F800F06AFD38BD0121574B1970032000F099FA00F0F3FA564801F006F800F05CFD38BD544801F000F838BD4A4816
:4004800000F0FCFF38BD622801D042281DD14F4B1B68012B06D14E4800F0F0FF444800F0EDFF0FE073B90124484B1C60494800F0E5FF3F4800F0E2FF2146022000F06CFAC1
:4004C00000F0C6FA00F0BCFF38BD732801D0532822D13E4B1B6833B93F4800F0CFFF344800F0CCFF15E0012B13D10024374B1C6040F2E731084600F0F5FC384800F0BEFF91
:400500002B4800F0BBFF2146022000F045FA00F09FFA00F095FF38BD762801D0562828D12A4B1B684BB92E4800F0A8FF204800F0A5FF01222B4B1A6018E0012B0CD10022C3
:40054000224B1A60264800F099FF194800F096FF0122244B1A6009E0224B1B68012B05D1214800F08BFF124800F088FF00F068FF38BD752801D0552815D11A4B1B68012BEC
:400580000BD10020174B186002F054F8174800F075FF074800F072FF03E013B9144800F06DFF00F04DFF38BDB4410000E04200004C4200006481FF1FB481FF1FB081FF1FD2
:4005C0003C43000058430000A84100009C81FF1F78430000B0430000E04300001844000048440000A081FF1F7C440000B8440000EC44000010B501F095FC01F063FC304BC7
:400600001860002801DA00221A602D4B1B68B3F5803F03DB4FF6FF72294B1A60284B186801F03EFC274B1860274B1B78BBB9A0F5FA70A3F1993383FB0023C017C0EBA30019
:4006400002F0AEFE214B1860214B1C68214902F0FBFE03F049F8204B23F8140022E0012B20D1A0F5FA7003F1663383FB0023C017C0EBA30002F094FE184902F0E5FE184959
:4006800002F096FF4FF0844102F0D6FD0F4B18600F4B1C680F4902F0D7FE03F025F80E4B23F814000A4A1368013313600A2B05D101220C4B1A700022054B1A6010BD00BF86
:4006C000BC81FF1FD481FF1FB081FF1F6C81FF1FB881FF1F0000C842C081FF1F000010410000A040AD81FF1F08B5054A938801339BB29380012B02D9024800F0BFFE08BD17
:400700006C81FF1F044500000122014B1A607047DC81FF1F00B583B060F07F008DF8040002AA002302F8053D0123194601A800F0B3F89DF8030003B05DF804FB00B583B0B1
:400740008DF804008DF80510002302AA02F8053D022101A800F0A0F803B05DF804FB00BF00B583B060F03F0302A800F8043D13460A46012100F090F803B05DF804FB00BFCB
:4007800010B50446002001F013F9204600F0FAFE00F0D0FE10F0080FFAD000F05DFF0446012001F005F9204610BD00BF10B50446002001F0FDF8204600F0E4FE002000F02B
:4007C000E1FE00F0B7FE10F0010FFAD000F044FF00F042FF0446012001F0EAF8204610BD2DE9F04383B006460C4617469846002001F0DEF864B2002511E02146082CA8BF5C
:400800000821C9B206EBC50000F0A2FF00F092FE10F0010FFAD0083C64B201356DB2002CEBDC00F0A5FF00F049FF0026009601964FFA88F820E0C146B8F1080FA8BF4FF07C
:4008400008095FFA89F1684600F082FF00F072FE10F0010FFAD0002406E004EBC60500F0FBFE78550134E4B24C45F6DBA8F108084FFA88F8013676B2B8F1000FDBDC012033
:4008800001F096F800F074FF00F018FF00F036FF03B0BDE8F08300BF2DE9F04383B006460C4617469846002001F076F864B2002511E02146082CA8BF0821C9B206EBC50044
:4008C00001F092FD01F082FC10F0010FFAD0083C64B201356DB2002CEBDC01F095FD01F039FD0026009601964FFA88F820E0C146B8F1080FA8BF4FF008095FFA89F16846C8
:4009000001F072FD01F062FC10F0010FFAD0002406E004EBC60501F0EBFC78550134E4B24C45F6DBA8F108084FFA88F8013676B2B8F1000FDBDC012001F02EF801F064FDCE
:4009400001F008FD01F026FD03B0BDE8F08300BF08B50520FFF72AFF08BD00BF08B50620FFF70EFF08BD00BF00B583B003218DF80410030A8DF805308DF8060002AA00232E
:4009800002F8053D012301A8FFF72AFF9DF8030003B05DF804FB00BF30B583B004460D46FFF7DCFF02238DF80430230A8DF805308DF806408DF80750002302AA02F8053DB4
:4009C00004210DEB0100FFF70BFF03B030BD00BF10B582B003248DF80440030A8DF805308DF8060013460A46214601A8FFF7F8FE02B010BD2DE9F04182B000AF05468846DC
:400A00001446FFF7ABFF012001F0AEFFE61C04F10A0323F00703ADEB030D02238DF800302B0A8DF801308DF80250224641460DF1030002F0ABFE002307F1080202F8013DB0
:400A4000F1B26846FFF7CCFE0837BD46BDE8F08108B5FFF77DFF10F0010FFAD108BD00BF2DE9F04FC1B062B600F0BAFC01F09EFA01F0A4F900F0E2FE01F02EFD00F02EFAE0
:400A8000AF4801F0FDFDAF4801F0BEFA052001F055FFAD4800F0B2FFAC4801F051FB0020FFF762FF01462020FFF748FE0120FFF75BFF01462320FFF741FE0320FFF754FFAD
:400AC000034610B90021A24A1170012B02D101229F4B1A700220FFF747FF012802D101229C4B1A6010B900229A4B1A600420FFF73BFF994B18702220FFF70CFE062803D095
:400B000004212220FFF71AFE2420FFF703FE402803D040212420FFF711FE2E20FFF7FAFD8E4B18704A2804D04A2119702E20FFF705FEA0238DF83C30C0238DF84B3001F07B
:400B400051F9874800F09AFC864800F097FC864800F094FC4FF0000BCDF82CB0D9467D4B1B68012B40F0E680804B1B68012B40F0E18040F22223994500F3DC8040F2F3113B
:400B800040F2E73000F0AEF93C2231A92820FFF7E7FD00231F469A460793CDF830B0CDF83490B2E040AB534413F83C2C0AF1010340A90B4413F83C6C42EA062343F3891333
:400BC00008930AF102030B4413F83C3C0AF1030140A8014411F83C4C43EA042141F3891109910AF10401014411F83C1C0AF1050040AD284410F83C0C41EA002E4EF389158A
:400C00000A950DF5807E0EEB070B4FEA960E0BF878EC07F101090DF5807EF144920842EA141242EA861609F8786C07F10208F0441B0943EA901343EA041408F8784CFE1CA9
:400C40007644890941EA800006F8780C0B98079D44190A34A4B2062222A8C1192046FFF7C9FEFFF7F5FE062213A8C1192046FFF7AFFE19F8B42C1BF8B41C890241EA820118
:400C800041F3891118F8B43C120342EA031242F3891216F8B40C9B0343EA80103B1D40AC234413F8B44C7B1D40AE334413F8B43C1B021BB2234306373FB20635ACB20794B7
:400CC0002B4C2C4E86FB03E6DB17C3EB66131BB2049340F30B10039092000292890001910A9DAB00009309998B00089A92002249204602F05FFD204600F0C0FB1F4800F02D
:400D0000BDFB0AF1060A0FFA8AFABAF13B0F7FF749AFDDF830B0DDF8349000F0EBF80023174A13700B9A3C3292B20B9209F101090E4A1360134B1B68012B7FF410AFB4E042
:400D400009070000F505000085000000E9060000B081FF1F9C81FF1F6981FF1FA481FF1F0040000034400000B4400000DC81FF1FE481FF1F1F85EB510C450000684200009F
:400D8000AD81FF1FA081FF1F0BF10A00062213A980B2FFF71DFE012001F04CFC9DF84D409DF84C00800240EA840040F38910800001F074FF44A3D3E9002301F0D5FF44A3CC
:400DC000D3E9002301F0D0FF02F0E0F9424902F03BFB02F089FC8DF83D00C0F307238DF83E30C0F307438DF83F30000E8DF840009DF84E50200340EA051040F38910800028
:400E000001F04CFF30A3D3E9002301F0ADFF30A3D3E9002301F0A8FF02F0B8F92E4902F013FB02F061FC8DF84100C0F307238DF84230C0F307438DF84330000E8DF844000E
:400E40009DF84F00AD0345EA801040F30B1001F025FF1DA3D3E9002301F086FF1CA3D3E9002301F081FF02F091F91B4902F0ECFA02F03AFC8DF84500C0F307238DF8463016
:400E8000C0F307438DF84730000E8DF848009DF850308DF849309DF851308DF84A3010210FA800F0FDFA063600E00026C9EB091293009E42FFF668AF0BF106031FFA83FB3B
:400EC0004DE600BFAFF30080E9263108AC9C2340FCA9F1D24D62503F0000C84208B501F007F908BD10B50C4601F0AAF8204601F0ADF810BD08B52E20FFF70CFC0A4B18706F
:400F000020B1002119702E20FFF718FC2E20FFF701FC054B18704A2804D04A2119702E20FFF70CFC08BD00BFA481FF1F08B50023074A1380074A1380074A1380074B1B6817
:400F4000012B02D10022054B1A60FFF7D3FF08BDAE81FF1F9881FF1FB281FF1FA081FF1FFEE700BFF0B40022174611E050F82760F3B226F0FF0608E001EB420511F8124028
:400F80006D78A5550132013BDBB2002BF4D10137232FEBD9F0BC70470B4B1B78DBB203F007010A4A11701B09013213701023A2F23272137002F6C3121370583213704422E4
:400FC000034B1A70704700BFCF0100496E5800407658004008B50A46002102F0E2FB08BD08B502F0D3FB08BD38B500243B4B1C80502202331A700B2202331A801823384956
:401000000B7002310A80374A13703321023211800232137045F6BF5233490A8002310B7002310A80314A137047F22F52304B1A80192502331D7004222E492F48FFF7D0FF41
:4010400002222E4B1A7008224FF040231A70032103F5007319702A4B1B78DBB229490B70294B1A8041F25122023B1A800CE0274B1B7803F0010343EA440404F003044FF433
:40108000F07001F0A9FC013D0DB1032CEFD115B90320FFF765FF1E4B4FF480721A8007221A7000221B490A704820023108701A700222033B1A7004220A331A70164A1378B8
:4010C00043F07F031370013A137843F001031370013A137843F08003137038BD80400040864000408A4000409040004096400040984000404C090048004100400043004055
:4011000008010049A146004022420040254200400440004006400040A2430040012807D8044B53F820201844017A13780B431370704700BF38450000012808D8044B53F811
:4011400020201844017A137823EA0103137070473845000038B572B6394A137843F00403137000240BE0374863001A19510001440A46098AD068FFF72DFF0134E4B2092C2E
:40118000F1D900240CE02F48A20011194B000344B3F85020D96C986CFFF722FF0134E4B2022CF0D928494FF09040FFF7DBFE0A24264B1C70264A137843F0020313701032D1
:4011C000137843F002031370224D2B7843F040032B70A2F58632513A137843F01003137008221D491D48FFF7FBFE22461C491D48FFF7F6FE22461C491C48FFF7F1FE2246DA
:401200001B491C48FFF7ECFE08221B491B48FFF7E7FE1B4A137843F008031370194C61232370FFF7E1FE812323700122164B1A70FFF7B2FE0E2229461448FFF7D1FE38BD98
:40124000E846004038450000900000488358004003500140A0430040180900480251004020090048C05100402C09004810510040380900482051004044090048325100406B
:40128000224300400048004004000840B043004008B502F04FFA03680C2B00D1FEE7FEE708B5094B1A681044084BC31A802B02DC054B186005E002F03DFA0C2303604FF006
:4012C000FF32104608BD00BFCC80FF1F8882FF1F08B5104E104D16E029686B68AC68002204E051F8040B43F8040B0432A242F8D1E868002203E0002143F8041B0432824216
:40130000F9D11035013E002EE6D102F019FAFFF7A7FBFEE701000000F845000008B5104A104B1A60104A136843F40073136000230AE0032B03D80D4A52F8231000E00C49BD
:401340000C4A42F8231001332F2BF2D90A4B1A780A4B1A70074A0A4B1A60FFF7FBFE08BD0004FA050CED00E014ED00E000000000911200000080FF1FBC760040C080FF1FE9
:4013800008ED00E07222074B1A702022FF3B1A7006229E331A70472210331A700022B03B1A7070478965004010B501F01DFB04460A4A137843F020031370FF3A137843F0E6
:4013C00010031370023A137843F01003137001F065F9204601F00CFB10BD00BF9965004008B5054B1B7823B9FFF7CCFF0122024B1A70FFF7D9FF08BD7981FF1F084B1B7888
:40140000DBB213F0200F06D0064A1078C0B213F01E0F02D17047002070470020704700BF6A6400404A650040044B1B7813F0200F01D0012070470020704700BF6A64004048
:4014400008B501F0D1FA064B1A7842F001021A701A7802F0FE021A7001F0CAFA08BD00BF9A650040034B1B7813F0040FFAD1024B18707047686400404B65004038B5074B42
:401480001B782BB938BDFFF7EDFF0134A4B201E005460024285D0028F5D138BD7981FF1F084B1B7833B97047305DFFF7DBFF0134E4B203E070B50D4606460024AC42F3D353
:4014C00070BD00BF7981FF1F0222014B1A60704700E100E00122014B1A60704700E100E008B501F081FA0C4A137843F020031370FF32137843F0100313700132137843F0CC
:401500001003137001F074FA01F0D6F8FFF7DCFFFFF7E0FF08BD00BF9B6400400222014B1A60704780E100E00122014B1A60704780E100E010B5FFF7F1FF064B1C78064AEB
:40154000137803F009031C4300231370FFF7BCFF204610BD6A6500404882FF1F10B5FFF7E3FF064B1B78064A147804F040041C4300231370FFF7AEFF204610BD6B65004081
:401580005982FF1F10B504462B4B1A7802F0FF0312B1013BDBB200E00723284A1278D2B29342F1D0FFF7BAFF254B1978254A137803F009030B4313701F4B1A78D2B21F4B17
:4015C0001B78DBB29A4207D11E4B1B7813F0040F02D01D4B1C702CE0184A13780133DBB213701378DBB2072B02D90022134B1A70124B1A78D2B2104B1B78DBB29A420ED12A
:401600000D4A13780133DBB213701378DBB2072B02D90022084B1A7001220C4B1A70074B1B78DBB20A4AD4540A4A137843F004031370FFF749FF10BD5A82FF1F5882FF1FD5
:401640006A6500404882FF1F4A6400405482FF1F4C82FF1F8A65004010B5FFF765FF134B1A78D2B2124B1B78DBB29A4214D0114B1B7813F0FF0F0CD10C4A13780133DBB227
:4016800013701378DBB2072B06D90022074B1A7002E00022074B1A70044B1B78DBB2064AD45CE4B2FFF716FF204610BD5782FF1F5582FF1F5682FF1F5C82FF1F08B501E061
:4016C000094B1B78094B1B7813F0200FF8D1FFF72BFF0023064A1370064A1370064A1370FFF7F8FE08BD00BF5A6400406B6500405682FF1F5782FF1F5582FF1F08B501F057
:4017000073F90E4B1A7842F001021A701A7802F0FE021A7001F06CF9FFF700FF0023084A1370084A1370084A1370084A137803F0FB031370FFF7C8FE08BD00BF9A640040C9
:401740005482FF1F5A82FF1F5882FF1F8A65004070B506460C46002506E0705DFFF712FF0135EDB2013CE4B2002CF6D170BD00BF08B501E00A4B1B780A4B1B7813F0200F8B
:40178000F8D101F031F9084B1A7842F001021A701A7802F0FE021A7001F02AF908BD00BF5A6400406B6500409A64004010B50F22174B1A70174C022323600621012001F089
:4017C000F1F81549012001F0D9F8012323600621002001F0E7F81149002001F0CFF8FFF7C7FF00240E4B1C700E4B1C700E4B1C700E4B1C700E4B1C700E4B1C70FFF79AFE03
:40180000FFF7ACFE0C4B1C70202201331A7010BD8B64004080E100E059180000F91800005682FF1F5782FF1F5582FF1F5482FF1F5A82FF1F5882FF1F8A65004008B5054B62
:401840001B7823B9FFF7B2FF0122024B1A70FFF747FE08BD7B81FF1F28E01F4B19781F4A137803F009030B431370137813F0040F24D01B4B1B7813F0FF0F0CD1194A13780D
:401880000133DBB213701378DBB2072B06D90022144B1A7002E00022114B1A70114B1B78DBB2114AD35CDBB2104A13700D4B1A78D2B20F4B1B78DBB29A42CED1094B1A780D
:4018C000D2B20B4B1B78DBB29A4204D1094A137803F0FB03137070476A6500404882FF1F5482FF1F5A82FF1F4C82FF1F4A6400405882FF1F8A650040204B1A7820490B7865
:4019000003F0400313430B7032E01E4B1A78D2B21D490B780133DBB20B700B78DBB2072B02D90021184B1970174B1978C9B2174B1B78DBB299420ED114490B780133DBB275
:401940000B700B78DBB2072B02D900210F4B197001210F4B19700C4B1B78DBB20D49CA54064B1A7806490B7803F0400313430B70034B1B7813F0200FC7D170476B650040AD
:401980005982FF1F5A6400405582FF1F5782FF1F5682FF1F5C82FF1F044A137803F07F03C001C0B218431070704700BF10510040044A137803F0EF03000100F010001843C5
:4019C0001070704720510040014B1B689865704708ED00E04001C0B2014B1870704700BF06E400E04022014B1A60704700E100E04022014B1A60704780E100E010B5044611
:401A0000FFF7F6FF2046FFF7DFFF0720FFF7E2FFFFF7E8FF10BD00BF10B59DF80840012C51D1013809282ED8DFE800F0052D2D052D2D0F192D230F2B03D92548007840B2DF
:401A400022E02448007840B21EE00F2B03D92248007840B218E02148007840B214E00F2B03D91F48007840B20EE01E48007840B20AE00F2B03D91C48007840B204E01B482D
:401A8000007840B200E0002001EB401101FB02F1C90B8AB20D2B0BD8C3F10E0289B211418AB2611E124800EB810101338B7005E0631E0F4901EB83030F219970013C0C4B66
:401AC00023F8242010BD002000F036FF10BD00BF180100491C010049190100491D0100491A0100491E0100491B0100491F0100497C81FF1FF8B5074600F076FF06460D4D9D
:401B00002B7843F003032B700B4C237843F0030323700A4B1F70032000F026FF2B7803F0FC032B70237803F0FC032370304600F05FFFF8BDF8460040F94600409258004064
:401B40000022324B1A7101285FD170B53822304B1A70042202331A70062201331A70002401331C7001331C703F2201331A7002331C7001331C7001331C7001250A331D709F
:401B8000502203F527631A700A2201331A702C2201331A7001331C70442203331A70482201331A7001331D7002331D70112201331A70192201331A70972201331A7052204D
:401BC000FFF798FF5822134B1A7001331C70052605331E70022201331A7001331C7001331C70204600F086FD43F233320A4B1A602946304600F0A2FD2946252000F022FE69
:401C000006491D2000F0BAFE70BD70477C81FF1F004E0040945800406482FF1FED1E0000F0B583B0284D01272F70284E00247471102000F071FD102000F0F2FD06211D2014
:401C400000F0B0FE0422224B1A7001331C7007331C70204A137843F0180313701E4B1C7003F2F5231C7001331C700A22A3F209331A7001331C7002331C705B2205331A70C8
:401C80005E2201331A7004331C701422A3F68C231A70009710234FF4004248F6F0510220FFF7BAFE2B78013B06EB83039A780B4B1A702B78013B36F82320094B1A80287857
:401CC000FFF73EFF03B0F0BDD080FF1F7C81FF1F96580040075B0040935800400E4E00400C4E004070B500F07FFE06462A4B1B782A4B1A7842F001021A701A7842F0100215
:401D00001A7010331A7842F001021A701A7842F010021A70224D2B7843F002032B70214C237843F0020323701F4A137843F003031370032000F018FE2B7803F0FD032B7063
:401D4000237803F0FD032370184A137843F0060313707A22164B1A70164A137843F0010313701032137843F0010313700F3A137843F0010313701032137843F001031370CE
:401D80004FF000530C4A1360A2F5C0721360304600F02EFE70BD00BFD080FF1FAA430040F8460040F9460040915800407758004082580040A143004080E200E008B5084BAE
:401DC0009B794BB9064BDB7913F0FF0F01D1FFF727FF0122024B9A71FFF784FF08BD00BF7C81FF1F024A137843F0010313707047004E0040024A137803F0FE0313707047B9
:401E0000004E0040094B1B7913F0FF0F03D0074B5B79DBB203E0064B1B7803F00103012B01D00028EED01846704700BF7C81FF1F014E0040154B1B7803F00303012B07D87F
:401E4000134B1888023B1B889BB243EA004013E0022B0AD10E4B1888023B1B7843EA00430C4A107843EA002006E00B4B188883B2074A108843EA0040084B1B7913F0FF0F0C
:401E800002D00022054B5A71704700BF144E0040124E0040114E0040104E00407C81FF1F064B9B68C01A4FF47A7303FB00F0044B1B6890FBF3F000B2704700BF7C81FF1F34
:401EC0006482FF1F10B5084A137843F004031370FFF788FF0020FFF795FFFFF7ABFF0446FFF788FF204610BD014E0040704700BF084A137843F0010313701032137843F022
:401F00000103137002F64D32137843F001031370704700BFA3430040014B1870704700BF034F0040014B1878704700BF034F0040014B1880704700BF044F0040014B188031
:401F4000704700BF064F004008B5154A137803F0010313700232137803F0FC031370114B1A7802F0CF021A701A7842F030021A701A7802F0F0021A701A7842F00F021A70E7
:401F8000094A137843F0010313705E20FFF7D0FF5E20FFF7D3FF0820FFF7BEFF08BD00BF004F00400B4F0040014F004008B5054B1B7823B9FFF7C8FF0122024B1A70FFF7BF
:401FC00097FF08BD8881FF1F024B1B68C3F88400704700BF08ED00E04001C0B2014B1870704700BF11E400E04FF40032014B1A60704700BF00E100E04FF40032014B1A6086
:40200000704700BF80E100E010B50446FFF7F4FF2046FFF7D9FF0520FFF7DEFFFFF7E4FF10BD00BF024A137843F080031370704778650040014B1880704700BF0E6800406C
:40204000014B1880704700BF8E680040014B1880704700BF4E680040014B1870704700BF87640040014B1878704700BF67640040014B188880B27047AE68004008B501E0E5
:40208000FFF7F6FFFFF7EEFF10F0100FF8D108BD10B5154A137803F0C00343F00B031370124C237843F001032370E03A137843F00103137040F2E730FFF7BCFF40F2E73017
:4020C000FFF7BEFF0020FFF7C1FF0020FFF7C4FF00F08AFC237843F01003237000F088FCFFF7CCFF10BD00BF786500409764004008B5054B1B7823B9FFF7CAFF0122024BD0
:402100001A70FFF78FFF08BD8981FF1F014B1B685865704708ED00E04001C0B2014B1870704700BF05E400E02022014B1A60704700E100E02022014B1A60704780E100E046
:4021400010B50446FFF7F6FF2046FFF7DFFF0620FFF7E2FFFFF7E8FF10BD00BF0822014B1A60704700E100E00422014B1A60704700E100E008B500F037FC0D4A137843F004
:4021800020031370A2F58072137843F01003137002F20112137843F01003137000F028FC00F0BCFBFFF7DAFFFFF7DEFF08BD00BF966500400822014B1A60704780E100E03D
:4021C0000422014B1A60704780E100E010B5FFF7F1FF064B1C78064A137803F009031C4300231370FFF7BAFF204610BD666400407782FF1F10B5FFF7E3FF064B1B78064AB8
:40220000147804F040041C4300231370FFF7ACFF204610BD676500407082FF1F10B504462B4B1A7802F0FF0312B1013BDBB200E00723284A1278D2B29342F1D0FFF7BAFF7F
:40224000254B1978254A137803F009030B4313701F4B1A78D2B21F4B1B78DBB29A4207D11E4B1B7813F0040F02D01D4B1C702CE0184A13780133DBB213701378DBB2072B76
:4022800002D90022134B1A70124B1A78D2B2104B1B78DBB29A420ED10D4A13780133DBB213701378DBB2072B02D90022084B1A7001220C4B1A70074B1B78DBB20A4AD45454
:4022C0000A4A137843F004031370FFF747FF10BD7482FF1F7582FF1F666400407782FF1F466500407382FF1F7882FF1F8664004010B5FFF765FF134B1A78D2B2124B1B782C
:40230000DBB29A4214D0114B1B7813F0FF0F0CD10C4A13780133DBB213701378DBB2072B06D90022074B1A7002E00022074B1A70044B1B78DBB2064AD45CE4B2FFF714FFB9
:40234000204610BD7682FF1F7182FF1F7282FF1F6882FF1F08B501E0094B1B78094B1B7813F0200FF8D1FFF72BFF0023064A1370064A1370064A1370FFF7F6FE08BD00BF58
:4023800056650040676500407282FF1F7682FF1F7182FF1F08B500F027FB0E4B1A7842F001021A701A7802F0FE021A7000F020FBFFF700FF0023084A1370084A1370084A37
:4023C0001370084A137803F0FB031370FFF7C6FE08BD00BF966500407382FF1F7482FF1F7582FF1F8664004070B506460C46002506E0705DFFF712FF0135EDB2013CE4B2E0
:40240000002CF6D170BD00BF08B501E00A4B1B780A4B1B7813F0200FF8D100F0E5FA084B1A7842F001021A701A7802F0FE021A7000F0DEFA08BD00BF566500406765004080
:402440009665004010B50F22184B1A70184C082323600621032000F0A5FA1649032000F08DFA042323600621022000F09BFA1249022000F083FAFFF7C7FF00240F4B1C7032
:402480000F4B1C700F4B1C700F4B1C700F4B1C700F4B1C70FFF79AFEFFF7ACFE0D4B1C70202203F201131A7010BD00BF8665004080E100E0F5240000952500007282FF1FDA
:4024C0007682FF1F7182FF1F7382FF1F7482FF1F7582FF1F8664004008B5054B1B7823B9FFF7B0FF0122024B1A70FFF743FE08BD8A81FF1F28E01F4B19781F4A137803F025
:4025000009030B431370137813F0040F24D01B4B1B7813F0FF0F0CD1194A13780133DBB213701378DBB2072B06D90022144B1A7002E00022114B1A70114B1B78DBB2114A1B
:40254000D35CDBB2104A13700D4B1A78D2B20F4B1B78DBB29A42CED1094B1A78D2B20B4B1B78DBB29A4204D1094A137803F0FB0313707047666400407782FF1F7382FF1F91
:402580007482FF1F7882FF1F466500407582FF1F86640040204B1A7820490B7803F0400313430B7032E01E4B1A78D2B21D490B780133DBB20B700B78DBB2072B02D90021E1
:4025C000184B1970174B1978C9B2174B1B78DBB299420ED114490B780133DBB20B700B78DBB2072B02D900210F4B197001210F4B19700C4B1B78DBB20D49CA54064B1A7835
:4026000006490B7803F0400313430B70034B1B7813F0200FC7D17047676500407082FF1F566500407182FF1F7682FF1F7282FF1F6882FF1F044A137803F0FE0300F0010049
:4026400018431070704700BF30510040014B1B681865704708ED00E04001C0B2014B1870704700BF04E400E01022014B1A60704700E100E01022014B1A60704780E100E04B
:4026800010B50446FFF7F6FF2046FFF7DFFF0620FFF7E2FFFFF7E8FF10BD00BF054A137843F0080313701032137843F008031370704700BFA2430040054A137843F00203AA
:4026C00013701032137843F002031370704700BFA243004010B5002404E02046FEF72CFD0134E4B2012CF8D9FF22014B1A7010BDD180FF1F10B50446FFF7ECFF2046FEF79C
:402700000DFD014B1C7010BDD180FF1F014B188880B2704780400040034B1A7800F0F80010431870704700BF82400040024B187800F00700704700BF8240004070B50546CF
:402740000E46FFF7F3FF0446FFF7E0FFA84256D02B4B1B7803F0010294B900B185B938B9284B1D80284A137803F0BF03137070BD254A137843F040031370224B1D8070BD26
:4027800022B3002321490B7001240F310C7004310B700C390B7803F07F030B701A4B1B7813F0080F00D08DB9194B18800721013B1970164B1B7813F0010FFAD110490B7834
:4027C00003F0FE030B700021104B19700C4B1B7813F0010F0DD00E4B1D800EB1032200E001220A4B1A70094B1B7813F0010FFAD170BD044B1D8002490B7813430B7070BD25
:40280000A243004080400040824000400140004002400040014B188880B2704700410040034B1A7800F0F80010431870704700BF02410040024B187800F00700704700BF32
:402840000241004070B505460E46FFF7F3FF0446FFF7E0FFA84256D02B4B1B7803F0010294B900B185B938B9284B1D80284A137803F0BF03137070BD254A137843F04003EC
:402880001370224B1D8070BD22B3002321490B70012413310C7004390B7008390B7803F07F030B701A4B1B7813F0080F00D08DB9194B18800721013B1970164B1B7813F028
:4028C000010FFAD110490B7803F0FE030B700021104B19700C4B1B7813F0010F0DD00E4B1D800EB1032200E001220A4B1A70094B1B7813F0010FFAD170BD044B1D800249EE
:402900000B7813430B7070BDA143004000410040024100400140004002400040054A137843F0040313701032137843F004031370704700BFA243004001BE704710B50446AA
:4029400005E0084B186800F047F8A4F50044B4F5004FF6D8034B586800FB04F000F03CF810BD00BFD480FF1F08B5034B1B7A00FB03F000F031F808BDD480FF1F70B5044661
:402980000E46074B1D681F2802D90020FFF7D4FF04F01F04103455F8240045F8246070BD08ED00E038B504460D46072902D90020FFF7C2FF1F2C02D90020FFF7BDFF04F0FA
:4029C0001F0000F1604000F564406D01EDB2057038BD00BF000000000230800803D000BF01380046FCD17047EFF3108072B6704780F31088704700BF81F0004102E000BFE4
:402A000083F0004330B54FEA41044FEA430594EA050F08BF90EA020F1FBF54EA000C55EA020C7FEA645C7FEA655C00F0E2804FEA5454D4EB5555B8BF6D420CDD2C4480EACB
:402A4000020281EA030382EA000083EA010180EA020281EA0303362D88BF30BD11F0004F4FEA01314FF4801C4CEA113102D0404261EB410113F0004F4FEA03334CEA13335F
:402A800002D0524263EB430394EA050F00F0A780A4F10104D5F1200E0DDB02FA0EFC22FA05F2801841F1000103FA0EF2801843FA05F359410EE0A5F120050EF1200E012AB4
:402AC00003FA0EFC28BF4CF0020C43FA05F3C01851EBE37101F0004507D54FF0000EDCF1000C7EEB00006EEB0101B1F5801F1BD3B1F5001F0CD349085FEA30004FEA3C0CE3
:402B000004F101044FEA445212F5800F80F09A80BCF1004F08BF5FEA500C50F1000041EB045141EA050130BD5FEA4C0C404141EB010111F4801FA4F10104E9D191F0000F8C
:402B400004BF01460020B1FA81F308BF2033A3F10B03B3F120020CDA0C3208DD02F1140CC2F10C0201FA0CF021FA02F10CE002F11402D8BFC2F1200C01FA02F120FA0CFC2D
:402B8000DCBF41EA0C019040E41AA2BF01EB0451294330BD6FEA04041F3C1CDA0C340EDC04F11404C4F1200220FA04F001FA02F340EA030021FA04F345EA030130BDC4F1A7
:402BC0000C04C4F1200220FA02F001FA04F340EA0300294630BD21FA04F0294630BD94F0000F83F4801306BF81F480110134013D4EE77FEA645C18BF7FEA655C29D094EA4B
:402C0000050F08BF90EA020F05D054EA000C04BF1946104630BD91EA030F1EBF0021002030BD5FEA545C05D14000494128BF41F0004130BD14F580043CBF01F5801130BD37
:402C400001F0004545F0FE4141F470014FF0000030BD7FEA645C1ABF194610467FEA655C1CBF0B46024650EA013406BF52EA033591EA030F41F4002130BD00BF90F0000FBD
:402C800004BF0021704730B54FF4806404F132044FF000054FF0000150E700BF90F0000F04BF0021704730B54FF4806404F1320410F0004548BF40424FF000013EE700BF75
:402CC00042004FEAE2014FEA31014FEA02701FBF12F07F4393F07F4F81F06051704792F0000F14BF93F07F4F704730B54FF4607401F0004521F0004120E700BF50EA0102A1
:402D000008BF704730B54FF000050AE050EA010208BF704730B511F0004502D5404261EB41014FF4806404F132045FEA915C3FF4DCAE4FF003025FEADC0C18BF03325FEA26
:402D4000DC0C18BF033202EBDC02C2F1200300FA03FC20FA02F001FA03FE40EA0E0021FA02F11444C1E600BF70B54FF0FF0C4CF4E06C1CEA11541DBF1CEA135594EA0C0F70
:402D800095EA0C0F00F0DEF82C4481EA030621EA4C5123EA4C5350EA013518BF52EA033541F4801143F4801338D0A0FB02CE4FF00005E1FB02E506F00042E0FB03E54FF07C
:402DC0000006E1FB03569CF0000F18BF4EF0010EA4F1FF04B6F5007F64F5407404D25FEA4E0E6D4146EB060642EAC62141EA55514FEAC52040EA5E504FEACE2EB4F1FD0CE7
:402E000088BFBCF5E06F1ED8BEF1004F08BF5FEA500E50F1000041EB045170BD06F0004646EA010140EA020081EA0301B4EB5C04C2BFD4EB0C0541EA045170BD41F480112E
:402E40004FF0000E013C00F3AB8014F1360FDEBF002001F0004170BDC4F10004203C35DA0C341BDC04F11404C4F1200500FA05F320FA04F001FA05F240EA020001F00042B1
:402E800021F0004110EBD37021FA04F642EB06015EEA430E08BF20EAD37070BDC4F10C04C4F1200500FA04F320FA05F001FA04F240EA020001F0004110EBD37041F1000100
:402EC0005EEA430E08BF20EAD37070BDC4F1200500FA05F24EEA020E20FA04F301FA05F243EA020321FA04F001F0004121FA04F220EA020000EBD3705EEA430E08BF20EABA
:402F0000D37070BD94F0000F0FD101F00046400041EB010111F4801F08BF013CF7D041EA060195F0000F18BF704703F00046520043EB030313F4801F08BF013DF7D043EAE8
:402F40000603704794EA0C0F0CEA135518BF95EA0C0F0CD050EA410618BF52EA4306D1D181EA030101F000414FF0000070BD50EA410606BF1046194652EA430619D094EADA
:402F80000C0F02D150EA013613D195EA0C0F05D152EA03361CBF104619460AD181EA030101F0004141F0FE4141F470014FF0000070BD41F0FE4141F4780170BD70B54FF0AC
:402FC000FF0C4CF4E06C1CEA11541DBF1CEA135594EA0C0F95EA0C0F00F0A7F8A4EB050481EA030E52EA03354FEA013100F088804FEA03334FF0805545EA131343EA12635E
:403000004FEA022245EA111545EA10654FEA00260EF000419D4208BF964244F1FD0404F5407402D25B084FEA3202B61A65EB03055B084FEA32024FF480104FF4002CB6EBBC
:40304000020E75EB030E22BFB61A754640EA0C005B084FEA3202B6EB020E75EB030E22BFB61A754640EA5C005B084FEA3202B6EB020E75EB030E22BFB61A754640EA9C0025
:403080005B084FEA3202B6EB020E75EB030E22BFB61A754640EADC0055EA060E18D04FEA051545EA16754FEA06164FEAC30343EA52734FEAC2025FEA1C1CC0D111F4801F6B
:4030C0000BD141EA00014FF000004FF0004CB6E711F4801F04BF01430020B4F1FD0C88BFBCF5E06F3FF6AFAEB5EB030C04BFB6EB020C5FEA500C50F1000041EB045170BD5A
:403100000EF0004E4EEA113114EB5C04C2BFD4EB0C0541EA045170BD41F480114FF0000E013C90E645EA060E8DE60CEA135594EA0C0F08BF95EA0C0F3FF43BAF94EA0C0FE2
:403140000AD150EA01347FF434AF95EA0C0F7FF425AF104619462CE795EA0C0F06D152EA03353FF4FDAE1046194622E750EA410618BF52EA43067FF4C5AE50EA41047FF4D0
:403180000DAF52EA43057FF4EBAE12E74FEA4102B2F1E04324BFB3F5001CDCF1FE5C0DD901F0004C4FEAC0024CEA5070B2F1004F40EB830008BF20F00100704711F0804FA7
:4031C00021D113F13872BCBF01F00040704741F480114FEA5252C2F11802C2F1200C10FA0CF320FA02F018BF40F001004FEAC1234FEAD32303FA0CFC40EA0C0023FA02F3C7
:403200004FEA4303CCE77FEA625307D150EA01331EBF4FF0FE4040F44000704701F0004040F0FE4040F40000704700BF80F0004002E000BF81F0004142001FBF5FEA41037A
:4032400092EA030F7FEA226C7FEA236C6AD04FEA1262D2EB1363C1BFD218414048404140B8BF5B42192B88BF704710F0004F40F4000020F07F4018BF404211F0004F41F43D
:40328000000121F07F4118BF494292EA030F3FD0A2F1010241FA03FC10EB0C00C3F1200301FA03F100F0004302D5494260EB4000B0F5000F13D3B0F1807F06D340084FEAEC
:4032C000310102F10102FE2A51D2B1F1004F40EBC25008BF20F0010040EA03007047490040EB000010F4000FA2F10102EDD1B0FA80FCACF1080CB2EB0C0200FA0CF0AABFB5
:4033000000EBC25052421843BCBFD0401843704792F0000F81F4000106BF80F400000132013BB5E74FEA41037FEA226C18BF7FEA236C21D092EA030F04D092F0000F08BFCB
:403340000846704790EA010F1CBF0020704712F07F4F04D1400028BF40F00040704712F100723CBF00F50000704700F0004343F0FE4040F4000070477FEA226216BF08465E
:403380007FEA23630146420206BF5FEA412390EA010F40F4800070474FF0000304E000BF10F0004348BF40425FEA000C08BF704743F0964301464FF000001CE050EA0102DD
:4033C00008BF70474FF000030AE000BF50EA010208BF704711F0004302D5404261EB41015FEA010C02BF84460146002043F0B64308BFA3F18053A3F50003BCFA8CF2083ACB
:40340000A3EBC25310DB01FA02FC634400FA02FCC2F12002BCF1004F20FA02F243EB020008BF20F00100704702F1200201FA02FCC2F1200250EA4C0021FA02F243EB020020
:4034400008BF20EADC7070474FF0FF0C1CEAD0521EBF1CEAD15392EA0C0F93EA0C0F6FD01A4480EA010C400218BF5FEA41211ED04FF0006343EA501043EA5111A0FB01317F
:403480000CF00040B1F5000F3EBF490041EAD3715B0040EA010062F17F02FD2A1DD8B3F1004F40EBC25008BF20F00100704790F0000F0CF0004C08BF49024CEA502040EA78
:4034C00051207F3AC2BFD2F1FF0340EAC250704740F400004FF00003013A5DDC12F1190FDCBF00F000407047C2F10002410021FA02F1C2F1200200FA02FC5FEA310040F156
:40350000000053EA4C0308BF20EADC70704792F0000F00F0004C02BF400010F4000F013AF9D040EA0C0093F0000F01F0004C02BF490011F4000F013BF9D041EA0C018FE770
:403540000CEAD15392EA0C0F18BF93EA0C0F0AD030F0004C18BF31F0004CD8D180EA010000F00040704790F0000F17BF90F0004F084691F0000F91F0004F14D092EA0C0F49
:4035800001D142020FD193EA0C0F03D14B0218BF084608D180EA010000F0004040F0FE4040F40000704740F0FE4040F4400070474FF0FF0C1CEAD0521EBF1CEAD15392EADC
:4035C0000C0F93EA0C0F69D0A2EB030280EA010C49024FEA402037D04FF0805343EA111143EA10130CF000408B4238BF5B0042F17D024FF4000C8B4224BF5B1A40EA0C0083
:40360000B3EB510F24BFA3EB510340EA5C00B3EB910F24BFA3EB910340EA9C00B3EBD10F24BFA3EBD10340EADC001B0118BF5FEA1C1CE0D1FD2A3FF650AF8B4240EBC250E5
:4036400008BF20F0010070470CF0004C4CEA50207F32C2BFD2F1FF0340EAC250704740F400004FF00003013A37E792F0000F00F0004C02BF400010F4000F013AF9D040EA05
:403680000C0093F0000F01F0004C02BF490011F4000F013BF9D041EA0C0195E70CEAD15392EA0C0F08D142027FF47DAF93EA0C0F7FF470AF084676E793EA0C0F04D14B025C
:4036C0003FF44CAF08466EE730F0004C18BF31F0004CCAD130F000427FF45CAF31F000437FF43CAF5FE700BF4FEA4002B2F1FE4F0FD34FF09E03B3EB12620DD94FEA002386
:4037000043F0004310F0004F23FA02F018BF404270474FF00000704712F1610F01D1420205D110F0004008BF6FF0004070474FF000007047014B1868704700BF4481FF1FD8
:403740000E4B70B51E460E4C0025E41AA410A54204D056F8253098470135F8E700F03AFF084B094C1E46E41AA4100025A54204D056F8253098470135F8E770BDE045000034
:40378000E0450000E0450000E845000010B5431E0A44914204D011F8014B03F8014FF8E710BD03460244934202D003F8011BFAE7704700000EB400B54FF402719CB0ADF828
:4037C00014106FF00041049107914FF6FF711DAB02900690084853F8042BADF81610006802A9019300F064F8029B00221A701CB05DF804EB03B070474481FF1F2DE9F047B8
:403800008E6882469E420C46914698463ED88A8912F4906F3AD02568096902236F1A656905EB450595FBF3F57B1C43449D4238BF1D4653050FD5294600F040FB064698B1BC
:403840003A462169FFF7A2FFA38923F4906343F08003A38113E02A4600F08EFB064670B92169504600F0DEFA0C23CAF80030A3894FF0FF3043F04003A381BDE8F087266166
:403880003E44266046466561ED1BA560464528BF464649463246206800F0A8FAA36800209B1BA36023681E442660BDE8F08700002DE9F04F9DB003938B8980461C060D4688
:4038C00016460DD50B695BB9402100F0F7FA2860286118B90C23C8F80030CDE040236B610023099320238DF82930DFF89CB130238DF82A3037463C4614F8013B1BB9B7EBF0
:40390000060910D003E0252BF9D02746F3E74B46324629464046FFF771FF013000F0A780099B4B4409933B78002B00F0A08000234FF0FF3204930793059206938DF85330F0
:403940001A930126052221784E4800F041FA671C049B38B14B4A3C46801A06FA00F018430490EFE7D90644BF20228DF853201A0744BF2B228DF8532022782A2A03D0079A9A
:4039800000210A200BE0039A111D12680391002A10DA524243F00200079204900BE027463B780134303B092B03D800FB02320121F5E701B107923B782E2B1ED17B782A2B79
:4039C0000AD1039B02371A1D1B680392002BB8BF4FF0FF33059310E0002319460593781C0A2407463A780130303A092A03D804FB01210123F5E703B10591032239782248FC
:403A000000F0E6F940B14023CBEB000003FA00F0049B013718430490397806221B487E1C8DF8281000F0D4F988B1194B33B9039B073323F007030833039314E003AB009326
:403A40002A46144B04A94046AFF3008007E003AB00932A460F4B04A9404600F093F8B0F1FF3F824603D0099B5344099342E7AB895B0601D4099801E04FF0FF301DB0BDE83C
:403A8000F08F00BFA0450000A6450000AA45000000000000FD3700002DE9F04791461F460A698B6806469342B8BF1346C9F8003091F843200C46DDF8208012B10133C9F899
:403AC00000302368990642BFD9F800300233C9F80030256815F0060510D104F1190A07E00123524639463046C04701301AD00135E368D9F800209B1A9D42F1DB94F8433023
:403B00002268003318BF012392060FD5E118302081F843005A1C94F845102244023382F8431003E04FF0FF30BDE8F08704F1430239463046C0470130F4D02268D9F800504A
:403B4000E36802F00602042A08BF5D1B2269A3680CBF25EAE57500259342C4BF9B1AED184FF000091A344D4509D00123224639463046C0470130D5D009F10109F3E7002035
:403B8000BDE8F0872DE9F04317460A7E85B06E2A984606460C460C9B01F1430E00F0AE8011D8632A22D009D8002A00F0BB80582A40F0CA8081F84520834955E0642A1ED075
:403BC000692A1CD0C0E0732A00F0B08009D86F2A2ED0702A40F0B8800A6842F020020A603EE0752A24D0782A3AD0ADE01A6801F14205111D1960136884F84230A8E0216879
:403C00001A6811F0800F02D0111D196008E011F0400F02F10401196002D0B2F9003000E01368002B3CDA2D225B4284F8432037E021681A6811F0800F02D0111D196007E02A
:403C400011F0400F02F10401196001D0138800E01368227E5C496F2A14BF0A2208221BE078225A4984F845202268186812F0800F00F104051D6003D1550601D5038800E01A
:403C80000368D00744BF42F0200222601BB9226822F0200222601022002084F8430001E049490A226568002DA56008DB206820F0040020602BB9002D7DD175460CE0002BF6
:403CC00079D07546B3FBF2F002FB1033CB5C05F8013D03460028F5D1082A0BD12368DA0708D5236962689A42DEBF302305F8013C05F1FF35C5EB0E0323612EE008681A6835
:403D000010F0800F496903D0101D1860136808E010F0400F02F104001860136801D0198000E0196000232361754616E01A68111D1960156800216268284600F049F808B12A
:403D4000401B6060636804E004F1420584F8422001232361002384F84330CDF800803B4603AA21463046FFF797FE013002D14FF0FF3026E023692A4639463046C047013029
:403D8000F5D023689B0710D5002504F1190907E001234A4639463046C0470130E7D00135E368039A9B1A9D42F2DBE068039B9842B8BF184605E00B7804F1420584F84230CB
:403DC0008AE705B0BDE8F083B1450000C245000010B5C9B202449042034605D01C7801308C42F8D1184610BD002010BD884210B501EB020301D8421E0BE09842FBD28118BA
:403E0000D21AD34204D013F8014D01F8014DF8E710BD994204D011F8014B02F8014FF8E710BD000038B50546002944D051F8043C0C1F002BB8BFE41800F0D4F81E4A136801
:403E4000114613B96360146030E0A3420DD92268A018834201BF18685B681218226063600C6023E0A24203D813465A68002AF9D118681918A1420BD12168014458188242E5
:403E8000196013D110685268014419605A600DE002D90C232B6009E021686018824201BF106852680918216062605C602846BDE8384000F098B838BD9081FF1F70B5CD1CBC
:403EC00025F0030508350C2D38BF0C25002D064601DBA94202D90C23336046E000F082F8234B1C681A462146A1B10B685B1B0ED40B2B03D90B60CC18CD501EE08C420BBFB0
:403F000063684B681360636018BF0C4615E00C464968E9E7174C23681BB9304600F052F820602946304600F04DF8431C18D0C41C24F00304A0420DD12560304600F053F898
:403F400004F10B00231D20F00700C31A0ED05A42E25070BD211A304600F034F80130EBD10C233360304600F03EF8002070BD00BF9081FF1F8C81FF1FF8B5074615460E460D
:403F800021B91146BDE8F840FFF798BF1AB9FFF749FF2846F8BD00F027F885420ED929463846FFF78BFF044650B131462A46FFF7EDFB31463846FFF735FF01E03046F8BD0D
:403FC0002046F8BD38B5064C0023054608462360FDF766F9431C02D1236803B12B6038BD8082FF1F7047704751F8040C0028BEBF091851F8043CC0180438704700000000E3
:404000002A2A2A2A2A2A2A2A2A2020202048454C503A20504F535349424C452053455454494E4753202020202A2A2A2A2A2A2A2A2A0D0D00662E2046756C6C205363616C13
:40404000650D0A702E2053616D706C696E6720467265710D0A742E205365742054656D706572617475726520556E69740D0A762E205072696E742044617461206F6E2042C9
:4040800043500D0A622E20537461727420526567697374726174696F6E0D0A732E2053746F7020526567697374726174696F6E0D0A0D00002A2A2A2A2A2A2A2A2A2A2A2AC8
:4040C0002A2A2A2A2A2A2A2A2A2A2A2A2A2A2A2A2A2A2A2A2A2A2A2A2A2A2A2A2A2A2A2A2A2A2A0D0A0000002A2A2A2A2A2A2A2A2A2020202043484F4F5345204143434504
:404100004C45524F4D455445522046554C4C205343414C45202020202A2A2A2A2A2A2A2A2A0D0D312E202B2D32670D0A322E202B2D34670D0A332E202B2D38670D0A342EDF
:40414000202B2D3136670D0A352E20476F206261636B0D0A0D000000594F552043484F4F5345202B2D32670D0D000000594F552043484F4F5345202B2D34670D0D000000C0
:40418000594F552043484F4F5345202B2D38670D0D000000594F552043484F4F5345202B2D3136670D0D0000455849542E2E2E2E0D0D0000494E56414C494420494E505543
:4041C000542C20455849542E2E2E2E0D0D0D0D0D0D0000002A2A2A2A2A2A2A2A2A2020202043484F4F534520414343454C45524F4D455445522053414D504C494E47204668
:4042000052455155454E4359202020202A2A2A2A2A2A2A2A2A0D0D312E203120487A0D0A322E20313020487A0D0A332E20323520487A0D0A342E20353020487A0D0A352E57
:4042400020476F206261636B0D0000002A2A2A2A2A2A2A2A2A2A2A2A2A2A2A2A2A2A2A2A2A2A2A2A2A2A2A2A2A2A2A2A2A2A2A2A2A2A2A2A2A2A2A2A2A2A2A2A2A2A2A2A22
:404280002A2A2A2A2A2A2A2A2A2A2A2A2A0D0A00594F552043484F4F5345203120487A0D0D000000594F552043484F4F534520313020487A0D0D0000594F552043484F4FF9
:4042C000534520323520487A0D0D0000594F552043484F4F534520353020487A0D0D00002A2A2A2A2A2A2A2A2A2020202043484F4F53452054454D504552415455524520FB
:40430000554E4954202020202A2A2A2A2A2A2A2A2A0D0D312E2043656C736975730D0A322E2046616872656E686569740D0A332E20476F204261636B0D000000594F552034
:4043400043484F4F53452043454C5349555320554E49540D0D000000594F552043484F4F53452046414852454E4845495420554E49540D0D000000002A2A2A2A2A2A2A2A24
:404380002A20202020524547495354524154494F4E20414C52454144592053544152544544202020202A2A2A2A2A2A2A2A2A0D002A2A2A2A2A2A2A2A2A2020202052454780
:4043C000495354524154494F4E2053544152544544202020202A2A2A2A2A2A2A2A2A0D002A2A2A2A2A2A2A2A2A20202020524547495354524154494F4E20414C5245414464
:40440000592053544F50504544202020202A2A2A2A2A2A2A2A2A0D002A2A2A2A2A2A2A2A2A20202020524547495354524154494F4E2053544F50504544202020202A2A2A0B
:404440002A2A2A2A2A2A0D002A2A2A2A2A2A2A2A2A2020202056495355414C495A4154494F4E2053544152544544202020202A2A2A2A2A2A2A2A2A0D000000002A2A2A2A61
:404480002A2A2A2A2A2020202056495355414C495A4154494F4E20414C52454144592053544152544544202020202A2A2A2A2A2A2A2A2A0D000000002A2A2A2A2A2A2A2A08
:4044C0002A2020202056495355414C495A4154494F4E2053544F50504544202020202A2A2A2A2A2A2A2A2A0D00000000494E56414C494420494E5055542E2E2E2E0D0D0D44
:404500000D0D0D0052455345540000002A2A20454550524F4D2052656164203D202564202564202564200A202564202564202564202564200D0A0000035B00402443004057
:4045400040000000004F00400C00405100403000F0510040100000000140000A800A0140800500140140000280160140800500400140000A004C01400002005001402000B5
:4045800060520040100800480600000A0140180800488000001601409808004880004300232D302B2000686C4C006566674546470030313233343536373839414243444523
:4045C0004600303132333435363738396162636465660000F8B500BFF8BC08BC9E4670474D0000001D130000F8B500BFF8BC08BC9E4670472900000008460000C880FF1FBB
:404600008000000040010000000000008882FF1F01FF00000000E02EC05D00001800000000366E0100000000000000000000000000000000000000000000000000000000A9
:40464000000000009E450000000000000000000000000000000000000000000000000000000000000000000000000000000000000000000000000000000000000000000057
:4046800000000000E480FF1F000000000000000000000000000000000000000000000000000000000000000000000000000000000000000000000000000000000000000078
:4046C00000000000000000000000000000000000000000000000000000000000000000000000000000000000000000000000000000000000000000000000000000000000BA
:404700000000000000000000000000000000000000000000000000000000000000000000000000000000000000000000000000000000000000000000000000000000000079
:404740000000000000000000000000000000000000000000000000000000000000000000000000000000000000000000000000000000000000000000000000000000000039
:4047800000000000000000000000000000000000000000000000000000000000000000000000000000000000000000000000000000000000000000000000000000000000F9
:020000040003F7
:0200000480007A
:40000000024F00400452004004640040026500400303014007050140620601403E0701405F080140480901400E0A01403E0B0140070D0140040E0140010F01400515014016
:40004000091601404E170140541801404B1901405B1A0140501B014007400140114101400B42014005430140044401400745014004460140084701400A480140074901403F
:40008000034C0140094D0140065001400251014001400A4B0020016010021102870D880F8A388B0F860F89728740EA01EE4284408C209780E204E608EA40EE20000D0172A6
:4000C000080D0C020D630E0D0F0C100D1123135814C01501177418B219721A441C021D221E381F50200D2172280D29502B222C612D222E92316032E0331F34103501360F26
:40010000380839083A803E103F1054095604580459045B045C225D205F0186209102930D95099610970698439A049C0EA005A105A26AA30AA503A610A70CA804AA69B10F4C
:40014000B210B460B50FB60FB880BB22BE04C030C102C9FFCAFFCBFFCDA0CF04D018D405D804D904DA04DB04DC11DD55DF01E040E2C0E440E540E6C0E8C0EAC0ECC0EEC068
:4001800000040562070408280A020D800E1A0F401048130814801750180419041A021D601E1020082102244025152604274028602D222E012F0230083102348036053710C9
:4001C0003C403E02400841044204580159045B805C015E405F1467818008860488018C0497809860C0D4C2F7C4DECAB3CCF3CE90D006D6FBD890E203E410E640010303149D
:40020000043805400645071509330A020B040C560D0A0E210F3413081438164319331A291B0C2246306331103207330F36183760388039803A0A3B083E403F014040410308
:400240004621470D481D49FF4AFF4BFF4DAF4E0F4F0450185401580459045A045B045C335D355F01604062C06440654066C068C06AC06CC06EC085028602870D8801890D84
:40028000910D920295C2970899919B229C0D9D0DA10DA40DA540A90DAA04ADE2AF14B001B208B370B402B50FB604B780BB28BE10BF40D804D904DC15DF0100100220044039
:4002C0000608071009400A800E200F28100411041702189419401C601D801E201F012108228023042504279228282A8631183341371238203B043C603D013F0846604D045A
:400300005428554056205C025E085F908108842085018710880889409020940496029740988899149A969B459E01A040A110A208A508A701B085C0E6C269C416CA0FCCAFE9
:40034000CEF6D0C0D6F0E410E62096049A019C049E02B202B404B601D602D72CD804DB04DC06DD10DF010188034404200704080109580C200D800E101010120419581D8008
:400380001E182008220A280929482A822B08301031383202334038A241284280484149044A08504052145A026004638267406C116DA06F4975807602834085408D109E0100
:4003C000A020A606B202B604C00FC2EFC406CA0FCC0FCE0DD007D20CD601D88DE240EA40EE2084209E01A801B601E202E801EE4239803F4059045F0120018401A001AF4034
:40040000B408EA088F01B301D440D604D904DB04DC50DD20DF010504060207400EAA148017111C021D081E801F102104244425802C242E012F0234803604371238043A04A8
:400440003B803C403D043E124408458947024C804D804F06542057066206630A660267606E336F1576028041818C848485848602940195089601974499809B409C809E0236
:400480009F14A101A204A580A702A920AA40AB80AF12B004B104B308B594B701C0B0C2F0C450CAF0CCF0CEF8D0F0D210D84FE280EA0101140510070C090C0B11110913107C
:4004C0001D201F0325102D1C2F02311F37203F404001470449FF4A074BFF4C404D204EF04F055008528059045A045B045C305D535F01604061A8624063208304851C86531F
:4005000087E2880289188C3C8D088E4390039124947F95FF987399E79A0C9B189C2F9D109E50A008A11CA3E1A404A540A80CAB63AC01AD60B01CB160B220B40FB51FB64C86
:40054000B780B980BAA0BB28BE04D602D711D804D904DB04DC33DD30DF0100080206080109080A0510821328184019101A251B80210C2241230426402780280129282A04EB
:400580002B802E082F0130823118378239023B943C023D083F2045804F0856085A20695470807338764080018304864088408A028B0493029501968298A099049A129B4731
:4005C0009C029E09A040A194A288A310A624A705A840B004B240B340C007C20FC40FCA5FCC9FCEEFD010D604E280E402E820EC800402051E0611091E0D020E0411081305E2
:40060000150416081718220424032510270428032C012E12300431013203331C350236183E414026410342044401450E460C480549FF4AFF4BFF4C624DA04EF04F41500C5A
:4006400054095604580459045A045B045C335D135F016640670269106A306B106D106E106F1289018F019001930195019D01A101B301B401BE10BF04C035C106C5C0C60EB1
:40068000C7B0C826C9FFCAFFCBFFCEF0CF44D00CD440D604D804D904DA04DB04DD13DF01E6C0EA40EB020040010809080F8010821114180119081B011E0820082109271037
:4006C00029082E0230023108374539543C803D203E80404141044204450446084710480449204A204C014D014F2050805401574058A0590562816440669878027B408101DD
:4007000082088401850888029042915C9204950398A099049A129B459C439D289E01A040A114A288A310A407A624A701AE40B348C005C214C40FCA82CCD3CE3ED04FD23400
:40074000D60FD8F9EA4030403301358036083B40CCF0CE10332035806202662086089B049C409F01A608AB04AF40B580CC30D8C0E210EA80EE405B0481809B049C409D80BB
:400780009E209F01B202B720D640E2208D108E209C409E209F0113027D20C408DE01032157018701A910AF02C00AD6044508A320A701D0018B018D08A508A701B320E00191
:4007C000E408EA0125108001870188409C409F01A510C820E240E6207001750285029002DC80DE20E6100B028740C2021080734088809340B701C408DC01E601EA02006E32
:400800000A260C6A102E1A241C2A00FF013F000004800000400000009A0400803800C000988402009A6000002101D800FC56030902079838988402000084000013046400D1
:4008400002800004000A0010007FE08013080F0000028800000000144302600005DEFB0C1FFFFFFF2200F008040000001800040004040404113100010000C00040011011D7
:40088000C0010011400140010000000000000000000000000000000023190C0021CE1A21001100085000006002A11D425044008903193400500800110019500000000080E8
:4008C00050000010000800041FE040001F10200F800022C0000004105104300002DEB0CF3BFFFFFF2200F00C040000000000022804040404222200010000C000400110119A
:40090000C0010011400140010000000000000000000000000000000000606000600000008400508C8C008C00000000008000408B8B000000000000001400011612000200B6
:400940000000000000010100000010002500180100000000000000000000000000000000000000000000000000000000000000000000000000000000000000000000000027
:400980000000000000000000000000000000000000000000000000000000000000000000000000000000000000000000000000000000000000000000000000000000000037
:4009C00000000000000000000000000000000000000000000000000000000000000000000000000000000000000000000000000000000000000000000000000000000000F7
:400A000000000000000000000000000000000000000000000000000000000000000000000000000000000000000000000000000000000000000000000000000000000000B6
:400A40000000000000000000000000000000000000000000000000000000000000000000000000000000000000000000000000000000000000000000000000000000000076
:0200000490006A
:0400000000004005B7
:0200000490105A
:04000000BC90ACAF55
:0200000490303A
:02000000D63AEE
:0200000490402A
:4000000000000000000000000000000000000000000000000000000000000000000000000000000000000000000000000000000000000000000000000000000000000000C0
:400040000000000000000000000000000000000000000000000000000000000000000000000000000000000000000000000000000000000000000000000000000000000080
:400080000000000000000000000000000000000000000000000000000000000000000000000000000000000000000000000000000000000000000000000000000000000040
:4000C0000000000000000000000000000000000000000000000000000000000000000000000000000000000000000000000000000000000000000000000000000000000000
:0200000490501A
:0C00000000012E16106900012E32E6A34C
:00000001FF