:400000000080002011000000211300002113000008B5044B1A6803F53F5302331A6001F087F900BFFA46004010B5054C237833B9044B13B10448AFF300800123237010BD8E
:400040004881FF1F0000000024390000084B10B51BB108490848AFF300800848036803B910BD074B002BFBD0BDE81040184700BF000000004C81FF1F24390000C880FF1F48
:400080000000000038B501F0E9F9BB4B18703F2809D1BA4801F022FAB94801F01FFAB94801F01CFA38BD662802D0462840F0C280B54801F013FAB54801F010FA09E00A2054
:4000C00002F0F6FCB24A136801331360B3F57A7F03DA01F0D9F90028F1D0AD4B1B68B3F57A7F03DB3522A44B1A7003E001F0B6F9A14B18700022A64B1A6001F0D1F99E4BE2
:400100001B78313B042B00F29180DFE803F0032547698B00232000F049FB9D4B1871802804D080211971232000F054FB994D04242C70974B1979012000F07AFC00F0D4FCFB
:400140002978204600F074FC00F0CEFC924801F0C5F900F019FF38BD232000F027FB8C4B1871902804D090211971232000F032FB884C08232370864B1979012000F058FCA2
:4001800000F0B2FC2178042000F052FC00F0ACFC824801F0A3F900F0F7FE38BD232000F005FB7B4B1871A02804D0A0211971232000F010FB774C10232370754B197901203A
:4001C00000F036FC00F090FC2178042000F030FC00F08AFC724801F081F900F0D5FE38BD232000F0E3FA6A4B1871B02804D0B0211971232000F0EEFA664C30232370644B7E
:400200001979012000F014FC00F06EFC2178042000F00EFC00F068FC624801F05FF900F0B3FE38BD604801F059F938BD5F4801F055F938BD702802D0502840F0C5805C4867
:4002400001F04CF95B4801F049F909E00A2002F02FFC4F4A136801331360B3F57A7F03DA01F012F90028F1D0494B1B68B3F57A7F03DB3522404B1A7003E001F0EFF83E4BDE
:4002800018700022424B1A6001F00AF93A4B1B78313B042B6CD8DFE803F0031C354E6700202000F083FA3A4B1871172804D017211971202000F08EFA354B1979002000F075
:4002C000B7FB00F011FC3C4801F008F900F05CFE38BD202000F06AFA2D4B1871272804D027211971202000F075FA294B1979002000F09EFB00F0F8FB304801F0EFF800F09F
:4003000043FE38BD202000F051FA214B1871372804D037211971202000F05CFA1C4B1979002000F085FB00F0DFFB254801F0D6F800F02AFE38BD202000F038FA144B1871A6
:40034000472804D047211971202000F043FA104B1979002000F06CFB00F0C6FB194801F0BDF800F011FE38BD0F4801F0B7F838BD0E4801F0B3F838BDAC81FF1F283900004C
:400380005C390000DC390000103A00007C3B00006481FF1FAD81FF1F803A0000943A0000A83A0000BC3A0000D03A0000DC3A0000FC3A0000743B0000B83B0000CC3B0000E4
:4003C000E03B0000F43B0000742801D0542852D1824801F083F8824801F080F809E00A2002F066FB7F4A136801331360B3F57A7F03DA01F049F80028F1D07A4B1B68B3F564
:400400007A7F03DB3322784B1A7003E001F026F8754B18700022734B1A6001F041F8724B1B78322B11D0332B1DD0312B1FD100216E4B1970032000F0FBFA00F055FB6C4801
:4004400001F04CF800F0A0FD38BD0121674B1970032000F0EDFA00F047FB664801F03EF800F092FD38BD644801F038F838BD634801F034F838BD622801D0422827D1604B0C
:400480001B68012B06D15F4801F028F8544801F025F819E0C3B90124594B1C6040F2F31140F2E73000F04CFD574801F017F84C4801F014F82146022000F0BAFA00F014FB86
:4004C00001F0B8FD01F0BEFC00F0EAFF38BD732801D053282DD14A4B1B6833B94B4800F0FDFF3F4800F0FAFF20E0012B1ED10024434B1C6040F2E731084600F021FD44488A
:4005000000F0ECFF364800F0E9FF2146022000F08FFA00F0E9FA02223E49052000F0B6FA00F0E2FA01F028FD01F094FC00F0B8FF38BD762801D0562834D1314B1B687BB921
:40054000354800F0CBFF264800F0C8FF0120334B186002F087F801F00FFD01F07BFC1EE0012B12D10022264B1A602B4800F0B6FF1B4800F0B3FF0120284B186002F072F893
:4005800001F0FAFC01F066FC09E0244B1B68012B05D1234800F0A2FF114800F09FFF00F07FFF38BD752801D0552815D11B4B1B68012B0BD10020194B186002F053F8194882
:4005C00000F08CFF064800F089FF03E013B9164800F084FF00F064FF38BD00BF083C0000743B00006481FF1FAC81FF1FA881FF1F643C0000803C0000D03A0000DC3A00002F
:400600008C81FF1FA03C0000D83C0000083D0000403D00009081FF1F703D00009481FF1FA43D0000E03D0000143E000010B5354B1B78DBB2072B01D801F0B8FC01F072FC0A
:40064000314B1860002801DA00221A602E4B1B68B3F5803F03DB4FF6FF722B4B1A602A4B186801F04DFC294B1860294B1B78C3B9A0F5FA70A3F1993383FB0023C017C0EBE0
:40068000A30002F045FF234B18601E4B1C78E4B2214902F091FF03F0DFF8204B23F8140023E0012B21D1A0F5FA7003F1663383FB0023C017C0EBA30002F02AFF184902F0B7
:4006C0007BFF184903F02CF84FF0844102F06CFE104B18600B4B1C78E4B20F4902F06CFF03F0BAF80D4B23F81400064A13780133DBB213701378DBB2082B02D101220A4BBF
:400700001A7010BD8881FF1FB081FF1FC481FF1FA881FF1F6C81FF1F0000C842B481FF1F000010410000A040A581FF1F08B502F067F8012805D102F011F80022134B1A6063
:4007400008E002F05DF828B902F008F80F4A1368013313600D4B1B68042B15DD40F2E731084600F0EDFB0A4800F0B8FE00F00CFC084800F0B3FE084800F0B0FE074800F082
:40078000ADFE0022014B1A6008BD00BF9C81FF1F2C3E0000283900005C390000DC3900000122014B1A607047C881FF1F00B583B060F07F008DF8040002AA002302F8053D20
:4007C0000123194601A800F0B3F89DF8030003B05DF804FB00B583B08DF804008DF80510002302AA02F8053D022101A800F0A0F803B05DF804FB00BF00B583B060F03F03E9
:4008000002A800F8043D13460A46012100F090F803B05DF804FB00BF10B50446002001F0F7F8204600F0DEFE00F0B4FE10F0080FFAD000F041FF0446012001F0E9F8204635
:4008400010BD00BF10B50446002001F0E1F8204600F0C8FE002000F0C5FE00F09BFE10F0010FFAD000F028FF00F026FF0446012001F0CEF8204610BD2DE9F04383B0064658
:400880000C4617469846002001F0C2F864B2002511E02146082CA8BF0821C9B206EBC50000F086FF00F076FE10F0010FFAD0083C64B201356DB2002CEBDC00F089FF00F09B
:4008C0002DFF0026009601964FFA88F820E0C146B8F1080FA8BF4FF008095FFA89F1684600F066FF00F056FE10F0010FFAD0002406E004EBC60500F0DFFE78550134E4B215
:400900004C45F6DBA8F108084FFA88F8013676B2B8F1000FDBDC012001F07AF800F058FF00F0FCFE00F01AFF03B0BDE8F08300BF2DE9F04383B006460C4617469846002058
:4009400001F05AF864B2002511E02146082CA8BF0821C9B206EBC50001F060FD01F050FC10F0010FFAD0083C64B201356DB2002CEBDC01F063FD01F007FD0026009601960C
:400980004FFA88F820E0C146B8F1080FA8BF4FF008095FFA89F1684601F040FD01F030FC10F0010FFAD0002406E004EBC60501F0B9FC78550134E4B24C45F6DBA8F108083D
:4009C0004FFA88F8013676B2B8F1000FDBDC012001F012F801F032FD01F0D6FC01F0F4FC03B0BDE8F08300BF08B50520FFF72AFF08BD00BF08B50620FFF70EFF08BD00BF07
:400A000000B583B003218DF80410030A8DF805308DF8060002AA002302F8053D012301A8FFF72AFF9DF8030003B05DF804FB00BF30B583B004460D46FFF7DCFF02238DF83A
:400A40000430230A8DF805308DF806408DF80750002302AA02F8053D04210DEB0100FFF70BFF03B030BD00BF10B582B003248DF80440030A8DF805308DF8060013460A464A
:400A8000214601A8FFF7F8FE02B010BD2DE9F04182B000AF054688461446FFF7ABFF012002F01CF8E61C04F10A0323F00703ADEB030D02238DF800302B0A8DF801308DF846
:400AC0000250224641460DF1030002F017FF002307F1080202F8013DF1B26846FFF7CCFE0837BD46BDE8F08108B5FFF77DFF10F0010FFAD108BD00BF2DE9F04FB5B062B686
:400B000000F09EFC01F08AF900F0C8FE01F0FCFC01F068FE00F010FA864801F0C9FD864801F0B6FA052001F0C3FF844800F096FF834801F0EBFD0020FFF762FF0146202008
:400B4000FFF748FE0120FFF75BFF01462320FFF741FE0320FFF754FF034610B90021794A1170012B02D10122764B1A700220FFF747FF012802D10122734B1A6010B9002219
:400B8000714B1A600420FFF73BFF704B187002226F490520FFF768FF2220FFF707FE062803D004212220FFF715FE2420FFF7FEFD402803D040212420FFF70CFE2E20FFF703
:400BC000F5FD644B1870492804D0492119702E20FFF700FEA0238DF80C30C0238DF81B305D4800F07BFC5D4800F078FC5C4800F075FC00230193544B1B68012B40F09480B8
:400C0000584B1B68012B40F0858040F25E23019A9A427FDC3C2225A92820FFF7EDFD00263746354606245FE04F4B1B78DBB2012B54D1631C34AA134413F83CEC4FEA9E0202
:400C400034AB2B4403F8782C6B1CE11C34AA114411F83C0C224412F83C2C34A90B44920842EA101242EA8E1203F8782CAA1C631D0B4413F83C1CA31C0DF1D00E734413F8D3
:400C80003C3C72441B0943EA911343EA001302F8783CEB1C221D724412F83C2C7344920942EA810203F8782C2B1D304A32F91720734403F8782C6B1D7344121203F8782C99
:400CC000234B188830440A30062216AB591980B2FFF7DCFEFFF708FF0137FFB20635ADB20636B6B20634A4B23B2C9DD900F030F900221D4B1A701E4B1A7015490B883633D0
:400D00009BB20B8001990131019116490A60194A138009E040F25E23019A9A4204DDE02140F2C11000F00CF9134B1B68012B7FF462AFE9E0A10700002D0600008500000017
:400D40002D070000A881FF1F8C81FF1FAD81FF1FA681FF1F9881FF1F283900005C390000DC390000C881FF1FA581FF1FB481FF1F8881FF1F9081FF1F9481FF1F07EB0A0077
:400D80000A30062207AB03EB080180B2FFF76CFE08F1010334AA134413F8B46C1346434413F8B40C800240EA860040F3891008F10203134413F8B43C360346EA031646F385
:400DC000891608F1030234A90A4412F8B45C9B0343EA851545F3891508F104090B464B4413F8B44C08F10508884418F8B43C1B021BB21C434E4B93F8008008FB00F002F041
:400E000005F847A3D3E9002302F066F846A3D3E9002302F061F802F071FA464902F0CCFB02F01AFD8DF80D00C0F307238DF80E30C0F307438DF80F30000E8DF8100008FB42
:400E400006F001F0E3FF36A3D3E9002302F044F835A3D3E9002302F03FF802F04FFA354902F0AAFB02F0F8FC8DF81100C0F307238DF81230C0F307438DF81330000E8DF81B
:400E8000140008FB05F001F0C1FF25A3D3E9002302F022F824A3D3E9002302F01DF802F02DFA244902F088FB02F0D6FC8DF81500C0F307238DF81630C0F307438DF817304B
:400EC000000E8DF818008DF81940C4F307248DF81A40642001F0ECFD102103A800F010FB0637BFB21FFA89F801E00027B846B8F1350F7FF643AF0AF1360A1FFA8AFA0BF1FD
:400F0000360B1FFA8BFB02E04FF0000AD3463623019A03FB02F39B45E7DB6CE6AFF30080E9263108AC9C2340FCA9F1D24D62503FAD81FF1F0000C84208B501F01DF908BD18
:400F400010B50C4601F0C0F8204601F0C3F810BD08B52E20FFF72AFC0A4B187020B1002119702E20FFF736FC2E20FFF71FFC054B1870492804D0492119702E20FFF72AFC04
:400F800008BD00BF9881FF1F08B50023114A1380114A1380114A1380114B1B68012B02D100220F4B1A600F4B1B68012B02D100220C4B1A6000210220FFF73AFDFFF794FD32
:400FC000022204490520FFF761FDFFF78DFDFFF7BFFF08BDA681FF1F8A81FF1FAA81FF1F9481FF1F8C81FF1FFEE700BFF0B40022174611E050F82760F3B226F0FF0608E0CA
:4010000001EB420511F812406D78A5550132013BDBB2002BF4D10137232FEBD9F0BC70470B4B1B78DBB203F007010A4A11701B09013213701023A2F23272137002F6C312CB
:401040001370583213704422034B1A70704700BFCF0100496E5800407658004008B50A46002102F056FC08BD08B502F047FC08BD38B500243D4B1C80502202331A700B227E
:4010800002331A8018233A490B7002310A80394A13703321023211800232137045F6BF5235490A8002310B7002310A80334A137047F22F5302321380192502321570023229
:4010C00013802F4B1D7004222E492F48FFF7CCFF02222E4B1A7008224FF040231A70032103F5007319702A4B1B78DBB229490B70294B1A8041F25122023B1A800CE0274B81
:401100001B7803F0010343EA440404F003044FF4F07001F019FD013D0DB1032CEFD115B90320FFF761FF1E4B4FF480721A8007221A7000221B490A704820023108701A7051
:401140000222033B1A7004220A331A7003F297331A78FF221A70144A137843F001031370013A137843F08003137038BD80400040864000408A4000409040004096400040CD
:401180009E40004080090048004100400043004008010049A146004022420040254200400440004006400040A1430040012807D8044B53F820201844017A13780B43137035
:4011C000704700BF483E0000012808D8044B53F820201844017A137823EA010313707047483E000038B572B6394A137843F00403137000240BE0374863001A195100014443
:401200000A46098AD068FFF729FF0134E4B20A2CF1D900240CE02F48A20011194B000344B3F85820596D186DFFF71EFF0134E4B2032CF0D928494FF09040FFF7D7FE0A2408
:40124000264B1C70264A137843F0020313701032137843F002031370224D2B7843F040032B70A2F58632513A137843F01003137022461D491D48FFF7F7FE22461C491D4892
:40128000FFF7F2FE22461C491C48FFF7EDFE22461B491C48FFF7E8FE08221B491B48FFF7E3FE1B4A137843F008031370194C61232370FFF7DDFE812323700122164B1A701F
:4012C000FFF7AEFE0E2229461448FFF7CDFE38BDE8460040483E0000900000488358004003500140A0430040480900480051004054090048C051004060090048105100408B
:401300006C090048205100407809004832510040224300400048004004000840B043004008B502F0BFFA03680C2B00D1FEE7FEE708B5104E104D16E029686B68AC6800225A
:4013400004E051F8040B43F8040B0432A242F8D1E868002203E0002143F8041B04328242F9D11035013E002EE6D102F0A1FAFFF7C3FBFEE701000000E83E000008B5104AA3
:40138000104B1A60104A136843F40073136000230AE0032B03D80D4A52F8231000E00C490C4A42F8231001332F2BF2D90A4B1A780A4B1A70074A0A4B1A60FFF713FF08BD78
:4013C0000004FA050CED00E014ED00E000000000211300000080FF1FBC760040C080FF1F08ED00E07222074B1A702022FF3B1A700622623B1A70472210331A7000224F331A
:401400001A7070478865004010B501F0A5FB04460A4A137843F020031370FF3A137843F010031370033A137843F01003137001F0EFF9204601F094FB10BD00BF9865004040
:4014400008B5054B1B7823B9FFF7CCFF0122024B1A70FFF7D9FF08BD7181FF1F084B1B78DBB213F0200F06D0064A1078C0B213F01E0F02D17047002070470020704700BFA6
:40148000696400404B650040044B1B7813F0200F01D0012070470020704700BF6964004008B501F059FB064B1A7842F001021A701A7802F0FE021A7001F052FB08BD00BF5B
:4014C0009B650040034B1B7813F0040FFAD1024B18707047666400404864004038B5074B1B782BB938BDFFF7EDFF0134A4B201E005460024285D0028F5D138BD7181FF1F88
:40150000084B1B7833B97047305DFFF7DBFF0134E4B203E070B50D4606460024AC42F3D370BD00BF7181FF1F0222014B1A60704700E100E00122014B1A60704700E100E0BC
:4015400008B501F009FB0C4A137843F0200313700132137843F0100313700232137843F01003137001F0FCFA01F060F9FFF7DCFFFFF7E0FF08BD00BF946400400222014BED
:401580001A60704780E100E00122014B1A60704780E100E010B5FFF7F1FF064B1C78064A137803F009031C4300231370FFF7BCFF204610BD65640040D081FF1F10B5FFF752
:4015C000E3FF064B1B78064A147804F040041C4300231370FFF7AEFF204610BD67640040E181FF1F10B504462B4B1A7802F0FF0312B1013BDBB200E00723284A1278D2B28A
:401600009342F1D0FFF7BAFF254B1978254A137803F009030B4313701F4B1A78D2B21F4B1B78DBB29A4207D11E4B1B7813F0040F02D01D4B1C702CE0184A13780133DBB24A
:4016400013701378DBB2072B02D90022134B1A70124B1A78D2B2104B1B78DBB29A420ED10D4A13780133DBB213701378DBB2072B02D90022084B1A7001220C4B1A70074B6F
:401680001B78DBB20A4AD4540A4A137843F004031370FFF749FF10BDE281FF1FE081FF1F65640040D081FF1F44640040DC81FF1FD481FF1F8564004010B5FFF765FF134BF3
:4016C0001A78D2B2124B1B78DBB29A4214D0114B1B7813F0FF0F0CD10C4A13780133DBB213701378DBB2072B06D90022074B1A7002E00022074B1A70044B1B78DBB2064ACF
:40170000D45CE4B2FFF716FF204610BDDF81FF1FDD81FF1FDE81FF1FE481FF1F08B501E0094B1B78094B1B7813F0200FF8D1FFF72BFF0023064A1370064A1370064A137088
:40174000FFF7F8FE08BD00BF5464004067640040DE81FF1FDF81FF1FDD81FF1F08B501F0FBF90E4B1A7842F001021A701A7802F0FE021A7001F0F4F9FFF700FF0023084ADD
:401780001370084A1370084A1370084A137803F0FB031370FFF7C8FE08BD00BF94640040DC81FF1FE281FF1FE081FF1F8564004070B506460C46002506E0705DFFF712FFED
:4017C0000135EDB2013CE4B2002CF6D170BD00BF08B501E00A4B1B780A4B1B7813F0200FF8D101F0B9F9084B1A7842F001021A701A7802F0FE021A7001F0B2F908BD00BF84
:4018000054640040676400409464004010B50F22174B1A70174C022323600621012001F07BF91549012001F063F9012323600621002001F071F91149002001F059F9FFF70B
:40184000C7FF00240E4B1C700E4B1C700E4B1C700E4B1C700E4B1C700E4B1C70FFF79AFEFFF7ACFE0C4B1C70202202331A7010BD8464004080E100E0B91800005919000095
:40188000DE81FF1FDF81FF1FDD81FF1FDC81FF1FE281FF1FE081FF1F8564004008B5054B1B7823B9FFF7B2FF0122024B1A70FFF747FE08BD7381FF1F28E01F4B19781F4A72
:4018C000137803F009030B431370137813F0040F24D01B4B1B7813F0FF0F0CD1194A13780133DBB213701378DBB2072B06D90022144B1A7002E00022114B1A70114B1B78D2
:40190000DBB2114AD35CDBB2104A13700D4B1A78D2B20F4B1B78DBB29A42CED1094B1A78D2B20B4B1B78DBB29A4204D1094A137803F0FB031370704765640040D081FF1FB1
:40194000DC81FF1FE281FF1FD481FF1F44640040E081FF1F85640040204B1A7820490B7803F0400313430B7032E01E4B1A78D2B21D490B780133DBB20B700B78DBB2072B80
:4019800002D90021184B1970174B1978C9B2174B1B78DBB299420ED114490B780133DBB20B700B78DBB2072B02D900210F4B197001210F4B19700C4B1B78DBB20D49CA5468
:4019C000064B1A7806490B7803F0400313430B70034B1B7813F0200FC7D1704767640040E181FF1F54640040DD81FF1FDF81FF1FDE81FF1FE481FF1F044A137803F07F03FE
:401A0000C001C0B218431070704700BF10510040044A137803F0EF03000100F0100018431070704720510040014B1B685865704708ED00E04001C0B2014B1870704700BF6A
:401A400005E400E02022014B1A60704700E100E02022014B1A60704780E100E010B50446FFF7F6FF2046FFF7DFFF0720FFF7E2FFFFF7E8FF10BD00BF10B59DF80840012CB3
:401A800051D1013809282ED8DFE800F0052D2D052D2D0F192D230F2B03D92548007840B222E02448007840B21EE00F2B03D92248007840B218E02148007840B214E00F2B01
:401AC00003D91F48007840B20EE01E48007840B20AE00F2B03D91C48007840B204E01B48007840B200E0002001EB401101FB02F1C90B8AB20D2B0BD8C3F10E0289B2114154
:401B00008AB2611E124800EB810101338B7005E0631E0F4901EB83030F219970013C0C4B23F8242010BD002000F0C0FF10BD00BF180100491C010049190100491D010049DE
:401B40001A0100491E0100491B0100491F0100497481FF1FF8B5074600F0FEFF06460D4D2B7843F003032B700B4C237843F0030323700A4B1F70032000F0B0FF2B7803F0BA
:401B8000FC032B70237803F0FC032370304600F0E7FFF8BDF8460040F9460040925800400022324B1A7101285FD170B53822304B1A70042202331A70062201331A7000244D
:401BC00001331C7001331C703F2201331A7002331C7001331C7001331C7001250A331D70502203F527631A700A2201331A702C2201331A7001331C70442203331A70482251
:401C000001331A7001331D7002331D70112201331A70192201331A70972201331A705220FFF798FF5822134B1A7001331C70052605331E70022201331A7001331C7001331A
:401C40001C70204600F010FE43F233320A4B1A602946304600F02CFE2946252000F0ACFE06491D2000F044FF70BD70477481FF1F004E004094580040EC81FF1F4D1F000057
:401C8000F0B583B0284D01272F70284E00247471102000F0FBFD102000F07CFE05211D2000F03AFF0422224B1A7001331C7007331C70204A137843F0180313701E4B1C70F5
:401CC00003F2F5231C7001331C700A22A3F209331A7001331C7002331C705B2205331A705E2201331A7004331C701422A3F68C231A70009710234FF4004248F6F05102204B
:401D0000FFF7BAFE2B78013B06EB83039A780B4B1A702B78013B36F82320094B1A802878FFF73EFF03B0F0BDCC80FF1F7481FF1F96580040075B0040935800400E4E004028
:401D40000C4E004070B500F007FF06462A4B1B782A4B1A7842F001021A701A7842F010021A7010331A7842F001021A701A7842F010021A70224D2B7843F002032B70214CEE
:401D8000237843F0020323701F4A137843F003031370032000F0A2FE2B7803F0FD032B70237803F0FD032370184A137843F0060313707A22164B1A70164A137843F00103B3
:401DC00013701032137843F0010313700F3A137843F0010313701032137843F0010313704FF000530C4A1360A2F5C0721360304600F0B6FE70BD00BFCC80FF1FAA43004090
:401E0000F8460040F9460040915800407758004082580040A143004080E200E008B5084B9B794BB9064BDB7913F0FF0F01D1FFF727FF0122024B9A71FFF784FF08BD00BFA9
:401E40007481FF1F024A137843F0010313707047004E0040024A137803F0FE0313707047004E0040094B1B7913F0FF0F03D0074B5B79DBB203E0064B1B7803F00103012B7D
:401E800001D00028EED01846704700BF7481FF1F014E0040154B1B7803F00303012B07D8134B1888023B1B889BB243EA004013E0022B0AD10E4B1888023B1B7843EA004332
:401EC0000C4A107843EA002006E00B4B188883B2074A108843EA0040084B1B7913F0FF0F02D00022054B5A71704700BF144E0040124E0040114E0040104E00407481FF1F41
:401F0000064B9B68C01A4FF47A7303FB00F0044B1B6890FBF3F000B2704700BF7481FF1FEC81FF1F10B5084A137843F004031370FFF788FF0020FFF795FFFFF7ABFF0446DF
:401F4000FFF788FF204610BD014E0040704700BF084A137843F0010313701032137843F00103137002F64D32137843F001031370704700BFA3430040084A137803F0FE0365
:401F80001370A2F65D32137803F0FE0313701032137803F0FE031370704700BF004F0040014B1870704700BF034F0040014B1878704700BF034F0040014B1880704700BF12
:401FC000044F0040014B1880704700BF064F004008B5154A137803F0010313700232137803F0FC031370114B1A7802F0CF021A701A7842F030021A701A7802F0F0021A704F
:402000001A7842F00F021A70094A137843F0010313706320FFF7D0FF6320FFF7D3FF0820FFF7BEFF08BD00BF004F00400B4F0040014F004008B5054B1B7823B9FFF7C8FFC5
:402040000122024B1A70FFF783FF08BD8081FF1F024B1B68C3F88400704700BF08ED00E04001C0B2014B1870704700BF11E400E04FF40032014B1A60704700BF00E100E06C
:402080004FF40032014B1A60704700BF80E100E010B50446FFF7F4FF2046FFF7D9FF0520FFF7DEFFFFF7E4FF10BD00BF024A137843F08003137070477B650040014B1880DA
:4020C000704700BF126A0040014B1880704700BF926A0040014B1880704700BF526A0040014B1870704700BF8A650040014B1878704700BF6A650040014B188880B2704713
:40210000B26A004008B501E0FFF7F6FFFFF7EEFF10F0100FF8D108BD10B5154A137803F0C00343F00B0313701E32137843F001031370104C237843F00103237040F2E73062
:40214000FFF7BCFF40F2E730FFF7BEFF0020FFF7C1FF0020FFF7C4FF00F0FEFC237843F01003237000F0FCFCFFF7CCFF10BD00BF7B6500409A65004008B5054B1B7823B995
:40218000FFF7CAFF0122024B1A70FFF78FFF08BD8181FF1F0822014B1A60704700E100E00422014B1A60704700E100E008B500F0D3FC0C4A137843F020031370FF3213783F
:4021C00043F010031370013A137843F01003137000F0C6FC00F05CFCFFF7DCFFFFF7E0FF08BD00BF986400400822014B1A60704780E100E00422014B1A60704780E100E05B
:4022000010B5FFF7F1FF064B1C78064A137803F009031C4300231370FFF7BCFF204610BD67650040FF81FF1F10B5FFF7E3FF064B1B78064A147804F040041C430023137007
:40224000FFF7AEFF204610BD66650040F881FF1F10B504462B4B1A7802F0FF0312B1013BDBB200E00723284A1278D2B29342F1D0FFF7BAFF254B1978254A137803F0090386
:402280000B4313701F4B1A78D2B21F4B1B78DBB29A4207D11E4B1B7813F0040F02D01D4B1C702CE0184A13780133DBB213701378DBB2072B02D90022134B1A70124B1A785C
:4022C000D2B2104B1B78DBB29A420ED10D4A13780133DBB213701378DBB2072B02D90022084B1A7001220C4B1A70074B1B78DBB20A4AD4540A4A137843F004031370FFF756
:4023000049FF10BDFC81FF1FFD81FF1F67650040FF81FF1F47650040FB81FF1F0082FF1F8765004010B5FFF765FF134B1A78D2B2124B1B78DBB29A4214D0114B1B7813F093
:40234000FF0F0CD10C4A13780133DBB213701378DBB2072B06D90022074B1A7002E00022074B1A70044B1B78DBB2064AD45CE4B2FFF716FF204610BDFE81FF1FF981FF1F4E
:40238000FA81FF1FF081FF1F08B501E0094B1B78094B1B7813F0200FF8D1FFF72BFF0023064A1370064A1370064A1370FFF7F8FE08BD00BF5765004066650040FA81FF1FC2
:4023C000FE81FF1FF981FF1F08B500F0C5FB0E4B1A7842F001021A701A7802F0FE021A7000F0BEFBFFF700FF0023084A1370084A1370084A1370084A137803F0FB031370F2
:40240000FFF7C8FE08BD00BF97650040FB81FF1FFC81FF1FFD81FF1F8765004070B506460C46002506E0705DFFF712FF0135EDB2013CE4B2002CF6D170BD00BF08B501E05C
:402440000A4B1B780A4B1B7813F0200FF8D100F083FB084B1A7842F001021A701A7802F0FE021A7000F07CFB08BD00BF57650040666500409765004010B50F22174B1A7061
:40248000174C082323600621032000F045FB1549032000F02DFB042323600621022000F03BFB1149022000F023FBFFF7C7FF00240E4B1C700E4B1C700E4B1C700E4B1C70E1
:4024C0000E4B1C700E4B1C70FFF79AFEFFF7ACFE0C4B1C702022013B1A7010BD8864004080E100E025250000C5250000FA81FF1FFE81FF1FF981FF1FFB81FF1FFC81FF1F88
:40250000FD81FF1F8765004008B5054B1B7823B9FFF7B2FF0122024B1A70FFF747FE08BD8281FF1F28E01F4B19781F4A137803F009030B431370137813F0040F24D01B4BD3
:402540001B7813F0FF0F0CD1194A13780133DBB213701378DBB2072B06D90022144B1A7002E00022114B1A70114B1B78DBB2114AD35CDBB2104A13700D4B1A78D2B20F4B52
:402580001B78DBB29A42CED1094B1A78D2B20B4B1B78DBB29A4204D1094A137803F0FB031370704767650040FF81FF1FFB81FF1FFC81FF1F0082FF1F47650040FD81FF1FDF
:4025C00087650040204B1A7820490B7803F0400313430B7032E01E4B1A78D2B21D490B780133DBB20B700B78DBB2072B02D90021184B1970174B1978C9B2174B1B78DBB2EF
:4026000099420ED114490B780133DBB20B700B78DBB2072B02D900210F4B197001210F4B19700C4B1B78DBB20D49CA54064B1A7806490B7803F0400313430B70034B1B7816
:4026400013F0200FC7D1704766650040F881FF1F57650040F981FF1FFE81FF1FFA81FF1FF081FF1F044A137803F0FE0300F0010018431070704700BF30510040014B1B683F
:402680001865704708ED00E04001C0B2014B1870704700BF04E400E01022014B1A60704700E100E01022014B1A60704780E100E010B50446FFF7F6FF2046FFF7DFFF062092
:4026C000FFF7E2FFFFF7E8FF10BD00BF024B1B68C3F88800704700BF08ED00E04001C0B2014B1870704700BF12E400E04FF48022014B1A60704700BF00E100E04FF48022A2
:40270000014B1A60704700BF80E100E010B50446FFF7F4FF2046FFF7D9FF0720FFF7DEFFFFF7E4FF10BD00BF084A137843F0020313701032137843F00203137002F65932EE
:40274000137843F001031370704700BFA3430040014B1870704700BF0F4F0040014B1878704700BF0F4F0040014B1880704700BF104F0040014B1880704700BF124F0040AC
:4027800008B5154A137803F0010313700232137803F0FC031370114B1A7802F0CF021A701A7842F030021A701A7802F0F0021A701A7842F00F021A70094A137843F0010395
:4027C00013706320FFF7D0FF6320FFF7D3FF0820FFF7BEFF08BD00BF0C4F0040174F00400D4F004008B5054B1B7823B9FFF7C8FF0122024B1A70FFF797FF08BD8381FF1FE1
:40280000024B1878C0F38000704700BF01510040054A137843F0080313701032137843F008031370704700BFA2430040054A137843F0020313701032137843F0020313709F
:40284000704700BFA243004010B5002404E02046FEF7BAFC0134E4B2012CF8D9FF22014B1A7010BDCD80FF1F10B50446FFF7ECFF2046FEF79BFC014B1C7010BDCD80FF1FF5
:40288000014B188880B2704780400040034B1A7800F0F80010431870704700BF82400040024B187800F00700704700BF8240004070B505460E46FFF7F3FF0446FFF7E0FF11
:4028C000A84256D02B4B1B7803F0010294B900B185B938B9284B1D80284A137803F0BF03137070BD254A137843F040031370224B1D8070BD22B3002321490B7001240F31BE
:402900000C7004310B700C390B7803F07F030B701A4B1B7813F0080F00D08DB9194B18800721013B1970164B1B7813F0010FFAD110490B7803F0FE030B700021104B197080
:402940000C4B1B7813F0010F0DD00E4B1D800EB1032200E001220A4B1A70094B1B7813F0010FFAD170BD044B1D8002490B7813430B7070BDA24300408040004082400040F0
:402980000140004002400040014B188880B2704700410040034B1A7800F0F80010431870704700BF02410040024B187800F00700704700BF0241004070B505460E46FFF79B
:4029C000F3FF0446FFF7E0FFA84256D02B4B1B7803F0010294B900B185B938B9284B1D80284A137803F0BF03137070BD254A137843F040031370224B1D8070BD22B30023F6
:402A000021490B70012413310C7004390B7008390B7803F07F030B701A4B1B7813F0080F00D08DB9194B18800721013B1970164B1B7813F0010FFAD110490B7803F0FE03AD
:402A40000B700021104B19700C4B1B7813F0010F0DD00E4B1D800EB1032200E001220A4B1A70094B1B7813F0010FFAD170BD044B1D8002490B7813430B7070BDA143004072
:402A800000410040024100400140004002400040054A137843F0040313701032137843F004031370704700BFA243004001BE704710B5044605E0084B186800F045F8A4F550
:402AC0000044B4F5004FF6D8034B586800FB04F000F03AF810BD00BFD080FF1F08B5034B1B7A00FB03F000F02FF808BDD080FF1F70B504460E46074B1D681F2802D90020FF
:402B0000FFF7D4FF04F01F04103455F8240045F8246070BD08ED00E038B504460D46072902D90020FFF7C2FF1F2C02D90020FFF7BDFF04F01F0000F1604000F564406D012E
:402B4000EDB2057038BD00BF0230800803D000BF01380046FCD17047EFF3108072B6704780F31088704700BF81F0004102E000BF83F0004330B54FEA41044FEA430594EA01
:402B8000050F08BF90EA020F1FBF54EA000C55EA020C7FEA645C7FEA655C00F0E2804FEA5454D4EB5555B8BF6D420CDD2C4480EA020281EA030382EA000083EA010180EAA8
:402BC000020281EA0303362D88BF30BD11F0004F4FEA01314FF4801C4CEA113102D0404261EB410113F0004F4FEA03334CEA133302D0524263EB430394EA050F00F0A780F5
:402C0000A4F10104D5F1200E0DDB02FA0EFC22FA05F2801841F1000103FA0EF2801843FA05F359410EE0A5F120050EF1200E012A03FA0EFC28BF4CF0020C43FA05F3C01890
:402C400051EBE37101F0004507D54FF0000EDCF1000C7EEB00006EEB0101B1F5801F1BD3B1F5001F0CD349085FEA30004FEA3C0C04F101044FEA445212F5800F80F09A80BD
:402C8000BCF1004F08BF5FEA500C50F1000041EB045141EA050130BD5FEA4C0C404141EB010111F4801FA4F10104E9D191F0000F04BF01460020B1FA81F308BF2033A3F1FD
:402CC0000B03B3F120020CDA0C3208DD02F1140CC2F10C0201FA0CF021FA02F10CE002F11402D8BFC2F1200C01FA02F120FA0CFCDCBF41EA0C019040E41AA2BF01EB045160
:402D0000294330BD6FEA04041F3C1CDA0C340EDC04F11404C4F1200220FA04F001FA02F340EA030021FA04F345EA030130BDC4F10C04C4F1200220FA02F001FA04F340EA59
:402D40000300294630BD21FA04F0294630BD94F0000F83F4801306BF81F480110134013D4EE77FEA645C18BF7FEA655C29D094EA050F08BF90EA020F05D054EA000C04BF90
:402D80001946104630BD91EA030F1EBF0021002030BD5FEA545C05D14000494128BF41F0004130BD14F580043CBF01F5801130BD01F0004545F0FE4141F470014FF000006F
:402DC00030BD7FEA645C1ABF194610467FEA655C1CBF0B46024650EA013406BF52EA033591EA030F41F4002130BD00BF90F0000F04BF0021704730B54FF4806404F13204F9
:402E00004FF000054FF0000150E700BF90F0000F04BF0021704730B54FF4806404F1320410F0004548BF40424FF000013EE700BF42004FEAE2014FEA31014FEA02701FBF73
:402E400012F07F4393F07F4F81F06051704792F0000F14BF93F07F4F704730B54FF4607401F0004521F0004120E700BF50EA010208BF704730B54FF000050AE050EA0102A3
:402E800008BF704730B511F0004502D5404261EB41014FF4806404F132045FEA915C3FF4DCAE4FF003025FEADC0C18BF03325FEADC0C18BF033202EBDC02C2F1200300FAE4
:402EC00003FC20FA02F001FA03FE40EA0E0021FA02F11444C1E600BF70B54FF0FF0C4CF4E06C1CEA11541DBF1CEA135594EA0C0F95EA0C0F00F0DEF82C4481EA030621EA2F
:402F00004C5123EA4C5350EA013518BF52EA033541F4801143F4801338D0A0FB02CE4FF00005E1FB02E506F00042E0FB03E54FF00006E1FB03569CF0000F18BF4EF0010E4F
:402F4000A4F1FF04B6F5007F64F5407404D25FEA4E0E6D4146EB060642EAC62141EA55514FEAC52040EA5E504FEACE2EB4F1FD0C88BFBCF5E06F1ED8BEF1004F08BF5FEA14
:402F8000500E50F1000041EB045170BD06F0004646EA010140EA020081EA0301B4EB5C04C2BFD4EB0C0541EA045170BD41F480114FF0000E013C00F3AB8014F1360FDEBF69
:402FC000002001F0004170BDC4F10004203C35DA0C341BDC04F11404C4F1200500FA05F320FA04F001FA05F240EA020001F0004221F0004110EBD37021FA04F642EB0601E6
:403000005EEA430E08BF20EAD37070BDC4F10C04C4F1200500FA04F320FA05F001FA04F240EA020001F0004110EBD37041F100015EEA430E08BF20EAD37070BDC4F12005A3
:4030400000FA05F24EEA020E20FA04F301FA05F243EA020321FA04F001F0004121FA04F220EA020000EBD3705EEA430E08BF20EAD37070BD94F0000F0FD101F00046400092
:4030800041EB010111F4801F08BF013CF7D041EA060195F0000F18BF704703F00046520043EB030313F4801F08BF013DF7D043EA0603704794EA0C0F0CEA135518BF95EAB4
:4030C0000C0F0CD050EA410618BF52EA4306D1D181EA030101F000414FF0000070BD50EA410606BF1046194652EA430619D094EA0C0F02D150EA013613D195EA0C0F05D1B3
:4031000052EA03361CBF104619460AD181EA030101F0004141F0FE4141F470014FF0000070BD41F0FE4141F4780170BD70B54FF0FF0C4CF4E06C1CEA11541DBF1CEA135591
:4031400094EA0C0F95EA0C0F00F0A7F8A4EB050481EA030E52EA03354FEA013100F088804FEA03334FF0805545EA131343EA12634FEA022245EA111545EA10654FEA002673
:403180000EF000419D4208BF964244F1FD0404F5407402D25B084FEA3202B61A65EB03055B084FEA32024FF480104FF4002CB6EB020E75EB030E22BFB61A754640EA0C00CD
:4031C0005B084FEA3202B6EB020E75EB030E22BFB61A754640EA5C005B084FEA3202B6EB020E75EB030E22BFB61A754640EA9C005B084FEA3202B6EB020E75EB030E22BFF4
:40320000B61A754640EADC0055EA060E18D04FEA051545EA16754FEA06164FEAC30343EA52734FEAC2025FEA1C1CC0D111F4801F0BD141EA00014FF000004FF0004CB6E74D
:4032400011F4801F04BF01430020B4F1FD0C88BFBCF5E06F3FF6AFAEB5EB030C04BFB6EB020C5FEA500C50F1000041EB045170BD0EF0004E4EEA113114EB5C04C2BFD4EBE2
:403280000C0541EA045170BD41F480114FF0000E013C90E645EA060E8DE60CEA135594EA0C0F08BF95EA0C0F3FF43BAF94EA0C0F0AD150EA01347FF434AF95EA0C0F7FF419
:4032C00025AF104619462CE795EA0C0F06D152EA03353FF4FDAE1046194622E750EA410618BF52EA43067FF4C5AE50EA41047FF40DAF52EA43057FF4EBAE12E74FEA41023B
:40330000B2F1E04324BFB3F5001CDCF1FE5C0DD901F0004C4FEAC0024CEA5070B2F1004F40EB830008BF20F00100704711F0804F21D113F13872BCBF01F00040704741F4AE
:4033400080114FEA5252C2F11802C2F1200C10FA0CF320FA02F018BF40F001004FEAC1234FEAD32303FA0CFC40EA0C0023FA02F34FEA4303CCE77FEA625307D150EA0133E7
:403380001EBF4FF0FE4040F44000704701F0004040F0FE4040F40000704700BF80F0004002E000BF81F0004142001FBF5FEA410392EA030F7FEA226C7FEA236C6AD04FEA9F
:4033C0001262D2EB1363C1BFD218414048404140B8BF5B42192B88BF704710F0004F40F4000020F07F4018BF404211F0004F41F4000121F07F4118BF494292EA030F3FD0DB
:40340000A2F1010241FA03FC10EB0C00C3F1200301FA03F100F0004302D5494260EB4000B0F5000F13D3B0F1807F06D340084FEA310102F10102FE2A51D2B1F1004F40EBAC
:40344000C25008BF20F0010040EA03007047490040EB000010F4000FA2F10102EDD1B0FA80FCACF1080CB2EB0C0200FA0CF0AABF00EBC25052421843BCBFD0401843704739
:4034800092F0000F81F4000106BF80F400000132013BB5E74FEA41037FEA226C18BF7FEA236C21D092EA030F04D092F0000F08BF0846704790EA010F1CBF0020704712F090
:4034C0007F4F04D1400028BF40F00040704712F100723CBF00F50000704700F0004343F0FE4040F4000070477FEA226216BF08467FEA23630146420206BF5FEA412390EABA
:40350000010F40F4800070474FF0000304E000BF10F0004348BF40425FEA000C08BF704743F0964301464FF000001CE050EA010208BF70474FF000030AE000BF50EA01021B
:4035400008BF704711F0004302D5404261EB41015FEA010C02BF84460146002043F0B64308BFA3F18053A3F50003BCFA8CF2083AA3EBC25310DB01FA02FC634400FA02FCC9
:40358000C2F12002BCF1004F20FA02F243EB020008BF20F00100704702F1200201FA02FCC2F1200250EA4C0021FA02F243EB020008BF20EADC7070474FF0FF0C1CEAD0527F
:4035C0001EBF1CEAD15392EA0C0F93EA0C0F6FD01A4480EA010C400218BF5FEA41211ED04FF0006343EA501043EA5111A0FB01310CF00040B1F5000F3EBF490041EAD3719E
:403600005B0040EA010062F17F02FD2A1DD8B3F1004F40EBC25008BF20F00100704790F0000F0CF0004C08BF49024CEA502040EA51207F3AC2BFD2F1FF0340EAC250704739
:4036400040F400004FF00003013A5DDC12F1190FDCBF00F000407047C2F10002410021FA02F1C2F1200200FA02FC5FEA310040F1000053EA4C0308BF20EADC70704792F055
:40368000000F00F0004C02BF400010F4000F013AF9D040EA0C0093F0000F01F0004C02BF490011F4000F013BF9D041EA0C018FE70CEAD15392EA0C0F18BF93EA0C0F0AD0D7
:4036C00030F0004C18BF31F0004CD8D180EA010000F00040704790F0000F17BF90F0004F084691F0000F91F0004F14D092EA0C0F01D142020FD193EA0C0F03D14B0218BF3C
:40370000084608D180EA010000F0004040F0FE4040F40000704740F0FE4040F4400070474FF0FF0C1CEAD0521EBF1CEAD15392EA0C0F93EA0C0F69D0A2EB030280EA010CEB
:4037400049024FEA402037D04FF0805343EA111143EA10130CF000408B4238BF5B0042F17D024FF4000C8B4224BF5B1A40EA0C00B3EB510F24BFA3EB510340EA5C00B3EB0F
:40378000910F24BFA3EB910340EA9C00B3EBD10F24BFA3EBD10340EADC001B0118BF5FEA1C1CE0D1FD2A3FF650AF8B4240EBC25008BF20F0010070470CF0004C4CEA5020CE
:4037C0007F32C2BFD2F1FF0340EAC250704740F400004FF00003013A37E792F0000F00F0004C02BF400010F4000F013AF9D040EA0C0093F0000F01F0004C02BF490011F417
:40380000000F013BF9D041EA0C0195E70CEAD15392EA0C0F08D142027FF47DAF93EA0C0F7FF470AF084676E793EA0C0F04D14B023FF44CAF08466EE730F0004C18BF31F08F
:40384000004CCAD130F000427FF45CAF31F000437FF43CAF5FE700BF4FEA4002B2F1FE4F0FD34FF09E03B3EB12620DD94FEA002343F0004310F0004F23FA02F018BF40420C
:4038800070474FF00000704712F1610F01D1420205D110F0004008BF6FF0004070474FF000007047014B1868704700BF4081FF1F0E4B70B51E460E4C0025E41AA410A5428E
:4038C00004D056F8253098470135F8E700F0FAFA084B094C1E46E41AA4100025A54204D056F8253098470135F8E770BDD03E0000D03E0000D03E0000D83E000010B5431EB1
:403900000A44914204D011F8014B03F8014FF8E710BD03460244934202D003F8011BFAE770470000000000002A2A2A2A2A2A2A2A2A2020202048454C503A20504F53534956
:40394000424C452053455454494E4753202020202A2A2A2A2A2A2A2A2A0D0D00662E2046756C6C205363616C650D0A702E2053616D706C696E6720467265710D0A742E20E9
:403980005365742054656D706572617475726520556E69740D0A762E205072696E742044617461206F6E204243500D0A622E20537461727420526567697374726174696F77
:4039C0006E0D0A732E2053746F7020526567697374726174696F6E0D0A0D00002A2A2A2A2A2A2A2A2A2A2A2A2A2A2A2A2A2A2A2A2A2A2A2A2A2A2A2A2A2A2A2A2A2A2A2AB4
:403A00002A2A2A2A2A2A2A2A2A2A2A0D0A0000002A2A2A2A2A2A2A2A2A2020202043484F4F534520414343454C45524F4D455445522046554C4C205343414C4520202020B0
:403A40002A2A2A2A2A2A2A2A2A0D0D312E202B2D32670D0A322E202B2D34670D0A332E202B2D38670D0A342E202B2D3136670D0A352E20476F206261636B0D0A0D00000045
:403A8000594F552043484F4F5345202B2D32670D0D000000594F552043484F4F5345202B2D34670D0D000000594F552043484F4F5345202B2D38670D0D000000594F5520C6
:403AC00043484F4F5345202B2D3136670D0D0000455849542E2E2E2E0D0D0000494E56414C494420494E5055542C20455849542E2E2E2E0D0D0D0D0D0D0000002A2A2A2AAE
:403B00002A2A2A2A2A2020202043484F4F534520414343454C45524F4D455445522053414D504C494E47204652455155454E4359202020202A2A2A2A2A2A2A2A2A0D0D3105
:403B40002E203120487A0D0A322E20313020487A0D0A332E20323520487A0D0A342E20353020487A0D0A352E20476F206261636B0D0000002A2A2A2A2A2A2A2A2A2A2A2A43
:403B80002A2A2A2A2A2A2A2A2A2A2A2A2A2A2A2A2A2A2A2A2A2A2A2A2A2A2A2A2A2A2A2A2A2A2A2A2A2A2A2A2A2A2A2A2A2A2A2A2A2A2A2A2A0D0A00594F552043484F4FF6
:403BC0005345203120487A0D0D000000594F552043484F4F534520313020487A0D0D0000594F552043484F4F534520323520487A0D0D0000594F552043484F4F53452035F1
:403C00003020487A0D0D00002A2A2A2A2A2A2A2A2A2020202043484F4F53452054454D504552415455524520554E4954202020202A2A2A2A2A2A2A2A2A0D0D312E20436594
:403C40006C736975730D0A322E2046616872656E686569740D0A332E20476F204261636B0D000000594F552043484F4F53452043454C5349555320554E49540D0D00000003
:403C8000594F552043484F4F53452046414852454E4845495420554E49540D0D000000002A2A2A2A2A2A2A2A2A20202020524547495354524154494F4E20414C5245414450
:403CC000592053544152544544202020202A2A2A2A2A2A2A2A2A0D002A2A2A2A2A2A2A2A2A20202020524547495354524154494F4E2053544152544544202020202A2A2A63
:403D00002A2A2A2A2A2A0D002A2A2A2A2A2A2A2A2A20202020524547495354524154494F4E20414C52454144592053544F50504544202020202A2A2A2A2A2A2A2A2A0D007D
:403D40002A2A2A2A2A2A2A2A2A20202020524547495354524154494F4E2053544F50504544202020202A2A2A2A2A2A2A2A2A0D002A2A2A2A2A2A2A2A2A202020205649537C
:403D800055414C495A4154494F4E2053544152544544202020202A2A2A2A2A2A2A2A2A0D000000002A2A2A2A2A2A2A2A2A2020202056495355414C495A4154494F4E204178
:403DC0004C52454144592053544152544544202020202A2A2A2A2A2A2A2A2A0D000000002A2A2A2A2A2A2A2A2A2020202056495355414C495A4154494F4E2053544F505022
:403E00004544202020202A2A2A2A2A2A2A2A2A0D00000000494E56414C494420494E5055542E2E2E2E0D0D0D0D0D0D000D2A2A2A2A2A20524553455420454550524F4D2AA1
:403E40002A2A2A2A0D000000035B00402443004040000000004F00401800405100403000F0510040100000000140000480040140800B001401408002001701408003001B6D
:403E80000140000100400140000A004C01400002005001402000000060520040C0070048060000040140C8070048800080160140480800488000801A0140C80800488000B0
:403EC00043000000F8B500BFF8BC08BC9E4670474D0000007D130000F8B500BFF8BC08BC9E46704729000000F83E0000C880FF1F80000000C00000000000000001FF00009F
:403F00000000E02EC05D00001800000000366E010000000000000000000000000000000000000000000000000000000000000000C03E00000000000000000000000000009B
:403F4000000000000000000000000000000000000000000000000000000000000000000000000000000000000000000000000000E080FF1F000000000000000000000000C3
:403F80000000000000000000000000000000000000000000000000000000000000000000000000000000000000000000000000000000000000000000000000000000000001
:403FC00000000000000000000000000000000000000000000000000000000000000000000000000000000000000000000000000000000000000000000000000000000000C1
:404000000000000000000000000000000000000000000000000000000000000000000000000000000000000000000000000000000000000000000000000000000000000080
:404040000000000000000000000000000000000000000000000000000000000000000000000000000000000000000000000000000000000000000000000000000000000040
:020000040003F7
:0200000480007A
:40000000044F004003520040046400400265004003030140090401404005014061060140460701405608014044090140020B0140030D0140040E0140030F01400C15014024
:400040000F160140541701405B1801404E190140291A0140491B014007400140134101400F4201400943014006440140054501400646014002470140074801400249014064
:40008000074C01400A4D0140065001400251014001400A4B0D60164B000401201102840F860F880F893888728A0D8340EA03EE028301B701D409D604D904DB04DC70DD10B4
:4000C000DF01005002200340081009080A400B0510281101181019901B04204421082228270228102A822B0831083240342035503740388039153E01406442804801490857
:400100004A084B015040512052045D8A5F2062806742682869556AC271407202811287408D109201A001A740B001B201C00FC20FC40ECA0FCC0ACE8FD007D20CD6F0D8985B
:40014000E61006040B100C0E0E011102130D14021509160C173618101E0320102410280D29052A022B3A2D232F0C3010320835303607370F38083B803E015401580459048F
:400180005B045C125D305F01847385EC860489E88B048D6C8E088F8091EC94739517960C9740982A99019A449B069C039D109E449F68A1ECA255A780A911AB26AD08AF138F
:4001C000B040B20FB380B430B507B778B820BA08BBA0BE11BF04C002C740C9FFCA07CBFFCC40CD20CEF0CF05D008D440D604D804D904DA04DB04DC13DD13DF01E040E1A86A
:40020000E240E32000080180044808840A140C080E020F0810801680171818041A501E021F052180221023142510268027012A862B0C2E802F0831803219360837093954E0
:400240003D204004488052025D205E485F026120639180C081208CA08E019154920297069A86A120A208A308A510A680A740A840AB24AF02B440B628B708C0A5C2E7C478DB
:40028000CA3FCCCFCE2ED004D6F0D80FE211E6030010011904230519060C082309180A140B040D1E0E100F0110211118121A13011410151919041B191C10232024102720C7
:4002C000280229112A1D2B022D012F18321F331135203620370F3A083BC03E403F1040254101450B460E470C481549FF4AFF4BFF4EF04F44500C56025724580459045A0434
:400300005B045C225D235F0166C06A406B028301880E970298039A04A005A20AA404A609AF02B20FB501B702B808BF40D418D604D804D904DB04DC31DD30DF0100100660C1
:40034000071508200EA1110213081408150418101C021F042001212024062544264027102B012EA82F803204362837013A023D843E11440246044C204F80558057085A0208
:4003800060056340640867086C4A6D046E216F0174808020830887408C408F4098209B08A101B420B501B708C0F2C2B2C46CCAF8CCE2CEF1D030D210D601D82DE440E61010
:4003C000E850EC40EA80EE80AB80AF80EE02B982BF41D904DF01268027808A80840187088F809F88A001AA01AD20B640B710E208E408EE021402170124013402360137014A
:400400003E5054405604580459045B045C505D205F010008012002020380080409800A040B800F2010A11208150819901A041B8A1C021E08200821042210270229903084E5
:400440003212370838803908400842404308480849044A014B2150045180525059045A025BA063826651671082098601871A8B108F639080938094089604980D9D809F10FF
:40048000A0A0A202A311A40CA604A848AA10AC01AF01B004B344B604B713C00FC22FC42FCA0CCC4FCE0AD007D20CD60FD8F9E204E420E641E801EA82EE0C0503070C0901A8
:4004C0000B140C010D030E020F18100314011512160219101B0221122403251229022D022F103001351F3602388039203E0156025710580459045B045C235D305F018004DE
:400500008108842785048618890C8C1C8D7F8E21903F9373941C9542962299739A049B0C9D63A010A408A521A818A91CAB63AD0FAE23AF70B160B31CB41FB50FB638BAA2E1
:40054000BB20C030C106C9FFCAFFCBFFCDA0CF04D018D804D904DA04DC33DD05DF01E040E2C0E440E540E6C0E8C0EAC0ECC0EEC0000601800580080809200A400E400F6055
:4005800010A9170819901A401B101E801F80200422152308251026202704282829902C022D042E113001310A329036183A153B403DA843084B205E806D106E086F0174A8E7
:4005C000761580028A208E108F0891049201961A9E0A9F04A002A164A218A620A781A801AA04AC09AE80B082B248B580C08DC23EC42FCAFECC6FCE7FD002D204D610E010F4
:40060000E220E430E601E820EA10EE80000605010A030D0116011806210130043401360237013E104030410645D04621481E49FF4AFF4BFF4DAF4E0F4F045018540558046B
:4006400059045A045B045C555D555F01604062C06440654066C068C06AC06CC06EC0038805100B280E1815101602170118401A041B401D9A1E102240240127602B802C02D5
:400680002D042E013618374038403B083C013DA843084582470849014B204E044F4053945608570159015A84764081108280864088218A028F6091149209934097209B09CB
:4006C0009C209E0AA002A154A21CA308A401A50AA680A701AD04B504C04AC266C4D0CAD1CC70CEFAD0D2D234D60BE408E610EE4032083310350136403B40CCF0CE1032207C
:40070000570861086280831093049B049D019F10A648AB04AF44CC10D440D640D840E220EAC0EE40532057105B045F0486408D0893049B049D01A508A6E8A708D460D6C0F2
:40074000E64086208F109D01A628A730AA80AF08E640EE6013027C208820C408DE01E00100225B10AF02C00AD40145029F10B011D001EA01EE019F10A502254089408D0140
:400780009D01A608B320C820AA08EA200980818089029F10A502C202E40410407401840188408F109F10C408DE04E201E402008E0A8E0C0E102C1A2C1C2C00FF010F00006F
:4007C000888C000040000000841A00000A181002010200180782380004008000569C09030400000060180002841A00008418000080C104380033004400137FE0800F0800C0
:4008000008000028000050002604300005BEFC0D1FFFFFFF2200F008040000000000022004040404111100010000C00040011011C00100114001400100000000000000000D
:40084000000000000000000000000C0011000E03C000000000140800C0100040111006AC0C0C13710000402020000300C000000000DCC022C00900D04000801F0FE0300057
:4008800080002020000005006204300005CEFD0B1FFFFFFF2200F00C040000000900040004040404332200010000C00040011011C0010011400140010000000000000000DB
:4008C000000000000000000000600000003100C201D20E240002009800000000440D3100E70D00000002000D800D0000000D0000E7000000220D5100800F60800700187082
:40090000008000020000400434050600010000CE30FFFFFF62A0F0410C008000000000000404040423530001000000000000400200103010001010120000000000000000AC
:4009400000000000000000000400006464006400000000008400508C8C008C00000000008000408B8B000000000000001400011612000200000000000001010000001000A8
:4009800025001801000000000000000000000000000000000000000000000000000000000000000000000000000000000000000000000000000000000000000000000000F9
:4009C00000000000000000000000000000000000000000000000000000000000000000000000000000000000000000000000000000000000000000000000000000000000F7
:400A000000000000000000000000000000000000000000000000000000000000000000000000000000000000000000000000000000000000000000000000000000000000B6
:400A40000000000000000000000000000000000000000000000000000000000000000000000000000000000000000000000000000000000000000000000000000000000076
:400A80000000000000000000000000000000000000000000000000000000000000000000000000000000000000000000000000000000000000000000000000000000000036
:0200000490006A
:0400000000004005B7
:0200000490105A
:04000000BC90ACAF55
:0200000490303A
:020000002809CD
:0200000490402A
:4000000000000000000000000000000000000000000000000000000000000000000000000000000000000000000000000000000000000000000000000000000000000000C0
:400040000000000000000000000000000000000000000000000000000000000000000000000000000000000000000000000000000000000000000000000000000000000080
:400080000000000000000000000000000000000000000000000000000000000000000000000000000000000000000000000000000000000000000000000000000000000040
:4000C0000000000000000000000000000000000000000000000000000000000000000000000000000000000000000000000000000000000000000000000000000000000000
:0200000490501A
:0C00000000012E16106900012E3038722D
:00000001FF