:400000000080002011000000E1110000E111000008B5044B1A6803F53F5302331A6001F0FFF800BFFA46004010B5054C237833B9044B13B10448AFF300800123237010BD9B
:400040004881FF1F00000000F03C0000084B10B51BB108490848AFF300800848036803B910BD074B002BFBD0BDE81040184700BF000000004C81FF1FF03C0000C880FF1FAA
:400080000000000038B501F061F9BD4B18703F2809D1BC4801F09AF9BB4801F097F9BB4801F094F938BD662802D0462840F0C280B74801F08BF9B74801F088F909E00A207D
:4000C00002F052FBB44A136801331360B3F57A7F03DA01F051F90028F1D0AF4B1B68B3F57A7F03DB3522A64B1A7003E001F02EF9A34B18700022A84B1A6001F049F9A04B13
:400100001B78313B042B00F29180DFE803F0032547698B00232000F0D5FA9F4B1871802804D080211971232000F0E0FA9B4D04242C70994B1979012000F006FC00F060FCC7
:400140002978204600F000FC00F05AFC944801F03DF900F079FE38BD232000F0B3FA8E4B1871902804D090211971232000F0BEFA8A4C08232370884B1979012000F0E4FB0A
:4001800000F03EFC2178042000F0DEFB00F038FC844801F01BF900F057FE38BD232000F091FA7D4B1871A02804D0A0211971232000F09CFA794C10232370774B19790120A1
:4001C00000F0C2FB00F01CFC2178042000F0BCFB00F016FC744801F0F9F800F035FE38BD232000F06FFA6C4B1871B02804D0B0211971232000F07AFA684C30232370664B59
:400200001979012000F0A0FB00F0FAFB2178042000F09AFB00F0F4FB644801F0D7F800F013FE38BD624801F0D1F838BD614801F0CDF838BD702802D0502840F0D1805E4862
:4002400001F0C4F85D4801F0C1F809E00A2002F08BFA514A136801331360B3F57A7F03DA01F08AF80028F1D04B4B1B68B3F57A7F03DB3522424B1A7003E001F067F8404B9D
:4002800018700022444B1A6001F082F83C4B1B78313B042B00F2A080DFE803F003203C589A00202000F00EFA3B4B1871172804D017211971202000F019FA374B19790020BB
:4002C00000F042FB00F09CFB4FF47A7001F072FD3B4801F07BF800F0B7FD38BD202000F0F1F92D4B1871272804D027211971202000F0FCF9284B1979002000F025FB00F0E3
:400300007FFB642001F056FD2E4801F05FF800F09BFD38BD202000F0D5F91F4B1871372804D037211971202000F0E0F91A4B1979002000F009FB00F063FB234801F046F83E
:40034000282001F037FD00F07FFD38BD202000F0B9F9114B1871472804D047211971202000F0C4F90C4B1979002000F0EDFA00F047FB164801F02AF800F066FD38BD00BF3C
:40038000AC81FF1FF43C0000283D0000A83D0000DC3D0000483F00006481FF1FAD81FF1F4C3E0000603E0000743E0000883E00009C3E0000A83E0000C83E0000403F0000A4
:4003C000843F0000983F0000AC3F0000C03F0000884800F0FBFF38BD874800F0F7FF38BD742801D0542852D1844800F0EFFF844800F0ECFF09E00A2002F0B6F9814A1368C9
:4004000001331360B3F57A7F03DA00F0B5FF0028F1D07C4B1B68B3F57A7F03DB33227A4B1A7003E000F092FF774B18700022754B1A6000F0ADFF744B1B78322B11D0332B09
:400440001DD0312B1FD10021704B1970032000F07BFA00F0D5FA6E4800F0B8FF00F0F4FC38BD0121694B1970032000F06DFA00F0C7FA684800F0AAFF00F0E6FC38BD5D4826
:4004800000F0A4FF38BD5C4800F0A0FF38BD622801D0422827D1604B1B68012B06D15F4800F094FF564800F091FF19E0C3B90124594B1C6040F2F31140F2E73000F0A0FC91
:4004C000574800F083FF4E4800F080FF2146022000F03AFA00F094FA01F0AAFC01F02AFC00F056FF38BD732801D053282DD14A4B1B6833B94B4800F069FF414800F066FF21
:4005000020E0012B1ED10024434B1C6040F2E731084600F075FC444800F058FF384800F055FF2146022000F00FFA00F069FA02223E49052000F036FA00F062FA01F020FCC4
:4005400001F000FC00F024FF38BD762801D0562834D1314B1B687BB9354800F037FF284800F034FF0120334B186001F079FF01F007FC01F0E7FB1EE0012B12D10022264B44
:400580001A602B4800F022FF1D4800F01FFF0120284B186001F064FF01F0F2FB01F0D2FB09E0244B1B68012B05D1234800F00EFF134800F00BFF00F0EBFE38BD752801D0F8
:4005C000552815D11B4B1B68012B0BD10020194B186001F045FF194800F0F8FE084800F0F5FE03E013B9164800F0F0FE00F0D0FE38BD00BF9C3E0000A83E0000D43F0000CC
:40060000403F00006481FF1FAC81FF1FA881FF1F304000004C4000008C81FF1F6C400000A4400000D44000000C4100009081FF1F3C4100009481FF1F70410000AC41000011
:40064000E041000008B502F047F9012805D102F0F1F80022134B1A6008E002F03DF928B902F0E8F80F4A1368013313600D4B1B68042B15DD40F2E731084600F0C1FB0A48C6
:4006800000F0A4FE00F0E0FB084800F09FFE084800F09CFE074800F099FE0022014B1A6008BD00BF9C81FF1FF8410000F43C0000283D0000A83D00000122014B1A60704756
:4006C000CC81FF1F00B583B060F07F008DF8040002AA002302F8053D0123194601A800F0B3F89DF8030003B05DF804FB00B583B08DF804008DF80510002302AA02F8053DC8
:40070000022101A800F0A0F803B05DF804FB00BF00B583B060F03F0302A800F8043D13460A46012100F090F803B05DF804FB00BF10B50446002001F0E3F8204600F0CAFE20
:4007400000F0A0FE10F0080FFAD000F02DFF0446012001F0D5F8204610BD00BF10B50446002001F0CDF8204600F0B4FE002000F0B1FE00F087FE10F0010FFAD000F014FFD5
:4007800000F012FF0446012001F0BAF8204610BD2DE9F04383B006460C4617469846002001F0AEF864B2002511E02146082CA8BF0821C9B206EBC50000F072FF00F062FEB2
:4007C00010F0010FFAD0083C64B201356DB2002CEBDC00F075FF00F019FF0026009601964FFA88F820E0C146B8F1080FA8BF4FF008095FFA89F1684600F052FF00F042FE85
:4008000010F0010FFAD0002406E004EBC60500F0CBFE78550134E4B24C45F6DBA8F108084FFA88F8013676B2B8F1000FDBDC012001F066F800F044FF00F0E8FE00F006FFB9
:4008400003B0BDE8F08300BF2DE9F04383B006460C4617469846002001F046F864B2002511E02146082CA8BF0821C9B206EBC50001F0D2FC01F0C2FB10F0010FFAD0083C37
:4008800064B201356DB2002CEBDC01F0D5FC01F079FC0026009601964FFA88F820E0C146B8F1080FA8BF4FF008095FFA89F1684601F0B2FC01F0A2FB10F0010FFAD000246C
:4008C00006E004EBC60501F02BFC78550134E4B24C45F6DBA8F108084FFA88F8013676B2B8F1000FDBDC012000F0FEFF01F0A4FC01F048FC01F066FC03B0BDE8F08300BF55
:4009000008B50520FFF72AFF08BD00BF08B50620FFF70EFF08BD00BF00B583B003218DF80410030A8DF805308DF8060002AA002302F8053D012301A8FFF72AFF9DF8030042
:4009400003B05DF804FB00BF30B583B004460D46FFF7DCFF02238DF80430230A8DF805308DF806408DF80750002302AA02F8053D04210DEB0100FFF70BFF03B030BD00BF37
:4009800010B582B003248DF80440030A8DF805308DF8060013460A46214601A8FFF7F8FE02B010BD2DE9F04182B000AF054688461446FFF7ABFF012001F0ECFEE61C04F1AC
:4009C0000A0323F00703ADEB030D02238DF800302B0A8DF801308DF80250224641460DF1030002F04DFD002307F1080202F8013DF1B26846FFF7CCFE0837BD46BDE8F08197
:400A000008B5FFF77DFF10F0010FFAD108BD00BF2DE9F04FB3B062B600F08AFC01F076F900F0B4FE01F06EFC01F048FF00F0E4F9D14801F03BFD052001F096FECF4800F08D
:400A400085FFCF4801F096FA0020FFF765FF01462020FFF74BFE0120FFF75EFF01462320FFF744FE0320FFF757FF034610B90021C44A1170012B02D10122C24B1A700220D8
:400A8000FFF74AFF012802D10122BF4B1A6010B90022BD4B1A600420FFF73EFFBB4B18700222BB490520FFF76BFF2220FFF70AFE062803D004212220FFF718FE2420FFF767
:400AC00001FE402803D040212420FFF70FFE2E20FFF7F8FDAF4B1870492804D0492119702E20FFF703FEA0238DF80430C0238DF81130A94800F06AFCA84800F067FCA8483D
:400B000000F064FC4FF0000B9F4B1B68012B40F08680A44B1B68012B78D140F222239B4574DC3C2223A92820FFF7F2FD00263546062456E0631C32AA134413F83C0C134608
:400B40002B44820803F8782C6B1CE11C32AA114411F83C1C224412F83C2C32AF3B44920842EA111242EA801203F8782CAA1C631D3B4413F83C0CA31C3B4413F83C3C3A44F2
:400B80001B0943EA901343EA011302F8783CEA1C211D394411F83C3C3A449B0943EA800302F8783C7A4F388830440A30042214AB591980B2FFF7F6FEFFF722FF0435ADB237
:400BC0000436B6B2DFF8FC813A887749404602F06BFC404600F0FAFB744800F0F7FB0634A4B23B2CA6D900F013F90022704B1A70704B1A7066490B8824339BB20B800BF10A
:400C0000010B68490A606C4A138008E040F222239B4504DDE02140F2C11000F0F1F8674B1B68012B7FF470AFDCE007EB09000A30042205AB191980B2FFF7A2FE631C32AA38
:400C4000134413F8B46C1346234413F8B40C800240EA860040F38910A31C134413F8B43C360346EA031646F38916E21C32A90A4412F8B45C9B0343EA851545F38915434BF4
:400C800093F8008008FB00F001F090FF36A3D3E9002301F0F1FF36A3D3E9002301F0ECFF02F0FCF9464902F049FA02F097FB8DF80500C0F307238DF80630C0F307438DF8B6
:400CC0000730000E8DF8080008FB06F001F06EFF25A3D3E9002301F0CFFF25A3D3E9002301F0CAFF02F0DAF9354902F027FA02F075FB8DF80900C0F307238DF80A30C0F36F
:400D000007438DF80B30000E8DF80C0008FB05F001F04CFF14A3D3E9002301F0ADFF14A3D3E9002301F0A8FF02F0B8F9244902F005FA02F053FB8DF80D00C0F307238DF840
:400D40000E30C0F307438DF80F30000E8DF81000642001F009FD0E2101A800F049FB0437BFB20434A4B231E0E9263108AC9C2340FCA9F1D24D62503FB90600008500000022
:400D800045060000A881FF1F8C81FF1FAD81FF1FA681FF1F9881FF1FF43C0000283D0000A83D0000CC81FF1F144200005C3F0000A581FF1F8881FF1F9081FF1F9481FF1F0B
:400DC0000000C842D481FF1F00273C46232C7FF62CAF09F124091FFA89F90AF1240A1FFA8AFA02E04FF00009CA460BEBCB0293009A45E9DB88E600BF08B501F08DF808BD4E
:400E000010B50C4601F030F8204601F033F810BD08B52E20FFF756FC0A4B187020B1002119702E20FFF762FC2E20FFF74BFC054B1870492804D0492119702E20FFF756FCB5
:400E400008BD00BF9881FF1F08B50023114A1380114A1380114A1380114B1B68012B02D100220F4B1A600F4B1B68012B02D100220C4B1A6000210220FFF766FDFFF7C0FD1B
:400E8000022204490520FFF78DFDFFF7B9FDFFF7BFFF08BDA681FF1F8A81FF1FAA81FF1F9481FF1F8C81FF1FFEE700BFF0B40022174611E050F82760F3B226F0FF0608E0B3
:400EC00001EB420511F812406D78A5550132013BDBB2002BF4D10137232FEBD9F0BC70470B4B1B78DBB203F007010A4A11701B09013213701023A2F23272137002F6C3120D
:400F00001370583213704422034B1A70704700BFCF0100496E5800407658004008B50A46002102F0B8FA08BD08B502F0A9FA08BD38B500243D4B1C80502202331A700B22FF
:400F400002331A8018233A490B7002310A80394A13703321023211800232137045F6BF5235490A8002310B7002310A80334A137047F22F530232138019250232157002326A
:400F800013802F4B1D7004222E492F48FFF7CCFF02222E4B1A7008224FF040231A70032103F5007319702A4B1B78DBB229490B70294B1A8041F25122023B1A800CE0274BC2
:400FC0001B7803F0010343EA440404F003044FF4F07001F089FC013D0DB1032CEFD115B90320FFF761FF1E4B4FF480721A8007221A7000221B490A704820023108701A7024
:401000000222033B1A7004220A331A7003F297331A78FF221A70144A137843F001031370013A137843F08003137038BD80400040864000408A40004090400040964000400E
:401040009E40004080090048004100400043004008010049A146004022420040254200400440004006400040A1430040012807D8044B53F820201844017A13780B43137076
:40108000704700BF2C420000012808D8044B53F820201844017A137823EA0103137070472C42000038B572B6394A137843F00403137000240BE0374863001A1951000144B4
:4010C0000A46098AD068FFF729FF0134E4B20A2CF1D900240CE02F48A20011194B000344B3F85820596D186DFFF71EFF0134E4B2032CF0D928494FF09040FFF7D7FE0A244A
:40110000264B1C70264A137843F0020313701032137843F002031370224D2B7843F040032B70A2F58632513A137843F01003137022461D491D48FFF7F7FE22461C491D48D3
:40114000FFF7F2FE22461C491C48FFF7EDFE22461B491C48FFF7E8FE08221B491B48FFF7E3FE1B4A137843F008031370194C61232370FFF7DDFE812323700122164B1A7060
:40118000FFF7AEFE0E2229461448FFF7CDFE38BDE84600402C420000900000488358004003500140A0430040480900480051004054090048C05100406009004810510040E4
:4011C0006C090048205100407809004832510040224300400048004004000840B043004008B502F021F903680C2B00D1FEE7FEE708B5094B1A681044084BC31A802B02DCA3
:40120000054B186005E002F00FF90C2303604FF0FF32104608BD00BFCC80FF1F7882FF1F08B5104E104D16E029686B68AC68002204E051F8040B43F8040B0432A242F8D138
:40124000E868002203E0002143F8041B04328242F9D11035013E002EE6D102F0EBF8FFF7D7FBFEE7010000000043000008B5104A104B1A60104A136843F4007313600023AA
:401280000AE0032B03D80D4A52F8231000E00C490C4A42F8231001332F2BF2D90A4B1A780A4B1A70074A0A4B1A60FFF7FBFE08BD0004FA050CED00E014ED00E000000000BF
:4012C000E11100000080FF1FBC760040C080FF1F08ED00E07222074B1A702022FF3B1A700622623B1A70472210331A7000224F331A7070478865004010B501F0FDFA0446B5
:401300000A4A137843F020031370FF3A137843F010031370033A137843F01003137001F0D3F8204601F0ECFA10BD00BF9865004008B5054B1B7823B9FFF7CCFF0122024B68
:401340001A70FFF7D9FF08BD6981FF1F084B1B78DBB213F0200F06D0064A1078C0B213F01E0F02D17047002070470020704700BF696400404B650040044B1B7813F0200F4B
:4013800001D0012070470020704700BF6964004008B501F0B1FA064B1A7842F001021A701A7802F0FE021A7001F0AAFA08BD00BF9B650040034B1B7813F0040FFAD1024B70
:4013C00018707047666400404864004038B5074B1B782BB938BDFFF7EDFF0134A4B201E005460024285D0028F5D138BD6981FF1F084B1B7833B97047305DFFF7DBFF0134C5
:40140000E4B203E070B50D4606460024AC42F3D370BD00BF6981FF1F0222014B1A60704700E100E00122014B1A60704700E100E008B501F061FA0C4A137843F0200313701D
:401440000132137843F0100313700232137843F01003137001F054FA01F044F8FFF7DCFFFFF7E0FF08BD00BF946400400222014B1A60704780E100E00122014B1A6070470D
:4014800080E100E010B5FFF7F1FF064B1C78064A137803F009031C4300231370FFF7BCFF204610BD656400403882FF1F10B5FFF7E3FF064B1B78064A147804F040041C43C3
:4014C00000231370FFF7AEFF204610BD676400404982FF1F10B504462B4B1A7802F0FF0312B1013BDBB200E00723284A1278D2B29342F1D0FFF7BAFF254B1978254A13781B
:4015000003F009030B4313701F4B1A78D2B21F4B1B78DBB29A4207D11E4B1B7813F0040F02D01D4B1C702CE0184A13780133DBB213701378DBB2072B02D90022134B1A70D9
:40154000124B1A78D2B2104B1B78DBB29A420ED10D4A13780133DBB213701378DBB2072B02D90022084B1A7001220C4B1A70074B1B78DBB20A4AD4540A4A137843F004036D
:401580001370FFF749FF10BD4A82FF1F4882FF1F656400403882FF1F446400404482FF1F3C82FF1F8564004010B5FFF765FF134B1A78D2B2124B1B78DBB29A4214D0114BED
:4015C0001B7813F0FF0F0CD10C4A13780133DBB213701378DBB2072B06D90022074B1A7002E00022074B1A70044B1B78DBB2064AD45CE4B2FFF716FF204610BD4782FF1F94
:401600004582FF1F4682FF1F4C82FF1F08B501E0094B1B78094B1B7813F0200FF8D1FFF72BFF0023064A1370064A1370064A1370FFF7F8FE08BD00BF54640040676400405D
:401640004682FF1F4782FF1F4582FF1F08B501F053F90E4B1A7842F001021A701A7802F0FE021A7001F04CF9FFF700FF0023084A1370084A1370084A1370084A137803F069
:40168000FB031370FFF7C8FE08BD00BF946400404482FF1F4A82FF1F4882FF1F8564004070B506460C46002506E0705DFFF712FF0135EDB2013CE4B2002CF6D170BD00BF29
:4016C00008B501E00A4B1B780A4B1B7813F0200FF8D101F011F9084B1A7842F001021A701A7802F0FE021A7001F00AF908BD00BF54640040676400409464004010B50F222B
:40170000174B1A70174C022323600621012001F05FF81549012001F047F8012323600621002001F055F81149002001F03DF8FFF7C7FF00240E4B1C700E4B1C700E4B1C7018
:401740000E4B1C700E4B1C700E4B1C70FFF79AFEFFF7ACFE0C4B1C70202202331A7010BD8464004080E100E0A9170000491800004682FF1F4782FF1F4582FF1F4482FF1FBB
:401780004A82FF1F4882FF1F8564004008B5054B1B7823B9FFF7B2FF0122024B1A70FFF747FE08BD6B81FF1F28E01F4B19781F4A137803F009030B431370137813F0040F9F
:4017C00024D01B4B1B7813F0FF0F0CD1194A13780133DBB213701378DBB2072B06D90022144B1A7002E00022114B1A70114B1B78DBB2114AD35CDBB2104A13700D4B1A7864
:40180000D2B20F4B1B78DBB29A42CED1094B1A78D2B20B4B1B78DBB29A4204D1094A137803F0FB0313707047656400403882FF1F4482FF1F4A82FF1F3C82FF1F4464004022
:401840004882FF1F85640040204B1A7820490B7803F0400313430B7032E01E4B1A78D2B21D490B780133DBB20B700B78DBB2072B02D90021184B1970174B1978C9B2174BB7
:401880001B78DBB299420ED114490B780133DBB20B700B78DBB2072B02D900210F4B197001210F4B19700C4B1B78DBB20D49CA54064B1A7806490B7803F0400313430B7065
:4018C000034B1B7813F0200FC7D17047676400404982FF1F546400404582FF1F4782FF1F4682FF1F4C82FF1F044A137803F07F03C001C0B218431070704700BF1051004089
:40190000044A137803F0EF03000100F0100018431070704720510040014B1B685865704708ED00E04001C0B2014B1870704700BF05E400E02022014B1A60704700E100E047
:401940002022014B1A60704780E100E010B50446FFF7F6FF2046FFF7DFFF0720FFF7E2FFFFF7E8FF10BD00BF10B59DF80840012C51D1013809282ED8DFE800F0052D2D0550
:401980002D2D0F192D230F2B03D92548007840B222E02448007840B21EE00F2B03D92248007840B218E02148007840B214E00F2B03D91F48007840B20EE01E48007840B244
:4019C0000AE00F2B03D91C48007840B204E01B48007840B200E0002001EB401101FB02F1C90B8AB20D2B0BD8C3F10E0289B211418AB2611E124800EB810101338B7005E02A
:401A0000631E0F4901EB83030F219970013C0C4B23F8242010BD002000F0A4FE10BD00BF180100491C010049190100491D0100491A0100491E0100491B0100491F010049F8
:401A40006C81FF1FF8B5074600F056FF06460D4D2B7843F003032B700B4C237843F0030323700A4B1F70032000F094FE2B7803F0FC032B70237803F0FC032370304600F002
:401A80003FFFF8BDF8460040F9460040925800400022324B1A7101285FD170B53822304B1A70042202331A70062201331A70002401331C7001331C703F2201331A70023342
:401AC0001C7001331C7001331C7001250A331D70502203F527631A700A2201331A702C2201331A7001331C70442203331A70482201331A7001331D7002331D70112201337E
:401B00001A70192201331A70972201331A705220FFF798FF5822134B1A7001331C70052605331E70022201331A7001331C7001331C70204600F0F4FC43F233320A4B1A6088
:401B40002946304600F010FD2946252000F090FD06491D2000F028FE70BD70476C81FF1F004E0040945800405482FF1F551D0000F0B583B0284D01272F70284E002474710E
:401B8000102000F0DFFC102000F060FD05211D2000F01EFE0422224B1A7001331C7007331C70204A137843F0180313701E4B1C7003F2F5231C7001331C700A22A3F209338A
:401BC0001A7001331C7002331C705B2205331A705E2201331A7004331C701422A3F68C231A70009710234FF4004248F6F0510220FFF7BAFE2B78013B06EB83039A780B4B36
:401C00001A702B78013B36F82320094B1A802878FFF73EFF03B0F0BDD080FF1F6C81FF1F96580040075B0040935800400E4E00400C4E004070B500F05FFE06462A4B1B7839
:401C40002A4B1A7842F001021A701A7842F010021A7010331A7842F001021A701A7842F010021A70224D2B7843F002032B70214C237843F0020323701F4A137843F0030365
:401C80001370032000F086FD2B7803F0FD032B70237803F0FD032370184A137843F0060313707A22164B1A70164A137843F0010313701032137843F0010313700F3A137886
:401CC00043F0010313701032137843F0010313704FF000530C4A1360A2F5C0721360304600F00EFE70BD00BFD080FF1FAA430040F8460040F94600409158004077580040DE
:401D000082580040A143004080E200E008B5084B9B794BB9064BDB7913F0FF0F01D1FFF727FF0122024B9A71FFF784FF08BD00BF6C81FF1F024A137843F00103137070478C
:401D4000004E0040024A137803F0FE0313707047004E0040704700BF084A137843F0010313701032137843F00103137002F64D32137843F001031370704700BFA343004056
:401D8000084A137803F0FE031370A2F65D32137803F0FE0313701032137803F0FE031370704700BF004F0040014B1870704700BF034F0040014B1880704700BF044F004094
:401DC000014B1880704700BF064F004008B5154A137803F0010313700232137803F0FC031370114B1A7802F0CF021A701A7842F030021A701A7802F0F0021A701A7842F020
:401E00000F021A70094A137843F0010313706320FFF7D0FF6320FFF7D3FF0820FFF7C4FF08BD00BF004F00400B4F0040014F004008B5054B1B7823B9FFF7C8FF0122024B15
:401E40001A70FFF789FF08BD7881FF1F024A137843F08003137070477B650040014B1880704700BF126A0040014B1880704700BF926A0040014B1880704700BF526A004095
:401E8000014B1870704700BF8A650040014B1878704700BF6A650040014B188880B27047B26A004008B501E0FFF7F6FFFFF7EEFF10F0100FF8D108BD10B5154A137803F05C
:401EC000C00343F00B0313701E32137843F001031370104C237843F00103237040F2E730FFF7BCFF40F2E730FFF7BEFF0020FFF7C1FF0020FFF7C4FF00F0FEFC237843F0A8
:401F00001003237000F0FCFCFFF7CCFF10BD00BF7B6500409A65004008B5054B1B7823B9FFF7CAFF0122024B1A70FFF78FFF08BD7981FF1F024B1B68C3F88800704700BF48
:401F400008ED00E04001C0B2014B1870704700BF12E400E04FF48022014B1A60704700BF00E100E04FF48022014B1A60704700BF80E100E010B50446FFF7F4FF2046FFF721
:401F8000D9FF0720FFF7DEFFFFF7E4FF10BD00BF0822014B1A60704700E100E00422014B1A60704700E100E008B500F0A5FC0C4A137843F020031370FF32137843F0100314
:401FC0001370013A137843F01003137000F098FC00F0BAFBFFF7DCFFFFF7E0FF08BD00BF986400400822014B1A60704780E100E00422014B1A60704780E100E010B5FFF7B9
:40200000F1FF064B1C78064A137803F009031C4300231370FFF7BCFF204610BD676500406782FF1F10B5FFF7E3FF064B1B78064A147804F040041C4300231370FFF7AEFFB8
:40204000204610BD666500406082FF1F10B504462B4B1A7802F0FF0312B1013BDBB200E00723284A1278D2B29342F1D0FFF7BAFF254B1978254A137803F009030B431370F1
:402080001F4B1A78D2B21F4B1B78DBB29A4207D11E4B1B7813F0040F02D01D4B1C702CE0184A13780133DBB213701378DBB2072B02D90022134B1A70124B1A78D2B2104B50
:4020C0001B78DBB29A420ED10D4A13780133DBB213701378DBB2072B02D90022084B1A7001220C4B1A70074B1B78DBB20A4AD4540A4A137843F004031370FFF749FF10BD22
:402100006482FF1F6582FF1F676500406782FF1F476500406382FF1F6882FF1F8765004010B5FFF765FF134B1A78D2B2124B1B78DBB29A4214D0114B1B7813F0FF0F0CD1B3
:402140000C4A13780133DBB213701378DBB2072B06D90022074B1A7002E00022074B1A70044B1B78DBB2064AD45CE4B2FFF716FF204610BD6682FF1F6182FF1F6282FF1F67
:402180005882FF1F08B501E0094B1B78094B1B7813F0200FF8D1FFF72BFF0023064A1370064A1370064A1370FFF7F8FE08BD00BF57650040666500406282FF1F6682FF1F85
:4021C0006182FF1F08B500F097FB0E4B1A7842F001021A701A7802F0FE021A7000F090FBFFF700FF0023084A1370084A1370084A1370084A137803F0FB031370FFF7C8FEC8
:4022000008BD00BF976500406382FF1F6482FF1F6582FF1F8765004070B506460C46002506E0705DFFF712FF0135EDB2013CE4B2002CF6D170BD00BF08B501E00A4B1B78F7
:402240000A4B1B7813F0200FF8D100F055FB084B1A7842F001021A701A7802F0FE021A7000F04EFB08BD00BF57650040666500409765004010B50F22174B1A70174C082319
:4022800023600621032000F0A3FA1549032000F08BFA042323600621022000F099FA1149022000F081FAFFF7C7FF00240E4B1C700E4B1C700E4B1C700E4B1C700E4B1C7018
:4022C0000E4B1C70FFF79AFEFFF7ACFE0C4B1C702022013B1A7010BD8864004080E100E021230000C12300006282FF1F6682FF1F6182FF1F6382FF1F6482FF1F6582FF1F69
:402300008765004008B5054B1B7823B9FFF7B2FF0122024B1A70FFF747FE08BD7A81FF1F28E01F4B19781F4A137803F009030B431370137813F0040F24D01B4B1B7813F0E3
:40234000FF0F0CD1194A13780133DBB213701378DBB2072B06D90022144B1A7002E00022114B1A70114B1B78DBB2114AD35CDBB2104A13700D4B1A78D2B20F4B1B78DBB2CA
:402380009A42CED1094B1A78D2B20B4B1B78DBB29A4204D1094A137803F0FB0313707047676500406782FF1F6382FF1F6482FF1F6882FF1F476500406582FF1F87650040C9
:4023C000204B1A7820490B7803F0400313430B7032E01E4B1A78D2B21D490B780133DBB20B700B78DBB2072B02D90021184B1970174B1978C9B2174B1B78DBB299420ED163
:4024000014490B780133DBB20B700B78DBB2072B02D900210F4B197001210F4B19700C4B1B78DBB20D49CA54064B1A7806490B7803F0400313430B70034B1B7813F0200FA0
:40244000C7D17047666500406082FF1F576500406182FF1F6682FF1F6282FF1F5882FF1F044A137803F0FE0300F0010018431070704700BF30510040014B1B681865704732
:4024800008ED00E04001C0B2014B1870704700BF04E400E01022014B1A60704700E100E01022014B1A60704780E100E010B50446FFF7F6FF2046FFF7DFFF0620FFF7E2FFF1
:4024C000FFF7E8FF10BD00BF054A137843F0080313701032137843F008031370704700BFA2430040054A137843F0020313701032137843F002031370704700BFA2430040F7
:4025000010B5002404E02046FEF7BEFD0134E4B2012CF8D9FF22014B1A7010BDD180FF1F10B50446FFF7ECFF2046FEF79FFD014B1C7010BDD180FF1F014B188880B27047EC
:4025400080400040034B1A7800F0F80010431870704700BF82400040024B187800F00700704700BF8240004070B505460E46FFF7F3FF0446FFF7E0FFA84256D02B4B1B7810
:4025800003F0010294B900B185B938B9284B1D80284A137803F0BF03137070BD254A137843F040031370224B1D8070BD22B3002321490B7001240F310C7004310B700C39A9
:4025C0000B7803F07F030B701A4B1B7813F0080F00D08DB9194B18800721013B1970164B1B7813F0010FFAD110490B7803F0FE030B700021104B19700C4B1B7813F0010F38
:402600000DD00E4B1D800EB1032200E001220A4B1A70094B1B7813F0010FFAD170BD044B1D8002490B7813430B7070BDA2430040804000408240004001400040024000402D
:40264000014B188880B2704700410040034B1A7800F0F80010431870704700BF02410040024B187800F00700704700BF0241004070B505460E46FFF7F3FF0446FFF7E0FFD0
:40268000A84256D02B4B1B7803F0010294B900B185B938B9284B1D80284A137803F0BF03137070BD254A137843F040031370224B1D8070BD22B3002321490B7001241331FC
:4026C0000C7004390B7008390B7803F07F030B701A4B1B7813F0080F00D08DB9194B18800721013B1970164B1B7813F0010FFAD110490B7803F0FE030B700021104B1970BF
:402700000C4B1B7813F0010F0DD00E4B1D800EB1032200E001220A4B1A70094B1B7813F0010FFAD170BD044B1D8002490B7813430B7070BDA1430040004100400241004031
:402740000140004002400040054A137843F0040313701032137843F004031370704700BFA243004001BE704710B5044605E0084B186800F0B9F8A4F50044B4F5004FF6D819
:40278000034B586800FB04F000F0AEF810BD00BFD480FF1F08B5034B1B7A00FB03F000F0A3F808BDD480FF1F70B504460E46074B1D681F2802D90020FFF7D4FF04F01F047C
:4027C000103455F8240045F8246070BD08ED00E038B504460D46072902D90020FFF7C2FF1F2C02D90020FFF7BDFF04F01F0000F1604000F564406D01EDB2057038BD00BF8A
:40280000084A137843F0020313701032137843F00203137002F65932137843F001031370704700BFA3430040014B1870704700BF0F4F0040014B1878704700BF0F4F00403C
:40284000014B1880704700BF104F0040014B1880704700BF124F004008B5154A137803F0010313700232137803F0FC031370114B1A7802F0CF021A701A7842F030021A7054
:402880001A7802F0F0021A701A7842F00F021A70094A137843F0010313706320FFF7D0FF6320FFF7D3FF0820FFF7BEFF08BD00BF0C4F0040174F00400D4F004008B5054B45
:4028C0001B7823B9FFF7C8FF0122024B1A70FFF797FF08BD7B81FF1F024B1878C0F38000704700BF015100400230800803D000BF01380046FCD17047EFF3108072B670478F
:4029000080F31088704700BF81F0004102E000BF83F0004330B54FEA41044FEA430594EA050F08BF90EA020F1FBF54EA000C55EA020C7FEA645C7FEA655C00F0E2804FEAF2
:402940005454D4EB5555B8BF6D420CDD2C4480EA020281EA030382EA000083EA010180EA020281EA0303362D88BF30BD11F0004F4FEA01314FF4801C4CEA113102D0404231
:4029800061EB410113F0004F4FEA03334CEA133302D0524263EB430394EA050F00F0A780A4F10104D5F1200E0DDB02FA0EFC22FA05F2801841F1000103FA0EF2801843FA7D
:4029C00005F359410EE0A5F120050EF1200E012A03FA0EFC28BF4CF0020C43FA05F3C01851EBE37101F0004507D54FF0000EDCF1000C7EEB00006EEB0101B1F5801F1BD340
:402A0000B1F5001F0CD349085FEA30004FEA3C0C04F101044FEA445212F5800F80F09A80BCF1004F08BF5FEA500C50F1000041EB045141EA050130BD5FEA4C0C404141EB28
:402A4000010111F4801FA4F10104E9D191F0000F04BF01460020B1FA81F308BF2033A3F10B03B3F120020CDA0C3208DD02F1140CC2F10C0201FA0CF021FA02F10CE002F140
:402A80001402D8BFC2F1200C01FA02F120FA0CFCDCBF41EA0C019040E41AA2BF01EB0451294330BD6FEA04041F3C1CDA0C340EDC04F11404C4F1200220FA04F001FA02F320
:402AC00040EA030021FA04F345EA030130BDC4F10C04C4F1200220FA02F001FA04F340EA0300294630BD21FA04F0294630BD94F0000F83F4801306BF81F480110134013D0E
:402B00004EE77FEA645C18BF7FEA655C29D094EA050F08BF90EA020F05D054EA000C04BF1946104630BD91EA030F1EBF0021002030BD5FEA545C05D14000494128BF41F08C
:402B4000004130BD14F580043CBF01F5801130BD01F0004545F0FE4141F470014FF0000030BD7FEA645C1ABF194610467FEA655C1CBF0B46024650EA013406BF52EA0335B2
:402B800091EA030F41F4002130BD00BF90F0000F04BF0021704730B54FF4806404F132044FF000054FF0000150E700BF90F0000F04BF0021704730B54FF4806404F132044A
:402BC00010F0004548BF40424FF000013EE700BF42004FEAE2014FEA31014FEA02701FBF12F07F4393F07F4F81F06051704792F0000F14BF93F07F4F704730B54FF460743B
:402C000001F0004521F0004120E700BF50EA010208BF704730B54FF000050AE050EA010208BF704730B511F0004502D5404261EB41014FF4806404F132045FEA915C3FF4F0
:402C4000DCAE4FF003025FEADC0C18BF03325FEADC0C18BF033202EBDC02C2F1200300FA03FC20FA02F001FA03FE40EA0E0021FA02F11444C1E600BF70B54FF0FF0C4CF4B7
:402C8000E06C1CEA11541DBF1CEA135594EA0C0F95EA0C0F00F0DEF82C4481EA030621EA4C5123EA4C5350EA013518BF52EA033541F4801143F4801338D0A0FB02CE4FF0E5
:402CC0000005E1FB02E506F00042E0FB03E54FF00006E1FB03569CF0000F18BF4EF0010EA4F1FF04B6F5007F64F5407404D25FEA4E0E6D4146EB060642EAC62141EA5551BF
:402D00004FEAC52040EA5E504FEACE2EB4F1FD0C88BFBCF5E06F1ED8BEF1004F08BF5FEA500E50F1000041EB045170BD06F0004646EA010140EA020081EA0301B4EB5C041A
:402D4000C2BFD4EB0C0541EA045170BD41F480114FF0000E013C00F3AB8014F1360FDEBF002001F0004170BDC4F10004203C35DA0C341BDC04F11404C4F1200500FA05F34D
:402D800020FA04F001FA05F240EA020001F0004221F0004110EBD37021FA04F642EB06015EEA430E08BF20EAD37070BDC4F10C04C4F1200500FA04F320FA05F001FA04F271
:402DC00040EA020001F0004110EBD37041F100015EEA430E08BF20EAD37070BDC4F1200500FA05F24EEA020E20FA04F301FA05F243EA020321FA04F001F0004121FA04F290
:402E000020EA020000EBD3705EEA430E08BF20EAD37070BD94F0000F0FD101F00046400041EB010111F4801F08BF013CF7D041EA060195F0000F18BF704703F00046520018
:402E400043EB030313F4801F08BF013DF7D043EA0603704794EA0C0F0CEA135518BF95EA0C0F0CD050EA410618BF52EA4306D1D181EA030101F000414FF0000070BD50EAB5
:402E8000410606BF1046194652EA430619D094EA0C0F02D150EA013613D195EA0C0F05D152EA03361CBF104619460AD181EA030101F0004141F0FE4141F470014FF00000DC
:402EC00070BD41F0FE4141F4780170BD70B54FF0FF0C4CF4E06C1CEA11541DBF1CEA135594EA0C0F95EA0C0F00F0A7F8A4EB050481EA030E52EA03354FEA013100F08880FD
:402F00004FEA03334FF0805545EA131343EA12634FEA022245EA111545EA10654FEA00260EF000419D4208BF964244F1FD0404F5407402D25B084FEA3202B61A65EB0305F6
:402F40005B084FEA32024FF480104FF4002CB6EB020E75EB030E22BFB61A754640EA0C005B084FEA3202B6EB020E75EB030E22BFB61A754640EA5C005B084FEA3202B6EB26
:402F8000020E75EB030E22BFB61A754640EA9C005B084FEA3202B6EB020E75EB030E22BFB61A754640EADC0055EA060E18D04FEA051545EA16754FEA06164FEAC30343EA31
:402FC00052734FEAC2025FEA1C1CC0D111F4801F0BD141EA00014FF000004FF0004CB6E711F4801F04BF01430020B4F1FD0C88BFBCF5E06F3FF6AFAEB5EB030C04BFB6EB85
:40300000020C5FEA500C50F1000041EB045170BD0EF0004E4EEA113114EB5C04C2BFD4EB0C0541EA045170BD41F480114FF0000E013C90E645EA060E8DE60CEA135594EA73
:403040000C0F08BF95EA0C0F3FF43BAF94EA0C0F0AD150EA01347FF434AF95EA0C0F7FF425AF104619462CE795EA0C0F06D152EA03353FF4FDAE1046194622E750EA4106D3
:4030800018BF52EA43067FF4C5AE50EA41047FF40DAF52EA43057FF4EBAE12E74FEA4102B2F1E04324BFB3F5001CDCF1FE5C0DD901F0004C4FEAC0024CEA5070B2F1004F81
:4030C00040EB830008BF20F00100704711F0804F21D113F13872BCBF01F00040704741F480114FEA5252C2F11802C2F1200C10FA0CF320FA02F018BF40F001004FEAC12337
:403100004FEAD32303FA0CFC40EA0C0023FA02F34FEA4303CCE77FEA625307D150EA01331EBF4FF0FE4040F44000704701F0004040F0FE4040F40000704700BF4FF0FF0C65
:403140001CEAD0521EBF1CEAD15392EA0C0F93EA0C0F6FD01A4480EA010C400218BF5FEA41211ED04FF0006343EA501043EA5111A0FB01310CF00040B1F5000F3EBF490069
:4031800041EAD3715B0040EA010062F17F02FD2A1DD8B3F1004F40EBC25008BF20F00100704790F0000F0CF0004C08BF49024CEA502040EA51207F3AC2BFD2F1FF0340EA18
:4031C000C250704740F400004FF00003013A5DDC12F1190FDCBF00F000407047C2F10002410021FA02F1C2F1200200FA02FC5FEA310040F1000053EA4C0308BF20EADC704A
:40320000704792F0000F00F0004C02BF400010F4000F013AF9D040EA0C0093F0000F01F0004C02BF490011F4000F013BF9D041EA0C018FE70CEAD15392EA0C0F18BF93EA17
:403240000C0F0AD030F0004C18BF31F0004CD8D180EA010000F00040704790F0000F17BF90F0004F084691F0000F91F0004F14D092EA0C0F01D142020FD193EA0C0F03D1EF
:403280004B0218BF084608D180EA010000F0004040F0FE4040F40000704740F0FE4040F4400070474FF0FF0C1CEAD0521EBF1CEAD15392EA0C0F93EA0C0F69D0A2EB0302C3
:4032C00080EA010C49024FEA402037D04FF0805343EA111143EA10130CF000408B4238BF5B0042F17D024FF4000C8B4224BF5B1A40EA0C00B3EB510F24BFA3EB510340EA17
:403300005C00B3EB910F24BFA3EB910340EA9C00B3EBD10F24BFA3EBD10340EADC001B0118BF5FEA1C1CE0D1FD2A3FF650AF8B4240EBC25008BF20F0010070470CF0004CFE
:403340004CEA50207F32C2BFD2F1FF0340EAC250704740F400004FF00003013A37E792F0000F00F0004C02BF400010F4000F013AF9D040EA0C0093F0000F01F0004C02BF43
:40338000490011F4000F013BF9D041EA0C0195E70CEAD15392EA0C0F08D142027FF47DAF93EA0C0F7FF470AF084676E793EA0C0F04D14B023FF44CAF08466EE730F0004CBE
:4033C00018BF31F0004CCAD130F000427FF45CAF31F000437FF43CAF5FE700BF4FEA4002B2F1FE4F0FD34FF09E03B3EB12620DD94FEA002343F0004310F0004F23FA02F0F2
:4034000018BF404270474FF00000704712F1610F01D1420205D110F0004008BF6FF0004070474FF000007047014B1868704700BF4481FF1F0E4B70B51E460E4C0025E41A50
:40344000A410A54204D056F8253098470135F8E700F044FF084B094C1E46E41AA4100025A54204D056F8253098470135F8E770BDE8420000E8420000E8420000F042000001
:4034800010B5431E0A44914204D011F8014B03F8014FF8E710BD03460244934202D003F8011BFAE7704700000EB400B54FF402719CB0ADF814106FF00041049107914FF66C
:4034C000FF711DAB02900690084853F8042BADF81610006802A9019300F064F8029B00221A701CB05DF804EB03B070474481FF1F2DE9F0478E6882469E420C46914698464C
:403500003ED88A8912F4906F3AD02568096902236F1A656905EB450595FBF3F57B1C43449D4238BF1D4653050FD5294600F040FB064698B13A462169FFF7A2FFA38923F480
:40354000906343F08003A38113E02A4600F08EFB064670B92169504600F0DEFA0C23CAF80030A3894FF0FF3043F04003A381BDE8F08726613E44266046466561ED1BA560E6
:40358000464528BF464649463246206800F0A8FAA36800209B1BA36023681E442660BDE8F08700002DE9F04F9DB003938B8980461C060D4616460DD50B695BB9402100F0DB
:4035C000F7FA2860286118B90C23C8F80030CDE040236B610023099320238DF82930DFF89CB130238DF82A3037463C4614F8013B1BB9B7EB060910D003E0252BF9D02746B2
:40360000F3E74B46324629464046FFF771FF013000F0A780099B4B4409933B78002B00F0A08000234FF0FF3204930793059206938DF853301A930126052221784E4800F031
:4036400041FA671C049B38B14B4A3C46801A06FA00F018430490EFE7D90644BF20228DF853201A0744BF2B228DF8532022782A2A03D0079A00210A200BE0039A111D12683C
:403680000391002A10DA524243F00200079204900BE027463B780134303B092B03D800FB02320121F5E701B107923B782E2B1ED17B782A2B0AD1039B02371A1D1B680392F6
:4036C000002BB8BF4FF0FF33059310E0002319460593781C0A2407463A780130303A092A03D804FB01210123F5E703B1059103223978224800F0E6F940B14023CBEB000027
:4037000003FA00F0049B013718430490397806221B487E1C8DF8281000F0D4F988B1194B33B9039B073323F007030833039314E003AB00932A46144B04A94046AFF30080DE
:4037400007E003AB00932A460F4B04A9404600F093F8B0F1FF3F824603D0099B5344099342E7AB895B0601D4099801E04FF0FF301DB0BDE8F08F00BFA6420000AC4200004F
:40378000B042000000000000F13400002DE9F04791461F460A698B6806469342B8BF1346C9F8003091F843200C46DDF8208012B10133C9F800302368990642BFD9F800305A
:4037C0000233C9F80030256815F0060510D104F1190A07E00123524639463046C04701301AD00135E368D9F800209B1A9D42F1DB94F843302268003318BF012392060FD54E
:40380000E118302081F843005A1C94F845102244023382F8431003E04FF0FF30BDE8F08704F1430239463046C0470130F4D02268D9F80050E36802F00602042A08BF5D1BCF
:403840002269A3680CBF25EAE57500259342C4BF9B1AED184FF000091A344D4509D00123224639463046C0470130D5D009F10109F3E70020BDE8F0872DE9F04317460A7EA0
:4038800085B06E2A984606460C460C9B01F1430E00F0AE8011D8632A22D009D8002A00F0BB80582A40F0CA8081F84520834955E0642A1ED0692A1CD0C0E0732A00F0B080E6
:4038C00009D86F2A2ED0702A40F0B8800A6842F020020A603EE0752A24D0782A3AD0ADE01A6801F14205111D1960136884F84230A8E021681A6811F0800F02D0111D1960CD
:4039000008E011F0400F02F10401196002D0B2F9003000E01368002B3CDA2D225B4284F8432037E021681A6811F0800F02D0111D196007E011F0400F02F10401196001D026
:40394000138800E01368227E5C496F2A14BF0A2208221BE078225A4984F845202268186812F0800F00F104051D6003D1550601D5038800E00368D00744BF42F02002226094
:403980001BB9226822F0200222601022002084F8430001E049490A226568002DA56008DB206820F0040020602BB9002D7DD175460CE0002B79D07546B3FBF2F002FB103340
:4039C000CB5C05F8013D03460028F5D1082A0BD12368DA0708D5236962689A42DEBF302305F8013C05F1FF35C5EB0E0323612EE008681A6810F0800F496903D0101D186053
:403A0000136808E010F0400F02F104001860136801D0198000E0196000232361754616E01A68111D1960156800216268284600F049F808B1401B6060636804E004F14205E0
:403A400084F8422001232361002384F84330CDF800803B4603AA21463046FFF797FE013002D14FF0FF3026E023692A4639463046C0470130F5D023689B0710D5002504F141
:403A8000190907E001234A4639463046C0470130E7D00135E368039A9B1A9D42F2DBE068039B9842B8BF184605E00B7804F1420584F842308AE705B0BDE8F083B742000088
:403AC000C842000010B5C9B202449042034605D01C7801308C42F8D1184610BD002010BD884210B501EB020301D8421E0BE09842FBD28118D21AD34204D013F8014D01F8C7
:403B0000014DF8E710BD994204D011F8014B02F8014FF8E710BD000038B50546002944D051F8043C0C1F002BB8BFE41800F0D4F81E4A1368114613B96360146030E0A342DC
:403B40000DD92268A018834201BF18685B681218226063600C6023E0A24203D813465A68002AF9D118681918A1420BD12168014458188242196013D11068526801441960EA
:403B80005A600DE002D90C232B6009E021686018824201BF106852680918216062605C602846BDE8384000F098B838BD8081FF1F70B5CD1C25F0030508350C2D38BF0C2561
:403BC000002D064601DBA94202D90C23336046E000F082F8234B1C681A462146A1B10B685B1B0ED40B2B03D90B60CC18CD501EE08C420BBF63684B681360636018BF0C4691
:403C000015E00C464968E9E7174C23681BB9304600F052F820602946304600F04DF8431C18D0C41C24F00304A0420DD12560304600F053F804F10B00231D20F00700C31A44
:403C40000ED05A42E25070BD211A304600F034F80130EBD10C233360304600F03EF8002070BD00BF8081FF1F7C81FF1FF8B5074615460E4621B91146BDE8F840FFF798BF09
:403C80001AB9FFF749FF2846F8BD00F027F885420ED929463846FFF78BFF044650B131462A46FFF7EDFB31463846FFF735FF01E03046F8BD2046F8BD38B5064C00230546A3
:403CC00008462360FDF794FA431C02D1236803B12B6038BD7082FF1F7047704751F8040C0028BEBF091851F8043CC01804387047000000002A2A2A2A2A2A2A2A2A202020B5
:403D00002048454C503A20504F535349424C452053455454494E4753202020202A2A2A2A2A2A2A2A2A0D0D00662E2046756C6C205363616C650D0A702E2053616D706C6950
:403D40006E6720467265710D0A742E205365742054656D706572617475726520556E69740D0A762E205072696E742044617461206F6E204243500D0A622E20537461727404
:403D800020526567697374726174696F6E0D0A732E2053746F7020526567697374726174696F6E0D0A0D00002A2A2A2A2A2A2A2A2A2A2A2A2A2A2A2A2A2A2A2A2A2A2A2A3B
:403DC0002A2A2A2A2A2A2A2A2A2A2A2A2A2A2A2A2A2A2A2A2A2A2A0D0A0000002A2A2A2A2A2A2A2A2A2020202043484F4F534520414343454C45524F4D4554455220465595
:403E00004C4C205343414C45202020202A2A2A2A2A2A2A2A2A0D0D312E202B2D32670D0A322E202B2D34670D0A332E202B2D38670D0A342E202B2D3136670D0A352E204725
:403E40006F206261636B0D0A0D000000594F552043484F4F5345202B2D32670D0D000000594F552043484F4F5345202B2D34670D0D000000594F552043484F4F5345202BC1
:403E80002D38670D0D000000594F552043484F4F5345202B2D3136670D0D0000455849542E2E2E2E0D0D0000494E56414C494420494E5055542C20455849542E2E2E2E0DD0
:403EC0000D0D0D0D0D0000002A2A2A2A2A2A2A2A2A2020202043484F4F534520414343454C45524F4D455445522053414D504C494E47204652455155454E4359202020201E
:403F00002A2A2A2A2A2A2A2A2A0D0D312E203120487A0D0A322E20313020487A0D0A332E20323520487A0D0A342E20353020487A0D0A352E20476F206261636B0D000000B2
:403F40002A2A2A2A2A2A2A2A2A2A2A2A2A2A2A2A2A2A2A2A2A2A2A2A2A2A2A2A2A2A2A2A2A2A2A2A2A2A2A2A2A2A2A2A2A2A2A2A2A2A2A2A2A2A2A2A2A2A2A2A2A2A2A2AC1
:403F80002A0D0A00594F552043484F4F5345203120487A0D0D000000594F552043484F4F534520313020487A0D0D0000594F552043484F4F534520323520487A0D0D0000D9
:403FC000594F552043484F4F534520353020487A0D0D00002A2A2A2A2A2A2A2A2A2020202043484F4F53452054454D504552415455524520554E4954202020202A2A2A2AB1
:404000002A2A2A2A2A0D0D312E2043656C736975730D0A322E2046616872656E686569740D0A332E20476F204261636B0D000000594F552043484F4F53452043454C53494E
:40404000555320554E49540D0D000000594F552043484F4F53452046414852454E4845495420554E49540D0D000000002A2A2A2A2A2A2A2A2A2020202052454749535452AE
:404080004154494F4E20414C52454144592053544152544544202020202A2A2A2A2A2A2A2A2A0D002A2A2A2A2A2A2A2A2A20202020524547495354524154494F4E205354C9
:4040C0004152544544202020202A2A2A2A2A2A2A2A2A0D002A2A2A2A2A2A2A2A2A20202020524547495354524154494F4E20414C52454144592053544F50504544202020F3
:40410000202A2A2A2A2A2A2A2A2A0D002A2A2A2A2A2A2A2A2A20202020524547495354524154494F4E2053544F50504544202020202A2A2A2A2A2A2A2A2A0D002A2A2A2A55
:404140002A2A2A2A2A2020202056495355414C495A4154494F4E2053544152544544202020202A2A2A2A2A2A2A2A2A0D000000002A2A2A2A2A2A2A2A2A20202020564953D1
:4041800055414C495A4154494F4E20414C52454144592053544152544544202020202A2A2A2A2A2A2A2A2A0D000000002A2A2A2A2A2A2A2A2A2020202056495355414C4988
:4041C0005A4154494F4E2053544F50504544202020202A2A2A2A2A2A2A2A2A0D00000000494E56414C494420494E5055542E2E2E2E0D0D0D0D0D0D000D2A2A2A2A2A205296
:404200004553455420454550524F4D2A2A2A2A2A0D0000002A2A20454550524F4D2052656164203D202564200D0A0000035B00402443004040000000004F004018004051B4
:4042400000403000F0510040100000000140000480040140800B001401408002001701408003001B0140000100400140000A004C01400002005001402000000060520040DC
:40428000C0070048060000040140C8070048800080160140480800488000801A0140C808004880004300232D302B2000686C4C0065666745464700303132333435363738A5
:4042C00039414243444546003031323334353637383961626364656600000000F8B500BFF8BC08BC9E4670474D0000006D120000F8B500BFF8BC08BC9E467047290000009B
:4043000010430000C880FF1F8000000030010000000000007882FF1F01FF00000000E02EC05D00001800000000366E01000000000000000000000000000000000000000013
:40434000000000000000000000000000A442000000000000000000000000000000000000000000000000000000000000000000000000000000000000000000000000000057
:40438000000000000000000000000000E480FF1F0000000000000000000000000000000000000000000000000000000000000000000000000000000000000000000000007B
:4043C00000000000000000000000000000000000000000000000000000000000000000000000000000000000000000000000000000000000000000000000000000000000BD
:40440000000000000000000000000000000000000000000000000000000000000000000000000000000000000000000000000000000000000000000000000000000000007C
:40444000000000000000000000000000000000000000000000000000000000000000000000000000000000000000000000000000000000000000000000000000000000003C
:4044800000000000000000000000000000000000000000000000000000000000000000000000000000000000000000000000000000000000000000000000000000000000FC
:020000040003F7
:0200000480007A
:40000000044F004003520040046400400265004003030140090401404005014061060140460701405608014044090140020B0140030D0140040E0140030F01400C15014024
:400040000F160140541701405B1801404E190140291A0140491B014007400140134101400F4201400943014006440140054501400646014002470140074801400249014064
:40008000074C01400A4D0140065001400251014001400A4B0D60164B000401201102840F860F880F893888728A0D8340EA03EE028301B701D409D604D904DB04DC70DD10B4
:4000C000DF01005002200340081009080A400B0510281101181019901B04204421082228270228102A822B0831083240342035503740388039153E01406442804801490857
:400100004A084B015040512052045D8A5F2062806742682869556AC271407202811287408D109201A001A740B001B201C00FC20FC40ECA0FCC0ACE8FD007D20CD6F0D8985B
:40014000E61006040B100C0E0E011102130D14021509160C173618101E0320102410280D29052A022B3A2D232F0C3010320835303607370F38083B803E015401580459048F
:400180005B045C125D305F01847385EC860489E88B048D6C8E088F8091EC94739517960C9740982A99019A449B069C039D109E449F68A1ECA255A780A911AB26AD08AF138F
:4001C000B040B20FB380B430B507B778B820BA08BBA0BE11BF04C002C740C9FFCA07CBFFCC40CD20CEF0CF05D008D440D604D804D904DA04DB04DC13DD13DF01E040E1A86A
:40020000E240E32000080180044808840A140C080E020F0810801680171818041A501E021F052180221023142510268027012A862B0C2E802F0831803219360837093954E0
:400240003D204004488052025D205E485F026120639180C081208CA08E019154920297069A86A120A208A308A510A680A740A840AB24AF02B440B628B708C0A5C2E7C478DB
:40028000CA3FCCCFCE2ED004D6F0D80FE211E6030010011904230519060C082309180A140B040D1E0E100F0110211118121A13011410151919041B191C10232024102720C7
:4002C000280229112A1D2B022D012F18321F331135203620370F3A083BC03E403F1040254101450B460E470C481549FF4AFF4BFF4EF04F44500C56025724580459045A0434
:400300005B045C225D235F0166C06A406B028301880E970298039A04A005A20AA404A609AF02B20FB501B702B808BF40D418D604D804D904DB04DC31DD30DF0100100660C1
:40034000071508200EA1110213081408150418101C021F042001212024062544264027102B012EA82F803204362837013A023D843E11440246044C204F80558057085A0208
:4003800060056340640867086C4A6D046E216F0174808020830887408C408F4098209B08A101B420B501B708C0F2C2B2C46CCAF8CCE2CEF1D030D210D601D82DE440E61010
:4003C000E850EC40EA80EE80AB80AF80EE02B982BF41D904DF01268027808A80840187088F809F88A001AA01AD20B640B710E208E408EE021402170124013402360137014A
:400400003E5054405604580459045B045C505D205F010008012002020380080409800A040B800F2010A11208150819901A041B8A1C021E08200821042210270229903084E5
:400440003212370838803908400842404308480849044A014B2150045180525059045A025BA063826651671082098601871A8B108F639080938094089604980D9D809F10FF
:40048000A0A0A202A311A40CA604A848AA10AC01AF01B004B344B604B713C00FC22FC42FCA0CCC4FCE0AD007D20CD60FD8F9E204E420E641E801EA82EE0C0503070C0901A8
:4004C0000B140C010D030E020F18100314011512160219101B0221122403251229022D022F103001351F3602388039203E0156025710580459045B045C235D305F018004DE
:400500008108842785048618890C8C1C8D7F8E21903F9373941C9542962299739A049B0C9D63A010A408A521A818A91CAB63AD0FAE23AF70B160B31CB41FB50FB638BAA2E1
:40054000BB20C030C106C9FFCAFFCBFFCDA0CF04D018D804D904DA04DC33DD05DF01E040E2C0E440E540E6C0E8C0EAC0ECC0EEC0000601800580080809200A400E400F6055
:4005800010A9170819901A401B101E801F80200422152308251026202704282829902C022D042E113001310A329036183A153B403DA843084B205E806D106E086F0174A8E7
:4005C000761580028A208E108F0891049201961A9E0A9F04A002A164A218A620A781A801AA04AC09AE80B082B248B580C08DC23EC42FCAFECC6FCE7FD002D204D610E010F4
:40060000E220E430E601E820EA10EE80000605010A030D0116011806210130043401360237013E104030410645D04621481E49FF4AFF4BFF4DAF4E0F4F045018540558046B
:4006400059045A045B045C555D555F01604062C06440654066C068C06AC06CC06EC0038805100B280E1815101602170118401A041B401D9A1E102240240127602B802C02D5
:400680002D042E013618374038403B083C013DA843084582470849014B204E044F4053945608570159015A84764081108280864088218A028F6091149209934097209B09CB
:4006C0009C209E0AA002A154A21CA308A401A50AA680A701AD04B504C04AC266C4D0CAD1CC70CEFAD0D2D234D60BE408E610EE4032083310350136403B40CCF0CE1032207C
:40070000570861086280831093049B049D019F10A648AB04AF44CC10D440D640D840E220EAC0EE40532057105B045F0486408D0893049B049D01A508A6E8A708D460D6C0F2
:40074000E64086208F109D01A628A730AA80AF08E640EE6013027C208820C408DE01E00100225B10AF02C00AD40145029F10B011D001EA01EE019F10A502254089408D0140
:400780009D01A608B320C820AA08EA200980818089029F10A502C202E40410407401840188408F109F10C408DE04E201E402008E0A8E0C0E102C1A2C1C2C00FF010F00006F
:4007C000888C000040000000841A00000A181002010200180782380004008000569C09030400000060180002841A00008418000080C104380033004400137FE0800F0800C0
:4008000008000028000050002604300005BEFC0D1FFFFFFF2200F008040000000000022004040404111100010000C00040011011C00100114001400100000000000000000D
:40084000000000000000000000000C0011000E03C000000000140800C0100040111006AC0C0C13710000402020000300C000000000DCC022C00900D04000801F0FE0300057
:4008800080002020000005006204300005CEFD0B1FFFFFFF2200F00C040000000900040004040404332200010000C00040011011C0010011400140010000000000000000DB
:4008C000000000000000000000600000003100C201D20E240002009800000000440D3100E70D00000002000D800D0000000D0000E7000000220D5100800F60800700187082
:40090000008000020000400434050600010000CE30FFFFFF62A0F0410C008000000000000404040423530001000000000000400200103010001010120000000000000000AC
:4009400000000000000000000400006464006400000000008400508C8C008C00000000008000408B8B000000000000001400011612000200000000000001010000001000A8
:4009800025001801000000000000000000000000000000000000000000000000000000000000000000000000000000000000000000000000000000000000000000000000F9
:4009C00000000000000000000000000000000000000000000000000000000000000000000000000000000000000000000000000000000000000000000000000000000000F7
:400A000000000000000000000000000000000000000000000000000000000000000000000000000000000000000000000000000000000000000000000000000000000000B6
:400A40000000000000000000000000000000000000000000000000000000000000000000000000000000000000000000000000000000000000000000000000000000000076
:400A80000000000000000000000000000000000000000000000000000000000000000000000000000000000000000000000000000000000000000000000000000000000036
:0200000490006A
:0400000000004005B7
:0200000490105A
:04000000BC90ACAF55
:0200000490303A
:020000007F92ED
:0200000490402A
:4000000000000000000000000000000000000000000000000000000000000000000000000000000000000000000000000000000000000000000000000000000000000000C0
:400040000000000000000000000000000000000000000000000000000000000000000000000000000000000000000000000000000000000000000000000000000000000080
:400080000000000000000000000000000000000000000000000000000000000000000000000000000000000000000000000000000000000000000000000000000000000040
:4000C0000000000000000000000000000000000000000000000000000000000000000000000000000000000000000000000000000000000000000000000000000000000000
:0200000490501A
:0C00000000012E16106900012E318FFB4C
:00000001FF