:400000000080002011000000551200005512000008B5044B1A6803F53F5302331A6001F021F900BFFA46004010B5054C237833B9044B13B10448AFF300800123237010BD8E
:400040004881FF1F000000003C370000084B10B51BB108490848AFF300800848036803B910BD074B002BFBD0BDE81040184700BF000000004C81FF1F3C370000C880FF1F1C
:400080000000000038B501F083F9B04B18703F2809D1AF4801F0BCF9AE4801F0B9F9AE4801F0B6F938BD662802D0462840F0C280AA4801F0ADF9AA4801F0AAF909E00A20FF
:4000C00002F002FCA74A136801331360B3F57A7F03DA01F073F90028F1D0A24B1B68B3F57A7F03DB3522994B1A7003E001F050F9964B187000229B4B1A6001F06BF9934B4A
:400100001B78313B042B00F29180DFE803F0032547698B00232000F0F9FA924B1871802804D080211971232000F004FB8E4D04242C708C4B1979012000F02AFC00F084FC5D
:400140002978204600F024FC00F07EFC874801F05FF900F0D5FE38BD232000F0D7FA814B1871902804D090211971232000F0E2FA7D4C082323707B4B1979012000F008FC0B
:4001800000F062FC2178042000F002FC00F05CFC774801F03DF900F0B3FE38BD232000F0B5FA704B1871A02804D0A0211971232000F0C0FA6C4C102323706A4B19790120A2
:4001C00000F0E6FB00F040FC2178042000F0E0FB00F03AFC674801F01BF900F091FE38BD232000F093FA5F4B1871B02804D0B0211971232000F09EFA5B4C30232370594B36
:400200001979012000F0C4FB00F01EFC2178042000F0BEFB00F018FC574801F0F9F800F06FFE38BD554801F0F3F838BD544801F0EFF838BD702802D0502840F0D180514842
:4002400001F0E6F8504801F0E3F809E00A2002F03BFB444A136801331360B3F57A7F03DA01F0ACF80028F1D03E4B1B68B3F57A7F03DB3522354B1A7003E001F089F8334BA5
:4002800018700022374B1A6001F0A4F82F4B1B78313B042B00F2A080DFE803F003203C7E9A00202000F032FA2E4B1871172804D017211971202000F03DFA2A4B197900205F
:4002C00000F066FB00F0C0FB4FF47A7001F0FAFD2E4801F09DF800F013FE38BD202000F015FA204B1871272804D027211971202000F020FA1B4B1979002000F049FB00F04D
:40030000A3FB642001F0DEFD214801F081F800F0F7FD38BD202000F0F9F9124B1871372804D037211971202000F004FA0D4B1979002000F02DFB00F087FB164801F068F895
:40034000282001F0BFFD00F0DBFD38BDAC81FF1F4037000074370000F437000028380000943900006481FF1FAD81FF1F98380000AC380000C0380000D4380000E8380000DF
:40038000F4380000143900008C390000D0390000E4390000F8390000202000F0B7F9864B1871472804D047211971202000F0C2F9814B1979002000F0EBFA00F045FB7F4804
:4003C00001F026F8142001F07DFD00F099FD38BD7B4801F01DF838BD7A4801F019F838BD742801D0542852D1774801F011F8774801F00EF809E00A2002F066FA6E4A13684A
:4004000001331360B3F57A7F03DA00F0D7FF0028F1D0694B1B68B3F57A7F03DB33226C4B1A7003E000F0B4FF694B18700022624B1A6000F0CFFF664B1B78322B11D0332BF3
:400440001DD0312B1FD10021624B1970032000F09FFA00F0F9FA604800F0DAFF00F050FD38BD01215B4B1970032000F091FA00F0EBFA5A4800F0CCFF00F042FD38BD5048DD
:4004800000F0C6FF38BD4F4800F0C2FF38BD622801D042281DD1524B1B68012B06D1514800F0B6FF494800F0B3FF0FE073B901244B4B1C604C4800F0ABFF444800F0A8FF6B
:4004C0002146022000F064FA00F0BEFA00F082FF38BD732801D0532822D1414B1B6833B9424800F095FF394800F092FF15E0012B13D100243A4B1C6040F2E731084600F080
:40050000DBFC3B4800F084FF304800F081FF2146022000F03DFA00F097FA00F05BFF38BD762801D056282CD12D4B1B685BB9314800F06EFF254800F06BFF01202E4B1860EE
:4005400002F03EF81AE0012B0ED10022244B1A60284800F05DFF1D4800F05AFF0120264B186002F02DF809E0234B1B68012B05D1224800F04DFF154800F04AFF00F02AFF87
:4005800038BD752801D0552815D11B4B1B68012B0BD10020184B186002F012F8184800F037FF0A4800F034FF03E013B9154800F02FFF00F00FFF38BD6481FF1F0C3A00002C
:4005C000E8380000F4380000203A00008C390000AC81FF1FA881FF1F7C3A0000983A00009481FF1FB83A0000F03A0000203B0000583B0000883B00009881FF1FBC3B000048
:40060000F83B00002C3C000010B501F055FC01F023FC304B1860002801DA00221A602D4B1B68B3F5803F03DB4FF6FF72294B1A60284B186801F0FEFB274B1860274B1B78C6
:40064000BBB9A0F5FA70A3F1993383FB0023C017C0EBA30002F068FE214B1860214B1C68214902F0B5FE03F003F8204B23F8140022E0012B20D1A0F5FA7003F1663383FBF5
:400680000023C017C0EBA30002F04EFE184902F09FFE184902F050FF4FF0844102F090FD0F4B18600F4B1C680F4902F091FE02F0DFFF0E4B23F814000A4A13680133136048
:4006C000092B05D101220C4B1A700022054B1A6010BD00BFB481FF1FCC81FF1FA881FF1F6C81FF1FB081FF1F0000C842B881FF1F000010410000A040A581FF1F704700BFC9
:400700000122014B1A607047D481FF1F00B583B060F07F008DF8040002AA002302F8053D0123194601A800F0B3F89DF8030003B05DF804FB00B583B08DF804008DF80510EA
:40074000002302AA02F8053D022101A800F0A0F803B05DF804FB00BF00B583B060F03F0302A800F8043D13460A46012100F090F803B05DF804FB00BF10B50446002001F0CE
:40078000E1F8204600F0C8FE00F09EFE10F0080FFAD000F02BFF0446012001F0D3F8204610BD00BF10B50446002001F0CBF8204600F0B2FE002000F0AFFE00F085FE10F08B
:4007C000010FFAD000F012FF00F010FF0446012001F0B8F8204610BD2DE9F04383B006460C4617469846002001F0ACF864B2002511E02146082CA8BF0821C9B206EBC5004E
:4008000000F070FF00F060FE10F0010FFAD0083C64B201356DB2002CEBDC00F073FF00F017FF0026009601964FFA88F820E0C146B8F1080FA8BF4FF008095FFA89F168460C
:4008400000F050FF00F040FE10F0010FFAD0002406E004EBC60500F0C9FE78550134E4B24C45F6DBA8F108084FFA88F8013676B2B8F1000FDBDC012001F064F800F042FFDD
:4008800000F0E6FE00F004FF03B0BDE8F08300BF2DE9F04383B006460C4617469846002001F044F864B2002511E02146082CA8BF0821C9B206EBC50001F05EFD01F04EFC36
:4008C00010F0010FFAD0083C64B201356DB2002CEBDC01F061FD01F005FD0026009601964FFA88F820E0C146B8F1080FA8BF4FF008095FFA89F1684601F03EFD01F02EFCD8
:4009000010F0010FFAD0002406E004EBC60501F0B7FC78550134E4B24C45F6DBA8F108084FFA88F8013676B2B8F1000FDBDC012000F0FCFF01F030FD01F0D4FC01F0F2FC71
:4009400003B0BDE8F08300BF08B50520FFF72AFF08BD00BF08B50620FFF70EFF08BD00BF00B583B003218DF80410030A8DF805308DF8060002AA002302F8053D012301A82F
:40098000FFF72AFF9DF8030003B05DF804FB00BF30B583B004460D46FFF7DCFF02238DF80430230A8DF805308DF806408DF80750002302AA02F8053D04210DEB0100FFF7A9
:4009C0000BFF03B030BD00BF10B582B003248DF80440030A8DF805308DF8060013460A46214601A8FFF7F8FE02B010BD2DE9F04182B000AF054688461446FFF7ABFF0120D5
:400A000001F078FFE61C04F10A0323F00703ADEB030D02238DF800302B0A8DF801308DF80250224641460DF1030002F073FE002307F1080202F8013DF1B26846FFF7CCFE28
:400A40000837BD46BDE8F08108B5FFF77DFF10F0010FFAD108BD00BF2DE9F04FB7B062B600F088FC01F06CFA01F072F900F0B0FE01F0F8FC00F01CFA8F4801F0C7FD8F48A9
:400A800001F08CFA052001F01FFF8D4800F080FF8C4801F01FFB0020FFF762FF01462020FFF748FE0120FFF75BFF01462320FFF741FE0320FFF754FF034610B90021824A93
:400AC0001170012B02D101227F4B1A700220FFF747FF012802D101227C4B1A6010B900227A4B1A600420FFF73BFF794B18702220FFF70CFE062803D004212220FFF71AFEBF
:400B00002420FFF703FE402803D040212420FFF711FE2E20FFF7FAFD6E4B1870492804D0492119702E20FFF705FE002436A921F8404D02220520FFF759FFFFF785FFA0231D
:400B40008DF81030C0238DF81F3001F015F9624800F05EFC614800F05BFC614800F058FC02940394594B1B68012B40F09F805D4B1B68012B40F0908040F22223029A9A42D4
:400B800000F38A8040F2F31140F2E73000F094F93C2227A92820FFF7DFFD002635460624039F5CE02946631C36AA134413F83CCC4FEA9C0236AB2B4403F87C2C6B1CE01CC6
:400BC00036AA104410F83CEC224412F83C2C36A80344920842EA1E1242EA8C1203F87C2CAA1C631D034413F83C0CA31C0DF1D80C634413F83C3C62441B0943EA901343EABF
:400C00000E1302F87C3CEB1C221D624412F83C2C6344920942EA800203F87C2C324B1B78DBB2012B0DD12B1D304A32F91620634403F87C2C6B1D6344121203F87C2C0136AF
:400C4000F6B2E8190A30062217AB194480B2FFF7CDFEFFF7F9FE0635ADB20634A4B23B2CA0D900F031F900231F4A1370039A363292B20392029A013202921A4A1360BDF86A
:400C80009830243336A921F8403D02220520FFF7ADFEFFF7D9FE09E040F22223029A9A4204DDE02140F2C11000F006F9104B1B68012B7FF457AFE0E00107000009060000E3
:400CC00085000000FD060000A881FF1F9481FF1FAD81FF1F9C81FF1F4037000074370000F4370000D481FF1FA581FF1FB881FF1F9881FF1F09EB0B000A30062208ABD919D3
:400D000080B2FFF761FE7B1C36AA134413F8B86C13463B4413F8B80C800240EA860040F38910BB1C134413F8B83C360346EA031636B2FA1C36A90A4412F8B85C9B0343EAC7
:400D400085152DB23B1D0B4413F8B8AC7B1D0B4413F8B84C240224B2534B93F8008008FB00F001F05FFF4CA3D3E9002301F0C0FF4BA3D3E9002301F0BBFF02F0CBF94B49C7
:400D800002F026FB02F074FC8DF81100C0F307238DF81230C0F307438DF81330000E8DF81400B01108FB00F001F03CFF3AA3D3E9002301F09DFF3AA3D3E9002301F098FFAB
:400DC00002F0A8F9394902F003FB02F051FC8DF81500C0F307238DF81630C0F307438DF81730000E8DF81800A81108FB00F001F019FF29A3D3E9002301F07AFF28A3D3E9A8
:400E0000002301F075FF02F085F9284902F0E0FA02F02EFC8DF81900C0F307238DF81A30C0F307438DF81B30000E8DF81C004AEA04048DF81D40C4F307248DF81E40642034
:400E400001F042FD10210DEB010000F0F3FA09F106091FFA89F90637BFB202E04FF000094F46352F7FF646AF0BF1360B1FFA8BFB019B36339BB2019303E04FF0000BCDF8A8
:400E800004B03623029A03FB02F3019A9A42E5DB68E600BFAFF30080E9263108AC9C2340FCA9F1D24D62503FAD81FF1F0000C84208B501F0E7F808BD10B50C4601F08AF865
:400EC000204601F08DF810BD08B52E20FFF71EFC0A4B187020B1002119702E20FFF72AFC2E20FFF713FC054B1870492804D0492119702E20FFF71EFC08BD00BF9C81FF1FEC
:400F000008B50023074A1380074A1380074A1380074B1B68012B02D10022054B1A60FFF7D3FF08BDA681FF1F9081FF1FAA81FF1F9881FF1FFEE700BFF0B40022174611E02C
:400F400050F82760F3B226F0FF0608E001EB420511F812406D78A5550132013BDBB2002BF4D10137232FEBD9F0BC70470B4B1B78DBB203F007010A4A11701B0901321370D0
:400F80001023A2F23272137002F6C3121370583213704422034B1A70704700BFCF0100496E5800407658004008B50A46002102F0BCFB08BD08B502F0ADFB08BD38B500243C
:400FC000384B1C80502202331A700B2202331A80182335490B7002310A80344A13703321023211800232137045F6BF5230490A8002310B7002310A802E4A137004222E4991
:401000002E48FFF7D7FF02222D4B1A7008224FF040231A70032103F500731970294B1B78DBB229490B70294B1A8041F25122023B1A8019250CE0264B1B7803F0010343EA7C
:40104000440404F003044FF4F07001F089FC013D0DB1032CEFD115B90320FFF76BFF1D4B4FF480721A8007221A7000221A490A704820023108701A700222033B1A70042240
:401080000A331A70154A137843F03F031370013A137843F001031370013A137843F08003137038BD80400040864000408A4000409040004096400040E40900480041004027
:4010C0000043004008010049A146004022420040254200400440004006400040A2430040012807D8044B53F820201844017A13780B431370704700BF443C0000012808D866
:40110000044B53F820201844017A137823EA010313707047443C000038B572B6394A137843F00403137000240BE0374863001A19510001440A46098AD068FFF735FF013494
:40114000E4B2092CF1D900240CE02F48A20011194B000344B3F85020D96C986CFFF72AFF0134E4B2022CF0D928494FF09040FFF7E3FE0A24264B1C70264A137843F00203FB
:4011800013701032137843F002031370224D2B7843F040032B70A2F58632513A137843F01003137008221D491D48FFF703FF22461C491D48FFF7FEFE22461C491C48FFF79B
:4011C000F9FE22461B491C48FFF7F4FE08221B491B48FFF7EFFE1B4A137843F008031370194C61232370FFF7E9FE812323700122164B1A70FFF7BAFE0E2229461448FFF71E
:40120000D9FE38BDE8460040443C0000900000488358004003500140A0430040B009004802510040B8090048C0510040C409004810510040D009004820510040DC090048A7
:4012400032510040224300400048004004000840B043004008B502F031FA03680C2B00D1FEE7FEE708B5104E104D16E029686B68AC68002204E051F8040B43F8040B043224
:40128000A242F8D1E868002203E0002143F8041B04328242F9D11035013E002EE6D102F013FAFFF7D9FBFEE701000000D03C000008B5104A104B1A60104A136843F400735E
:4012C000136000230AE0032B03D80D4A52F8231000E00C490C4A42F8231001332F2BF2D90A4B1A780A4B1A70074A0A4B1A60FFF713FF08BD0004FA050CED00E014ED00E0D0
:4013000000000000551200000080FF1FBC760040C080FF1F08ED00E07222074B1A702022013B1A700622623B1A70472210331A700022B03B1A7070478B65004010B501F0D2
:4013400017FB04460A4A137843F020031370013A137843F010031370A2F58172137843F01003137001F060F9204601F005FB10BD9B65004008B5054B1B7823B9FFF7CCFF01
:401380000122024B1A70FFF7D9FF08BD7781FF1F084B1B78DBB213F0200F06D0064A1078C0B213F01E0F02D17047002070470020704700BF6A6500404A650040044B1B78BE
:4013C00013F0200F01D0012070470020704700BF6A65004008B501F0CBFA064B1A7842F001021A701A7802F0FE021A7001F0C4FA08BD00BF9A650040034B1B7813F0040FE1
:40140000FAD1024B18707047686400404864004038B5074B1B782BB938BDFFF7EDFF0134A4B201E005460024285D0028F5D138BD7781FF1F084B1B7833B97047305DFFF76B
:40144000DBFF0134E4B203E070B50D4606460024AC42F3D370BD00BF7781FF1F0222014B1A60704700E100E00122014B1A60704700E100E008B501F07BFA0C4A137843F04C
:4014800020031370013A137843F010031370FD32137843F01003137001F06EFA01F0D2F8FFF7DCFFFFF7E0FF08BD00BF9C6400400222014B1A60704780E100E00122014BA5
:4014C0001A60704780E100E010B5FFF7F1FF064B1C78064A137803F009031C4300231370FFF7BCFF204610BD6B640040DC81FF1F10B5FFF7E3FF064B1B78064A147804F04C
:4015000040041C4300231370FFF7AEFF204610BD68650040ED81FF1F10B504462B4B1A7802F0FF0312B1013BDBB200E00723284A1278D2B29342F1D0FFF7BAFF254B19788C
:40154000254A137803F009030B4313701F4B1A78D2B21F4B1B78DBB29A4207D11E4B1B7813F0040F02D01D4B1C702CE0184A13780133DBB213701378DBB2072B02D9002287
:40158000134B1A70124B1A78D2B2104B1B78DBB29A420ED10D4A13780133DBB213701378DBB2072B02D90022084B1A7001220C4B1A70074B1B78DBB20A4AD4540A4A13787F
:4015C00043F004031370FFF749FF10BDEE81FF1FEC81FF1F6B640040DC81FF1F4C640040E881FF1FE081FF1F8B64004010B5FFF765FF134B1A78D2B2124B1B78DBB29A4270
:4016000014D0114B1B7813F0FF0F0CD10C4A13780133DBB213701378DBB2072B06D90022074B1A7002E00022074B1A70044B1B78DBB2064AD45CE4B2FFF716FF204610BDFA
:40164000EB81FF1FE981FF1FEA81FF1FF081FF1F08B501E0094B1B78094B1B7813F0200FF8D1FFF72BFF0023064A1370064A1370064A1370FFF7F8FE08BD00BF5C640040AD
:4016800068650040EA81FF1FEB81FF1FE981FF1F08B501F06DF90E4B1A7842F001021A701A7802F0FE021A7001F066F9FFF700FF0023084A1370084A1370084A1370084A7D
:4016C000137803F0FB031370FFF7C8FE08BD00BF9C640040E881FF1FEE81FF1FEC81FF1F8B64004070B506460C46002506E0705DFFF712FF0135EDB2013CE4B2002CF6D160
:4017000070BD00BF08B501E00A4B1B780A4B1B7813F0200FF8D101F02BF9084B1A7842F001021A701A7802F0FE021A7001F024F908BD00BF5C640040686500409C640040AE
:4017400010B50F22174B1A70174C022323600621012001F0EDF81549012001F0D5F8012323600621002001F0E3F81149002001F0CBF8FFF7C7FF00240E4B1C700E4B1C708F
:401780000E4B1C700E4B1C700E4B1C700E4B1C70FFF79AFEFFF7ACFE0C4B1C702022FD331A7010BD8C64004080E100E0ED1700008D180000EA81FF1FEB81FF1FE981FF1F06
:4017C000E881FF1FEE81FF1FEC81FF1F8B64004008B5054B1B7823B9FFF7B2FF0122024B1A70FFF747FE08BD7981FF1F28E01F4B19781F4A137803F009030B431370137894
:4018000013F0040F24D01B4B1B7813F0FF0F0CD1194A13780133DBB213701378DBB2072B06D90022144B1A7002E00022114B1A70114B1B78DBB2114AD35CDBB2104A1370F7
:401840000D4B1A78D2B20F4B1B78DBB29A42CED1094B1A78D2B20B4B1B78DBB29A4204D1094A137803F0FB03137070476B640040DC81FF1FE881FF1FEE81FF1FE081FF1F4E
:401880004C640040EC81FF1F8B640040204B1A7820490B7803F0400313430B7032E01E4B1A78D2B21D490B780133DBB20B700B78DBB2072B02D90021184B1970174B1978BB
:4018C000C9B2174B1B78DBB299420ED114490B780133DBB20B700B78DBB2072B02D900210F4B197001210F4B19700C4B1B78DBB20D49CA54064B1A7806490B7803F0400319
:4019000013430B70034B1B7813F0200FC7D1704768650040ED81FF1F5C640040E981FF1FEB81FF1FEA81FF1FF081FF1F044A137803F07F03C001C0B218431070704700BFDF
:4019400010510040044A137803F0EF03000100F0100018431070704720510040014B1B689865704708ED00E04001C0B2014B1870704700BF06E400E04022014B1A607047C6
:4019800000E100E04022014B1A60704780E100E010B50446FFF7F6FF2046FFF7DFFF0720FFF7E2FFFFF7E8FF10BD00BF10B59DF80840012C51D1013809282ED8DFE800F093
:4019C000052D2D052D2D0F192D230F2B03D92548007840B222E02448007840B21EE00F2B03D92248007840B218E02148007840B214E00F2B03D91F48007840B20EE01E480A
:401A0000007840B20AE00F2B03D91C48007840B204E01B48007840B200E0002001EB401101FB02F1C90B8AB20D2B0BD8C3F10E0289B211418AB2611E124800EB810101335F
:401A40008B7005E0631E0F4901EB83030F219970013C0C4B23F8242010BD002000F032FF10BD00BF180100491C010049190100491D0100491A0100491E0100491B010049B2
:401A80001F0100497C81FF1FF8B5074600F070FF06460D4D2B7843F003032B700B4C237843F0030323700A4B1F70032000F022FF2B7803F0FC032B70237803F0FC03237006
:401AC000304600F059FFF8BDF8460040F9460040925800400022324B1A7101285FD170B53822304B1A70042202331A70062201331A70002401331C7001331C703F22013341
:401B00001A7002331C7001331C7001331C7001250A331D70502203F527631A700A2201331A702C2201331A7001331C70442203331A70482201331A7001331D7002331D70E5
:401B4000112201331A70192201331A70972201331A705220FFF798FF5822134B1A7001331C70052605331E70022201331A7001331C7001331C70204600F082FD43F2333221
:401B80000A4B1A602946304600F09EFD2946252000F01EFE06491D2000F0B6FE70BD70477C81FF1F004E004094580040F881FF1F811E0000F0B583B0284D01272F70284E7D
:401BC00000247471102000F06DFD102000F0EEFD06211D2000F0ACFE0422224B1A7001331C7007331C70204A137843F0180313701E4B1C7003F2F5231C7001331C700A2266
:401C0000A3F209331A7001331C7002331C705B2205331A705E2201331A7004331C701422A3F68C231A70009710234FF4004248F6F0510220FFF7BAFE2B78013B06EB83038C
:401C40009A780B4B1A702B78013B36F82320094B1A802878FFF73EFF03B0F0BDCC80FF1F7C81FF1F96580040075B0040935800400E4E00400C4E004070B500F079FE064673
:401C80002A4B1B782A4B1A7842F001021A701A7842F010021A7010331A7842F001021A701A7842F010021A70224D2B7843F002032B70214C237843F0020323701F4A137856
:401CC00043F003031370032000F014FE2B7803F0FD032B70237803F0FD032370184A137843F0060313707A22164B1A70164A137843F0010313701032137843F00103137052
:401D00000F3A137843F0010313701032137843F0010313704FF000530C4A1360A2F5C0721360304600F028FE70BD00BFCC80FF1FAA430040F8460040F946004091580040C2
:401D40007758004082580040A143004080E200E008B5084B9B794BB9064BDB7913F0FF0F01D1FFF727FF0122024B9A71FFF784FF08BD00BF7C81FF1F024A137843F0010367
:401D800013707047004E0040024A137803F0FE0313707047004E0040094B1B7913F0FF0F03D0074B5B79DBB203E0064B1B7803F00103012B01D00028EED01846704700BFD4
:401DC0007C81FF1F014E0040154B1B7803F00303012B07D8134B1888023B1B889BB243EA004013E0022B0AD10E4B1888023B1B7843EA00430C4A107843EA002006E00B4B0F
:401E0000188883B2074A108843EA0040084B1B7913F0FF0F02D00022054B5A71704700BF144E0040124E0040114E0040104E00407C81FF1F064B9B68C01A4FF47A7303FB04
:401E400000F0044B1B6890FBF3F000B2704700BF7C81FF1FF881FF1F10B5084A137843F004031370FFF788FF0020FFF795FFFFF7ABFF0446FFF788FF204610BD014E0040A9
:401E8000704700BF084A137843F0010313701032137843F00103137002F64D32137843F001031370704700BFA3430040014B1870704700BF034F0040014B1878704700BF08
:401EC000034F0040014B1880704700BF044F0040014B1880704700BF064F004008B5154A137803F0010313700232137803F0FC031370114B1A7802F0CF021A701A7842F020
:401F000030021A701A7802F0F0021A701A7842F00F021A70094A137843F0010313705E20FFF7D0FF5E20FFF7D3FF0820FFF7BEFF08BD00BF004F00400B4F0040014F00404D
:401F400008B5054B1B7823B9FFF7C8FF0122024B1A70FFF797FF08BD8881FF1F024B1B68C3F88400704700BF08ED00E04001C0B2014B1870704700BF11E400E04FF4003215
:401F8000014B1A60704700BF00E100E04FF40032014B1A60704700BF80E100E010B50446FFF7F4FF2046FFF7D9FF0520FFF7DEFFFFF7E4FF10BD00BF024A137843F080031C
:401FC000137070477A640040014B1880704700BF14680040014B1880704700BF94680040014B1880704700BF54680040014B1870704700BF8A640040014B1878704700BFBD
:402000006A640040014B188880B27047B468004008B501E0FFF7F6FFFFF7EEFF10F0100FF8D108BD10B5154A137803F0C00343F00B031370124C237843F001032370213209
:40204000137843F00103137040F2E730FFF7BCFF40F2E730FFF7BEFF0020FFF7C1FF0020FFF7C4FF00F084FC237843F01003237000F082FCFFF7CCFF10BD00BF7A640040B9
:402080009A64004008B5054B1B7823B9FFF7CAFF0122024B1A70FFF78FFF08BD8981FF1F014B1B685865704708ED00E04001C0B2014B1870704700BF05E400E02022014BD0
:4020C0001A60704700E100E02022014B1A60704780E100E010B50446FFF7F6FF2046FFF7DFFF0620FFF7E2FFFFF7E8FF10BD00BF0822014B1A60704700E100E00422014B7A
:402100001A60704700E100E008B500F031FC0C4A137843F0200313700132137843F0100313700132137843F01003137000F024FC00F0BAFBFFF7DCFFFFF7E0FF08BD00BF2C
:40214000956400400822014B1A60704780E100E00422014B1A60704780E100E010B5FFF7F1FF064B1C78064A137803F009031C4300231370FFF7BCFF204610BD66640040FD
:402180000B82FF1F10B5FFF7E3FF064B1B78064A147804F040041C4300231370FFF7AEFF204610BD676400400482FF1F10B504462B4B1A7802F0FF0312B1013BDBB200E0DE
:4021C0000723284A1278D2B29342F1D0FFF7BAFF254B1978254A137803F009030B4313701F4B1A78D2B21F4B1B78DBB29A4207D11E4B1B7813F0040F02D01D4B1C702CE083
:40220000184A13780133DBB213701378DBB2072B02D90022134B1A70124B1A78D2B2104B1B78DBB29A420ED10D4A13780133DBB213701378DBB2072B02D90022084B1A704B
:4022400001220C4B1A70074B1B78DBB20A4AD4540A4A137843F004031370FFF749FF10BD0882FF1F0982FF1F666400400B82FF1F456400400782FF1F0C82FF1F8664004059
:4022800010B5FFF765FF134B1A78D2B2124B1B78DBB29A4214D0114B1B7813F0FF0F0CD10C4A13780133DBB213701378DBB2072B06D90022074B1A7002E00022074B1A7045
:4022C000044B1B78DBB2064AD45CE4B2FFF716FF204610BD0A82FF1F0582FF1F0682FF1FFC81FF1F08B501E0094B1B78094B1B7813F0200FF8D1FFF72BFF0023064A13700E
:40230000064A1370064A1370FFF7F8FE08BD00BF55640040676400400682FF1F0A82FF1F0582FF1F08B500F023FB0E4B1A7842F001021A701A7802F0FE021A7000F01CFB04
:40234000FFF700FF0023084A1370084A1370084A1370084A137803F0FB031370FFF7C8FE08BD00BF956400400782FF1F0882FF1F0982FF1F8664004070B506460C460025F2
:4023800006E0705DFFF712FF0135EDB2013CE4B2002CF6D170BD00BF08B501E00A4B1B780A4B1B7813F0200FF8D100F0E1FA084B1A7842F001021A701A7802F0FE021A70F6
:4023C00000F0DAFA08BD00BF55640040676400409564004010B50F22174B1A70174C082323600621032000F0A3FA1549032000F08BFA042323600621022000F099FA1149C8
:40240000022000F081FAFFF7C7FF00240E4B1C700E4B1C700E4B1C700E4B1C700E4B1C700E4B1C70FFF79AFEFFF7ACFE0C4B1C70202201331A7010BD8564004080E100E089
:4024400081240000212500000682FF1F0A82FF1F0582FF1F0782FF1F0882FF1F0982FF1F8664004008B5054B1B7823B9FFF7B2FF0122024B1A70FFF747FE08BD8A81FF1F14
:4024800028E01F4B19781F4A137803F009030B431370137813F0040F24D01B4B1B7813F0FF0F0CD1194A13780133DBB213701378DBB2072B06D90022144B1A7002E000226F
:4024C000114B1A70114B1B78DBB2114AD35CDBB2104A13700D4B1A78D2B20F4B1B78DBB29A42CED1094B1A78D2B20B4B1B78DBB29A4204D1094A137803F0FB031370704789
:40250000666400400B82FF1F0782FF1F0882FF1F0C82FF1F456400400982FF1F86640040204B1A7820490B7803F0400313430B7032E01E4B1A78D2B21D490B780133DBB204
:402540000B700B78DBB2072B02D90021184B1970174B1978C9B2174B1B78DBB299420ED114490B780133DBB20B700B78DBB2072B02D900210F4B197001210F4B19700C4B73
:402580001B78DBB20D49CA54064B1A7806490B7803F0400313430B70034B1B7813F0200FC7D17047676400400482FF1F556400400582FF1F0A82FF1F0682FF1FFC81FF1F31
:4025C000044A137803F0FE0300F0010018431070704700BF30510040014B1B681865704708ED00E04001C0B2014B1870704700BF04E400E01022014B1A60704700E100E0FE
:402600001022014B1A60704780E100E010B50446FFF7F6FF2046FFF7DFFF0620FFF7E2FFFFF7E8FF10BD00BF054A137843F0080313701032137843F008031370704700BF71
:40264000A2430040054A137843F0020313701032137843F002031370704700BFA243004010B5002404E02046FEF748FD0134E4B2012CF8D9FF22014B1A7010BDCD80FF1F18
:4026800010B50446FFF7ECFF2046FEF729FD014B1C7010BDCD80FF1F014B188880B2704780400040034B1A7800F0F80010431870704700BF82400040024B187800F00700D5
:4026C000704700BF8240004070B505460E46FFF7F3FF0446FFF7E0FFA84256D02B4B1B7803F0010294B900B185B938B9284B1D80284A137803F0BF03137070BD254A1378EF
:4027000043F040031370224B1D8070BD22B3002321490B7001240F310C7004310B700C390B7803F07F030B701A4B1B7813F0080F00D08DB9194B18800721013B1970164BD1
:402740001B7813F0010FFAD110490B7803F0FE030B700021104B19700C4B1B7813F0010F0DD00E4B1D800EB1032200E001220A4B1A70094B1B7813F0010FFAD170BD044BC1
:402780001D8002490B7813430B7070BDA243004080400040824000400140004002400040014B188880B2704700410040034B1A7800F0F80010431870704700BF0241004094
:4027C000024B187800F00700704700BF0241004070B505460E46FFF7F3FF0446FFF7E0FFA84256D02B4B1B7803F0010294B900B185B938B9284B1D80284A137803F0BF0343
:40280000137070BD254A137843F040031370224B1D8070BD22B3002321490B70012413310C7004390B7008390B7803F07F030B701A4B1B7813F0080F00D08DB9194B18806C
:402840000721013B1970164B1B7813F0010FFAD110490B7803F0FE030B700021104B19700C4B1B7813F0010F0DD00E4B1D800EB1032200E001220A4B1A70094B1B7813F0C9
:40288000010FFAD170BD044B1D8002490B7813430B7070BDA143004000410040024100400140004002400040054A137843F0040313701032137843F004031370704700BF96
:4028C000A243004001BE704710B5044605E0084B186800F045F8A4F50044B4F5004FF6D8034B586800FB04F000F03AF810BD00BFD080FF1F08B5034B1B7A00FB03F000F00F
:402900002FF808BDD080FF1F70B504460E46074B1D681F2802D90020FFF7D4FF04F01F04103455F8240045F8246070BD08ED00E038B504460D46072902D90020FFF7C2FF9D
:402940001F2C02D90020FFF7BDFF04F01F0000F1604000F564406D01EDB2057038BD00BF0230800803D000BF01380046FCD17047EFF3108072B6704780F31088704700BFCB
:4029800081F0004102E000BF83F0004330B54FEA41044FEA430594EA050F08BF90EA020F1FBF54EA000C55EA020C7FEA645C7FEA655C00F0E2804FEA5454D4EB5555B8BF6B
:4029C0006D420CDD2C4480EA020281EA030382EA000083EA010180EA020281EA0303362D88BF30BD11F0004F4FEA01314FF4801C4CEA113102D0404261EB410113F0004F59
:402A00004FEA03334CEA133302D0524263EB430394EA050F00F0A780A4F10104D5F1200E0DDB02FA0EFC22FA05F2801841F1000103FA0EF2801843FA05F359410EE0A5F1C6
:402A400020050EF1200E012A03FA0EFC28BF4CF0020C43FA05F3C01851EBE37101F0004507D54FF0000EDCF1000C7EEB00006EEB0101B1F5801F1BD3B1F5001F0CD34908E0
:402A80005FEA30004FEA3C0C04F101044FEA445212F5800F80F09A80BCF1004F08BF5FEA500C50F1000041EB045141EA050130BD5FEA4C0C404141EB010111F4801FA4F162
:402AC0000104E9D191F0000F04BF01460020B1FA81F308BF2033A3F10B03B3F120020CDA0C3208DD02F1140CC2F10C0201FA0CF021FA02F10CE002F11402D8BFC2F1200C6F
:402B000001FA02F120FA0CFCDCBF41EA0C019040E41AA2BF01EB0451294330BD6FEA04041F3C1CDA0C340EDC04F11404C4F1200220FA04F001FA02F340EA030021FA04F3EC
:402B400045EA030130BDC4F10C04C4F1200220FA02F001FA04F340EA0300294630BD21FA04F0294630BD94F0000F83F4801306BF81F480110134013D4EE77FEA645C18BF97
:402B80007FEA655C29D094EA050F08BF90EA020F05D054EA000C04BF1946104630BD91EA030F1EBF0021002030BD5FEA545C05D14000494128BF41F0004130BD14F5800486
:402BC0003CBF01F5801130BD01F0004545F0FE4141F470014FF0000030BD7FEA645C1ABF194610467FEA655C1CBF0B46024650EA013406BF52EA033591EA030F41F400210A
:402C000030BD00BF90F0000F04BF0021704730B54FF4806404F132044FF000054FF0000150E700BF90F0000F04BF0021704730B54FF4806404F1320410F0004548BF4042DE
:402C40004FF000013EE700BF42004FEAE2014FEA31014FEA02701FBF12F07F4393F07F4F81F06051704792F0000F14BF93F07F4F704730B54FF4607401F0004521F0004100
:402C800020E700BF50EA010208BF704730B54FF000050AE050EA010208BF704730B511F0004502D5404261EB41014FF4806404F132045FEA915C3FF4DCAE4FF003025FEAE1
:402CC000DC0C18BF03325FEADC0C18BF033202EBDC02C2F1200300FA03FC20FA02F001FA03FE40EA0E0021FA02F11444C1E600BF70B54FF0FF0C4CF4E06C1CEA11541DBFBB
:402D00001CEA135594EA0C0F95EA0C0F00F0DEF82C4481EA030621EA4C5123EA4C5350EA013518BF52EA033541F4801143F4801338D0A0FB02CE4FF00005E1FB02E506F039
:402D40000042E0FB03E54FF00006E1FB03569CF0000F18BF4EF0010EA4F1FF04B6F5007F64F5407404D25FEA4E0E6D4146EB060642EAC62141EA55514FEAC52040EA5E5006
:402D80004FEACE2EB4F1FD0C88BFBCF5E06F1ED8BEF1004F08BF5FEA500E50F1000041EB045170BD06F0004646EA010140EA020081EA0301B4EB5C04C2BFD4EB0C0541EA14
:402DC000045170BD41F480114FF0000E013C00F3AB8014F1360FDEBF002001F0004170BDC4F10004203C35DA0C341BDC04F11404C4F1200500FA05F320FA04F001FA05F249
:402E000040EA020001F0004221F0004110EBD37021FA04F642EB06015EEA430E08BF20EAD37070BDC4F10C04C4F1200500FA04F320FA05F001FA04F240EA020001F0004192
:402E400010EBD37041F100015EEA430E08BF20EAD37070BDC4F1200500FA05F24EEA020E20FA04F301FA05F243EA020321FA04F001F0004121FA04F220EA020000EBD37033
:402E80005EEA430E08BF20EAD37070BD94F0000F0FD101F00046400041EB010111F4801F08BF013CF7D041EA060195F0000F18BF704703F00046520043EB030313F4801FF8
:402EC00008BF013DF7D043EA0603704794EA0C0F0CEA135518BF95EA0C0F0CD050EA410618BF52EA4306D1D181EA030101F000414FF0000070BD50EA410606BF104619464E
:402F000052EA430619D094EA0C0F02D150EA013613D195EA0C0F05D152EA03361CBF104619460AD181EA030101F0004141F0FE4141F470014FF0000070BD41F0FE4141F44A
:402F4000780170BD70B54FF0FF0C4CF4E06C1CEA11541DBF1CEA135594EA0C0F95EA0C0F00F0A7F8A4EB050481EA030E52EA03354FEA013100F088804FEA03334FF08055CB
:402F800045EA131343EA12634FEA022245EA111545EA10654FEA00260EF000419D4208BF964244F1FD0404F5407402D25B084FEA3202B61A65EB03055B084FEA32024FF4E6
:402FC00080104FF4002CB6EB020E75EB030E22BFB61A754640EA0C005B084FEA3202B6EB020E75EB030E22BFB61A754640EA5C005B084FEA3202B6EB020E75EB030E22BF57
:40300000B61A754640EA9C005B084FEA3202B6EB020E75EB030E22BFB61A754640EADC0055EA060E18D04FEA051545EA16754FEA06164FEAC30343EA52734FEAC2025FEA07
:403040001C1CC0D111F4801F0BD141EA00014FF000004FF0004CB6E711F4801F04BF01430020B4F1FD0C88BFBCF5E06F3FF6AFAEB5EB030C04BFB6EB020C5FEA500C50F11B
:40308000000041EB045170BD0EF0004E4EEA113114EB5C04C2BFD4EB0C0541EA045170BD41F480114FF0000E013C90E645EA060E8DE60CEA135594EA0C0F08BF95EA0C0F6B
:4030C0003FF43BAF94EA0C0F0AD150EA01347FF434AF95EA0C0F7FF425AF104619462CE795EA0C0F06D152EA03353FF4FDAE1046194622E750EA410618BF52EA43067FF400
:40310000C5AE50EA41047FF40DAF52EA43057FF4EBAE12E74FEA4102B2F1E04324BFB3F5001CDCF1FE5C0DD901F0004C4FEAC0024CEA5070B2F1004F40EB830008BF20F04A
:403140000100704711F0804F21D113F13872BCBF01F00040704741F480114FEA5252C2F11802C2F1200C10FA0CF320FA02F018BF40F001004FEAC1234FEAD32303FA0CFC07
:4031800040EA0C0023FA02F34FEA4303CCE77FEA625307D150EA01331EBF4FF0FE4040F44000704701F0004040F0FE4040F40000704700BF80F0004002E000BF81F0004160
:4031C00042001FBF5FEA410392EA030F7FEA226C7FEA236C6AD04FEA1262D2EB1363C1BFD218414048404140B8BF5B42192B88BF704710F0004F40F4000020F07F4018BF18
:40320000404211F0004F41F4000121F07F4118BF494292EA030F3FD0A2F1010241FA03FC10EB0C00C3F1200301FA03F100F0004302D5494260EB4000B0F5000F13D3B0F1BE
:40324000807F06D340084FEA310102F10102FE2A51D2B1F1004F40EBC25008BF20F0010040EA03007047490040EB000010F4000FA2F10102EDD1B0FA80FCACF1080CB2EB49
:403280000C0200FA0CF0AABF00EBC25052421843BCBFD0401843704792F0000F81F4000106BF80F400000132013BB5E74FEA41037FEA226C18BF7FEA236C21D092EA030F0B
:4032C00004D092F0000F08BF0846704790EA010F1CBF0020704712F07F4F04D1400028BF40F00040704712F100723CBF00F50000704700F0004343F0FE4040F400007047C3
:403300007FEA226216BF08467FEA23630146420206BF5FEA412390EA010F40F4800070474FF0000304E000BF10F0004348BF40425FEA000C08BF704743F0964301464FF086
:4033400000001CE050EA010208BF70474FF000030AE000BF50EA010208BF704711F0004302D5404261EB41015FEA010C02BF84460146002043F0B64308BFA3F18053A3F58B
:403380000003BCFA8CF2083AA3EBC25310DB01FA02FC634400FA02FCC2F12002BCF1004F20FA02F243EB020008BF20F00100704702F1200201FA02FCC2F1200250EA4C0067
:4033C00021FA02F243EB020008BF20EADC7070474FF0FF0C1CEAD0521EBF1CEAD15392EA0C0F93EA0C0F6FD01A4480EA010C400218BF5FEA41211ED04FF0006343EA50101D
:4034000043EA5111A0FB01310CF00040B1F5000F3EBF490041EAD3715B0040EA010062F17F02FD2A1DD8B3F1004F40EBC25008BF20F00100704790F0000F0CF0004C08BFB7
:4034400049024CEA502040EA51207F3AC2BFD2F1FF0340EAC250704740F400004FF00003013A5DDC12F1190FDCBF00F000407047C2F10002410021FA02F1C2F1200200FA64
:4034800002FC5FEA310040F1000053EA4C0308BF20EADC70704792F0000F00F0004C02BF400010F4000F013AF9D040EA0C0093F0000F01F0004C02BF490011F4000F013BBF
:4034C000F9D041EA0C018FE70CEAD15392EA0C0F18BF93EA0C0F0AD030F0004C18BF31F0004CD8D180EA010000F00040704790F0000F17BF90F0004F084691F0000F91F01D
:40350000004F14D092EA0C0F01D142020FD193EA0C0F03D14B0218BF084608D180EA010000F0004040F0FE4040F40000704740F0FE4040F4400070474FF0FF0C1CEAD05215
:403540001EBF1CEAD15392EA0C0F93EA0C0F69D0A2EB030280EA010C49024FEA402037D04FF0805343EA111143EA10130CF000408B4238BF5B0042F17D024FF4000C8B420E
:4035800024BF5B1A40EA0C00B3EB510F24BFA3EB510340EA5C00B3EB910F24BFA3EB910340EA9C00B3EBD10F24BFA3EBD10340EADC001B0118BF5FEA1C1CE0D1FD2A3FF6E1
:4035C00050AF8B4240EBC25008BF20F0010070470CF0004C4CEA50207F32C2BFD2F1FF0340EAC250704740F400004FF00003013A37E792F0000F00F0004C02BF400010F4BA
:40360000000F013AF9D040EA0C0093F0000F01F0004C02BF490011F4000F013BF9D041EA0C0195E70CEAD15392EA0C0F08D142027FF47DAF93EA0C0F7FF470AF084676E759
:4036400093EA0C0F04D14B023FF44CAF08466EE730F0004C18BF31F0004CCAD130F000427FF45CAF31F000437FF43CAF5FE700BF4FEA4002B2F1FE4F0FD34FF09E03B3EB02
:4036800012620DD94FEA002343F0004310F0004F23FA02F018BF404270474FF00000704712F1610F01D1420205D110F0004008BF6FF0004070474FF000007047014B1868FC
:4036C000704700BF4081FF1F0E4B70B51E460E4C0025E41AA410A54204D056F8253098470135F8E700F0E2FA084B094C1E46E41AA4100025A54204D056F8253098470135EE
:40370000F8E770BDB83C0000B83C0000B83C0000C03C000010B5431E0A44914204D011F8014B03F8014FF8E710BD03460244934202D003F8011BFAE7704700000000000059
:403740002A2A2A2A2A2A2A2A2A2020202048454C503A20504F535349424C452053455454494E4753202020202A2A2A2A2A2A2A2A2A0D0D00662E2046756C6C205363616CDC
:40378000650D0A702E2053616D706C696E6720467265710D0A742E205365742054656D706572617475726520556E69740D0A762E205072696E742044617461206F6E204292
:4037C00043500D0A622E20537461727420526567697374726174696F6E0D0A732E2053746F7020526567697374726174696F6E0D0A0D00002A2A2A2A2A2A2A2A2A2A2A2A91
:403800002A2A2A2A2A2A2A2A2A2A2A2A2A2A2A2A2A2A2A2A2A2A2A2A2A2A2A2A2A2A2A2A2A2A2A0D0A0000002A2A2A2A2A2A2A2A2A2020202043484F4F53452041434345CC
:403840004C45524F4D455445522046554C4C205343414C45202020202A2A2A2A2A2A2A2A2A0D0D312E202B2D32670D0A322E202B2D34670D0A332E202B2D38670D0A342EA8
:40388000202B2D3136670D0A352E20476F206261636B0D0A0D000000594F552043484F4F5345202B2D32670D0D000000594F552043484F4F5345202B2D34670D0D00000089
:4038C000594F552043484F4F5345202B2D38670D0D000000594F552043484F4F5345202B2D3136670D0D0000455849542E2E2E2E0D0D0000494E56414C494420494E50550C
:40390000542C20455849542E2E2E2E0D0D0D0D0D0D0000002A2A2A2A2A2A2A2A2A2020202043484F4F534520414343454C45524F4D455445522053414D504C494E47204630
:4039400052455155454E4359202020202A2A2A2A2A2A2A2A2A0D0D312E203120487A0D0A322E20313020487A0D0A332E20323520487A0D0A342E20353020487A0D0A352E20
:4039800020476F206261636B0D0000002A2A2A2A2A2A2A2A2A2A2A2A2A2A2A2A2A2A2A2A2A2A2A2A2A2A2A2A2A2A2A2A2A2A2A2A2A2A2A2A2A2A2A2A2A2A2A2A2A2A2A2AEB
:4039C0002A2A2A2A2A2A2A2A2A2A2A2A2A0D0A00594F552043484F4F5345203120487A0D0D000000594F552043484F4F534520313020487A0D0D0000594F552043484F4FC2
:403A0000534520323520487A0D0D0000594F552043484F4F534520353020487A0D0D00002A2A2A2A2A2A2A2A2A2020202043484F4F53452054454D504552415455524520C3
:403A4000554E4954202020202A2A2A2A2A2A2A2A2A0D0D312E2043656C736975730D0A322E2046616872656E686569740D0A332E20476F204261636B0D000000594F5520FD
:403A800043484F4F53452043454C5349555320554E49540D0D000000594F552043484F4F53452046414852454E4845495420554E49540D0D000000002A2A2A2A2A2A2A2AED
:403AC0002A20202020524547495354524154494F4E20414C52454144592053544152544544202020202A2A2A2A2A2A2A2A2A0D002A2A2A2A2A2A2A2A2A2020202052454749
:403B0000495354524154494F4E2053544152544544202020202A2A2A2A2A2A2A2A2A0D002A2A2A2A2A2A2A2A2A20202020524547495354524154494F4E20414C524541442C
:403B4000592053544F50504544202020202A2A2A2A2A2A2A2A2A0D002A2A2A2A2A2A2A2A2A20202020524547495354524154494F4E2053544F50504544202020202A2A2AD4
:403B80002A2A2A2A2A2A0D002A2A2A2A2A2A2A2A2A2020202056495355414C495A4154494F4E2053544152544544202020202A2A2A2A2A2A2A2A2A0D000000002A2A2A2A2A
:403BC0002A2A2A2A2A2020202056495355414C495A4154494F4E20414C52454144592053544152544544202020202A2A2A2A2A2A2A2A2A0D000000002A2A2A2A2A2A2A2AD1
:403C00002A2020202056495355414C495A4154494F4E2053544F50504544202020202A2A2A2A2A2A2A2A2A0D00000000494E56414C494420494E5055542E2E2E2E0D0D0D0C
:403C40000D0D0D00035B00402443004040000000004F00400C00405100403000F05100401000000001408004000501400007800C0140800300140140000800400140000A21
:403C8000004C0140000200500140200060520040A8080048060080040140B00800488000000C01403009004880004300F8B500BFF8BC08BC9E4670474D000000B11200006F
:403CC000F8B500BFF8BC08BC9E46704729000000E03C0000C880FF1F80000000D00000000000000001FF00000000E02EC05D00001800000000366E01000000000000000062
:403D0000000000000000000000000000000000000000000000000000AA3C00000000000000000000000000000000000000000000000000000000000000000000000000009D
:403D4000000000000000000000000000000000000000000000000000E080FF1F000000000000000000000000000000000000000000000000000000000000000000000000C5
:403D80000000000000000000000000000000000000000000000000000000000000000000000000000000000000000000000000000000000000000000000000000000000003
:403DC00000000000000000000000000000000000000000000000000000000000000000000000000000000000000000000000000000000000000000000000000000000000C3
:403E00000000000000000000000000000000000000000000000000000000000000000000000000000000000000000000000000000000000000000000000000000000000082
:403E40000000000000000000000000000000000000000000000000000000000000000000000000000000000000000000000000000000000000000000000000000000000042
:020000040003F7
:0200000480007A
:40000000024F0040035200400464004002650040020301400F0401403C050140430601404607014059080140440901405D0A01404A0B01400C0C0140340D01400115014077
:40004000041601400E17014054180140481901404D1A0140461B0140074001400F4101400B4201400D4301400444014008450140084601400447014007480140034901409F
:40008000064C0140074D0140065001400251014001400A1B004001601102850F880F8A0D8C0F8A388B72E20CEE020A050E08140A160418031A0C240326042C032E04340F46
:4000C0003A2058045C035F010020011002010402050407060A280C800D080E08102115051602180819101A081D441E081F1827222D802E022F083208330837263D013E64B7
:400100004528462047024D204E094F0654025602572467206C016D056E446F5474807580802081118601C0F3C2E6C4B5CAB0CCE0CEF0D0E0D230D840E209E404E602EE2099
:40014000000202D0050D08030A2C0B300CD20D020F0D100211E213181421150D161419D11B221D0D1E802003210D223824D02602274028D229A22B442CD22D0D3020310F4A
:40018000321F344035703680378038083B023E513F4054095604580459045B045C225D205F01830C850187068B039101930E9708990C9B03B50FBB20D440D604D904DB0425
:4001C000DC30DD20DF01040205A006800C020D080F02160217561D281E421F04200822102440251026802E822F2430013210330835A03706380839103A013C403D203E0429
:400200005C205D015E405F0460106101630A6782854087408C108E01900A9110920493049620982099A09B569C019D019E01A002A325A528A820AA02AC10AD40C0D0C2B0D4
:40024000C4F0CAF0CCF7CE77D6F0D89FE408E804EA0800100104026004020501060D0702087209060A080B010CCD128014121504166418011A321CCD204D2280248D264023
:4002800028CD2D083070320F3307348035083A0A3B083E103F1040544102460E47BC483449FF4AFF4BFF4EF04F44500C5401580459045A045B045C115D335F0166C06A403A
:4002C0006B02840985088610870388208A038C108D088E0C8F05950697099B069C1C9E02A410A702A80CAA11AC14AD10AF01B21FB307B518B620B920BB08BE40D804D90415
:40030000DC33DF010014014004A005050A020C810E040F9010321320171518111D051F10200421042210232024202608270828102B022E8032103308360839483D203E0617
:40034000450147204D40540256845C205E405F096420660490809140924493109A129B159D019E0C9F20A080A150A340A608A70AAF02B020B202C0F7C2F1C477CA1ACC46C3
:40038000CEEAD0A0D210D6F0E408E804000206010A030D0119011C021D012E0430023201340437013E044020410649FF4AFF4BFF4DA04F04501852805405580459045A0466
:4003C0005B045C555D555F01604062C06440654066C068C06AC06CC06EC08002840185048708890C8A018E019504970899039C02A103A601A902AC01AF01B001B108B4024B
:40040000B504B703B980BE01BF51C060C103C5D0C712C836C9FFCAFFCBFFCDAFCE0FCF04D018D409D604D804D904DA04DB04DC05DD15DF01E040E2C0E440E540E6C0E8C049
:40044000EAC0ECC0EEC0000A0120024005800644072009800D80100215401620180419241B011D101E4022402440254026202D802E202F8A3190360837203A403D283E04C6
:400480003F104004450848044D225405558859065A805C615D08640267807002814082048380874088028A208B01908199089A129B159D019E08A080A114A340A608A940DF
:4004C000B140C0FEC281C4A1CAB0CC6CCE68D044D224D6FBD890E602EE24880E98059A0AA403A604A804AA09B20FB808D804DC01DF01001005010605076009100D200E42C1
:400500000F2011081208171518101C011D801E402574262027202D802E21362837413D803E16458446A04D484E084F205616574066086C406E176F15748075807601824093
:400540008D108E80C0F2C2F2C476CAB0CCF0CEF0D0D0D230D840E208EE02E602B880BE40D804DF01194083089D40A708AA80AB01AC01AD21B004B510B601E601EA02EE110B
:400580000001020604060502070D080209050B0A15091601170618061A011C042503270C28072C062E01330F36073A803B084001464049FF4A074BFF4C404D204EF04F0599
:4005C000500854405604580459045A045B045C135D135F01604061A86240632083E3840C85808804893C8BC28C038D448E0C900F930495FF9603980F99C09C029D10A00849
:40060000A1E7A318A403A518A80CA908AA03AC01AD1CAFE1B00FB1C0B31FB738BA02BB08D804D904DC33DF010060012803040509070408020A190B800C800D100E1010802B
:400640001140122013101406184019011F402180220123102504280229292E04308432263608380139683B103D283E08454054205501571264816610672083108C018E10A9
:400680009204932098019A109C809E08A150A208A420A501A702A880AA80AB01AF20B201B308B405C077C2EFC4CFCA4FCC4FCE6FD010D8F0E820EE400122020203D1096715
:4006C0000E02120114011544173119011B0E1E04256726042A012C01300431803360340235073601371838803A083E113F404043410642054401450C460E480549FF4AFF9D
:400700004BFF4C624DA04EF04F41500C54185604580459045A045B045C335D335F016640670269106A306B106D106E106F1289018D019801A001A101A801A901B101B2012A
:40074000BF01D602D710D804D904DB04DC03DD30DF0101800380080409800B800C100D800E0A10201180131015101701180419801B091E102001210C2222278028102C0CE0
:400780002F4831083220380239103C403D803F104041421048284A0153805A025F80600463426D106E086F017490750887408C018D40904092029390954896109C049D0833
:4007C000A180A490A622B104B201C009C24DC457CAA2CC06CE35D00BD20CD611D80D30023240358036083B40CCF0CE1030803620620265018101848096809D80A402A60832
:40080000AF40CC30D8C0E230EE40528055088002858096809D80A402A628B202D460E2306008840886089680A528A628A920AE80D840E210E610E820EE1013027F04C4080A
:40084000DE0100200102594084109708AF02C00AD40147088580894097089D40A902D001E00187049708A580AB082520A520A620AA40B508C820EE808620A620E64009807A
:40088000A008A580B408C202EC08128074088E80A008C408DE04E202002E0A0C0C2A0E02100A1C0A00FF013B888C00004000000020095000E3090C0050542029A1085A01E6
:4008C000000E00110301F40802601D007000000070080004700000000031004220090000000060701F00800F800820C0000000003406200005DEB0CF3BFFFFFF2200F00C6A
:40090000040000000000022804040404222200010000C00040011011C001001140014001000000000000000000000000000000000402000007183802600200188400002041
:4009400001180002561C09630A01107884180000041A80008000040084530004001A00007F000013000F8060020000200000400046031000050EFDCB3DFFFFFF2200F008CD
:40098000040000000000022804040404111100010000C00040011011C0010011400140010000000000000000000000000000000000606000600000008400508C8C008C00C8
:4009C000000000008000408B8B0000000000000010000116120002000000000000010100000010002500180100000000000000000000000000000000000000000000000096
:400A000000000000000000000000000000000000000000000000000000000000000000000000000000000000000000000000000000000000000000000000000000000000B6
:400A40000000000000000000000000000000000000000000000000000000000000000000000000000000000000000000000000000000000000000000000000000000000076
:400A80000000000000000000000000000000000000000000000000000000000000000000000000000000000000000000000000000000000000000000000000000000000036
:400AC00000000000000000000000000000000000000000000000000000000000000000000000000000000000000000000000000000000000000000000000000000000000F6
:0200000490006A
:0400000000004005B7
:0200000490105A
:04000000BC90ACAF55
:0200000490303A
:0200000071A6E7
:0200000490402A
:4000000000000000000000000000000000000000000000000000000000000000000000000000000000000000000000000000000000000000000000000000000000000000C0
:400040000000000000000000000000000000000000000000000000000000000000000000000000000000000000000000000000000000000000000000000000000000000080
:400080000000000000000000000000000000000000000000000000000000000000000000000000000000000000000000000000000000000000000000000000000000000040
:4000C0000000000000000000000000000000000000000000000000000000000000000000000000000000000000000000000000000000000000000000000000000000000000
:0200000490501A
:0C00000000012E16106900012E2F820F47
:00000001FF