:400000000080002011000000311100003111000008B5044B1A6803F53F5302331A6001F0A7F800BFFA46004010B5054C237833B9044B13B10448AFF300800123237010BD53
:400040004881FF1F0000000038360000084B10B51BB108490848AFF300800848036803B910BD074B002BFBD0BDE81040184700BF000000004C81FF1F38360000C880FF1F26
:400080000000000038B501F009F9B04B18703F2809D1AF4801F042F9AE4801F03FF9AE4801F03CF938BD662802D0462840F0C280AA4801F033F9AA4801F030F909E00A20DB
:4000C00002F074FBA74A136801331360B3F57A7F03DA01F0F9F80028F1D0A24B1B68B3F57A7F03DB3522994B1A7003E001F0D6F8964B187000229B4B1A6001F0F1F8934B4A
:400100001B78313B042B00F29180DFE803F0032547698B00232000F0F9FA924B1871802804D080211971232000F004FB8E4D04242C708C4B1979012000F02AFC00F084FC5D
:400140002978204600F024FC00F07EFC874801F0E5F800F043FE38BD232000F0D7FA814B1871902804D090211971232000F0E2FA7D4C082323707B4B1979012000F008FC18
:4001800000F062FC2178042000F002FC00F05CFC774801F0C3F800F021FE38BD232000F0B5FA704B1871A02804D0A0211971232000F0C0FA6C4C102323706A4B19790120AF
:4001C00000F0E6FB00F040FC2178042000F0E0FB00F03AFC674801F0A1F800F0FFFD38BD232000F093FA5F4B1871B02804D0B0211971232000F09EFA5B4C30232370594B44
:400200001979012000F0C4FB00F01EFC2178042000F0BEFB00F018FC574801F07FF800F0DDFD38BD554801F079F838BD544801F075F838BD702802D0502840F0D180514843
:4002400001F06CF8504801F069F809E00A2002F0ADFA444A136801331360B3F57A7F03DA01F032F80028F1D03E4B1B68B3F57A7F03DB3522354B1A7003E001F00FF8334B1C
:4002800018700022374B1A6001F02AF82F4B1B78313B042B00F2A080DFE803F003203C7E9A00202000F032FA2E4B1871172804D017211971202000F03DFA2A4B19790020D9
:4002C00000F066FB00F0C0FB4FF47A7001F06CFD2E4801F023F800F081FD38BD202000F015FA204B1871272804D027211971202000F020FA1B4B1979002000F049FB00F0E8
:40030000A3FB642001F050FD214801F007F800F065FD38BD202000F0F9F9124B1871372804D037211971202000F004FA0D4B1979002000F02DFB00F087FB164800F0EEFFA3
:40034000282001F031FD00F049FD38BDB481FF1F3C36000070360000F036000024370000903800006481FF1FB581FF1F94370000A8370000BC370000D0370000E437000021
:40038000F03700001038000088380000CC380000E0380000F4380000202000F0B7F9864B1871472804D047211971202000F0C2F9814B1979002000F0EBFA00F045FB7F4822
:4003C00000F0ACFF142001F0EFFC00F007FD38BD7B4800F0A3FF38BD7A4800F09FFF38BD742801D0542852D1774800F097FF774800F094FF09E00A2002F0D8F96E4A13683E
:4004000001331360B3F57A7F03DA00F05DFF0028F1D0694B1B68B3F57A7F03DB33226C4B1A7003E000F03AFF694B18700022624B1A6000F055FF664B1B78322B11D0332B61
:400440001DD0312B1FD10021624B1970032000F09FFA00F0F9FA604800F060FF00F0BEFC38BD01215B4B1970032000F091FA00F0EBFA5A4800F052FF00F0B0FC38BD5048F7
:4004800000F04CFF38BD4F4800F048FF38BD622801D042281DD1524B1B68012B06D1514800F03CFF494800F039FF0FE073B901244B4B1C604C4800F031FF444800F02EFF47
:4004C0002146022000F064FA00F0BEFA00F008FF38BD732801D0532822D1414B1B6833B9424800F01BFF394800F018FF15E0012B13D100243A4B1C6040F2E731084600F0EE
:4005000049FC3B4800F00AFF304800F007FF2146022000F03DFA00F097FA00F0E1FE38BD762801D056282CD12D4B1B685BB9314800F0F4FE254800F0F1FE01202E4B1860E5
:4005400001F0B0FF1AE0012B0ED10022244B1A60284800F0E3FE1D4800F0E0FE0120264B186001F09FFF09E0234B1B68012B05D1224800F0D3FE154800F0D0FE00F0B0FEFE
:4005800038BD752801D0552815D11B4B1B68012B0BD10020184B186001F084FF184800F0BDFE0A4800F0BAFE03E013B9154800F0B5FE00F095FE38BD6481FF1F08390000A5
:4005C000E4370000F03700001C39000088380000B481FF1FB081FF1F78390000943900009C81FF1FB4390000EC3900001C3A0000543A0000843A0000A081FF1FB83A000064
:40060000F43A0000283B000010B501F0C7FB01F095FB304B1860002801DA00221A602D4B1B68B3F5803F03DB4FF6FF72294B1A60284B186801F070FB274B1860274B1B787C
:40064000BBB9A0F5FA70A3F1993383FB0023C017C0EBA30002F0C2F9214B1860214B1C68214902F00FFA02F05DFB204B23F8140022E0012B20D1A0F5FA7003F1663383FBEE
:400680000023C017C0EBA30002F0A8F9184902F0F9F9184902F0AAFA4FF0844102F0EAF80F4B18600F4B1C680F4902F0EBF902F039FB0E4B23F814000A4A13680133136049
:4006C000092B05D101220C4B1A700022054B1A6010BD00BFBC81FF1FD481FF1FB081FF1F6C81FF1FB881FF1F0000C842C081FF1F000010410000A040AD81FF1F704700BF99
:400700000122014B1A607047DC81FF1F00B583B060F07F008DF8040002AA002302F8053D0123194601A800F0B3F89DF8030003B05DF804FB00B583B08DF804008DF80510E2
:40074000002302AA02F8053D022101A800F0A0F803B05DF804FB00BF00B583B060F03F0302A800F8043D13460A46012100F090F803B05DF804FB00BF10B50446002001F0CE
:4007800053F8204600F03AFE00F010FE10F0080FFAD000F09DFE0446012001F045F8204610BD00BF10B50446002001F03DF8204600F024FE002000F021FE00F0F7FD10F08B
:4007C000010FFAD000F084FE00F082FE0446012001F02AF8204610BD2DE9F04383B006460C4617469846002001F01EF864B2002511E02146082CA8BF0821C9B206EBC50088
:4008000000F0E2FE00F0D2FD10F0010FFAD0083C64B201356DB2002CEBDC00F0E5FE00F089FE0026009601964FFA88F820E0C146B8F1080FA8BF4FF008095FFA89F1684648
:4008400000F0C2FE00F0B2FD10F0010FFAD0002406E004EBC60500F03BFE78550134E4B24C45F6DBA8F108084FFA88F8013676B2B8F1000FDBDC012000F0D6FF00F0B4FEA0
:4008800000F058FE00F076FE03B0BDE8F08300BF2DE9F04383B006460C4617469846002000F0B6FF64B2002511E02146082CA8BF0821C9B206EBC50001F0D0FC01F0C0FBF9
:4008C00010F0010FFAD0083C64B201356DB2002CEBDC01F0D3FC01F077FC0026009601964FFA88F820E0C146B8F1080FA8BF4FF008095FFA89F1684601F0B0FC01F0A0FB14
:4009000010F0010FFAD0002406E004EBC60501F029FC78550134E4B24C45F6DBA8F108084FFA88F8013676B2B8F1000FDBDC012000F06EFF01F0A2FC01F046FC01F064FC38
:4009400003B0BDE8F08300BF08B50520FFF72AFF08BD00BF08B50620FFF70EFF08BD00BF00B583B003218DF80410030A8DF805308DF8060002AA002302F8053D012301A82F
:40098000FFF72AFF9DF8030003B05DF804FB00BF30B583B004460D46FFF7DCFF02238DF80430230A8DF805308DF806408DF80750002302AA02F8053D04210DEB0100FFF7A9
:4009C0000BFF03B030BD00BF10B582B003248DF80440030A8DF805308DF8060013460A46214601A8FFF7F8FE02B010BD2DE9F04182B000AF054688461446FFF7ABFF0120D5
:400A000001F0EAFEE61C04F10A0323F00703ADEB030D02238DF800302B0A8DF801308DF80250224641460DF1030002F0CDF9002307F1080202F8013DF1B26846FFF7CCFE62
:400A40000837BD46BDE8F08108B5FFF77DFF10F0010FFAD108BD00BF2DE9F047B0B062B600F00EFC01F0DEF901F0E4F800F022FE01F06AFC00F08AF9B14801F039FDB14849
:400A800001F0FEF9052001F091FEAF4800F0F2FEAE4801F091FA0020FFF762FF01462020FFF748FE0120FFF75BFF01462320FFF741FE0320FFF754FF034610B90021A44A69
:400AC0001170012B02D10122A14B1A700220FFF747FF012802D101229E4B1A6010B900229C4B1A600420FFF73BFF9B4B18702220FFF70CFE062803D004212220FFF71AFE37
:400B00002420FFF703FE402803D040212420FFF711FE2E20FFF7FAFD904B1870492804D0492119702E20FFF705FE01F097F88C4800F0F4FB8B4800F0F1FB8B4800F0EEFBEA
:400B40004FF000094D46CA46824B1B68012B40F09580864B1B68012B40F0878040F22223994500F3828040F2F31140F2E73000F011F93C2221A92820FFF7EEFD0027B846D9
:400B80003E46062461E03146631C30AA134413F83C0C820830AB334403F8782C721CE31C0DF1C00E734413F83CEC30AB234413F83C3C0DF1C00C62449B0843EA1E1343EAAB
:400BC000801302F8783CB21C631D634413F83C0CA31C634413F83C3C62441B0943EA901343EA0E1302F8783CF31C221D624412F83C2C6344920942EA800003F8780C5C4B73
:400C00001B78DBB2012B0FD1331D5A4A32F91820634403F8782C731D6344121203F8782C08F101084FFA88F80AEB07000A30062212AB194480B2FFF7D9FEFFF705FF063679
:400C400036B20637BFB2063424B23B2C9BDD00F0A9F80023464A13700AF1360A1FFA8AFA09F10109414A136008E040F22223994504DDE02140F2C11000F08CF83E4B1B68AC
:400C8000012B7FF461AF52E0E8190A30062203AB191980B2FFF798FE631C30AA134413F8B43C224412F8B42C920242EA830242F38912A11C30A8014411F8B41C1B0343EA44
:400CC000011343F38913E01C30AE304410F8B40C890341EA801040F30B109DF810609DF81110090209B23143244EDFF89CE08EFB01CEC917C1EB6E1109B2019100909B00CE
:400D000092001F49304602F073F8304600F006FB1C4800F003FB0635ADB2063400E00024352CB1DD3637BFB208F1360802E04FF000084746362303FB09F39845EFDB03E7B7
:400D4000010700000906000085000000FD060000B081FF1F9C81FF1FB581FF1FA481FF1F3C36000070360000F0360000DC81FF1FAD81FF1FC081FF1FA081FF1FE481FF1F8D
:400D8000403B0000A43800001F85EB5108B501F0EBF808BD10B50C4601F08EF8204601F091F810BD08B52E20FFF7B0FC0A4B187020B1002119702E20FFF7BCFC2E20FFF726
:400DC000A5FC054B1870492804D0492119702E20FFF7B0FC08BD00BFA481FF1F08B50023074A1380074A1380074A1380074B1B68012B02D10022054B1A60FFF7D3FF08BDB2
:400E0000AE81FF1F9881FF1FB281FF1FA081FF1FFEE700BFF0B40022174611E050F82760F3B226F0FF0608E001EB420511F812406D78A5550132013BDBB2002BF4D10137DE
:400E4000232FEBD9F0BC70470B4B1B78DBB203F007010A4A11701B09013213701023A2F23272137002F6C3121370583213704422034B1A70704700BFCF0100496E580040BB
:400E80007658004008B50A46002101F0A8FF08BD08B501F099FF08BD38B50024384B1C80502202331A700B2202331A80182335490B7002310A80344A137033210232118026
:400EC0000232137045F6BF5230490A8002310B7002310A802E4A137004222E492E48FFF7D7FF02222D4B1A7008224FF040231A70032103F500731970294B1B78DBB229490D
:400F00000B70294B1A8041F25122023B1A8019250CE0264B1B7803F0010343EA440404F003044FF4F07001F08FFC013D0DB1032CEFD115B90320FFF76BFF1D4B4FF480721E
:400F40001A8007221A7000221A490A704820023108701A700222033B1A7004220A331A70154A137843F03F031370013A137843F001031370013A137843F08003137038BD59
:400F800080400040864000408A4000409040004096400040E4090048004100400043004008010049A146004022420040254200400440004006400040A2430040012807D8C7
:400FC000044B53F820201844017A13780B431370704700BF603B0000012808D8044B53F820201844017A137823EA010313707047603B000038B572B6394A137843F004034B
:40100000137000240BE0374863001A19510001440A46098AD068FFF735FF0134E4B2092CF1D900240CE02F48A20011194B000344B3F85020D96C986CFFF72AFF0134E4B231
:40104000022CF0D928494FF09040FFF7E3FE0A24264B1C70264A137843F0020313701032137843F002031370224D2B7843F040032B70A2F58632513A137843F01003137068
:4010800008221D491D48FFF703FF22461C491D48FFF7FEFE22461C491C48FFF7F9FE22461B491C48FFF7F4FE08221B491B48FFF7EFFE1B4A137843F008031370194C61237B
:4010C0002370FFF7E9FE812323700122164B1A70FFF7BAFE0E2229461448FFF7D9FE38BDE8460040603B0000900000488358004003500140A0430040B00900480251004089
:40110000B8090048C0510040C409004810510040D009004820510040DC09004832510040224300400048004004000840B043004008B501F01DFE03680C2B00D1FEE7FEE72B
:4011400008B5094B1A681044084BC31A802B02DC054B186005E001F00BFE0C2303604FF0FF32104608BD00BFCC80FF1F8882FF1F08B5104E104D16E029686B68AC680022B2
:4011800004E051F8040B43F8040B0432A242F8D1E868002203E0002143F8041B04328242F9D11035013E002EE6D101F0E7FDFFF753FCFEE701000000203C000008B5104A56
:4011C000104B1A60104A136843F40073136000230AE0032B03D80D4A52F8231000E00C490C4A42F8231001332F2BF2D90A4B1A780A4B1A70074A0A4B1A60FFF7FBFE08BD53
:401200000004FA050CED00E014ED00E000000000311100000080FF1FBC760040C080FF1F08ED00E07222074B1A702022013B1A700622623B1A70472210331A700022B03B62
:401240001A7070478B65004010B501F005FB04460A4A137843F020031370013A137843F010031370A2F58172137843F01003137001F04CF9204601F0F3FA10BD9B65004051
:4012800008B5054B1B7823B9FFF7CCFF0122024B1A70FFF7D9FF08BD7781FF1F084B1B78DBB213F0200F06D0064A1078C0B213F01E0F02D17047002070470020704700BF62
:4012C0006A6500404A650040044B1B7813F0200F01D0012070470020704700BF6A65004008B501F0B9FA064B1A7842F001021A701A7802F0FE021A7001F0B2FA08BD00BF5C
:401300009A650040034B1B7813F0040FFAD1024B18707047686400404864004038B5074B1B782BB938BDFFF7EDFF0134A4B201E005460024285D0028F5D138BD7781FF1F42
:401340000222014B1A60704700E100E00122014B1A60704700E100E008B501F07DFA0C4A137843F020031370013A137843F010031370FD32137843F01003137001F070FA5E
:4013800001F0D2F8FFF7DCFFFFF7E0FF08BD00BF9C6400400222014B1A60704780E100E00122014B1A60704780E100E010B5FFF7F1FF064B1C78064A137803F009031C437C
:4013C00000231370FFF7BCFF204610BD6B6400404882FF1F10B5FFF7E3FF064B1B78064A147804F040041C4300231370FFF7AEFF204610BD686500405982FF1F10B50446E7
:401400002B4B1A7802F0FF0312B1013BDBB200E00723284A1278D2B29342F1D0FFF7BAFF254B1978254A137803F009030B4313701F4B1A78D2B21F4B1B78DBB29A4207D1CC
:401440001E4B1B7813F0040F02D01D4B1C702CE0184A13780133DBB213701378DBB2072B02D90022134B1A70124B1A78D2B2104B1B78DBB29A420ED10D4A13780133DBB2DC
:4014800013701378DBB2072B02D90022084B1A7001220C4B1A70074B1B78DBB20A4AD4540A4A137843F004031370FFF749FF10BD5A82FF1F5882FF1F6B6400404882FF1F03
:4014C0004C6400405482FF1F4C82FF1F8B64004010B5FFF765FF134B1A78D2B2124B1B78DBB29A4214D0114B1B7813F0FF0F0CD10C4A13780133DBB213701378DBB2072BD1
:4015000006D90022074B1A7002E00022074B1A70044B1B78DBB2064AD45CE4B2FFF716FF204610BD5782FF1F5582FF1F5682FF1F5C82FF1F08B501E0094B1B78094B1B78E1
:4015400013F0200FF8D1FFF72BFF0023064A1370064A1370064A1370FFF7F8FE08BD00BF5C640040686500405682FF1F5782FF1F5582FF1F08B501F06FF90E4B1A7842F022
:4015800001021A701A7802F0FE021A7001F068F9FFF700FF0023084A1370084A1370084A1370084A137803F0FB031370FFF7C8FE08BD00BF9C6400405482FF1F5A82FF1FE8
:4015C0005882FF1F8B64004070B506460C46002506E0705DFFF712FF0135EDB2013CE4B2002CF6D170BD00BF08B501E00A4B1B780A4B1B7813F0200FF8D101F02DF9084BC8
:401600001A7842F001021A701A7802F0FE021A7001F026F908BD00BF5C640040686500409C64004010B50F22174B1A70174C022323600621012001F0EDF81549012001F0EF
:40164000D5F8012323600621002001F0E3F81149002001F0CBF8FFF7C7FF00240E4B1C700E4B1C700E4B1C700E4B1C700E4B1C700E4B1C70FFF79AFEFFF7ACFE0C4B1C7066
:401680002022FD331A7010BD8C64004080E100E0D1160000711700005682FF1F5782FF1F5582FF1F5482FF1F5A82FF1F5882FF1F8B64004008B5054B1B7823B9FFF7B2FF67
:4016C0000122024B1A70FFF747FE08BD7981FF1F28E01F4B19781F4A137803F009030B431370137813F0040F24D01B4B1B7813F0FF0F0CD1194A13780133DBB213701378D8
:40170000DBB2072B06D90022144B1A7002E00022114B1A70114B1B78DBB2114AD35CDBB2104A13700D4B1A78D2B20F4B1B78DBB29A42CED1094B1A78D2B20B4B1B78DBB263
:401740009A4204D1094A137803F0FB03137070476B6400404882FF1F5482FF1F5A82FF1F4C82FF1F4C6400405882FF1F8B640040204B1A7820490B7803F0400313430B70D7
:4017800032E01E4B1A78D2B21D490B780133DBB20B700B78DBB2072B02D90021184B1970174B1978C9B2174B1B78DBB299420ED114490B780133DBB20B700B78DBB2072B41
:4017C00002D900210F4B197001210F4B19700C4B1B78DBB20D49CA54064B1A7806490B7803F0400313430B70034B1B7813F0200FC7D17047686500405982FF1F5C640040F6
:401800005582FF1F5782FF1F5682FF1F5C82FF1F044A137803F07F03C001C0B218431070704700BF10510040044A137803F0EF03000100F010001843107070472051004055
:40184000014B1B689865704708ED00E04001C0B2014B1870704700BF06E400E04022014B1A60704700E100E04022014B1A60704780E100E010B50446FFF7F6FF2046FFF733
:40188000DFFF0720FFF7E2FFFFF7E8FF10BD00BF10B59DF80840012C51D1013809282ED8DFE800F0052D2D052D2D0F192D230F2B03D92548007840B222E02448007840B2D0
:4018C0001EE00F2B03D92248007840B218E02148007840B214E00F2B03D91F48007840B20EE01E48007840B20AE00F2B03D91C48007840B204E01B48007840B200E000201D
:4019000001EB401101FB02F1C90B8AB20D2B0BD8C3F10E0289B211418AB2611E124800EB810101338B7005E0631E0F4901EB83030F219970013C0C4B23F8242010BD002005
:4019400000F032FF10BD00BF180100491C010049190100491D0100491A0100491E0100491B0100491F0100497C81FF1FF8B5074600F072FF06460D4D2B7843F003032B70FB
:401980000B4C237843F0030323700A4B1F70032000F022FF2B7803F0FC032B70237803F0FC032370304600F05BFFF8BDF8460040F9460040925800400022324B1A71012812
:4019C0005FD170B53822304B1A70042202331A70062201331A70002401331C7001331C703F2201331A7002331C7001331C7001331C7001250A331D70502203F527631A70F6
:401A00000A2201331A702C2201331A7001331C70442203331A70482201331A7001331D7002331D70112201331A70192201331A70972201331A705220FFF798FF5822134BE7
:401A40001A7001331C70052605331E70022201331A7001331C7001331C70204600F082FD43F233320A4B1A602946304600F09EFD2946252000F01EFE06491D2000F0B6FE2B
:401A800070BD70477C81FF1F004E0040945800406482FF1F651D0000F0B583B0284D01272F70284E00247471102000F06DFD102000F0EEFD06211D2000F0ACFE0422224B2E
:401AC0001A7001331C7007331C70204A137843F0180313701E4B1C7003F2F5231C7001331C700A22A3F209331A7001331C7002331C705B2205331A705E2201331A70043306
:401B00001C701422A3F68C231A70009710234FF4004248F6F0510220FFF7BAFE2B78013B06EB83039A780B4B1A702B78013B36F82320094B1A802878FFF73EFF03B0F0BDBA
:401B4000D080FF1F7C81FF1F96580040075B0040935800400E4E00400C4E004070B500F07BFE06462A4B1B782A4B1A7842F001021A701A7842F010021A7010331A7842F09C
:401B800001021A701A7842F010021A70224D2B7843F002032B70214C237843F0020323701F4A137843F003031370032000F014FE2B7803F0FD032B70237803F0FD03237059
:401BC000184A137843F0060313707A22164B1A70164A137843F0010313701032137843F0010313700F3A137843F0010313701032137843F0010313704FF000530C4A136016
:401C0000A2F5C0721360304600F02AFE70BD00BFD080FF1FAA430040F8460040F9460040915800407758004082580040A143004080E200E008B5084B9B794BB9064BDB79D1
:401C400013F0FF0F01D1FFF727FF0122024B9A71FFF784FF08BD00BF7C81FF1F024A137843F0010313707047004E0040024A137803F0FE0313707047004E0040094B1B7981
:401C800013F0FF0F03D0074B5B79DBB203E0064B1B7803F00103012B01D00028EED01846704700BF7C81FF1F014E0040154B1B7803F00303012B07D8134B1888023B1B8899
:401CC0009BB243EA004013E0022B0AD10E4B1888023B1B7843EA00430C4A107843EA002006E00B4B188883B2074A108843EA0040084B1B7913F0FF0F02D00022054B5A715D
:401D0000704700BF144E0040124E0040114E0040104E00407C81FF1F064B9B68C01A4FF47A7303FB00F0044B1B6890FBF3F000B2704700BF7C81FF1F6482FF1F10B5084AA9
:401D4000137843F004031370FFF788FF0020FFF795FFFFF7ABFF0446FFF788FF204610BD014E0040704700BF084A137843F0010313701032137843F00103137002F64D32C0
:401D8000137843F001031370704700BFA3430040014B1870704700BF034F0040014B1878704700BF034F0040014B1880704700BF044F0040014B1880704700BF064F0040A6
:401DC00008B5154A137803F0010313700232137803F0FC031370114B1A7802F0CF021A701A7842F030021A701A7802F0F0021A701A7842F00F021A70094A137843F001035F
:401E000013705E20FFF7D0FF5E20FFF7D3FF0820FFF7BEFF08BD00BF004F00400B4F0040014F004008B5054B1B7823B9FFF7C8FF0122024B1A70FFF797FF08BD8881FF1FD3
:401E4000024B1B68C3F88400704700BF08ED00E04001C0B2014B1870704700BF11E400E04FF40032014B1A60704700BF00E100E04FF40032014B1A60704700BF80E100E0D2
:401E800010B50446FFF7F4FF2046FFF7D9FF0520FFF7DEFFFFF7E4FF10BD00BF024A137843F08003137070477A640040014B1880704700BF14680040014B1880704700BF44
:401EC00094680040014B1880704700BF54680040014B1870704700BF8A640040014B1878704700BF6A640040014B188880B27047B468004008B501E0FFF7F6FFFFF7EEFFDB
:401F000010F0100FF8D108BD10B5154A137803F0C00343F00B031370124C237843F0010323702132137843F00103137040F2E730FFF7BCFF40F2E730FFF7BEFF0020FFF764
:401F4000C1FF0020FFF7C4FF00F086FC237843F01003237000F084FCFFF7CCFF10BD00BF7A6400409A64004008B5054B1B7823B9FFF7CAFF0122024B1A70FFF78FFF08BD4B
:401F80008981FF1F014B1B685865704708ED00E04001C0B2014B1870704700BF05E400E02022014B1A60704700E100E02022014B1A60704780E100E010B50446FFF7F6FFA1
:401FC0002046FFF7DFFF0620FFF7E2FFFFF7E8FF10BD00BF0822014B1A60704700E100E00422014B1A60704700E100E008B500F033FC0C4A137843F0200313700132137821
:4020000043F0100313700132137843F01003137000F026FC00F0BAFBFFF7DCFFFFF7E0FF08BD00BF956400400822014B1A60704780E100E00422014B1A60704780E100E06A
:4020400010B5FFF7F1FF064B1C78064A137803F009031C4300231370FFF7BCFF204610BD666400407782FF1F10B5FFF7E3FF064B1B78064A147804F040041C430023137052
:40208000FFF7AEFF204610BD676400407082FF1F10B504462B4B1A7802F0FF0312B1013BDBB200E00723284A1278D2B29342F1D0FFF7BAFF254B1978254A137803F00903CF
:4020C0000B4313701F4B1A78D2B21F4B1B78DBB29A4207D11E4B1B7813F0040F02D01D4B1C702CE0184A13780133DBB213701378DBB2072B02D90022134B1A70124B1A781E
:40210000D2B2104B1B78DBB29A420ED10D4A13780133DBB213701378DBB2072B02D90022084B1A7001220C4B1A70074B1B78DBB20A4AD4540A4A137843F004031370FFF717
:4021400049FF10BD7482FF1F7582FF1F666400407782FF1F456400407382FF1F7882FF1F8664004010B5FFF765FF134B1A78D2B2124B1B78DBB29A4214D0114B1B7813F000
:40218000FF0F0CD10C4A13780133DBB213701378DBB2072B06D90022074B1A7002E00022074B1A70044B1B78DBB2064AD45CE4B2FFF716FF204610BD7682FF1F7182FF1F1E
:4021C0007282FF1F6882FF1F08B501E0094B1B78094B1B7813F0200FF8D1FFF72BFF0023064A1370064A1370064A1370FFF7F8FE08BD00BF55640040676400407282FF1F1C
:402200007682FF1F7182FF1F08B500F025FB0E4B1A7842F001021A701A7802F0FE021A7000F01EFBFFF700FF0023084A1370084A1370084A1370084A137803F0FB03137001
:40224000FFF7C8FE08BD00BF956400407382FF1F7482FF1F7582FF1F8664004070B506460C46002506E0705DFFF712FF0135EDB2013CE4B2002CF6D170BD00BF08B501E0B8
:402280000A4B1B780A4B1B7813F0200FF8D100F0E3FA084B1A7842F001021A701A7802F0FE021A7000F0DCFA08BD00BF55640040676400409564004010B50F22174B1A706B
:4022C000174C082323600621032000F0A3FA1549032000F08BFA042323600621022000F099FA1149022000F081FAFFF7C7FF00240E4B1C700E4B1C700E4B1C700E4B1C702F
:402300000E4B1C700E4B1C70FFF79AFEFFF7ACFE0C4B1C70202201331A7010BD8564004080E100E065230000052400007282FF1F7682FF1F7182FF1F7382FF1F7482FF1F7A
:402340007582FF1F8664004008B5054B1B7823B9FFF7B2FF0122024B1A70FFF747FE08BD8A81FF1F28E01F4B19781F4A137803F009030B431370137813F0040F24D01B4B16
:402380001B7813F0FF0F0CD1194A13780133DBB213701378DBB2072B06D90022144B1A7002E00022114B1A70114B1B78DBB2114AD35CDBB2104A13700D4B1A78D2B20F4B14
:4023C0001B78DBB29A42CED1094B1A78D2B20B4B1B78DBB29A4204D1094A137803F0FB0313707047666400407782FF1F7382FF1F7482FF1F7882FF1F456400407582FF1F4A
:4024000086640040204B1A7820490B7803F0400313430B7032E01E4B1A78D2B21D490B780133DBB20B700B78DBB2072B02D90021184B1970174B1978C9B2174B1B78DBB2B2
:4024400099420ED114490B780133DBB20B700B78DBB2072B02D900210F4B197001210F4B19700C4B1B78DBB20D49CA54064B1A7806490B7803F0400313430B70034B1B78D8
:4024800013F0200FC7D17047676400407082FF1F556400407182FF1F7682FF1F7282FF1F6882FF1F044A137803F0FE0300F0010018431070704700BF30510040014B1B68A7
:4024C0001865704708ED00E04001C0B2014B1870704700BF04E400E01022014B1A60704700E100E01022014B1A60704780E100E010B50446FFF7F6FF2046FFF7DFFF062054
:40250000FFF7E2FFFFF7E8FF10BD00BF054A137843F0080313701032137843F008031370704700BFA2430040054A137843F0020313701032137843F002031370704700BF04
:40254000A243004010B5002404E02046FEF744FD0134E4B2012CF8D9FF22014B1A7010BDD180FF1F10B50446FFF7ECFF2046FEF725FD014B1C7010BDD180FF1F014B188864
:4025800080B2704780400040034B1A7800F0F80010431870704700BF82400040024B187800F00700704700BF8240004070B505460E46FFF7F3FF0446FFF7E0FFA84256D0F0
:4025C0002B4B1B7803F0010294B900B185B938B9284B1D80284A137803F0BF03137070BD254A137843F040031370224B1D8070BD22B3002321490B7001240F310C70043120
:402600000B700C390B7803F07F030B701A4B1B7813F0080F00D08DB9194B18800721013B1970164B1B7813F0010FFAD110490B7803F0FE030B700021104B19700C4B1B784A
:4026400013F0010F0DD00E4B1D800EB1032200E001220A4B1A70094B1B7813F0010FFAD170BD044B1D8002490B7813430B7070BDA24300408040004082400040014000405C
:4026800002400040014B188880B2704700410040034B1A7800F0F80010431870704700BF02410040024B187800F00700704700BF0241004070B505460E46FFF7F3FF0446E3
:4026C000FFF7E0FFA84256D02B4B1B7803F0010294B900B185B938B9284B1D80284A137803F0BF03137070BD254A137843F040031370224B1D8070BD22B3002321490B7050
:40270000012413310C7004390B7008390B7803F07F030B701A4B1B7813F0080F00D08DB9194B18800721013B1970164B1B7813F0010FFAD110490B7803F0FE030B700021F9
:40274000104B19700C4B1B7813F0010F0DD00E4B1D800EB1032200E001220A4B1A70094B1B7813F0010FFAD170BD044B1D8002490B7813430B7070BDA14300400041004090
:40278000024100400140004002400040054A137843F0040313701032137843F004031370704700BFA243004001BE704710B5044605E0084B186800F047F8A4F50044B4F5E5
:4027C000004FF6D8034B586800FB04F000F03CF810BD00BFD480FF1F08B5034B1B7A00FB03F000F031F808BDD480FF1F70B504460E46074B1D681F2802D90020FFF7D4FF1A
:4028000004F01F04103455F8240045F8246070BD08ED00E038B504460D46072902D90020FFF7C2FF1F2C02D90020FFF7BDFF04F01F0000F1604000F564406D01EDB20570E6
:4028400038BD00BF000000000230800803D000BF01380046FCD17047EFF3108072B6704780F31088704700BF80F0004002E000BF81F0004142001FBF5FEA410392EA030F45
:402880007FEA226C7FEA236C6AD04FEA1262D2EB1363C1BFD218414048404140B8BF5B42192B88BF704710F0004F40F4000020F07F4018BF404211F0004F41F4000121F083
:4028C0007F4118BF494292EA030F3FD0A2F1010241FA03FC10EB0C00C3F1200301FA03F100F0004302D5494260EB4000B0F5000F13D3B0F1807F06D340084FEA310102F1A3
:402900000102FE2A51D2B1F1004F40EBC25008BF20F0010040EA03007047490040EB000010F4000FA2F10102EDD1B0FA80FCACF1080CB2EB0C0200FA0CF0AABF00EBC250A6
:4029400052421843BCBFD0401843704792F0000F81F4000106BF80F400000132013BB5E74FEA41037FEA226C18BF7FEA236C21D092EA030F04D092F0000F08BF084670478D
:4029800090EA010F1CBF0020704712F07F4F04D1400028BF40F00040704712F100723CBF00F50000704700F0004343F0FE4040F4000070477FEA226216BF08467FEA23633E
:4029C0000146420206BF5FEA412390EA010F40F4800070474FF0000304E000BF10F0004348BF40425FEA000C08BF704743F0964301464FF000001CE050EA010208BF704718
:402A00004FF000030AE000BF50EA010208BF704711F0004302D5404261EB41015FEA010C02BF84460146002043F0B64308BFA3F18053A3F50003BCFA8CF2083AA3EBC2536F
:402A400010DB01FA02FC634400FA02FCC2F12002BCF1004F20FA02F243EB020008BF20F00100704702F1200201FA02FCC2F1200250EA4C0021FA02F243EB020008BF20EABC
:402A8000DC7070474FF0FF0C1CEAD0521EBF1CEAD15392EA0C0F93EA0C0F6FD01A4480EA010C400218BF5FEA41211ED04FF0006343EA501043EA5111A0FB01310CF00040DE
:402AC000B1F5000F3EBF490041EAD3715B0040EA010062F17F02FD2A1DD8B3F1004F40EBC25008BF20F00100704790F0000F0CF0004C08BF49024CEA502040EA51207F3A54
:402B0000C2BFD2F1FF0340EAC250704740F400004FF00003013A5DDC12F1190FDCBF00F000407047C2F10002410021FA02F1C2F1200200FA02FC5FEA310040F1000053EA0C
:402B40004C0308BF20EADC70704792F0000F00F0004C02BF400010F4000F013AF9D040EA0C0093F0000F01F0004C02BF490011F4000F013BF9D041EA0C018FE70CEAD1535D
:402B800092EA0C0F18BF93EA0C0F0AD030F0004C18BF31F0004CD8D180EA010000F00040704790F0000F17BF90F0004F084691F0000F91F0004F14D092EA0C0F01D1420217
:402BC0000FD193EA0C0F03D14B0218BF084608D180EA010000F0004040F0FE4040F40000704740F0FE4040F4400070474FF0FF0C1CEAD0521EBF1CEAD15392EA0C0F93EA24
:402C00000C0F69D0A2EB030280EA010C49024FEA402037D04FF0805343EA111143EA10130CF000408B4238BF5B0042F17D024FF4000C8B4224BF5B1A40EA0C00B3EB510FE6
:402C400024BFA3EB510340EA5C00B3EB910F24BFA3EB910340EA9C00B3EBD10F24BFA3EBD10340EADC001B0118BF5FEA1C1CE0D1FD2A3FF650AF8B4240EBC25008BF20F0D6
:402C8000010070470CF0004C4CEA50207F32C2BFD2F1FF0340EAC250704740F400004FF00003013A37E792F0000F00F0004C02BF400010F4000F013AF9D040EA0C0093F017
:402CC000000F01F0004C02BF490011F4000F013BF9D041EA0C0195E70CEAD15392EA0C0F08D142027FF47DAF93EA0C0F7FF470AF084676E793EA0C0F04D14B023FF44CAF87
:402D000008466EE730F0004C18BF31F0004CCAD130F000427FF45CAF31F000437FF43CAF5FE700BF4FEA4002B2F1FE4F0FD34FF09E03B3EB12620DD94FEA002343F0004307
:402D400010F0004F23FA02F018BF404270474FF00000704712F1610F01D1420205D110F0004008BF6FF0004070474FF000007047014B1868704700BF4481FF1F0E4B70B59A
:402D80001E460E4C0025E41AA410A54204D056F8253098470135F8E700F030FF084B094C1E46E41AA4100025A54204D056F8253098470135F8E770BD083C0000083C000023
:402DC000083C0000103C000010B5431E0A44914204D011F8014B03F8014FF8E710BD03460244934202D003F8011BFAE7704700000EB400B54FF402719CB0ADF814106FF056
:402E00000041049107914FF6FF711DAB02900690084853F8042BADF81610006802A9019300F064F8029B00221A701CB05DF804EB03B070474481FF1F2DE9F0478E68824646
:402E40009E420C46914698463ED88A8912F4906F3AD02568096902236F1A656905EB450595FBF3F57B1C43449D4238BF1D4653050FD5294600F040FB064698B13A4621693A
:402E8000FFF7A2FFA38923F4906343F08003A38113E02A4600F08EFB064670B92169504600F0DEFA0C23CAF80030A3894FF0FF3043F04003A381BDE8F08726613E44266032
:402EC00046466561ED1BA560464528BF464649463246206800F0A8FAA36800209B1BA36023681E442660BDE8F08700002DE9F04F9DB003938B8980461C060D4616460DD51C
:402F00000B695BB9402100F0F7FA2860286118B90C23C8F80030CDE040236B610023099320238DF82930DFF89CB130238DF82A3037463C4614F8013B1BB9B7EB060910D008
:402F400003E0252BF9D02746F3E74B46324629464046FFF771FF013000F0A780099B4B4409933B78002B00F0A08000234FF0FF3204930793059206938DF853301A930126D5
:402F8000052221784E4800F041FA671C049B38B14B4A3C46801A06FA00F018430490EFE7D90644BF20228DF853201A0744BF2B228DF8532022782A2A03D0079A00210A20ED
:402FC0000BE0039A111D12680391002A10DA524243F00200079204900BE027463B780134303B092B03D800FB02320121F5E701B107923B782E2B1ED17B782A2B0AD1039B15
:4030000002371A1D1B680392002BB8BF4FF0FF33059310E0002319460593781C0A2407463A780130303A092A03D804FB01210123F5E703B1059103223978224800F0E6F96F
:4030400040B14023CBEB000003FA00F0049B013718430490397806221B487E1C8DF8281000F0D4F988B1194B33B9039B073323F007030833039314E003AB00932A46144BF0
:4030800004A94046AFF3008007E003AB00932A460F4B04A9404600F093F8B0F1FF3F824603D0099B5344099342E7AB895B0601D4099801E04FF0FF301DB0BDE8F08F00BF97
:4030C000C83B0000CE3B0000D23B000000000000392E00002DE9F04791461F460A698B6806469342B8BF1346C9F8003091F843200C46DDF8208012B10133C9F80030236859
:40310000990642BFD9F800300233C9F80030256815F0060510D104F1190A07E00123524639463046C04701301AD00135E368D9F800209B1A9D42F1DB94F8433022680033EA
:4031400018BF012392060FD5E118302081F843005A1C94F845102244023382F8431003E04FF0FF30BDE8F08704F1430239463046C0470130F4D02268D9F80050E36802F094
:403180000602042A08BF5D1B2269A3680CBF25EAE57500259342C4BF9B1AED184FF000091A344D4509D00123224639463046C0470130D5D009F10109F3E70020BDE8F08720
:4031C0002DE9F04317460A7E85B06E2A984606460C460C9B01F1430E00F0AE8011D8632A22D009D8002A00F0BB80582A40F0CA8081F84520834955E0642A1ED0692A1CD0DC
:40320000C0E0732A00F0B08009D86F2A2ED0702A40F0B8800A6842F020020A603EE0752A24D0782A3AD0ADE01A6801F14205111D1960136884F84230A8E021681A6811F03E
:40324000800F02D0111D196008E011F0400F02F10401196002D0B2F9003000E01368002B3CDA2D225B4284F8432037E021681A6811F0800F02D0111D196007E011F0400F27
:4032800002F10401196001D0138800E01368227E5C496F2A14BF0A2208221BE078225A4984F845202268186812F0800F00F104051D6003D1550601D5038800E00368D007F2
:4032C00044BF42F0200222601BB9226822F0200222601022002084F8430001E049490A226568002DA56008DB206820F0040020602BB9002D7DD175460CE0002B79D07546FE
:40330000B3FBF2F002FB1033CB5C05F8013D03460028F5D1082A0BD12368DA0708D5236962689A42DEBF302305F8013C05F1FF35C5EB0E0323612EE008681A6810F0800F73
:40334000496903D0101D1860136808E010F0400F02F104001860136801D0198000E0196000232361754616E01A68111D1960156800216268284600F049F808B1401B606068
:40338000636804E004F1420584F8422001232361002384F84330CDF800803B4603AA21463046FFF797FE013002D14FF0FF3026E023692A4639463046C0470130F5D02368BE
:4033C0009B0710D5002504F1190907E001234A4639463046C0470130E7D00135E368039A9B1A9D42F2DBE068039B9842B8BF184605E00B7804F1420584F842308AE705B0BF
:40340000BDE8F083D93B0000EA3B000010B5C9B202449042034605D01C7801308C42F8D1184610BD002010BD884210B501EB020301D8421E0BE09842FBD28118D21AD3426C
:4034400004D013F8014D01F8014DF8E710BD994204D011F8014B02F8014FF8E710BD000038B50546002944D051F8043C0C1F002BB8BFE41800F0D4F81E4A1368114613B9A9
:403480006360146030E0A3420DD92268A018834201BF18685B681218226063600C6023E0A24203D813465A68002AF9D118681918A1420BD12168014458188242196013D175
:4034C00010685268014419605A600DE002D90C232B6009E021686018824201BF106852680918216062605C602846BDE8384000F098B838BD9081FF1F70B5CD1C25F00305C6
:4035000008350C2D38BF0C25002D064601DBA94202D90C23336046E000F082F8234B1C681A462146A1B10B685B1B0ED40B2B03D90B60CC18CD501EE08C420BBF63684B6818
:403540001360636018BF0C4615E00C464968E9E7174C23681BB9304600F052F820602946304600F04DF8431C18D0C41C24F00304A0420DD12560304600F053F804F10B00E0
:40358000231D20F00700C31A0ED05A42E25070BD211A304600F034F80130EBD10C233360304600F03EF8002070BD00BF9081FF1F8C81FF1FF8B5074615460E4621B91146A6
:4035C000BDE8F840FFF798BF1AB9FFF749FF2846F8BD00F027F885420ED929463846FFF78BFF044650B131462A46FFF7EDFB31463846FFF735FF01E03046F8BD2046F8BDED
:4036000038B5064C0023054608462360FDF798FD431C02D1236803B12B6038BD8082FF1F7047704751F8040C0028BEBF091851F8043CC01804387047000000002A2A2A2AE9
:403640002A2A2A2A2A2020202048454C503A20504F535349424C452053455454494E4753202020202A2A2A2A2A2A2A2A2A0D0D00662E2046756C6C205363616C650D0A7099
:403680002E2053616D706C696E6720467265710D0A742E205365742054656D706572617475726520556E69740D0A762E205072696E742044617461206F6E204243500D0AD5
:4036C000622E20537461727420526567697374726174696F6E0D0A732E2053746F7020526567697374726174696F6E0D0A0D00002A2A2A2A2A2A2A2A2A2A2A2A2A2A2A2A94
:403700002A2A2A2A2A2A2A2A2A2A2A2A2A2A2A2A2A2A2A2A2A2A2A2A2A2A2A2A2A2A2A0D0A0000002A2A2A2A2A2A2A2A2A2020202043484F4F534520414343454C45524F43
:403740004D455445522046554C4C205343414C45202020202A2A2A2A2A2A2A2A2A0D0D312E202B2D32670D0A322E202B2D34670D0A332E202B2D38670D0A342E202B2D3132
:4037800036670D0A352E20476F206261636B0D0A0D000000594F552043484F4F5345202B2D32670D0D000000594F552043484F4F5345202B2D34670D0D000000594F552016
:4037C00043484F4F5345202B2D38670D0D000000594F552043484F4F5345202B2D3136670D0D0000455849542E2E2E2E0D0D0000494E56414C494420494E5055542C204545
:403800005849542E2E2E2E0D0D0D0D0D0D0000002A2A2A2A2A2A2A2A2A2020202043484F4F534520414343454C45524F4D455445522053414D504C494E47204652455155D9
:40384000454E4359202020202A2A2A2A2A2A2A2A2A0D0D312E203120487A0D0A322E20313020487A0D0A332E20323520487A0D0A342E20353020487A0D0A352E20476F2068
:403880006261636B0D0000002A2A2A2A2A2A2A2A2A2A2A2A2A2A2A2A2A2A2A2A2A2A2A2A2A2A2A2A2A2A2A2A2A2A2A2A2A2A2A2A2A2A2A2A2A2A2A2A2A2A2A2A2A2A2A2A3A
:4038C0002A2A2A2A2A2A2A2A2A0D0A00594F552043484F4F5345203120487A0D0D000000594F552043484F4F534520313020487A0D0D0000594F552043484F4F5345203281
:403900003520487A0D0D0000594F552043484F4F534520353020487A0D0D00002A2A2A2A2A2A2A2A2A2020202043484F4F53452054454D504552415455524520554E49546E
:40394000202020202A2A2A2A2A2A2A2A2A0D0D312E2043656C736975730D0A322E2046616872656E686569740D0A332E20476F204261636B0D000000594F552043484F4F15
:4039800053452043454C5349555320554E49540D0D000000594F552043484F4F53452046414852454E4845495420554E49540D0D000000002A2A2A2A2A2A2A2A2A2020208D
:4039C00020524547495354524154494F4E20414C52454144592053544152544544202020202A2A2A2A2A2A2A2A2A0D002A2A2A2A2A2A2A2A2A202020205245474953545292
:403A00004154494F4E2053544152544544202020202A2A2A2A2A2A2A2A2A0D002A2A2A2A2A2A2A2A2A20202020524547495354524154494F4E20414C52454144592053544F
:403A40004F50504544202020202A2A2A2A2A2A2A2A2A0D002A2A2A2A2A2A2A2A2A20202020524547495354524154494F4E2053544F50504544202020202A2A2A2A2A2A2A4D
:403A80002A2A0D002A2A2A2A2A2A2A2A2A2020202056495355414C495A4154494F4E2053544152544544202020202A2A2A2A2A2A2A2A2A0D000000002A2A2A2A2A2A2A2A2B
:403AC0002A2020202056495355414C495A4154494F4E20414C52454144592053544152544544202020202A2A2A2A2A2A2A2A2A0D000000002A2A2A2A2A2A2A2A2A202020F0
:403B00002056495355414C495A4154494F4E2053544F50504544202020202A2A2A2A2A2A2A2A2A0D00000000494E56414C494420494E5055542E2E2E2E0D0D0D0D0D0D0070
:403B40002A2A20454550524F4D2052656164203D202564202564202564202564200D0A00035B00402443004040000000004F00400C00405100403000F05100401000000083
:403B800001408004000501400007800C0140800300140140000800400140000A004C0140000200500140200060520040A8080048060080040140B00800488000000C0140F9
:403BC0003009004880004300232D302B2000686C4C00656667454647003031323334353637383941424344454600303132333435363738396162636465660000F8B500BF22
:403C0000F8BC08BC9E4670474D000000BD110000F8B500BFF8BC08BC9E46704729000000303C0000C880FF1F8000000040010000000000008882FF1F01FF00000000E02EE5
:403C4000C05D00001800000000366E010000000000000000000000000000000000000000000000000000000000000000C63B00000000000000000000000000000000000069
:403C80000000000000000000000000000000000000000000000000000000000000000000000000000000000000000000E480FF1F0000000000000000000000000000000082
:403CC00000000000000000000000000000000000000000000000000000000000000000000000000000000000000000000000000000000000000000000000000000000000C4
:403D00000000000000000000000000000000000000000000000000000000000000000000000000000000000000000000000000000000000000000000000000000000000083
:403D40000000000000000000000000000000000000000000000000000000000000000000000000000000000000000000000000000000000000000000000000000000000043
:403D80000000000000000000000000000000000000000000000000000000000000000000000000000000000000000000000000000000000000000000000000000000000003
:020000040003F7
:0200000480007A
:40000000024F0040035200400464004002650040020301400F0401403C050140430601404607014059080140440901405D0A01404A0B01400C0C0140340D01400115014077
:40004000041601400E17014054180140481901404D1A0140461B0140074001400F4101400B4201400D4301400444014008450140084601400447014007480140034901409F
:40008000064C0140074D0140065001400251014001400A1B004001601102850F880F8A0D8C0F8A388B72E20CEE020A050E08140A160418031A0C240326042C032E04340F46
:4000C0003A2058045C035F010020011002010402050407060A280C800D080E08102115051602180819101A081D441E081F1827222D802E022F083208330837263D013E64B7
:400100004528462047024D204E094F0654025602572467206C016D056E446F5474807580802081118601C0F3C2E6C4B5CAB0CCE0CEF0D0E0D230D840E209E404E602EE2099
:40014000000202D0050D08030A2C0B300CD20D020F0D100211E213181421150D161419D11B221D0D1E802003210D223824D02602274028D229A22B442CD22D0D3020310F4A
:40018000321F344035703680378038083B023E513F4054095604580459045B045C225D205F01830C850187068B039101930E9708990C9B03B50FBB20D440D604D904DB0425
:4001C000DC30DD20DF01040205A006800C020D080F02160217561D281E421F04200822102440251026802E822F2430013210330835A03706380839103A013C403D203E0429
:400200005C205D015E405F0460106101630A6782854087408C108E01900A9110920493049620982099A09B569C019D019E01A002A325A528A820AA02AC10AD40C0D0C2B0D4
:40024000C4F0CAF0CCF7CE77D6F0D89FE408E804EA0800100104026004020501060D0702087209060A080B010CCD128014121504166418011A321CCD204D2280248D264023
:4002800028CD2D083070320F3307348035083A0A3B083E103F1040544102460E47BC483449FF4AFF4BFF4EF04F44500C5401580459045A045B045C115D335F0166C06A403A
:4002C0006B02840985088610870388208A038C108D088E0C8F05950697099B069C1C9E02A410A702A80CAA11AC14AD10AF01B21FB307B518B620B920BB08BE40D804D90415
:40030000DC33DF010014014004A005050A020C810E040F9010321320171518111D051F10200421042210232024202608270828102B022E8032103308360839483D203E0617
:40034000450147204D40540256845C205E405F096420660490809140924493109A129B159D019E0C9F20A080A150A340A608A70AAF02B020B202C0F7C2F1C477CA1ACC46C3
:40038000CEEAD0A0D210D6F0E408E804000206010A030D0119011C021D012E0430023201340437013E044020410649FF4AFF4BFF4DA04F04501852805405580459045A0466
:4003C0005B045C555D555F01604062C06440654066C068C06AC06CC06EC08002840185048708890C8A018E019504970899039C02A103A601A902AC01AF01B001B108B4024B
:40040000B504B703B980BE01BF51C060C103C5D0C712C836C9FFCAFFCBFFCDAFCE0FCF04D018D409D604D804D904DA04DB04DC05DD15DF01E040E2C0E440E540E6C0E8C049
:40044000EAC0ECC0EEC0000A0120024005800644072009800D80100215401620180419241B011D101E4022402440254026202D802E202F8A3190360837203A403D283E04C6
:400480003F104004450848044D225405558859065A805C615D08640267807002814082048380874088028A208B01908199089A129B159D019E08A080A114A340A608A940DF
:4004C000B140C0FEC281C4A1CAB0CC6CCE68D044D224D6FBD890E602EE24880E98059A0AA403A604A804AA09B20FB808D804DC01DF01001005010605076009100D200E42C1
:400500000F2011081208171518101C011D801E402574262027202D802E21362837413D803E16458446A04D484E084F205616574066086C406E176F15748075807601824093
:400540008D108E80C0F2C2F2C476CAB0CCF0CEF0D0D0D230D840E208EE02E602B880BE40D804DF01194083089D40A708AA80AB01AC01AD21B004B510B601E601EA02EE110B
:400580000001020604060502070D080209050B0A15091601170618061A011C042503270C28072C062E01330F36073A803B084001464049FF4A074BFF4C404D204EF04F0599
:4005C000500854405604580459045A045B045C135D135F01604061A86240632083E3840C85808804893C8BC28C038D448E0C900F930495FF9603980F99C09C029D10A00849
:40060000A1E7A318A403A518A80CA908AA03AC01AD1CAFE1B00FB1C0B31FB738BA02BB08D804D904DC33DF010060012803040509070408020A190B800C800D100E1010802B
:400640001140122013101406184019011F402180220123102504280229292E04308432263608380139683B103D283E08454054205501571264816610672083108C018E10A9
:400680009204932098019A109C809E08A150A208A420A501A702A880AA80AB01AF20B201B308B405C077C2EFC4CFCA4FCC4FCE6FD010D8F0E820EE400122020203D1096715
:4006C0000E02120114011544173119011B0E1E04256726042A012C01300431803360340235073601371838803A083E113F404043410642054401450C460E480549FF4AFF9D
:400700004BFF4C624DA04EF04F41500C54185604580459045A045B045C335D335F016640670269106A306B106D106E106F1289018D019801A001A101A801A901B101B2012A
:40074000BF01D602D710D804D904DB04DC03DD30DF0101800380080409800B800C100D800E0A10201180131015101701180419801B091E102001210C2222278028102C0CE0
:400780002F4831083220380239103C403D803F104041421048284A0153805A025F80600463426D106E086F017490750887408C018D40904092029390954896109C049D0833
:4007C000A180A490A622B104B201C009C24DC457CAA2CC06CE35D00BD20CD611D80D30023240358036083B40CCF0CE1030803620620265018101848096809D80A402A60832
:40080000AF40CC30D8C0E230EE40528055088002858096809D80A402A628B202D460E2306008840886089680A528A628A920AE80D840E210E610E820EE1013027F04C4080A
:40084000DE0100200102594084109708AF02C00AD40147088580894097089D40A902D001E00187049708A580AB082520A520A620AA40B508C820EE808620A620E64009807A
:40088000A008A580B408C202EC08128074088E80A008C408DE04E202002E0A0C0C2A0E02100A1C0A00FF013B888C00004000000020095000E3090C0050542029A1085A01E6
:4008C000000E00110301F40802601D007000000070080004700000000031004220090000000060701F00800F800820C0000000003406200005DEB0CF3BFFFFFF2200F00C6A
:40090000040000000000022804040404222200010000C00040011011C001001140014001000000000000000000000000000000000402000007183802600200188400002041
:4009400001180002561C09630A01107884180000041A80008000040084530004001A00007F000013000F8060020000200000400046031000050EFDCB3DFFFFFF2200F008CD
:40098000040000000000022804040404111100010000C00040011011C0010011400140010000000000000000000000000000000000606000600000008400508C8C008C00C8
:4009C000000000008000408B8B0000000000000010000116120002000000000000010100000010002500180100000000000000000000000000000000000000000000000096
:400A000000000000000000000000000000000000000000000000000000000000000000000000000000000000000000000000000000000000000000000000000000000000B6
:400A40000000000000000000000000000000000000000000000000000000000000000000000000000000000000000000000000000000000000000000000000000000000076
:400A80000000000000000000000000000000000000000000000000000000000000000000000000000000000000000000000000000000000000000000000000000000000036
:400AC00000000000000000000000000000000000000000000000000000000000000000000000000000000000000000000000000000000000000000000000000000000000F6
:0200000490006A
:0400000000004005B7
:0200000490105A
:04000000BC90ACAF55
:0200000490303A
:02000000A865F1
:0200000490402A
:4000000000000000000000000000000000000000000000000000000000000000000000000000000000000000000000000000000000000000000000000000000000000000C0
:400040000000000000000000000000000000000000000000000000000000000000000000000000000000000000000000000000000000000000000000000000000000000080
:400080000000000000000000000000000000000000000000000000000000000000000000000000000000000000000000000000000000000000000000000000000000000040
:4000C0000000000000000000000000000000000000000000000000000000000000000000000000000000000000000000000000000000000000000000000000000000000000
:0200000490501A
:0C00000000012E16106900012E2EB8CE53
:00000001FF