:400000000080002011000000450900004509000008B5044B1A6803F53F5302331A6000F099FC00BFFA46004010B5054C237833B9044B13B10448AFF300800123237010BD46
:400040004081FF1F0000000098220000084B10B51BB108490848AFF300800848036803B910BD074B002BFBD0BDE81040184700BF000000004481FF1F98220000C880FF1F9E
:40008000000000000122014B1A6170475C81FF1F00B583B060F07F008DF8040002AA002302F8053D0123194601A800F0B3F89DF8030003B05DF804FB00B583B08DF8040082
:4000C0008DF80510002302AA02F8053D022101A800F0A0F803B05DF804FB00BF00B583B060F03F0302A800F8043D13460A46012100F090F803B05DF804FB00BF10B50446CC
:40010000002000F051FF204600F038FD00F00EFD10F0080FFAD000F09BFD0446012000F043FF204610BD00BF10B50446002000F03BFF204600F022FD002000F01FFD00F0F7
:40014000F5FC10F0010FFAD000F082FD00F080FD0446012000F028FF204610BD2DE9F04383B006460C4617469846002000F01CFF64B2002511E02146082CA8BF0821C9B2D1
:4001800006EBC50000F0E0FD00F0D0FC10F0010FFAD0083C64B201356DB2002CEBDC00F0E3FD00F087FD0026009601964FFA88F820E0C146B8F1080FA8BF4FF008095FFA4D
:4001C00089F1684600F0C0FD00F0B0FC10F0010FFAD0002406E004EBC60500F039FD78550134E4B24C45F6DBA8F108084FFA88F8013676B2B8F1000FDBDC012000F0D4FEAD
:4002000000F0B2FD00F056FD00F074FD03B0BDE8F08300BF2DE9F04383B006460C4617469846002000F0B4FE64B2002511E02146082CA8BF0821C9B206EBC50001F07AF8EF
:4002400000F06AFF10F0010FFAD0083C64B201356DB2002CEBDC01F07DF801F021F80026009601964FFA88F820E0C146B8F1080FA8BF4FF008095FFA89F1684601F05AF8DB
:4002800000F04AFF10F0010FFAD0002406E004EBC60500F0D3FF78550134E4B24C45F6DBA8F108084FFA88F8013676B2B8F1000FDBDC012000F06CFE01F04CF800F0F0FFDC
:4002C00001F00EF803B0BDE8F08300BF08B50520FFF72AFF08BD00BF08B50620FFF70EFF08BD00BF10B582B003248DF80440030A8DF805308DF8060013460A46214601A89C
:40030000FFF72CFF02B010BD2DE9F04182B000AF054688461446FFF7DFFF012001F0A6F9E61C04F10A0323F00703ADEB030D02238DF800302B0A8DF801308DF80250224630
:4003400041460DF1030001F093FF002307F1080202F8013DF1B26846FFF700FF0837BD46BDE8F08108B5FFF7B1FF10F0010FFAD108BD00BF000000002DE9F047ADF5427D07
:4003800062B600F06FFB00F055FD01F04BF800F051F9A54801F01AF9052001F051F92020FFF776FE172803D017212020FFF784FE2220FFF76DFE062803D006212220FFF71B
:4003C0007BFE2320FFF764FE802803D080212320FFF772FE2420FFF75BFE402803D040212420FFF769FE2E20FFF752FE402803D040212E20FFF760FE2E20FFF749FE4A2885
:4004000003D04A212E20FFF757FEA0238DF80030C0238DF80D304FF00008C146B8F1010F66DC824B1B68012B62D140F2F31140F2E73000F003F93C222CA92820FFF74EFEA8
:4004400000263546344637E02CA90A5D631C11F803A0A31CCB5CE01C11F800E0201D085C671DCF5D18A94FEA9A0C01F805C005F1010C920842EA1E1242EA8A1201F80C2083
:40048000AA1C1B0943EA971343EA0E138B54EB1C800940EA8707CF5409EB060010300422294480B2FFF730FFFFF75CFF04352DB20436B6B2063424B23B2CC5DD2E20FFF757
:4004C000E7FD18B100212E20FFF7F6FD2E20FFF7DFFD4A2803D04A212E20FFF7EDFD09F128091FFA89F908F1010800224F4B1A60B8F1020F92D1502204A91020FFF7F2FEA9
:40050000012001F03DF800247EE0631C04AFFD5C385D800240EA850040F38910800001F03DFA3DA3D3E9002301F09EFA3CA3D3E9002301F099FA01F0A9FC3D4901F0F6FCA4
:4005400001F044FE8DF80100C0F307238DF80230C0F307438DF80330000E8DF80400A31CFE5C280340EA061040F38910800001F015FA29A3D3E9002301F076FA28A3D3E97F
:40058000002301F071FA01F081FC294901F0CEFC01F01CFE8DF80500C0F307238DF80630C0F307438DF80730000E8DF80800E31CF85CB60346EA801040F30B1001F0EEF9AE
:4005C00015A3D3E9002301F04FFA15A3D3E9002301F04AFA01F05AFC154901F0A7FC01F0F5FD8DF80900C0F307238DF80A30C0F307438DF80B30000E8DF80C000E216846DF
:4006000000F04AFA043424B24F2C7FF77EAF002000F0B6FF02E700BFE9263108AC9C2340FCA9F1D24D62503F850000006C81FF1F0000C84208B500F029FD08BD10B50C460B
:4006400000F0CCFC204600F0CFFC10BDFEE700BFF0B40022174611E050F82760F3B226F0FF0608E001EB420511F812406D78A5550132013BDBB2002BF4D10137232FEBD9FE
:40068000F0BC70470B4B1B78DBB203F007010A4A11701B09013213701023A2F23272137002F6C3121370583213704422034B1A70704700BFCF0100496E580040765800408B
:4006C00008B50A46002101F0DEFD08BD08B501F0CFFD08BD38B500243B4B1C80502202331A700B2202331A80182338490B7002310A80374A137033210232118002321370D4
:4007000045F6BF5233490A8002310B7002310A80314A137047F22F52304B1A80192502331D7004222E492F48FFF7D0FF02222E4B1A7008224FF040231A70032103F500734A
:4007400019702A4B1B78DBB229490B70294B1A8041F25122023B1A800CE0274B1B7803F0010343EA440404F003044FF4F07000F0B3FF013D0DB1032CEFD115B90320FFF774
:4007800065FF1E4B4FF480721A8007221A7000221B490A704820023108701A700222033B1A7004220A331A70164A137843F07F031370013A137843F001031370013A13780B
:4007C00043F08003137038BD80400040864000408A4000409040004096400040984000404C090048004100400043004008010049A146004022420040254200400440004094
:4008000006400040A243004038B572B6394A137843F00403137000240BE0374863001A19510001440A46098AD068FFF749FF0134E4B2092CF1D900240CE02F48A2001119FD
:400840004B000344B3F85020D96C986CFFF73EFF0134E4B2022CF0D928494FF09040FFF7F7FE0A24264B1C70264A137843F0020313701032137843F002031370224D2B78A7
:4008800043F040032B70A2F58632513A137843F01003137008221D491D48FFF717FF22461C491D48FFF712FF22461C491C48FFF70DFF22461B491C48FFF708FF08221B49D1
:4008C0001B48FFF703FF1B4A137843F008031370194C61232370FFF7FDFE812323700122164B1A70FFF7CEFE0E2229461448FFF7EDFE38BDE84600409C22000090000048A3
:400900008358004003500140A0430040180900480251004020090048C05100402C0900481051004038090048205100404409004832510040224300400048004004000840FE
:40094000B043004008B501F067FC03680C2B00D1FEE7FEE708B5104E104D16E029686B68AC68002204E051F8040B43F8040B0432A242F8D1E868002203E0002143F8041BB5
:4009800004328242F9D11035013E002EE6D101F049FCFFF7F1FCFEE7010000002823000008B5104A104B1A60104A136843F40073136000230AE0032B03D80D4A52F82310F8
:4009C00000E00C490C4A42F8231001332F2BF2D90A4B1A780A4B1A70074A0A4B1A60FFF713FF08BD0004FA050CED00E014ED00E000000000450900000080FF1FBC760040D8
:400A0000C080FF1F08ED00E07222074B1A702022FF3B1A7006229E331A70472210331A700022B03B1A7070478965004010B500F05BFE04460A4A137843F020031370FF3A8F
:400A4000137843F010031370023A137843F01003137000F0C9FD204600F04AFE10BD00BF9965004008B5054B1B7823B9FFF7CCFF0122024B1A70FFF7D9FF08BD7081FF1F9B
:400A8000034B1B7813F0040FFAD1024B18707047686400404B650040084B1B7833B97047305DFFF7EDFF0134E4B203E070B50D4606460024AC42F3D370BD00BF7081FF1FAF
:400AC0000222014B1A60704700E100E00122014B1A60704700E100E008B500F005FE0C4A137843F020031370FF32137843F0100313700132137843F01003137000F0F8FDD8
:400B000000F080FDFFF7DCFFFFF7E0FF08BD00BF9B6400400222014B1A60704780E100E00122014B1A60704780E100E010B5FFF7F1FF064B1C78064A137803F009031C4353
:400B400000231370FFF7BCFF204610BD6A6500407881FF1F10B5FFF7E3FF064B1B78064A147804F040041C4300231370FFF7AEFF204610BD6B6500408981FF1F10B504460E
:400B80002B4B1A7802F0FF0312B1013BDBB200E00723284A1278D2B29342F1D0FFF7BAFF254B1978254A137803F009030B4313701F4B1A78D2B21F4B1B78DBB29A4207D155
:400BC0001E4B1B7813F0040F02D01D4B1C702CE0184A13780133DBB213701378DBB2072B02D90022134B1A70124B1A78D2B2104B1B78DBB29A420ED10D4A13780133DBB265
:400C000013701378DBB2072B02D90022084B1A7001220C4B1A70074B1B78DBB20A4AD4540A4A137843F004031370FFF749FF10BD8A81FF1F8881FF1F6A6500407881FF1FFE
:400C40004A6400408481FF1F7C81FF1F8A65004010B5FFF765FF134B1A78D2B2124B1B78DBB29A4214D0114B1B7813F0FF0F0CD10C4A13780133DBB213701378DBB2072BFD
:400C800006D90022074B1A7002E00022074B1A70044B1B78DBB2064AD45CE4B2FFF716FF204610BD8781FF1F8581FF1F8681FF1F8C81FF1F08B501E0094B1B78094B1B78AE
:400CC00013F0200FF8D1FFF72BFF0023064A1370064A1370064A1370FFF7F8FE08BD00BF5A6400406B6500408681FF1F8781FF1F8581FF1F08B500F0F7FC0E4B1A7842F093
:400D000001021A701A7802F0FE021A7000F0F0FCFFF700FF0023084A1370084A1370084A1370084A137803F0FB031370FFF7C8FE08BD00BF9A6400408481FF1F8A81FF1F8A
:400D40008881FF1F8A65004070B506460C46002506E0705DFFF712FF0135EDB2013CE4B2002CF6D170BD00BF08B501E00A4B1B780A4B1B7813F0200FF8D100F0B5FC084B97
:400D80001A7842F001021A701A7802F0FE021A7000F0AEFC08BD00BF5A6400406B6500409A64004010B50F22174B1A70174C022323600721012000F077FC1549012000F062
:400DC0005FFC012323600721002000F06DFC1149002000F055FCFFF7C7FF00240E4B1C700E4B1C700E4B1C700E4B1C700E4B1C700E4B1C70FFF79AFEFFF7ACFE0C4B1C7046
:400E0000202201331A7010BD8B64004080E100E0510E0000F10E00008681FF1F8781FF1F8581FF1F8481FF1F8A81FF1F8881FF1F8A65004008B5054B1B7823B9FFF7B2FFE3
:400E40000122024B1A70FFF747FE08BD7281FF1F28E01F4B19781F4A137803F009030B431370137813F0040F24D01B4B1B7813F0FF0F0CD1194A13780133DBB21370137867
:400E8000DBB2072B06D90022144B1A7002E00022114B1A70114B1B78DBB2114AD35CDBB2104A13700D4B1A78D2B20F4B1B78DBB29A42CED1094B1A78D2B20B4B1B78DBB2EC
:400EC0009A4204D1094A137803F0FB03137070476A6500407881FF1F8481FF1F8A81FF1F7C81FF1F4A6400408881FF1F8A650040204B1A7820490B7803F0400313430B7077
:400F000032E01E4B1A78D2B21D490B780133DBB20B700B78DBB2072B02D90021184B1970174B1978C9B2174B1B78DBB299420ED114490B780133DBB20B700B78DBB2072BC9
:400F400002D900210F4B197001210F4B19700C4B1B78DBB20D49CA54064B1A7806490B7803F0400313430B70034B1B7813F0200FC7D170476B6500408981FF1F5A6400404E
:400F80008581FF1F8781FF1F8681FF1F8C81FF1F044A137803F07F03C001C0B218431070704700BF10510040044A137803F0EF03000100F010001843107070472051004022
:400FC000024A137843F080031370704778650040014B1880704700BF0E680040014B1880704700BF8E680040014B1880704700BF4E680040014B1870704700BF87640040A8
:40100000014B1878704700BF67640040014B188880B27047AE68004008B501E0FFF7F6FFFFF7EEFF10F0100FF8D108BD10B5154A137803F0C00343F00B031370124C2378ED
:4010400043F001032370E03A137843F00103137040F2E730FFF7BCFF40F2E730FFF7BEFF0020FFF7C1FF0020FFF7C4FF00F03CFB237843F01003237000F03AFBFFF7CCFF21
:4010800010BD00BF786500409764004008B5054B1B7823B9FFF7CAFF0122024B1A70FFF78FFF08BD7381FF1F0822014B1A60704700E100E00422014B1A60704700E100E0F0
:4010C00008B500F011FB0D4A137843F020031370A2F58072137843F01003137002F20112137843F01003137000F002FB00F098FAFFF7DAFFFFF7DEFF08BD00BF9665004074
:401100000822014B1A60704780E100E00422014B1A60704780E100E010B5FFF7F1FF064B1C78064A137803F009031C4300231370FFF7BAFF204610BD66640040A381FF1F46
:4011400010B5FFF7E3FF064B1B78064A147804F040041C4300231370FFF7ACFF204610BD676500409C81FF1F10B504462B4B1A7802F0FF0312B1013BDBB200E00723284AA7
:401180001278D2B29342F1D0FFF7BAFF254B1978254A137803F009030B4313701F4B1A78D2B21F4B1B78DBB29A4207D11E4B1B7813F0040F02D01D4B1C702CE0184A137882
:4011C0000133DBB213701378DBB2072B02D90022134B1A70124B1A78D2B2104B1B78DBB29A420ED10D4A13780133DBB213701378DBB2072B02D90022084B1A7001220C4B0F
:401200001A70074B1B78DBB20A4AD4540A4A137843F004031370FFF747FF10BDA081FF1FA181FF1F66640040A381FF1F466500409F81FF1FA481FF1F8664004010B5FFF775
:4012400065FF134B1A78D2B2124B1B78DBB29A4214D0114B1B7813F0FF0F0CD10C4A13780133DBB213701378DBB2072B06D90022074B1A7002E00022074B1A70044B1B786E
:40128000DBB2064AD45CE4B2FFF714FF204610BDA281FF1F9D81FF1F9E81FF1F9481FF1F08B501E0094B1B78094B1B7813F0200FF8D1FFF72BFF0023064A1370064A137012
:4012C000064A1370FFF7F6FE08BD00BF56650040676500409E81FF1FA281FF1F9D81FF1F08B500F001FA0E4B1A7842F001021A701A7802F0FE021A7000F0FAF9FFF700FFB4
:401300000023084A1370084A1370084A1370084A137803F0FB031370FFF7C6FE08BD00BF966500409F81FF1FA081FF1FA181FF1F8664004070B506460C46002506E0705DBF
:40134000FFF712FF0135EDB2013CE4B2002CF6D170BD00BF08B501E00A4B1B780A4B1B7813F0200FF8D100F0BFF9084B1A7842F001021A701A7802F0FE021A7000F0B8F97B
:4013800008BD00BF56650040676500409665004010B50F22184B1A70184C082323600721032000F081F91649032000F069F9042323600721022000F077F91249022000F028
:4013C0005FF9FFF7C7FF00240F4B1C700F4B1C700F4B1C700F4B1C700F4B1C700F4B1C70FFF79AFEFFF7ACFE0D4B1C70202203F201131A7010BD00BF8665004080E100E072
:4014000041140000E11400009E81FF1FA281FF1F9D81FF1F9F81FF1FA081FF1FA181FF1F8664004008B5054B1B7823B9FFF7B0FF0122024B1A70FFF743FE08BD7481FF1F97
:4014400028E01F4B19781F4A137803F009030B431370137813F0040F24D01B4B1B7813F0FF0F0CD1194A13780133DBB213701378DBB2072B06D90022144B1A7002E00022BF
:40148000114B1A70114B1B78DBB2114AD35CDBB2104A13700D4B1A78D2B20F4B1B78DBB29A42CED1094B1A78D2B20B4B1B78DBB29A4204D1094A137803F0FB0313707047D9
:4014C00066640040A381FF1F9F81FF1FA081FF1FA481FF1F46650040A181FF1F86640040204B1A7820490B7803F0400313430B7032E01E4B1A78D2B21D490B780133DBB260
:401500000B700B78DBB2072B02D90021184B1970174B1978C9B2174B1B78DBB299420ED114490B780133DBB20B700B78DBB2072B02D900210F4B197001210F4B19700C4BC3
:401540001B78DBB20D49CA54064B1A7806490B7803F0400313430B70034B1B7813F0200FC7D17047676500409C81FF1F566500409D81FF1FA281FF1F9E81FF1F9481FF1F8A
:40158000044A137803F0FE0300F0010018431070704700BF30510040014B1B681865704708ED00E04001C0B2014B1870704700BF04E400E01022014B1A60704700E100E04E
:4015C0001022014B1A60704780E100E010B50446FFF7F6FF2046FFF7DFFF0720FFF7E2FFFFF7E8FF10BD00BF054A137843F0080313701032137843F008031370704700BFC1
:40160000A2430040054A137843F0020313701032137843F002031370704700BFA2430040054A137843F0040313701032137843F004031370704700BFA243004001BE70479B
:4016400010B5044605E0084B186800F045F8A4F50044B4F5004FF6D8034B586800FB04F000F03AF810BD00BFCC80FF1F08B5034B1B7A00FB03F000F02FF808BDCC80FF1FEA
:4016800070B504460E46074B1D681F2802D90020FFF7D4FF04F01F04103455F8240045F8246070BD08ED00E038B504460D46072902D90020FFF7C2FF1F2C02D90020FFF74E
:4016C000BDFF04F01F0000F1604000F564406D01EDB2057038BD00BF0230800803D000BF01380046FCD17047EFF3108072B6704780F31088704700BF81F0004102E000BF47
:4017000083F0004330B54FEA41044FEA430594EA050F08BF90EA020F1FBF54EA000C55EA020C7FEA645C7FEA655C00F0E2804FEA5454D4EB5555B8BF6D420CDD2C4480EADE
:40174000020281EA030382EA000083EA010180EA020281EA0303362D88BF30BD11F0004F4FEA01314FF4801C4CEA113102D0404261EB410113F0004F4FEA03334CEA133372
:4017800002D0524263EB430394EA050F00F0A780A4F10104D5F1200E0DDB02FA0EFC22FA05F2801841F1000103FA0EF2801843FA05F359410EE0A5F120050EF1200E012AC7
:4017C00003FA0EFC28BF4CF0020C43FA05F3C01851EBE37101F0004507D54FF0000EDCF1000C7EEB00006EEB0101B1F5801F1BD3B1F5001F0CD349085FEA30004FEA3C0CF6
:4018000004F101044FEA445212F5800F80F09A80BCF1004F08BF5FEA500C50F1000041EB045141EA050130BD5FEA4C0C404141EB010111F4801FA4F10104E9D191F0000F9F
:4018400004BF01460020B1FA81F308BF2033A3F10B03B3F120020CDA0C3208DD02F1140CC2F10C0201FA0CF021FA02F10CE002F11402D8BFC2F1200C01FA02F120FA0CFC40
:40188000DCBF41EA0C019040E41AA2BF01EB0451294330BD6FEA04041F3C1CDA0C340EDC04F11404C4F1200220FA04F001FA02F340EA030021FA04F345EA030130BDC4F1BA
:4018C0000C04C4F1200220FA02F001FA04F340EA0300294630BD21FA04F0294630BD94F0000F83F4801306BF81F480110134013D4EE77FEA645C18BF7FEA655C29D094EA5E
:40190000050F08BF90EA020F05D054EA000C04BF1946104630BD91EA030F1EBF0021002030BD5FEA545C05D14000494128BF41F0004130BD14F580043CBF01F5801130BD4A
:4019400001F0004545F0FE4141F470014FF0000030BD7FEA645C1ABF194610467FEA655C1CBF0B46024650EA013406BF52EA033591EA030F41F4002130BD00BF90F0000FD0
:4019800004BF0021704730B54FF4806404F132044FF000054FF0000150E700BF90F0000F04BF0021704730B54FF4806404F1320410F0004548BF40424FF000013EE700BF88
:4019C00042004FEAE2014FEA31014FEA02701FBF12F07F4393F07F4F81F06051704792F0000F14BF93F07F4F704730B54FF4607401F0004521F0004120E700BF50EA0102B4
:401A000008BF704730B54FF000050AE050EA010208BF704730B511F0004502D5404261EB41014FF4806404F132045FEA915C3FF4DCAE4FF003025FEADC0C18BF03325FEA39
:401A4000DC0C18BF033202EBDC02C2F1200300FA03FC20FA02F001FA03FE40EA0E0021FA02F11444C1E600BF70B54FF0FF0C4CF4E06C1CEA11541DBF1CEA135594EA0C0F83
:401A800095EA0C0F00F0DEF82C4481EA030621EA4C5123EA4C5350EA013518BF52EA033541F4801143F4801338D0A0FB02CE4FF00005E1FB02E506F00042E0FB03E54FF08F
:401AC0000006E1FB03569CF0000F18BF4EF0010EA4F1FF04B6F5007F64F5407404D25FEA4E0E6D4146EB060642EAC62141EA55514FEAC52040EA5E504FEACE2EB4F1FD0CFA
:401B000088BFBCF5E06F1ED8BEF1004F08BF5FEA500E50F1000041EB045170BD06F0004646EA010140EA020081EA0301B4EB5C04C2BFD4EB0C0541EA045170BD41F4801141
:401B40004FF0000E013C00F3AB8014F1360FDEBF002001F0004170BDC4F10004203C35DA0C341BDC04F11404C4F1200500FA05F320FA04F001FA05F240EA020001F00042C4
:401B800021F0004110EBD37021FA04F642EB06015EEA430E08BF20EAD37070BDC4F10C04C4F1200500FA04F320FA05F001FA04F240EA020001F0004110EBD37041F1000113
:401BC0005EEA430E08BF20EAD37070BDC4F1200500FA05F24EEA020E20FA04F301FA05F243EA020321FA04F001F0004121FA04F220EA020000EBD3705EEA430E08BF20EACD
:401C0000D37070BD94F0000F0FD101F00046400041EB010111F4801F08BF013CF7D041EA060195F0000F18BF704703F00046520043EB030313F4801F08BF013DF7D043EAFB
:401C40000603704794EA0C0F0CEA135518BF95EA0C0F0CD050EA410618BF52EA4306D1D181EA030101F000414FF0000070BD50EA410606BF1046194652EA430619D094EAED
:401C80000C0F02D150EA013613D195EA0C0F05D152EA03361CBF104619460AD181EA030101F0004141F0FE4141F470014FF0000070BD41F0FE4141F4780170BD70B54FF0BF
:401CC000FF0C4CF4E06C1CEA11541DBF1CEA135594EA0C0F95EA0C0F00F0A7F8A4EB050481EA030E52EA03354FEA013100F088804FEA03334FF0805545EA131343EA126371
:401D00004FEA022245EA111545EA10654FEA00260EF000419D4208BF964244F1FD0404F5407402D25B084FEA3202B61A65EB03055B084FEA32024FF480104FF4002CB6EBCF
:401D4000020E75EB030E22BFB61A754640EA0C005B084FEA3202B6EB020E75EB030E22BFB61A754640EA5C005B084FEA3202B6EB020E75EB030E22BFB61A754640EA9C0038
:401D80005B084FEA3202B6EB020E75EB030E22BFB61A754640EADC0055EA060E18D04FEA051545EA16754FEA06164FEAC30343EA52734FEAC2025FEA1C1CC0D111F4801F7E
:401DC0000BD141EA00014FF000004FF0004CB6E711F4801F04BF01430020B4F1FD0C88BFBCF5E06F3FF6AFAEB5EB030C04BFB6EB020C5FEA500C50F1000041EB045170BD6D
:401E00000EF0004E4EEA113114EB5C04C2BFD4EB0C0541EA045170BD41F480114FF0000E013C90E645EA060E8DE60CEA135594EA0C0F08BF95EA0C0F3FF43BAF94EA0C0FF5
:401E40000AD150EA01347FF434AF95EA0C0F7FF425AF104619462CE795EA0C0F06D152EA03353FF4FDAE1046194622E750EA410618BF52EA43067FF4C5AE50EA41047FF4E3
:401E80000DAF52EA43057FF4EBAE12E74FEA4102B2F1E04324BFB3F5001CDCF1FE5C0DD901F0004C4FEAC0024CEA5070B2F1004F40EB830008BF20F00100704711F0804FBA
:401EC00021D113F13872BCBF01F00040704741F480114FEA5252C2F11802C2F1200C10FA0CF320FA02F018BF40F001004FEAC1234FEAD32303FA0CFC40EA0C0023FA02F3DA
:401F00004FEA4303CCE77FEA625307D150EA01331EBF4FF0FE4040F44000704701F0004040F0FE4040F40000704700BF4FF0FF0C1CEAD0521EBF1CEAD15392EA0C0F93EAB0
:401F40000C0F6FD01A4480EA010C400218BF5FEA41211ED04FF0006343EA501043EA5111A0FB01310CF00040B1F5000F3EBF490041EAD3715B0040EA010062F17F02FD2ACE
:401F80001DD8B3F1004F40EBC25008BF20F00100704790F0000F0CF0004C08BF49024CEA502040EA51207F3AC2BFD2F1FF0340EAC250704740F400004FF00003013A5DDC67
:401FC00012F1190FDCBF00F000407047C2F10002410021FA02F1C2F1200200FA02FC5FEA310040F1000053EA4C0308BF20EADC70704792F0000F00F0004C02BF400010F486
:40200000000F013AF9D040EA0C0093F0000F01F0004C02BF490011F4000F013BF9D041EA0C018FE70CEAD15392EA0C0F18BF93EA0C0F0AD030F0004C18BF31F0004CD8D164
:4020400080EA010000F00040704790F0000F17BF90F0004F084691F0000F91F0004F14D092EA0C0F01D142020FD193EA0C0F03D14B0218BF084608D180EA010000F0004069
:4020800040F0FE4040F40000704740F0FE4040F4400070474FF0FF0C1CEAD0521EBF1CEAD15392EA0C0F93EA0C0F69D0A2EB030280EA010C49024FEA402037D04FF0805347
:4020C00043EA111143EA10130CF000408B4238BF5B0042F17D024FF4000C8B4224BF5B1A40EA0C00B3EB510F24BFA3EB510340EA5C00B3EB910F24BFA3EB910340EA9C0038
:40210000B3EBD10F24BFA3EBD10340EADC001B0118BF5FEA1C1CE0D1FD2A3FF650AF8B4240EBC25008BF20F0010070470CF0004C4CEA50207F32C2BFD2F1FF0340EAC2509C
:40214000704740F400004FF00003013A37E792F0000F00F0004C02BF400010F4000F013AF9D040EA0C0093F0000F01F0004C02BF490011F4000F013BF9D041EA0C0195E718
:402180000CEAD15392EA0C0F08D142027FF47DAF93EA0C0F7FF470AF084676E793EA0C0F04D14B023FF44CAF08466EE730F0004C18BF31F0004CCAD130F000427FF45CAF27
:4021C00031F000437FF43CAF5FE700BF4FEA4002B2F1FE4F0FD34FF09E03B3EB12620DD94FEA002343F0004310F0004F23FA02F018BF404270474FF00000704712F1610F4A
:4022000001D1420205D110F0004008BF6FF0004070474FF000007047014B1868704700BF3C81FF1F0E4B70B51E460E4C0025E41AA410A54204D056F8253098470135F8E7DD
:4022400000F060F8084B094C1E46E41AA4100025A54204D056F8253098470135F8E770BD1023000010230000102300001823000010B5431E0A44914204D011F8014B03F875
:40228000014FF8E710BD03460244934202D003F8011BFAE77047000000000000035B00402443004040000000004F00400C00405100403000F0510040100000000140000A40
:4022C000800A0140800500140140000280160140800500400140000A004C0140000200500140200060520040100800480600000A0140180800488000001601409808004846
:4023000080004300F8B500BFF8BC08BC9E4670474D000000A1090000F8B500BFF8BC08BC9E4670472900000038230000C880FF1F7800000070000000000000000000E02E05
:40234000C05D00001800000000366E01000000000000000000000000000000000000000000000000000000000000000002230000000000000000000000000000000000005E
:402380000000000000000000000000000000000000000000000000000000000000000000000000000000000000000000DC80FF1F00000000000000000000000000000000A3
:4023C00000000000000000000000000000000000000000000000000000000000000000000000000000000000000000000000000000000000000000000000000000000000DD
:40240000000000000000000000000000000000000000000000000000000000000000000000000000000000000000000000000000000000000000000000000000000000009C
:40244000000000000000000000000000000000000000000000000000000000000000000000000000000000000000000000000000000000000000000000000000000000005C
:40248000000000000000000000000000000000000000000000000000000000000000000000000000000000000000000000000000000000000000000000000000000000001C
:020000040003F7
:0200000480007A
:40000000024F00400452004004640040026500400303014007050140620601403E0701405F080140480901400E0A01403E0B0140070D0140040E0140010F01400515014016
:40004000091601404E170140541801404B1901405B1A0140501B014007400140114101400B42014005430140044401400745014004460140084701400A480140074901403F
:40008000034C0140094D0140065001400251014001400A4B0020016010021102870D880F8A388B0F860F89728740EA01EE4284408C209780E204E608EA40EE20000D0172A6
:4000C000080D0C020D630E0D0F0C100D1123135814C01501177418B219721A441C021D221E381F50200D2172280D29502B222C612D222E92316032E0331F34103501360F26
:40010000380839083A803E103F1054095604580459045B045C225D205F0186209102930D95099610970698439A049C0EA005A105A26AA30AA503A610A70CA804AA69B10F4C
:40014000B210B460B50FB60FB880BB22BE04C030C102C9FFCAFFCBFFCDA0CF04D018D405D804D904DA04DB04DC11DD55DF01E040E2C0E440E540E6C0E8C0EAC0ECC0EEC068
:4001800000040562070408280A020D800E1A0F401048130814801750180419041A021D601E1020082102244025152604274028602D222E012F0230083102348036053710C9
:4001C0003C403E02400841044204580159045B805C015E405F1467818008860488018C0497809860C0D4C2F7C4DECAB3CCF3CE90D006D6FBD890E203E410E640010303149D
:40020000043805400645071509330A020B040C560D0A0E210F3413081438164319331A291B0C2246306331103207330F36183760388039803A0A3B083E403F014040410308
:400240004621470D481D49FF4AFF4BFF4DAF4E0F4F0450185401580459045A045B045C335D355F01604062C06440654066C068C06AC06CC06EC085028602870D8801890D84
:40028000910D920295C2970899919B229C0D9D0DA10DA40DA540A90DAA04ADE2AF14B001B208B370B402B50FB604B780BB28BE10BF40D804D904DC15DF0100100220044039
:4002C0000608071009400A800E200F28100411041702189419401C601D801E201F012108228023042504279228282A8631183341371238203B043C603D013F0846604D045A
:400300005428554056205C025E085F908108842085018710880889409020940496029740988899149A969B459E01A040A110A208A508A701B085C0E6C269C416CA0FCCAFE9
:40034000CEF6D0C0D6F0E410E62096049A019C049E02B202B404B601D602D72CD804DB04DC06DD10DF010188034404200704080109580C200D800E101010120419581D8008
:400380001E182008220A280929482A822B08301031383202334038A241284280484149044A08504052145A026004638267406C116DA06F4975807602834085408D109E0100
:4003C000A020A606B202B604C00FC2EFC406CA0FCC0FCE0DD007D20CD601D88DE240EA40EE2084209E01A801B601E202E801EE4239803F4059045F0120018401A001AF4034
:40040000B408EA088F01B301D440D604D904DB04DC50DD20DF010504060207400EAA148017111C021D081E801F102104244425802C242E012F0234803604371238043A04A8
:400440003B803C403D043E124408458947024C804D804F06542057066206630A660267606E336F1576028041818C848485848602940195089601974499809B409C809E0236
:400480009F14A101A204A580A702A920AA40AB80AF12B004B104B308B594B701C0B0C2F0C450CAF0CCF0CEF8D0F0D210D84FE280EA0101140510070C090C0B11110913107C
:4004C0001D201F0325102D1C2F02311F37203F404001470449FF4A074BFF4C404D204EF04F055008528059045A045B045C305D535F01604061A8624063208304851C86531F
:4005000087E2880289188C3C8D088E4390039124947F95FF987399E79A0C9B189C2F9D109E50A008A11CA3E1A404A540A80CAB63AC01AD60B01CB160B220B40FB51FB64C86
:40054000B780B980BAA0BB28BE04D602D711D804D904DB04DC33DD30DF0100080206080109080A0510821328184019101A251B80210C2241230426402780280129282A04EB
:400580002B802E082F0130823118378239023B943C023D083F2045804F0856085A20695470807338764080018304864088408A028B0493029501968298A099049A129B4731
:4005C0009C029E09A040A194A288A310A624A705A840B004B240B340C007C20FC40FCA5FCC9FCEEFD010D604E280E402E820EC800402051E0611091E0D020E0411081305E2
:40060000150416081718220424032510270428032C012E12300431013203331C350236183E414026410342044401450E460C480549FF4AFF4BFF4C624DA04EF04F41500C5A
:4006400054095604580459045A045B045C335D135F016640670269106A306B106D106E106F1289018F019001930195019D01A101B301B401BE10BF04C035C106C5C0C60EB1
:40068000C7B0C826C9FFCAFFCBFFCEF0CF44D00CD440D604D804D904DA04DB04DD13DF01E6C0EA40EB020040010809080F8010821114180119081B011E0820082109271037
:4006C00029082E0230023108374539543C803D203E80404141044204450446084710480449204A204C014D014F2050805401574058A0590562816440669878027B408101DD
:4007000082088401850888029042915C9204950398A099049A129B459C439D289E01A040A114A288A310A407A624A701AE40B348C005C214C40FCA82CCD3CE3ED04FD23400
:40074000D60FD8F9EA4030403301358036083B40CCF0CE10332035806202662086089B049C409F01A608AB04AF40B580CC30D8C0E210EA80EE405B0481809B049C409D80BB
:400780009E209F01B202B720D640E2208D108E209C409E209F0113027D20C408DE01032157018701A910AF02C00AD6044508A320A701D0018B018D08A508A701B320E00191
:4007C000E408EA0125108001870188409C409F01A510C820E240E6207001750285029002DC80DE20E6100B028740C2021080734088809340B701C408DC01E601EA02006E32
:400800000A260C6A102E1A241C2A00FF013F000004800000400000009A0400803800C000988402009A6000002101D800FC56030902079838988402000084000013046400D1
:4008400002800004000A0010007FE08013080F0000028800000000144302600005DEFB0C1FFFFFFF2200F008040000001800040004040404113100010000C00040011011D7
:40088000C0010011400140010000000000000000000000000000000023190C0021CE1A21001100085000006002A11D425044008903193400500800110019500000000080E8
:4008C00050000010000800041FE040001F10200F800022C0000004105104300002DEB0CF3BFFFFFF2200F00C040000000000022804040404222200010000C000400110119A
:40090000C0010011400140010000000000000000000000000000000000606000600000008400508C8C008C00000000008000408B8B000000000000001400011612000200B6
:400940000000000000010100000010002500180100000000000000000000000000000000000000000000000000000000000000000000000000000000000000000000000027
:400980000000000000000000000000000000000000000000000000000000000000000000000000000000000000000000000000000000000000000000000000000000000037
:4009C00000000000000000000000000000000000000000000000000000000000000000000000000000000000000000000000000000000000000000000000000000000000F7
:400A000000000000000000000000000000000000000000000000000000000000000000000000000000000000000000000000000000000000000000000000000000000000B6
:400A40000000000000000000000000000000000000000000000000000000000000000000000000000000000000000000000000000000000000000000000000000000000076
:0200000490006A
:0400000000004005B7
:0200000490105A
:04000000BC90ACAF55
:0200000490303A
:020000008F7CF3
:0200000490402A
:4000000000000000000000000000000000000000000000000000000000000000000000000000000000000000000000000000000000000000000000000000000000000000C0
:400040000000000000000000000000000000000000000000000000000000000000000000000000000000000000000000000000000000000000000000000000000000000080
:400080000000000000000000000000000000000000000000000000000000000000000000000000000000000000000000000000000000000000000000000000000000000040
:4000C0000000000000000000000000000000000000000000000000000000000000000000000000000000000000000000000000000000000000000000000000000000000000
:0200000490501A
:0C00000000012E16106900012E269FE55D
:00000001FF