:400000000080002011000000BD040000BD04000008B5044B1A6803F53F5302331A6000F055FA00BFFA46004010B5054C237833B9044B13B10448AFF300800123237010BDA6
:400040004081FF1F00000000480F0000084B10B51BB108490848AFF300800848036803B910BD074B002BFBD0BDE81040184700BF000000004481FF1F480F0000C880FF1F64
:400080000000000000B583B060F07F008DF8040002AA002302F8053D0123194601A800F017F89DF8030003B05DF804FB00B583B08DF804008DF80510002302AA02F8053D15
:4000C000022101A800F004F803B05DF804FB00BF2DE9F04383B006460C4617469846002000F000FC64B2002511E02146082CA8BF0821C9B206EBC50000F044FD00F034FC48
:4001000010F0010FFAD0083C64B201356DB2002CEBDC00F047FD00F0EBFC0026009601964FFA88F820E0C146B8F1080FA8BF4FF008095FFA89F1684600F024FD00F014FC0C
:4001400010F0010FFAD0002406E004EBC60500F09DFC78550134E4B24C45F6DBA8F108084FFA88F8013676B2B8F1000FDBDC012000F0B8FB00F016FD00F0BAFC00F0D8FCED
:4001800003B0BDE8F08300BF08B562B600F028FA00F0FAFA00F06CFD0A2000F043FE2420FFF770FF402803D040212420FFF77EFF2E20FFF767FF402803D040212E20FFF7B0
:4001C00075FFFEE7FEE700BFF0B40022174611E050F82760F3B226F0FF0608E001EB420511F812406D78A5550132013BDBB2002BF4D10137202FEBD9F0BC70470B4B1B7887
:40020000DBB203F007010A4A11701B09013213701023A2F23272137002F6C3121370583213704422034B1A70704700BFCF0100496E5800407658004008B50A46002100F03D
:400240007AFE08BD08B500F06BFE08BD38B500243B4B1C80502202331A700B2202331A80182338490B7002310A80374A13703321023211800232137045F6BF5233490A80EC
:4002800002310B7002310A80314A137047F22F52304B1A80192502331D7004222E492F48FFF7D0FF02222E4B1A7008224FF040231A70032103F5007319702A4B1B78DBB203
:4002C00029490B70294B1A8041F25122023B1A800CE0274B1B7803F0010343EA440404F003044FF4F07000F0DFFD013D0DB1032CEFD115B90320FFF765FF1E4B4FF48072EB
:400300001A8007221A7000221B490A704820023108701A700222033B1A7004220A331A70164A137843F07F031370013A137843F001031370013A137843F08003137038BD63
:4003400080400040864000408A4000409040004096400040984000407C090048004100400043004008010049A146004022420040254200400440004006400040A24300406B
:4003800038B572B6394A137843F00403137000240BE0374863001A19510001440A46098AD068FFF749FF0134E4B2092CF1D900240CE02F48A20011194B000344B3F8502080
:4003C000D96C986CFFF73EFF0134E4B2022CF0D928494FF09040FFF7F7FE0A24264B1C70264A137843F0020313701032137843F002031370224D2B7843F040032B70A2F531
:400400008632513A137843F01003137008221D491D48FFF717FF22461C491D48FFF712FF22461C491C48FFF70DFF22461B491C48FFF708FF08221B491B48FFF703FF1B4A3D
:40044000137843F008031370194C61232370FFF7FDFE812323700122164B1A70FFF7CEFE0E2229461448FFF7EDFE38BDE84600404C0F0000840000488358004003500140A7
:40048000A0430040480900480251004050090048C05100405C0900481051004068090048205100407409004832510040224300400048004004000840B043004008B500F062
:4004C00003FD03680C2B00D1FEE7FEE708B5104E104D16E029686B68AC68002204E051F8040B43F8040B0432A242F8D1E868002203E0002143F8041B04328242F9D1103575
:40050000013E002EE6D100F0E5FCFFF73DFEFEE701000000D80F000008B5104A104B1A60104A136843F40073136000230AE0032B03D80D4A52F8231000E00C490C4A42F83B
:40054000231001332F2BF2D90A4B1A780A4B1A70074A0A4B1A60FFF713FF08BD0004FA050CED00E014ED00E000000000BD0400000080FF1FBC760040C080FF1F08ED00E07B
:400580007222084B1A702022A3F201131A700622613B1A70472210331A70002252331A70704700BF8A65004010B500F085FC04460A4A137843F020031370A2F20112137891
:4005C00043F0100313700132137843F01003137000F0FCFB204600F073FC10BD9A65004008B5054B1B7823B9FFF7CAFF0122024B1A70FFF7D9FF08BD5C81FF1F0222014BC0
:400600001A60704700E100E00122014B1A60704700E100E008B500F04FFC0C4A137843F020031370033A137843F01003137002F20312137843F01003137000F041FC00F0AA
:40064000D3FBFFF7DBFFFFF7DFFF08BD9B6400400222014B1A60704780E100E00122014B1A60704780E100E010B5FFF7F1FF064B1C78064A137803F009031C4300231370D2
:40068000FFF7BCFF204610BD686400406081FF1F10B5FFF7E3FF064B1B78064A147804F040041C4300231370FFF7AEFF204610BD6B6500407181FF1F08B501E00A4B1B7835
:4006C0000A4B1B7813F0200FF8D100F0F5FB084B1A7842F001021A701A7802F0FE021A7000F0EEFB08BD00BF5B6400406B6500409B64004010B50F22184B1A70184C02236E
:4007000023600721012000F0B7FB1649012000F09FFB012323600721002000F0ADFB1249002000F095FBFFF7C7FF00240F4B1C700F4B1C700F4B1C700F4B1C700F4B1C7061
:400740000F4B1C70FFF790FFFFF7A2FF0D4B1C70202203F203131A7010BD00BF8B64004080E100E0A5070000450800006E81FF1F6F81FF1F6D81FF1F6C81FF1F7281FF1F84
:400780007081FF1F8864004008B5054B1B7823B9FFF7B0FF0122024B1A70FFF73BFF08BD5E81FF1F28E01F4B19781F4A137803F009030B431370137813F0040F24D01B4B2F
:4007C0001B7813F0FF0F0CD1194A13780133DBB213701378DBB2072B06D90022144B1A7002E00022114B1A70114B1B78DBB2114AD35CDBB2104A13700D4B1A78D2B20F4BF0
:400800001B78DBB29A42CED1094B1A78D2B20B4B1B78DBB29A4204D1094A137803F0FB0313707047686400406081FF1F6C81FF1F7281FF1F6481FF1F4B6400407081FF1F5B
:4008400088640040204B1A7820490B7803F0400313430B7032E01E4B1A78D2B21D490B780133DBB20B700B78DBB2072B02D90021184B1970174B1978C9B2174B1B78DBB28C
:4008800099420ED114490B780133DBB20B700B78DBB2072B02D900210F4B197001210F4B19700C4B1B78DBB20D49CA54064B1A7806490B7803F0400313430B70034B1B78B4
:4008C00013F0200FC7D170476B6500407181FF1F5B6400406D81FF1F6F81FF1F6E81FF1F7481FF1F044A137803F07F03C001C0B218431070704700BF105100400822014B35
:400900001A60704700E100E00422014B1A60704700E100E008B500F0CFFA0C4A137843F020031370A2F58072137843F0100313700132137843F01003137000F0C1FA00F032
:4009400061FAFFF7DBFFFFF7DFFF08BD966500400822014B1A60704780E100E00422014B1A60704780E100E010B5FFF7F1FF064B1C78064A137803F009031C43002313703D
:40098000FFF7BCFF204610BD666400408B81FF1F10B5FFF7E3FF064B1B78064A147804F040041C4300231370FFF7AEFF204610BD676400408481FF1F10B504462B4B1A786A
:4009C00002F0FF0312B1013BDBB200E00723284A1278D2B29342F1D0FFF7BAFF254B1978254A137803F009030B4313701F4B1A78D2B21F4B1B78DBB29A4207D11E4B1B7823
:400A000013F0040F02D01D4B1C702CE0184A13780133DBB213701378DBB2072B02D90022134B1A70124B1A78D2B2104B1B78DBB29A420ED10D4A13780133DBB21370137814
:400A4000DBB2072B02D90022084B1A7001220C4B1A70074B1B78DBB20A4AD4540A4A137843F004031370FFF749FF10BD8881FF1F8981FF1F666400408B81FF1F46640040D7
:400A80008781FF1F8C81FF1F8664004010B5FFF765FF134B1A78D2B2124B1B78DBB29A4214D0114B1B7813F0FF0F0CD10C4A13780133DBB213701378DBB2072B06D900229E
:400AC000074B1A7002E00022074B1A70044B1B78DBB2064AD45CE4B2FFF716FF204610BD8A81FF1F8581FF1F8681FF1F7C81FF1F08B501E0094B1B78094B1B7813F0200F4C
:400B0000F8D1FFF72BFF0023064A1370064A1370064A1370FFF7F8FE08BD00BF56640040676400408681FF1F8A81FF1F8581FF1F08B500F0C1F90E4B1A7842F001021A7038
:400B40001A7802F0FE021A7000F0BAF9FFF700FF0023084A1370084A1370084A1370084A137803F0FB031370FFF7C8FE08BD00BF966400408781FF1F8881FF1F8981FF1FED
:400B80008664004070B506460C46002506E0705DFFF712FF0135EDB2013CE4B2002CF6D170BD00BF08B501E00A4B1B780A4B1B7813F0200FF8D100F07FF9084B1A7842F0FA
:400BC00001021A701A7802F0FE021A7000F078F908BD00BF56640040676400409664004010B50F22174B1A70174C082323600721032000F041F91549032000F029F9042314
:400C000023600721022000F037F91149022000F01FF9FFF7C7FF00240E4B1C700E4B1C700E4B1C700E4B1C700E4B1C700E4B1C70FFF79AFEFFF7ACFE0C4B1C70202201337E
:400C40001A7010BD8665004080E100E08D0C00002D0D00008681FF1F8A81FF1F8581FF1F8781FF1F8881FF1F8981FF1F8664004008B5054B1B7823B9FFF7B2FF0122024B3A
:400C80001A70FFF747FE08BD5F81FF1F28E01F4B19781F4A137803F009030B431370137813F0040F24D01B4B1B7813F0FF0F0CD1194A13780133DBB213701378DBB2072BED
:400CC00006D90022144B1A7002E00022114B1A70114B1B78DBB2114AD35CDBB2104A13700D4B1A78D2B20F4B1B78DBB29A42CED1094B1A78D2B20B4B1B78DBB29A4204D1BC
:400D0000094A137803F0FB0313707047666400408B81FF1F8781FF1F8881FF1F8C81FF1F466400408981FF1F86640040204B1A7820490B7803F0400313430B7032E01E4B57
:400D40001A78D2B21D490B780133DBB20B700B78DBB2072B02D90021184B1970174B1978C9B2174B1B78DBB299420ED114490B780133DBB20B700B78DBB2072B02D900210A
:400D80000F4B197001210F4B19700C4B1B78DBB20D49CA54064B1A7806490B7803F0400313430B70034B1B7813F0200FC7D17047676400408481FF1F566400408581FF1FF6
:400DC0008A81FF1F8681FF1F7C81FF1F054A137843F0080313701032137843F008031370704700BFA2430040054A137843F0020313701032137843F002031370704700BF33
:400E0000A2430040054A137843F0040313701032137843F004031370704700BFA243004001BE704710B5044605E0084B186800F03BF8A4F50044B4F5004FF6D8034B5868C0
:400E400000FB04F000F030F810BD00BFCC80FF1F70B504460E46074B1D681F2802D90020FFF7DEFF04F01F04103455F8240045F8246070BD08ED00E038B504460D4607297D
:400E800002D90020FFF7CCFF1F2C02D90020FFF7C7FF04F01F0000F1604000F564406D01EDB2057038BD00BF0230800803D000BF01380046FCD17047EFF3108072B6704761
:400EC00080F31088704700BF014B1868704700BF3C81FF1F0E4B70B51E460E4C0025E41AA410A54204D056F8253098470135F8E700F060F8084B094C1E46E41AA4100025C4
:400F0000A54204D056F8253098470135F8E770BDC00F0000C00F0000C00F0000C80F000010B5431E0A44914204D011F8014B03F8014FF8E710BD03460244934202D003F856
:400F4000011BFAE77047000000000000035B00402443004040000000004F00400C00405100403000F05100401000000001400006800601400004000B014000050014014053
:400F8000000800400140000A004C014000020050014020006052004040080048060000060140480800488000800A0140C808004880004300F8B500BFF8BC08BC9E46704752
:400FC0004D00000019050000F8B500BFF8BC08BC9E46704729000000E80F0000C880FF1F7800000058000000000000000000E02EC05D00001800000000366E0100000000C9
:4010000000000000000000000000000000000000000000000000000000000000B20F00000000000000000000000000000000000000000000000000000000000000000000EF
:4010400000000000000000000000000000000000000000000000000000000000DC80FF1F0000000000000000000000000000000000000000000000000000000000000000F6
:401080000000000000000000000000000000000000000000000000000000000000000000000000000000000000000000000000000000000000000000000000000000000030
:4010C00000000000000000000000000000000000000000000000000000000000000000000000000000000000000000000000000000000000000000000000000000000000F0
:4011000000000000000000000000000000000000000000000000000000000000000000000000000000000000000000000000000000000000000000000000000000000000AF
:40114000000000000000000000000000000000000000000000000000000000000000000000000000000000000000000000000000000000000000000000000000000000006F
:020000040003F7
:0200000480007A
:40000000024F0040035200400364004003650040030501401806014043070140580801404F0901401F0A0140400B0140010D014007150140601601404C1701405F18014029
:4000400053190140551A0140571B014005400140084101400F4201400A430140024401400845014006460140064701400748014003490140044C01400A4D01400650014033
:400080000251014001400A4B00201002110289388A0F8B0F860F880D8A728E01E240E652840187108A01950E99059B3AA923AB04AD04AE01AF39B30FB530B601B908BE4031
:4000C000D440D604D804D904DB04DC10DD20DF0101280310042007400C080D200E40100315101682170419801D031F20200422042654280129202D102F0A3204331035013D
:4001000036183704380444084502468047084D054E084F42552057065C405D045E015F106201632A6402678078027A40861087408B488C0C9E01A002A802C056C270C4F15B
:40014000CA3CCCE6CE02D0E0D230D6F0D89FE201E410E640EA04000C0271031304100640070C09310A030B060C141410152C16AC17031E202131230E24DC262227082809F9
:400180002AD03330341F350F36E039083A803B203F044002464049FF4A074BFF4C404D204EF04F05500854095604580459045A045B045C335D135F01604061A862406320B4
:4001C0008708880289038B148D338F0490029533970C990A9B349F80A402A780A801AD40AF15B110B201B30FB560B602B780B920BB08BE04BF41D418D604D804D904DB04BD
:40020000DC33DD30DF0103040480051006500A800F12110412041608170819841D101F4020082108228023902520272829082A802B012F6030803128370839203A483B80E2
:400240003C083E083F1247204F02561057205A025E625F0460046282648067027A107B10820290A8912092059306978098049A049B139C509D049E809F80A040A110A2014B
:40028000A312A508A640AA08AC84B110B320C0F2C2A8C466CACACC4ECEEED020D6F1D89DE240E4100302170419041B0133013502370439023F014034410545E046CB470ECF
:4002C000481E49FF4AFF4BFF4EF04F44500C540159045A045B045C605D335F0166C06A406B02042807420C400E900F08141017111E121F0121212284242026182C1031202F
:400300003204361B3B013D023F20410842804458450149014B804C804E0A4F04504051105204571659055BA05D205E2065206C046D206E056F517440770285018E909301C1
:4003400095029808AB01B408C0F0C2F0C470CA40CC66CEA1D0E3D238D60FD820E240E610EA01890185409D40A984AD20B620E60CEE02007004210519065A08020A1D0C7062
:400380000D080F111020125014631511160C17081820190E1B011D1920032104227423092450250826202704287029012B022D193260330F341F35103A203B0C3F105602E2
:4003C0005728580459045B045C225D205F018002820D88028A188C60908D9301948D98319A429C529E24A280A48DA88DAC0DAE80AF01B070B301B480B60FB802BA80BB2000
:40040000BE10BF04C050C104C9FFCAFFCBFFCDA0CF04D018D804D904DA04DC32DD05DF01E040E2C0E440E540E6C0E8C0EAC0ECC0EEC0004002080380051006020760084076
:4004400009050B080C100D200E60102A110114401680171418401B901D101E201F1C222023102608272829402C502D802F08330237643E444302494067206C3A6D026E4471
:400480006F5475807602830287108D089101942096409A809D289E029F48A120A408A608A718A840AA04AD20AF30B108B201B308B580C0FBC27FC47FCAF8CC71CE50D00134
:4004C000D208D840E008E204EE02002102D80402069808FC0A030C9A103812C0140218131A641C9A2098220228982A0230E03213340F3A224060410345D04712483349FF96
:400500004AFF4BFF4DAF4E0F4F0450185280540558045A045B045C015D555F01604062C06440654066C068C06AC06CC06EC0803C811182C1847C85BF868289B38B0C8D4007
:400540008EC39204933394049522981899049C109D08A0FFA10FA3B0A408A50CA8E7A90CAA18ABB3AD33B020B130B258B30FB41FB580B698B740B920BAA0BB08BE01BF4020
:40058000D804D904DC33DF01000101800202032004280522070208600A200B400C100E810F201020110212081711180119191B601E881F08214022092314282229142B400A
:4005C0003060314032063408350838423A083B10450546804D114F08550456025D015E405F087640810487088D028E0490689205940495049682980499809B139C109D08F2
:400600009F04A040A110A312A480A640AC80B040B440B510B640C0FDC2FFC45ECA0FCC0FCE0FD040D220D6D0E240E880EC40010A020103B1051F091F1514178919011A0161
:400640001B46312033183401350737C03E103F40406541044202440145C0460E480649FF4AFF4BFF4C624DA04EF04F41500C56025713580459045A045B045C305D335F01DA
:400680006640670269106A306B106D106E106F12851B8802891B8C078D1B911A930195049708980799049B109D049F1AA11BA208A902AA04AB04AF01B002B11EB201B40852
:4006C000B501B604BB02BF10D440D604D804D904DB04DC15DD10DF010380041006020B040F081510164018041C101E401F60200122242340261027402E012F0B32243520DA
:4007000036043741380239243C803D203E0440094280488049804A08538059015E205F1064046502671269246A806B0470207144800281428220851087208B408C018E1081
:400740009180920593049406951496E89740980C99A19AC29B019C029D449F04A040A110A20CA30EA4A0AC10AF08B501B608C0C8C242C450CAB0CCF6CE77D00DD20CD601DC
:40078000D8F0E001E810311136483840CCF0CE1030205B04658094409D11A648CC10D6C0538057205B0287028C408D018F0494409D919F04A420A648D460D640E6408020CC
:4007C000860887208D909D90A420A648A7A0E290E6107F08DE010108030457028B08A708C00AD604E0044508A702AB04B508D001EA028D088F01A508A702E202E4082510E1
:400800009D10A510AE40AF80C820EE5081109D10E6200B029702A702C2021280710281028B028E80A702C408DC01E202E401004E0A060C4A102E1A2C1C2A00FF010F0000F1
:40084000088C00004000000024000000000000002400000000000000040B2010201904060400000C0000000002002900070030000715180A240000103E000002011C000198
:4008800022000000000000444605300002DEC0BF3BFFFFFF2200F00C040000000900040004040404222200010000C00040011011C0010011400140010000000000000000C6
:4008C00000000000000000008465001A80000400564009008400000004000000014900066002000D0A001000040080000713382C840000000000000002007F70000F80006B
:4009000008000028000041004603500002FEC0DB3BFFFFFF2200F008040000000000022404040404111100010000C00040011011C0010011400140010000000000000000ED
:40094000000000000000000000616100600000008400408C8C008C00000000008000408B8B000000000000001400011612000200000000000000000000001000250018018A
:400980000000000000000000000000000000000000000000000000000000000000000000000000000000000000000000000000000000000000000000000000000000000037
:4009C00000000000000000000000000000000000000000000000000000000000000000000000000000000000000000000000000000000000000000000000000000000000F7
:400A000000000000000000000000000000000000000000000000000000000000000000000000000000000000000000000000000000000000000000000000000000000000B6
:400A40000000000000000000000000000000000000000000000000000000000000000000000000000000000000000000000000000000000000000000000000000000000076
:0200000490006A
:0400000000004005B7
:0200000490105A
:04000000BC90ACAF55
:0200000490303A
:020000006D4D44
:0200000490402A
:4000000000000000000000000000000000000000000000000000000000000000000000000000000000000000000000000000000000000000000000000000000000000000C0
:400040000000000000000000000000000000000000000000000000000000000000000000000000000000000000000000000000000000000000000000000000000000000080
:400080000000000000000000000000000000000000000000000000000000000000000000000000000000000000000000000000000000000000000000000000000000000040
:4000C0000000000000000000000000000000000000000000000000000000000000000000000000000000000000000000000000000000000000000000000000000000000000
:0200000490501A
:0C00000000012E16106900012E1E7DB6B6
:00000001FF