:400000000080002011000000810500008105000008B5044B1A6803F53F5302331A6000F0B7FA00BFFA46004010B5054C237833B9044B13B10448AFF300800123237010BDBA
:400040004081FF1F0000000018100000084B10B51BB108490848AFF300800848036803B910BD074B002BFBD0BDE81040184700BF000000004481FF1F18100000C880FF1FC2
:400080000000000000B583B060F07F008DF8040002AA002302F8053D0123194601A800F027F89DF8030003B05DF804FB00B583B08DF804008DF80510002302AA02F8053D05
:4000C000022101A800F014F803B05DF804FB00BF00B583B060F03F0302A800F8043D13460A46012100F004F803B05DF804FB00BF2DE9F04383B006460C4617469846002023
:4001000000F04EFC64B2002511E02146082CA8BF0821C9B206EBC50000F092FD00F082FC10F0010FFAD0083C64B201356DB2002CEBDC00F095FD00F039FD00260096019699
:400140004FFA88F820E0C146B8F1080FA8BF4FF008095FFA89F1684600F072FD00F062FC10F0010FFAD0002406E004EBC60500F0EBFC78550134E4B24C45F6DBA8F10808F2
:400180004FFA88F8013676B2B8F1000FDBDC012000F006FC00F064FD00F008FD00F026FD03B0BDE8F08300BF00B591B062B600F077FA00F047FB00F0BBFD0A2000F092FEBF
:4001C0002020FFF75FFF172803D017212020FFF76DFF2020FFF756FF272803D027212020FFF764FF2020FFF74DFF372803D037212020FFF75BFF2020FFF744FF472803D09A
:4002000047212020FFF752FF2220FFF73BFF062803D006212220FFF749FF2420FFF732FF402803D040212420FFF740FF2E20FFF729FF402803D040212E20FFF737FF2E2065
:40024000FFF720FF4A2803D04A212E20FFF72EFF00F08AFE0128FBD13C2201A92820FFF737FF2E20FFF70EFF18B100212E20FFF71DFF2E20FFF706FF4028E9D040212E20AB
:40028000FFF714FFE4E700BFFEE700BFF0B40022174611E050F82760F3B226F0FF0608E001EB420511F812406D78A5550132013BDBB2002BF4D10137222FEBD9F0BC704773
:4002C0000B4B1B78DBB203F007010A4A11701B09013213701023A2F23272137002F6C3121370583213704422034B1A70704700BFCF0100496E5800407658004008B50A46A5
:40030000002100F080FE08BD08B500F071FE08BD38B500243B4B1C80502202331A700B2202331A80182338490B7002310A80374A13703321023211800232137045F6BF5214
:4003400033490A8002310B7002310A80314A137047F22F52304B1A80192502331D7004222E492F48FFF7D0FF02222E4B1A7008224FF040231A70032103F5007319702A4B5C
:400380001B78DBB229490B70294B1A8041F25122023B1A800CE0274B1B7803F0010343EA440404F003044FF4F07000F0E5FD013D0DB1032CEFD115B90320FFF765FF1E4B39
:4003C0004FF480721A8007221A7000221B490A704820023108701A700222033B1A7004220A331A70164A137843F07F031370013A137843F001031370013A137843F08003E6
:40040000137038BD80400040864000408A40004090400040964000409840004044090048004100400043004008010049A1460040224200402542004004400040064000408F
:40044000A243004038B572B6394A137843F00403137000240BE0374863001A19510001440A46098AD068FFF749FF0134E4B2082CF1D900240CE02F48A20011194B000344B6
:40048000B3F84C20996C586CFFF73EFF0134E4B2012CF0D928494FF09040FFF7F7FE0A24264B1C70264A137843F0020313701032137843F002031370224D2B7843F040030C
:4004C0002B70A2F58632513A137843F01003137008221D491D48FFF717FF22461C491D48FFF712FF22461C491C48FFF70DFF22461B491C48FFF708FF08221B491B48FFF7B2
:4005000003FF1B4A137843F008031370194C61232370FFF7FDFE812323700122164B1A70FFF7CEFE0E2229461448FFF7EDFE38BDE84600401C1000008C000048835800403A
:4005400003500140A0430040100900480251004018090048C0510040240900481051004030090048205100403C09004832510040224300400048004004000840B0430040D2
:4005800008B500F009FD03680C2B00D1FEE7FEE708B5104E104D16E029686B68AC68002204E051F8040B43F8040B0432A242F8D1E868002203E0002143F8041B0432824210
:4005C000F9D11035013E002EE6D100F0EBFCFFF7EBFDFEE7010000009C10000008B5104A104B1A60104A136843F40073136000230AE0032B03D80D4A52F8231000E00C4984
:400600000C4A42F8231001332F2BF2D90A4B1A780A4B1A70074A0A4B1A60FFF713FF08BD0004FA050CED00E014ED00E000000000810500000080FF1FBC760040C080FF1F3A
:4006400008ED00E07222074B1A70202201331A700622633B1A70472210331A70002250331A7070478A65004010B500F08DFC04460A4A137843F0200313700132137843F069
:4006800010031370033A137843F01003137000F0FDFB204600F07CFC10BD00BF9A65004008B5054B1B7823B9FFF7CCFF0122024B1A70FFF7D9FF08BD5C81FF1F0222014B5D
:4006C0001A60704700E100E00122014B1A60704700E100E008B500F057FC0C4A137843F0200313700132137843F010031370033A137843F01003137000F04AFC00F0D4FBE0
:40070000FFF7DCFFFFF7E0FF08BD00BF9A6400400222014B1A60704780E100E00122014B1A60704780E100E010B5FFF7F1FF064B1C78064A137803F009031C43002313701F
:40074000FFF7BCFF204610BD6B6400406081FF1F10B5FFF7E3FF064B1B78064A147804F040041C4300231370FFF7AEFF204610BD686400407181FF1F08B501E00A4B1B7875
:400780000A4B1B7813F0200FF8D100F0FDFB084B1A7842F001021A701A7802F0FE021A7000F0F6FB08BD00BF5B640040686400409B64004010B50F22174B1A70174C0223A3
:4007C00023600721012000F0B7FB1549012000F09FFB012323600721002000F0ADFB1149002000F095FBFFF7C7FF00240E4B1C700E4B1C700E4B1C700E4B1C700E4B1C70A8
:400800000E4B1C70FFF790FFFFF7A2FF0C4B1C702022033B1A7010BD8A64004080E100E061080000010900006E81FF1F6F81FF1F6D81FF1F6C81FF1F7281FF1F7081FF1FC9
:400840008B64004008B5054B1B7823B9FFF7B2FF0122024B1A70FFF73DFF08BD5E81FF1F28E01F4B19781F4A137803F009030B431370137813F0040F24D01B4B1B7813F0E0
:40088000FF0F0CD1194A13780133DBB213701378DBB2072B06D90022144B1A7002E00022114B1A70114B1B78DBB2114AD35CDBB2104A13700D4B1A78D2B20F4B1B78DBB2A5
:4008C0009A42CED1094B1A78D2B20B4B1B78DBB29A4204D1094A137803F0FB03137070476B6400406081FF1F6C81FF1F7281FF1F6481FF1F4B6400407081FF1F8B64004089
:40090000204B1A7820490B7803F0400313430B7032E01E4B1A78D2B21D490B780133DBB20B700B78DBB2072B02D90021184B1970174B1978C9B2174B1B78DBB299420ED13D
:4009400014490B780133DBB20B700B78DBB2072B02D900210F4B197001210F4B19700C4B1B78DBB20D49CA54064B1A7806490B7803F0400313430B70034B1B7813F0200F7B
:40098000C7D17047686400407181FF1F5B6400406D81FF1F6F81FF1F6E81FF1F7481FF1F044A137803F07F03C001C0B218431070704700BF105100400822014B1A60704779
:4009C00000E100E00422014B1A60704700E100E008B500F0D9FA0C4A137843F0200313700132137843F01003137002F58072137843F01003137000F0CBFA00F063FAFFF7DC
:400A0000DBFFFFF7DFFF08BD966400400822014B1A60704780E100E00422014B1A60704780E100E010B5FFF7F1FF064B1C78064A137803F009031C4300231370FFF7BCFF1D
:400A4000204610BD676400408B81FF1F10B5FFF7E3FF064B1B78064A147804F040041C4300231370FFF7AEFF204610BD676500408481FF1F10B504462B4B1A7802F0FF0364
:400A800012B1013BDBB200E00723284A1278D2B29342F1D0FFF7BAFF254B1978254A137803F009030B4313701F4B1A78D2B21F4B1B78DBB29A4207D11E4B1B7813F0040F40
:400AC00002D01D4B1C702CE0184A13780133DBB213701378DBB2072B02D90022134B1A70124B1A78D2B2104B1B78DBB29A420ED10D4A13780133DBB213701378DBB2072BAB
:400B000002D90022084B1A7001220C4B1A70074B1B78DBB20A4AD4540A4A137843F004031370FFF749FF10BD8881FF1F8981FF1F676400408B81FF1F476500408781FF1FAC
:400B40008C81FF1F8764004010B5FFF765FF134B1A78D2B2124B1B78DBB29A4214D0114B1B7813F0FF0F0CD10C4A13780133DBB213701378DBB2072B06D90022074B1A7026
:400B800002E00022074B1A70044B1B78DBB2064AD45CE4B2FFF716FF204610BD8A81FF1F8581FF1F8681FF1F7C81FF1F08B501E0094B1B78094B1B7813F0200FF8D1FFF7A8
:400BC0002BFF0023064A1370064A1370064A1370FFF7F8FE08BD00BF57650040676500408681FF1F8A81FF1F8581FF1F08B500F0CBF90E4B1A7842F001021A701A7802F0A6
:400C0000FE021A7000F0C4F9FFF700FF0023084A1370084A1370084A1370084A137803F0FB031370FFF7C8FE08BD00BF976500408781FF1F8881FF1F8981FF1F8764004079
:400C400070B506460C46002506E0705DFFF712FF0135EDB2013CE4B2002CF6D170BD00BF08B501E00A4B1B780A4B1B7813F0200FF8D100F089F9084B1A7842F001021A70CC
:400C80001A7802F0FE021A7000F082F908BD00BF57650040676500409765004010B50F22184B1A70184C082323600721032000F043F91649032000F02BF90423236007211F
:400CC000022000F039F91249022000F021F9FFF7C7FF00240F4B1C700F4B1C700F4B1C700F4B1C700F4B1C700F4B1C70FFF79AFEFFF7ACFE0D4B1C70202203F580731A701C
:400D000010BD00BF8664004080E100E04D0D0000ED0D00008681FF1F8A81FF1F8581FF1F8781FF1F8881FF1F8981FF1F8764004008B5054B1B7823B9FFF7B0FF0122024BC5
:400D40001A70FFF745FE08BD5F81FF1F28E01F4B19781F4A137803F009030B431370137813F0040F24D01B4B1B7813F0FF0F0CD1194A13780133DBB213701378DBB2072B2E
:400D800006D90022144B1A7002E00022114B1A70114B1B78DBB2114AD35CDBB2104A13700D4B1A78D2B20F4B1B78DBB29A42CED1094B1A78D2B20B4B1B78DBB29A4204D1FB
:400DC000094A137803F0FB0313707047676400408B81FF1F8781FF1F8881FF1F8C81FF1F476500408981FF1F87640040204B1A7820490B7803F0400313430B7032E01E4B93
:400E00001A78D2B21D490B780133DBB20B700B78DBB2072B02D90021184B1970174B1978C9B2174B1B78DBB299420ED114490B780133DBB20B700B78DBB2072B02D9002149
:400E40000F4B197001210F4B19700C4B1B78DBB20D49CA54064B1A7806490B7803F0400313430B70034B1B7813F0200FC7D17047676500408481FF1F576500408581FF1F32
:400E80008A81FF1F8681FF1F7C81FF1F054A137843F0080313701032137843F008031370704700BFA2430040054A137843F0020313701032137843F002031370704700BF72
:400EC000A2430040054A137843F0040313701032137843F004031370704700BFA243004001BE704710B5044605E0084B186800F043F8A4F50044B4F5004FF6D8034B5868F8
:400F000000FB04F000F038F810BD00BFCC80FF1F70B504460E46074B1D681F2802D90020FFF7DEFF04F01F04103455F8240045F8246070BD08ED00E038B504460D460729B4
:400F400002D90020FFF7CCFF1F2C02D90020FFF7C7FF04F01F0000F1604000F564406D01EDB2057038BD00BF024B187800F00100704700BF015100400230800803D000BF1E
:400F800001380046FCD17047EFF3108072B6704780F31088704700BF014B1868704700BF3C81FF1F0E4B70B51E460E4C0025E41AA410A54204D056F8253098470135F8E7DA
:400FC00000F05AF8084B094C1E46E41AA4100025A54204D056F8253098470135F8E770BD8410000084100000841000008C10000010B5431E0A44914204D011F8014B03F88A
:40100000014FF8E710BD03460244934202D003F8011BFAE77047000000000000035B00402443004040000000004F00400C00405100403000F0510040100000000140800A52
:40104000000B0140000500140140000800400140000A004C01400002005001402000000060520040880800480600800A014090080048800043000000F8B500BFF8BC08BCD5
:401080009E4670474D000000DD050000F8B500BFF8BC08BC9E46704729000000B0100000C880FF1F780000005800000000000000000000000000E02EC05D00001800000085
:4010C00000366E01000000000000000000000000000000000000000000000000000000000000000074100000000000000000000000000000000000000000000000000000C7
:40110000000000000000000000000000000000000000000000000000000000000000000000000000DC80FF1F00000000000000000000000000000000000000000000000035
:40114000000000000000000000000000000000000000000000000000000000000000000000000000000000000000000000000000000000000000000000000000000000006F
:40118000000000000000000000000000000000000000000000000000000000000000000000000000000000000000000000000000000000000000000000000000000000002F
:4011C00000000000000000000000000000000000000000000000000000000000000000000000000000000000000000000000000000000000000000000000000000000000EF
:4012000000000000000000000000000000000000000000000000000000000000000000000000000000000000000000000000000000000000000000000000000000000000AE
:020000040003F7
:0200000480007A
:40000000024F00400252004003640040036500400403014004040140080501404D0601403B0701406A0801404C090140050A01403D0B0140020D01400715014062160140CE
:40004000521701406A180140471901404C1A0140481B0140074001400D4101400F42014008430140024401400645014007460140034701400C48014003490140054C014012
:40008000084D0140065001400251014001400A4B00600120860F890D8A0F880F8A728B38A780AB80E604EC0438803E4058045F011B808180851486048F80A780E248E60A21
:4000C000001004010512061A081009100B020D1210021102121D13101501173418031A141C101D231F0C2112221024102523271828032A0C2D02301F331F341F3520392845
:400100003A2256025728580459045B045C225D205F01800B8214840D8501861287028A068D028F0D9102930895029704990D9D0DA10DA415A50DA608A90DAA08B00EB20EA8
:40014000B410B601B70FBB80BE50D409D604D804D904DB04DC12DD20DF01001402800320042406800E8A1008110814081705181019601B011E801F1021402504262428608D
:400180002A102FA230A132063684370139843C803E14588059055B106140638067206C106E166F85744080A08120834088408A108E2091149208A080A580B080C07EC2D002
:4001C000C476CAD7CCDFCE7AD60FD849E210E604000901800210031504140520080C09200A110D530F0C12031320150A175419531B041C101F0820102103220C2314241CE2
:40020000252026022B202D20301F31C033203510361F370F39023B803F144060410449FF4AFF4BFF4DA04F04501854405604580459045A045B045C335D155F01604062C00E
:400240006440654066C068C06AC06CC06EC0820289018A06920195019901A40CA80CB002B208B401B604B701BE01C060C105C5D0C612C81EC9FFCAFFCBFFCDAFCE0FCF048C
:40028000D018D405D804D904DA04DB04DC55DD55DF01E040E2C0E440E540E6C0E8C0EAC0ECC0EEC000020120024005100610074009020C800E8010281706185019201A0259
:4002C0001E801F402240256427422D082E022F09302835103608374538103C203D803E043F02442045044640480149214D2050285240580859015A8064626620800283098A
:40030000860189088A049204932A9804990A9A209B019F20A010A308A680AD12B010B201C07AC298C436CAF0CCF6CEF4D080D22CD60BD8F0E280E402E620EE80560257206F
:400340005B045D105F01040405220D020E0510011180160217291C041D021E801F1424402540260827042D202E022F163508364037293A023B023C403E05448047244C014B
:400380004D265620570A5C015D145E406280640167806A056B0972028001848087548C018E488F0494409804B004C070C2D0C4F0CAF0CCF0CED0D0E0D230D6F0D898E6042C
:4003C0008040EC048D029D02A804AE01E608EA08EC0100D1042005390682080C09210B180CD00D390E011020111812D0132114D115041719182A191E1A441B011C161D11BA
:400400001E281F022139220124D128D12D182F0430F032013320340E350F371138203A023B303E043F04580459045C225F0182018523870489058B3A990E9F10A802AD0429
:40044000AF39B002B401B50FB730B920BE01C062C105C230C401C50EC6FDC7CBC83DC9FFCAFFCBFFCC22CEF0CF0CD004D440D604D804D904DA04DB04DC13DD22DF01E2C094
:40048000E440E501E610E711E8C0E901EB11EC40ED01EE40EF01010204040510068007010E8A0F1010041648170418081B011C101D101E80218022102404250826A828013A
:4004C0002D012F823180321036A4370139143C803E9C40044108420149044A054B8050085120524053026010612062427E807F408101820885018602871191149214940467
:4005000098059B059D059E80A040A204A380A408A580A680A702A808AA82AB12AC24AF01C0F8C2F0C472CA98CCFCCE76D00ED20CD80FE201E408EA8BEC10006C02030831C1
:400540000A0E0C310E461108159817601B011D201E131FD022082301253227C4295C2BA22E4C300F3230330E344A350137F038083A223B883E043F104003460449FF4A07ED
:400580004BFF4C404D204EF04F0550085401580459045A045B045C135D335F01604061A86240632089288A028B928D028E028F4C953F993F9D01A004A514A7A2AA01B00275
:4005C000B10EB204B330B401B501B7C0BE05BF40C026C103C205C401C50CC60EC805C9FFCAFFCBFFCC62CDA0CEF0CF41D00CD280D804D904DA04DB04DC36DD53DF01E640A7
:40060000E702E910EA30EB10ED10EE10EF1200200180053107020D800F02100411011680174019081A041B021D1920592684272828202F5732403314350236A438504005CD
:4006400041044508481449804F025340548056805D095E607102811084848C128D018E0892409328980499029B429D109E129F20A480A502A688A701AB20AF41B040B4483E
:40068000B520B640C0D3C280C49ACAE2CCFECE0CD04ED20CD6F0E408EA80EC1001240253047305E7060C0718087F09080C030D601002111C13E2142F16501704191C1BE18D
:4006C0001C3C1D101E4320082363240425FF280C29182C012D403020311F324C340F3580361C376039203A283B0A3E0156025713580459045B045C335D305F018501870268
:400700009301B501B702C041C106C5E0C6B0C7C0C82AC9FFCAFFCBFFCEF0CF44D00CD418D604D904DA04DB04DC60DD33DF01E6C0EA40EB0200640102020408020A221084D2
:4007400011401324180419811A20202021042221230125102701288629022A043080310432113408370938663E04458047024D21561259015F01644867026A806B14709031
:40078000732484408C218D40904092049302940495099680988299249B0A9C209D809E129F14A180A510A620A904B212C00FC20DC40FCA0FCC8FCE4FD090D220D681D8B065
:4007C000E240EA0830403301358036083880CCF0CE10328065206702830194809C409D809F01A608CC10D680D880E620538057105808812085808C0894809C409DA09F014C
:40080000A688D460D640E210E68082088F1094809C409F01A688A790E2207F80DE01002003205310AB80C00AD404450283209720A320B010D001EE0187109720A502270473
:400840008040870194809F05A680AF80B040B704C820E2C0EE108680A680E6100A018502B502C202EC08128075028E809902AE01C408DE04E202002E0A060C2A106E1A0EC0
:400880001C6A00FF010F0000848C00004000000002840000138464002100D800000100003804C08000800004985602099A0400009884020002079838FC0A03109A60000037
:4008C000E07F0F081380000200020A00000000546204300005CEF0BD3BFFFFFF2200F008040000000900040004040404111100010000C00040011011C0010011400140016B
:400900000000000000000000000000000000000001626200600000008400408C8C008C00000000008000408B8B000000000000001400011612000200000000000000000015
:400940000000100025001801000000000000000000000000000000000000000000000000000000000000000000000000000000000000000000000000000000000000000029
:400980000000000000000000000000000000000000000000000000000000000000000000000000000000000000000000000000000000000000000000000000000000000037
:4009C00000000000000000000000000000000000000000000000000000000000000000000000000000000000000000000000000000000000000000000000000000000000F7
:400A000000000000000000000000000000000000000000000000000000000000000000000000000000000000000000000000000000000000000000000000000000000000B6
:400A40000000000000000000000000000000000000000000000000000000000000000000000000000000000000000000000000000000000000000000000000000000000076
:0200000490006A
:0400000000004005B7
:0200000490105A
:04000000BC90ACAF55
:0200000490303A
:02000000E0ED31
:0200000490402A
:4000000000000000000000000000000000000000000000000000000000000000000000000000000000000000000000000000000000000000000000000000000000000000C0
:400040000000000000000000000000000000000000000000000000000000000000000000000000000000000000000000000000000000000000000000000000000000000080
:400080000000000000000000000000000000000000000000000000000000000000000000000000000000000000000000000000000000000000000000000000000000000040
:4000C0000000000000000000000000000000000000000000000000000000000000000000000000000000000000000000000000000000000000000000000000000000000000
:0200000490501A
:0C00000000012E16106900012E1EF156A2
:00000001FF