:400000000080002011000000711100007111000008B5044B1A6803F53F5302331A6001F0C7F800BFFA46004010B5054C237833B9044B13B10448AFF300800123237010BDB3
:400040004881FF1F0000000090360000084B10B51BB108490848AFF300800848036803B910BD074B002BFBD0BDE81040184700BF000000004C81FF1F90360000C880FF1F76
:400080000000000038B501F02DF9B04B18703F2809D1AF4801F066F9AE4801F063F9AE4801F060F938BD662802D0462840F0C280AA4801F057F9AA4801F054F909E00A2003
:4000C00002F0A0FBA74A136801331360B3F57A7F03DA01F01DF90028F1D0A24B1B68B3F57A7F03DB3522994B1A7003E001F0FAF8964B187000229B4B1A6001F015F9934BB0
:400100001B78313B042B00F29180DFE803F0032547698B00232000F011FB924B1871802804D080211971232000F01CFB8E4D04242C708C4B1979012000F042FC00F09CFCFC
:400140002978204600F03CFC00F096FC874801F009F900F05FFE38BD232000F0EFFA814B1871902804D090211971232000F0FAFA7D4C082323707B4B1979012000F020FC5F
:4001800000F07AFC2178042000F01AFC00F074FC774801F0E7F800F03DFE38BD232000F0CDFA704B1871A02804D0A0211971232000F0D8FA6C4C102323706A4B19790120F7
:4001C00000F0FEFB00F058FC2178042000F0F8FB00F052FC674801F0C5F800F01BFE38BD232000F0ABFA5F4B1871B02804D0B0211971232000F0B6FA5B4C30232370594B73
:400200001979012000F0DCFB00F036FC2178042000F0D6FB00F030FC574801F0A3F800F0F9FD38BD554801F09DF838BD544801F099F838BD702802D0502840F0D18051485B
:4002400001F090F8504801F08DF809E00A2002F0D9FA444A136801331360B3F57A7F03DA01F056F80028F1D03E4B1B68B3F57A7F03DB3522354B1A7003E001F033F8334B60
:4002800018700022374B1A6001F04EF82F4B1B78313B042B00F2A080DFE803F003203C7E9A00202000F04AFA2E4B1871172804D017211971202000F055FA2A4B1979002085
:4002C00000F07EFB00F0D8FB4FF47A7001F090FD2E4801F047F800F09DFD38BD202000F02DFA204B1871272804D027211971202000F038FA1B4B1979002000F061FB00F00C
:40030000BBFB642001F074FD214801F02BF800F081FD38BD202000F011FA124B1871372804D037211971202000F01CFA0D4B1979002000F045FB00F09FFB164801F012F8A8
:40034000282001F055FD00F065FD38BDB481FF1F94360000C8360000483700007C370000E83800006481FF1FB581FF1FEC3700000038000014380000283800003C3800006C
:400380004838000068380000E038000024390000383900004C390000202000F0CFF9864B1871472804D047211971202000F0DAF9814B1979002000F003FB00F05DFB7F48AD
:4003C00000F0D0FF142001F013FD00F023FD38BD7B4800F0C7FF38BD7A4800F0C3FF38BD742801D0542852D1774800F0BBFF774800F0B8FF09E00A2002F004FA6E4A13681C
:4004000001331360B3F57A7F03DA00F081FF0028F1D0694B1B68B3F57A7F03DB33226C4B1A7003E000F05EFF694B18700022624B1A6000F079FF664B1B78322B11D0332BF5
:400440001DD0312B1FD10021624B1970032000F0B7FA00F011FB604800F084FF00F0DAFC38BD01215B4B1970032000F0A9FA00F003FB5A4800F076FF00F0CCFC38BD504815
:4004800000F070FF38BD4F4800F06CFF38BD622801D042281DD1524B1B68012B06D1514800F060FF494800F05DFF0FE073B901244B4B1C604C4800F055FF444800F052FF6F
:4004C0002146022000F07CFA00F0D6FA00F02CFF38BD732801D0532822D1414B1B6833B9424800F03FFF394800F03CFF15E0012B13D100243A4B1C6040F2E731084600F052
:4005000065FC3B4800F02EFF304800F02BFF2146022000F055FA00F0AFFA00F005FF38BD762801D056282CD12D4B1B685BB9314800F018FF254800F015FF01202E4B1860E2
:4005400001F0DCFF1AE0012B0ED10022244B1A60284800F007FF1D4800F004FF0120264B186001F0CBFF09E0234B1B68012B05D1224800F0F7FE154800F0F4FE00F0D4FEF0
:4005800038BD752801D0552815D11B4B1B68012B0BD10020184B186001F0B0FF184800F0E1FE0A4800F0DEFE03E013B9154800F0D9FE00F0B9FE38BD6481FF1F6039000091
:4005C0003C3800004838000074390000E0380000B481FF1FB081FF1FD0390000EC3900009C81FF1F0C3A0000443A0000743A0000AC3A0000DC3A0000A081FF1F103B00003F
:400600004C3B0000803B000010B501F0EBFB01F0B9FB304B1860002801DA00221A602D4B1B68B3F5803F03DB4FF6FF72294B1A60284B186801F094FB274B1860274B1B785F
:40064000BBB9A0F5FA70A3F1993383FB0023C017C0EBA30002F0EEF9214B1860214B1C68214902F03BFA02F089FB204B23F8140022E0012B20D1A0F5FA7003F1663383FB6A
:400680000023C017C0EBA30002F0D4F9184902F025FA184902F0D6FA4FF0844102F016F90F4B18600F4B1C680F4902F017FA02F065FB0E4B23F814000A4A1368013313603E
:4006C000092B05D101220C4B1A700022054B1A6010BD00BFBC81FF1FD881FF1FB081FF1F6C81FF1FB881FF1F0000C842C481FF1F000010410000A040AD81FF1F08B50EE05C
:400700000A2002F07FF8084A136801331360B3F5FA7F04DB054800F025FE00F07BFB01F0E1FB0128ECD008BDC081FF1F983B00000122014B1A607047E081FF1F00B583B03C
:4007400060F07F008DF8040002AA002302F8053D0123194601A800F0B3F89DF8030003B05DF804FB00B583B08DF804008DF80510002302AA02F8053D022101A800F0A0F846
:4007800003B05DF804FB00BF00B583B060F03F0302A800F8043D13460A46012100F090F803B05DF804FB00BF10B50446002001F05FF8204600F046FE00F01CFE10F0080FDB
:4007C000FAD000F0A9FE0446012001F051F8204610BD00BF10B50446002001F049F8204600F030FE002000F02DFE00F003FE10F0010FFAD000F090FE00F08EFE04460120B1
:4008000001F036F8204610BD2DE9F04383B006460C4617469846002001F02AF864B2002511E02146082CA8BF0821C9B206EBC50000F0EEFE00F0DEFD10F0010FFAD0083C91
:4008400064B201356DB2002CEBDC00F0F1FE00F095FE0026009601964FFA88F820E0C146B8F1080FA8BF4FF008095FFA89F1684600F0CEFE00F0BEFD10F0010FFAD0002438
:4008800006E004EBC60500F047FE78550134E4B24C45F6DBA8F108084FFA88F8013676B2B8F1000FDBDC012000F0E2FF00F0C0FE00F064FE00F082FE03B0BDE8F08300BF3D
:4008C0002DE9F04383B006460C4617469846002000F0C2FF64B2002511E02146082CA8BF0821C9B206EBC50001F0E4FC01F0D4FB10F0010FFAD0083C64B201356DB2002C04
:40090000EBDC01F0E7FC01F08BFC0026009601964FFA88F820E0C146B8F1080FA8BF4FF008095FFA89F1684601F0C4FC01F0B4FB10F0010FFAD0002406E004EBC60501F0A9
:400940003DFC78550134E4B24C45F6DBA8F108084FFA88F8013676B2B8F1000FDBDC012000F07AFF01F0B6FC01F05AFC01F078FC03B0BDE8F08300BF08B50520FFF72AFFA0
:4009800008BD00BF08B50620FFF70EFF08BD00BF00B583B003218DF80410030A8DF805308DF8060002AA002302F8053D012301A8FFF72AFF9DF8030003B05DF804FB00BFFD
:4009C00030B583B004460D46FFF7DCFF02238DF80430230A8DF805308DF806408DF80750002302AA02F8053D04210DEB0100FFF70BFF03B030BD00BF10B582B003248DF8DA
:400A00000440030A8DF805308DF8060013460A46214601A8FFF7F8FE02B010BD2DE9F04182B000AF054688461446FFF7ABFF012001F0FEFEE61C04F10A0323F00703ADEBFA
:400A4000030D02238DF800302B0A8DF801308DF80250224641460DF1030002F0E1F9002307F1080202F8013DF1B26846FFF7CCFE0837BD46BDE8F08108B5FFF77DFF10F019
:400A8000010FFAD108BD00BF2DE9F04FB1B062B600F01AFC01F0EAF901F0F0F800F02EFE01F07EFC00F08EF9B34801F04DFDB34801F00AFA052001F0A5FEB14800F0FEFE94
:400AC000B04801F0A5FA0020FFF762FF01462020FFF748FE0120FFF75BFF01462320FFF741FE0320FFF754FF034610B90021A64A1170012B02D10122A34B1A700220FFF742
:400B000047FF012802D10122A04B1A6010B900229E4B1A600420FFF73BFF9D4B18702220FFF70CFE062803D004212220FFF71AFE2420FFF703FE402803D040212420FFF710
:400B400011FE2E20FFF7FAFD924B1870492804D0492119702E20FFF705FE01F0A3F88E4800F000FC8D4800F0FDFB8D4800F0FAFB4FF000094F464D46CA46844B1B68012B84
:400B800040F09880874B1B68012B40F08A8040F22223994500F3858040F2F31140F2E73000F014F93C2221A92820FFF7EDFD4FF00008C3464646062463E03146631C30AA00
:400BC000134413F83C0C820830AB334403F8782C721CE31C0DF1C00E734413F83CEC30AB234413F83C3C0DF1C00C62449B0843EA1E1343EA801302F8783CB21C631D6344F4
:400C000013F83C0CA31C634413F83C3C62441B0943EA901343EA0E1302F8783CF31C221D624412F83C2C6344920942EA800003F8780C5D4B1B78DBB2012B0FD1331D5B4A46
:400C400032F91B20634403F8782C731D6344121203F8782C0BF1010B4FFA8BFB0AEB08000A30062212AB194480B2FFF7D7FEFFF703FF063636B208F106081FFA88F806348B
:400C800024B23B2C99DD00F0A9F80023464A13700AF1360A1FFA8AFA09F10109414A136008E040F22223994504DDE02140F2C11000F08CF83E4B1B68012B7FF45EAF52E060
:400CC000E8190A30062203AB191980B2FFF794FE631C30AA134413F8B43C224412F8B42C920242EA830242F38912A11C30A8014411F8B41C1B0343EA011343F38913E01C07
:400D000030AE304410F8B40C890341EA801040F30B109DF810609DF81110090209B23143244EDFF89CE08EFB01CEC917C1EB6E1109B2019100909B0092001F49304602F00D
:400D400083F8304600F00EFB1C4800F00BFB0635ADB2063400E00024352CB1DD3637BFB208F1360801E04FF00008362303FB09F39845F0DB01E700BF310700000906000042
:400D800085000000FD060000B081FF1F9C81FF1FB581FF1FA481FF1F94360000C836000048370000E081FF1FAD81FF1FC481FF1FA081FF1FE881FF1FA03B0000FC38000040
:400DC0001F85EB5108B501F0FBF808BD10B50C4601F09EF8204601F0A1F810BD08B52E20FFF7ACFC0A4B187020B1002119702E20FFF7B8FC2E20FFF7A1FC054B187049282F
:400E000004D0492119702E20FFF7ACFC08BD00BFA481FF1F08B50023074A1380074A1380074A1380074B1B68012B02D10022054B1A60FFF7D3FF08BDAE81FF1F9881FF1FDB
:400E4000B281FF1FA081FF1FFEE700BFF0B40022174611E050F82760F3B226F0FF0608E001EB420511F812406D78A5550132013BDBB2002BF4D10137212FEBD9F0BC7047AB
:400E80000B4B1B78DBB203F007010A4A11701B09013213701023A2F23272137002F6C3121370583213704422034B1A70704700BFCF0100496E5800407658004008B50A46D9
:400EC000002101F0B8FF08BD08B501F0A9FF08BD38B500243A4B1C80502202331A700B2202331A80182337490B7002310A80364A13703321023211800232137045F6BF52D8
:400F000032490A8002310B7002310A8002310B7002310A802E4A137004222E492E48FFF7D3FF02222D4B1A7008224FF040231A70032103F500731970294B1B78DBB2294966
:400F40000B70294B1A8041F25122023B1A8019250CE0264B1B7803F0010343EA440404F003044FF4F07001F09BFC013D0DB1032CEFD115B90320FFF767FF1D4B4FF48072D6
:400F80001A8007221A7000221A490A704820023108701A700222033B1A7004220A331A70154A137843F07F031370013A137843F001031370013A137843F08003137038BDD9
:400FC00080400040864000408A400040904000409A400040E8080048004100400043004008010049A146004022420040254200400440004006400040A2430040012807D880
:40100000044B53F820201844017A13780B431370704700BFC03B0000012808D8044B53F820201844017A137823EA010313707047C03B000038B572B6394A137843F004034A
:40104000137000240BE0374863001A19510001440A46098AD068FFF731FF0134E4B20A2CF1D900240CE02F48A20011194B000344B3F85820596D186DFFF726FF0134E4B2EE
:40108000032CF0D928494FF09040FFF7DFFE0A24264B1C70264A137843F0020313701032137843F002031370224D2B7843F040032B70A2F58632513A137843F0100313702B
:4010C00008221D491D48FFF7FFFE22461C491D48FFF7FAFE22461C491C48FFF7F5FE22461B491C48FFF7F0FE08221B491B48FFF7EBFE1B4A137843F008031370194C612350
:401100002370FFF7E5FE812323700122164B1A70FFF7B6FE0E2229461448FFF7D5FE38BDE8460040C03B0000880000488358004003500140A0430040B408004802510040F9
:40114000BC080048C0510040C808004810510040D408004820510040E008004832510040224300400048004004000840B043004008B501F029FE03680C2B00D1FEE7FEE7D3
:4011800008B5094B1A681044084BC31A802B02DC054B186005E001F017FE0C2303604FF0FF32104608BD00BFCC80FF1F8882FF1F08B5104E104D16E029686B68AC68002266
:4011C00004E051F8040B43F8040B0432A242F8D1E868002203E0002143F8041B04328242F9D11035013E002EE6D101F0F3FDFFF74BFCFEE701000000943C000008B5104A9E
:40120000104B1A60104A136843F40073136000230AE0032B03D80D4A52F8231000E00C490C4A42F8231001332F2BF2D90A4B1A780A4B1A70074A0A4B1A60FFF7FBFE08BD12
:401240000004FA050CED00E014ED00E000000000711100000080FF1FBC760040C080FF1F08ED00E07222094B1A70202203F203131A700622A3F5B1731A70472210331A70FF
:40128000002203F251131A70704700BF8864004010B501F00DFB04460A4A137843F02003137002F20312137843F010031370013A137843F01003137001F054F9204601F046
:4012C000FBFA10BD9864004008B5054B1B7823B9FFF7C8FF0122024B1A70FFF7D9FF08BD7781FF1F084B1B78DBB213F0200F06D0064A1078C0B213F01E0F02D17047002075
:4013000070470020704700BF6B6500404B650040044B1B7813F0200F01D0012070470020704700BF6B65004008B501F0C1FA064B1A7842F001021A701A7802F0FE021A70E4
:4013400001F0BAFA08BD00BF9B650040034B1B7813F0040FFAD1024B187070476A6500404A65004038B5074B1B782BB938BDFFF7EDFF0134A4B201E005460024285D0028A3
:40138000F5D138BD7781FF1F0222014B1A60704700E100E00122014B1A60704700E100E008B501F085FA0C4A137843F020031370013A137843F010031370023A137843F029
:4013C0001003137001F078FA01F0DAF8FFF7DCFFFFF7E0FF08BD00BF9C6400400222014B1A60704780E100E00122014B1A60704780E100E010B5FFF7F1FF064B1C78064A24
:40140000137803F009031C4300231370FFF7BCFF204610BD6B6400404C82FF1F10B5FFF7E3FF064B1B78064A147804F040041C4300231370FFF7AEFF204610BD69640040C1
:401440005D82FF1F10B504462B4B1A7802F0FF0312B1013BDBB200E00723284A1278D2B29342F1D0FFF7BAFF254B1978254A137803F009030B4313701F4B1A78D2B21F4B54
:401480001B78DBB29A4207D11E4B1B7813F0040F02D01D4B1C702CE0184A13780133DBB213701378DBB2072B02D90022134B1A70124B1A78D2B2104B1B78DBB29A420ED16B
:4014C0000D4A13780133DBB213701378DBB2072B02D90022084B1A7001220C4B1A70074B1B78DBB20A4AD4540A4A137843F004031370FFF749FF10BD5E82FF1F5C82FF1F0F
:401500006B6400404C82FF1F4C6400405882FF1F5082FF1F8B64004010B5FFF765FF134B1A78D2B2124B1B78DBB29A4214D0114B1B7813F0FF0F0CD10C4A13780133DBB25A
:4015400013701378DBB2072B06D90022074B1A7002E00022074B1A70044B1B78DBB2064AD45CE4B2FFF716FF204610BD5B82FF1F5982FF1F5A82FF1F6082FF1F08B501E092
:40158000094B1B78094B1B7813F0200FF8D1FFF72BFF0023064A1370064A1370064A1370FFF7F8FE08BD00BF5C640040696400405A82FF1F5B82FF1F5982FF1F08B501F08D
:4015C00077F90E4B1A7842F001021A701A7802F0FE021A7001F070F9FFF700FF0023084A1370084A1370084A1370084A137803F0FB031370FFF7C8FE08BD00BF9C64004001
:401600005882FF1F5E82FF1F5C82FF1F8B64004070B506460C46002506E0705DFFF712FF0135EDB2013CE4B2002CF6D170BD00BF08B501E00A4B1B780A4B1B7813F0200FC0
:40164000F8D101F035F9084B1A7842F001021A701A7802F0FE021A7001F02EF908BD00BF5C640040696400409C64004010B50F22174B1A70174C022323600621012001F0C1
:40168000F5F81549012001F0DDF8012323600621002001F0EBF81149002001F0D3F8FFF7C7FF00240E4B1C700E4B1C700E4B1C700E4B1C700E4B1C700E4B1C70FFF79AFE34
:4016C000FFF7ACFE0C4B1C702022023B1A7010BD8C64004080E100E019170000B91700005A82FF1F5B82FF1F5982FF1F5882FF1F5E82FF1F5C82FF1F8B64004008B5054B04
:401700001B7823B9FFF7B2FF0122024B1A70FFF747FE08BD7981FF1F28E01F4B19781F4A137803F009030B431370137813F0040F24D01B4B1B7813F0FF0F0CD1194A137850
:401740000133DBB213701378DBB2072B06D90022144B1A7002E00022114B1A70114B1B78DBB2114AD35CDBB2104A13700D4B1A78D2B20F4B1B78DBB29A42CED1094B1A784E
:40178000D2B20B4B1B78DBB29A4204D1094A137803F0FB03137070476B6400404C82FF1F5882FF1F5E82FF1F5082FF1F4C6400405C82FF1F8B640040204B1A7820490B7890
:4017C00003F0400313430B7032E01E4B1A78D2B21D490B780133DBB20B700B78DBB2072B02D90021184B1970174B1978C9B2174B1B78DBB299420ED114490B780133DBB2B7
:401800000B700B78DBB2072B02D900210F4B197001210F4B19700C4B1B78DBB20D49CA54064B1A7806490B7803F0400313430B70034B1B7813F0200FC7D1704769640040F1
:401840005D82FF1F5C6400405982FF1F5B82FF1F5A82FF1F6082FF1F044A137803F07F03C001C0B218431070704700BF10510040044A137803F0EF03000100F010001843F0
:401880001070704720510040014B1B689865704708ED00E04001C0B2014B1870704700BF06E400E04022014B1A60704700E100E04022014B1A60704780E100E010B5044652
:4018C000FFF7F6FF2046FFF7DFFF0720FFF7E2FFFFF7E8FF10BD00BF10B59DF80840012C51D1013809282ED8DFE800F0052D2D052D2D0F192D230F2B03D92548007840B221
:4019000022E02448007840B21EE00F2B03D92248007840B218E02148007840B214E00F2B03D91F48007840B20EE01E48007840B20AE00F2B03D91C48007840B204E01B486E
:40194000007840B200E0002001EB401101FB02F1C90B8AB20D2B0BD8C3F10E0289B211418AB2611E124800EB810101338B7005E0631E0F4901EB83030F219970013C0C4BA7
:4019800023F8242010BD002000F03AFF10BD00BF180100491C010049190100491D0100491A0100491E0100491B0100491F0100497C81FF1FF8B5074600F07AFF06460D4DD6
:4019C0002B7843F003032B700B4C237843F0030323700A4B1F70032000F02AFF2B7803F0FC032B70237803F0FC032370304600F063FFF8BDF8460040F9460040925800409E
:401A00000022324B1A7101285FD170B53822304B1A70042202331A70062201331A70002401331C7001331C703F2201331A7002331C7001331C7001331C7001250A331D70E0
:401A4000502203F527631A700A2201331A702C2201331A7001331C70442203331A70482201331A7001331D7002331D70112201331A70192201331A70972201331A7052208E
:401A8000FFF798FF5822134B1A7001331C70052605331E70022201331A7001331C7001331C70204600F08AFD43F233320A4B1A602946304600F0A6FD2946252000F026FE9E
:401AC00006491D2000F0BEFE70BD70477C81FF1F004E0040945800406882FF1FAD1D0000F0B583B0284D01272F70284E00247471102000F075FD102000F0F6FD06211D2087
:401B000000F0B4FE0422224B1A7001331C7007331C70204A137843F0180313701E4B1C7003F2F5231C7001331C700A22A3F209331A7001331C7002331C705B2205331A7005
:401B40005E2201331A7004331C701422A3F68C231A70009710234FF4004248F6F0510220FFF7BAFE2B78013B06EB83039A780B4B1A702B78013B36F82320094B1A80287898
:401B8000FFF73EFF03B0F0BDD080FF1F7C81FF1F96580040075B0040935800400E4E00400C4E004070B500F083FE06462A4B1B782A4B1A7842F001021A701A7842F0100252
:401BC0001A7010331A7842F001021A701A7842F010021A70224D2B7843F002032B70214C237843F0020323701F4A137843F003031370032000F01CFE2B7803F0FD032B70A1
:401C0000237803F0FD032370184A137843F0060313707A22164B1A70164A137843F0010313701032137843F0010313700F3A137843F0010313701032137843F0010313700F
:401C40004FF000530C4A1360A2F5C0721360304600F032FE70BD00BFD080FF1FAA430040F8460040F9460040915800407758004082580040A143004080E200E008B5084BEB
:401C80009B794BB9064BDB7913F0FF0F01D1FFF727FF0122024B9A71FFF784FF08BD00BF7C81FF1F024A137843F0010313707047004E0040024A137803F0FE0313707047FA
:401CC000004E0040094B1B7913F0FF0F03D0074B5B79DBB203E0064B1B7803F00103012B01D00028EED01846704700BF7C81FF1F014E0040154B1B7803F00303012B07D8C1
:401D0000134B1888023B1B889BB243EA004013E0022B0AD10E4B1888023B1B7843EA00430C4A107843EA002006E00B4B188883B2074A108843EA0040084B1B7913F0FF0F4D
:401D400002D00022054B5A71704700BF144E0040124E0040114E0040104E00407C81FF1F064B9B68C01A4FF47A7303FB00F0044B1B6890FBF3F000B2704700BF7C81FF1F75
:401D80006882FF1F10B5084A137843F004031370FFF788FF0020FFF795FFFFF7ABFF0446FFF788FF204610BD014E0040704700BF084A137843F0010313701032137843F05F
:401DC0000103137002F64D32137843F001031370704700BFA3430040014B1870704700BF034F0040014B1878704700BF034F0040014B1880704700BF044F0040014B188073
:401E0000704700BF064F004008B5154A137803F0010313700232137803F0FC031370114B1A7802F0CF021A701A7842F030021A701A7802F0F0021A701A7842F00F021A7028
:401E4000094A137843F0010313705E20FFF7D0FF5E20FFF7D3FF0820FFF7BEFF08BD00BF004F00400B4F0040014F004008B5054B1B7823B9FFF7C8FF0122024B1A70FFF700
:401E800097FF08BD8881FF1F024B1B68C3F88400704700BF08ED00E04001C0B2014B1870704700BF11E400E04FF40032014B1A60704700BF00E100E04FF40032014B1A60C7
:401EC000704700BF80E100E010B50446FFF7F4FF2046FFF7D9FF0520FFF7DEFFFFF7E4FF10BD00BF024B1878C0F38000704700BF21510040024A137843F0800313707047A3
:401F00007A640040014B1880704700BF14680040014B1880704700BF94680040014B1880704700BF54680040014B1870704700BF8D640040014B1878704700BF6D640040A3
:401F4000014B188880B27047B468004008B501E0FFF7F6FFFFF7EEFF10F0100FF8D108BD08B5154A137803F0C00343F00B0313702032137843F0010313700132137843F06E
:401F80000103137040F2E730FFF7BCFF40F2E730FFF7BEFF0020FFF7C1FF0020FFF7C4FF00F086FC054A137843F01003137000F083FCFFF7CBFF08BD7A6400409D6400408D
:401FC00008B5054B1B7823B9FFF7CAFF0122024B1A70FFF78FFF08BD8981FF1F014B1B685865704708ED00E04001C0B2014B1870704700BF05E400E02022014B1A6070479E
:4020000000E100E02022014B1A60704780E100E010B50446FFF7F6FF2046FFF7DFFF0620FFF7E2FFFFF7E8FF10BD00BF0822014B1A60704700E100E00422014B1A6070473A
:4020400000E100E008B500F033FC0C4A137843F0200313700232137843F010031370013A137843F01003137000F026FC00F0BAFBFFF7DCFFFFF7E0FF08BD00BF96650040D6
:402080000822014B1A60704780E100E00422014B1A60704780E100E010B5FFF7F1FF064B1C78064A137803F009031C4300231370FFF7BCFF204610BD686500407B82FF1FD9
:4020C00010B5FFF7E3FF064B1B78064A147804F040041C4300231370FFF7AEFF204610BD676500407482FF1F10B504462B4B1A7802F0FF0312B1013BDBB200E00723284A3D
:402100001278D2B29342F1D0FFF7BAFF254B1978254A137803F009030B4313701F4B1A78D2B21F4B1B78DBB29A4207D11E4B1B7813F0040F02D01D4B1C702CE0184A1378F2
:402140000133DBB213701378DBB2072B02D90022134B1A70124B1A78D2B2104B1B78DBB29A420ED10D4A13780133DBB213701378DBB2072B02D90022084B1A7001220C4B7F
:402180001A70074B1B78DBB20A4AD4540A4A137843F004031370FFF749FF10BD7882FF1F7982FF1F686500407B82FF1F486500407782FF1F7C82FF1F8865004010B5FFF79F
:4021C00065FF134B1A78D2B2124B1B78DBB29A4214D0114B1B7813F0FF0F0CD10C4A13780133DBB213701378DBB2072B06D90022074B1A7002E00022074B1A70044B1B78DF
:40220000DBB2064AD45CE4B2FFF716FF204610BD7A82FF1F7582FF1F7682FF1F6C82FF1F08B501E0094B1B78094B1B7813F0200FF8D1FFF72BFF0023064A1370064A13701C
:40224000064A1370FFF7F8FE08BD00BF58650040676500407682FF1F7A82FF1F7582FF1F08B500F025FB0E4B1A7842F001021A701A7802F0FE021A7000F01EFBFFF700FF4A
:402280000023084A1370084A1370084A1370084A137803F0FB031370FFF7C8FE08BD00BF986500407782FF1F7882FF1F7982FF1F8865004070B506460C46002506E0705D9E
:4022C000FFF712FF0135EDB2013CE4B2002CF6D170BD00BF08B501E00A4B1B780A4B1B7813F0200FF8D100F0E3FA084B1A7842F001021A701A7802F0FE021A7000F0DCFAA2
:4023000008BD00BF58650040676500409865004010B50F22174B1A70174C082323600621032000F0A3FA1549032000F08BFA042323600621022000F099FA1149022000F031
:4023400081FAFFF7C7FF00240E4B1C700E4B1C700E4B1C700E4B1C700E4B1C700E4B1C70FFF79AFEFFF7ACFE0C4B1C702022013B1A7010BD8665004080E100E0BD23000072
:402380005D2400007682FF1F7A82FF1F7582FF1F7782FF1F7882FF1F7982FF1F8865004008B5054B1B7823B9FFF7B2FF0122024B1A70FFF747FE08BD8A81FF1F28E01F4B2A
:4023C00019781F4A137803F009030B431370137813F0040F24D01B4B1B7813F0FF0F0CD1194A13780133DBB213701378DBB2072B06D90022144B1A7002E00022114B1A70BC
:40240000114B1B78DBB2114AD35CDBB2104A13700D4B1A78D2B20F4B1B78DBB29A42CED1094B1A78D2B20B4B1B78DBB29A4204D1094A137803F0FB03137070476865004022
:402440007B82FF1F7782FF1F7882FF1F7C82FF1F486500407982FF1F88650040204B1A7820490B7803F0400313430B7032E01E4B1A78D2B21D490B780133DBB20B700B789A
:40248000DBB2072B02D90021184B1970174B1978C9B2174B1B78DBB299420ED114490B780133DBB20B700B78DBB2072B02D900210F4B197001210F4B19700C4B1B78DBB212
:4024C0000D49CA54064B1A7806490B7803F0400313430B70034B1B7813F0200FC7D17047676500407482FF1F586500407582FF1F7A82FF1F7682FF1F6C82FF1F044A137803
:4025000003F0FE0300F0010018431070704700BF30510040014B1B681865704708ED00E04001C0B2014B1870704700BF04E400E01022014B1A60704700E100E01022014B19
:402540001A60704780E100E010B50446FFF7F6FF2046FFF7DFFF0620FFF7E2FFFFF7E8FF10BD00BF054A137843F0080313701032137843F008031370704700BFA24300408B
:40258000054A137843F0020313701032137843F002031370704700BFA243004010B5002404E02046FEF738FD0134E4B2012CF8D9FF22014B1A7010BDD180FF1F10B50446FB
:4025C000FFF7ECFF2046FEF719FD014B1C7010BDD180FF1F014B188880B2704780400040034B1A7800F0F80010431870704700BF82400040024B187800F00700704700BF3B
:402600008240004070B505460E46FFF7F3FF0446FFF7E0FFA84256D02B4B1B7803F0010294B900B185B938B9284B1D80284A137803F0BF03137070BD254A137843F04003AF
:402640001370224B1D8070BD22B3002321490B7001240F310C7004310B700C390B7803F07F030B701A4B1B7813F0080F00D08DB9194B18800721013B1970164B1B7813F072
:40268000010FFAD110490B7803F0FE030B700021104B19700C4B1B7813F0010F0DD00E4B1D800EB1032200E001220A4B1A70094B1B7813F0010FFAD170BD044B1D80024930
:4026C0000B7813430B7070BDA243004080400040824000400140004002400040014B188880B2704700410040034B1A7800F0F80010431870704700BF02410040024B187860
:4027000000F00700704700BF0241004070B505460E46FFF7F3FF0446FFF7E0FFA84256D02B4B1B7803F0010294B900B185B938B9284B1D80284A137803F0BF03137070BD30
:40274000254A137843F040031370224B1D8070BD22B3002321490B70012413310C7004390B7008390B7803F07F030B701A4B1B7813F0080F00D08DB9194B18800721013B79
:402780001970164B1B7813F0010FFAD110490B7803F0FE030B700021104B19700C4B1B7813F0010F0DD00E4B1D800EB1032200E001220A4B1A70094B1B7813F0010FFAD113
:4027C00070BD044B1D8002490B7813430B7070BDA143004000410040024100400140004002400040054A137843F0040313701032137843F004031370704700BFA24300400D
:4028000001BE704710B5044605E0084B186800F047F8A4F50044B4F5004FF6D8034B586800FB04F000F03CF810BD00BFD480FF1F08B5034B1B7A00FB03F000F031F808BDFE
:40284000D480FF1F70B504460E46074B1D681F2802D90020FFF7D4FF04F01F04103455F8240045F8246070BD08ED00E038B504460D46072902D90020FFF7C2FF1F2C02D920
:402880000020FFF7BDFF04F01F0000F1604000F564406D01EDB2057038BD00BF000000000230800803D000BF01380046FCD17047EFF3108072B6704780F31088704700BFB2
:4028C00080F0004002E000BF81F0004142001FBF5FEA410392EA030F7FEA226C7FEA236C6AD04FEA1262D2EB1363C1BFD218414048404140B8BF5B42192B88BF704710F047
:40290000004F40F4000020F07F4018BF404211F0004F41F4000121F07F4118BF494292EA030F3FD0A2F1010241FA03FC10EB0C00C3F1200301FA03F100F0004302D5494264
:4029400060EB4000B0F5000F13D3B0F1807F06D340084FEA310102F10102FE2A51D2B1F1004F40EBC25008BF20F0010040EA03007047490040EB000010F4000FA2F10102BE
:40298000EDD1B0FA80FCACF1080CB2EB0C0200FA0CF0AABF00EBC25052421843BCBFD0401843704792F0000F81F4000106BF80F400000132013BB5E74FEA41037FEA226C30
:4029C00018BF7FEA236C21D092EA030F04D092F0000F08BF0846704790EA010F1CBF0020704712F07F4F04D1400028BF40F00040704712F100723CBF00F50000704700F01D
:402A0000004343F0FE4040F4000070477FEA226216BF08467FEA23630146420206BF5FEA412390EA010F40F4800070474FF0000304E000BF10F0004348BF40425FEA000C00
:402A400008BF704743F0964301464FF000001CE050EA010208BF70474FF000030AE000BF50EA010208BF704711F0004302D5404261EB41015FEA010C02BF84460146002076
:402A800043F0B64308BFA3F18053A3F50003BCFA8CF2083AA3EBC25310DB01FA02FC634400FA02FCC2F12002BCF1004F20FA02F243EB020008BF20F00100704702F12002D2
:402AC00001FA02FCC2F1200250EA4C0021FA02F243EB020008BF20EADC7070474FF0FF0C1CEAD0521EBF1CEAD15392EA0C0F93EA0C0F6FD01A4480EA010C400218BF5FEA51
:402B000041211ED04FF0006343EA501043EA5111A0FB01310CF00040B1F5000F3EBF490041EAD3715B0040EA010062F17F02FD2A1DD8B3F1004F40EBC25008BF20F0010096
:402B4000704790F0000F0CF0004C08BF49024CEA502040EA51207F3AC2BFD2F1FF0340EAC250704740F400004FF00003013A5DDC12F1190FDCBF00F000407047C2F1000236
:402B8000410021FA02F1C2F1200200FA02FC5FEA310040F1000053EA4C0308BF20EADC70704792F0000F00F0004C02BF400010F4000F013AF9D040EA0C0093F0000F01F050
:402BC000004C02BF490011F4000F013BF9D041EA0C018FE70CEAD15392EA0C0F18BF93EA0C0F0AD030F0004C18BF31F0004CD8D180EA010000F00040704790F0000F17BFAE
:402C000090F0004F084691F0000F91F0004F14D092EA0C0F01D142020FD193EA0C0F03D14B0218BF084608D180EA010000F0004040F0FE4040F40000704740F0FE4040F459
:402C4000400070474FF0FF0C1CEAD0521EBF1CEAD15392EA0C0F93EA0C0F69D0A2EB030280EA010C49024FEA402037D04FF0805343EA111143EA10130CF000408B4238BFD7
:402C80005B0042F17D024FF4000C8B4224BF5B1A40EA0C00B3EB510F24BFA3EB510340EA5C00B3EB910F24BFA3EB910340EA9C00B3EBD10F24BFA3EBD10340EADC001B0126
:402CC00018BF5FEA1C1CE0D1FD2A3FF650AF8B4240EBC25008BF20F0010070470CF0004C4CEA50207F32C2BFD2F1FF0340EAC250704740F400004FF00003013A37E792F0AE
:402D0000000F00F0004C02BF400010F4000F013AF9D040EA0C0093F0000F01F0004C02BF490011F4000F013BF9D041EA0C0195E70CEAD15392EA0C0F08D142027FF47DAFE7
:402D400093EA0C0F7FF470AF084676E793EA0C0F04D14B023FF44CAF08466EE730F0004C18BF31F0004CCAD130F000427FF45CAF31F000437FF43CAF5FE700BF4FEA400286
:402D8000B2F1FE4F0FD34FF09E03B3EB12620DD94FEA002343F0004310F0004F23FA02F018BF404270474FF00000704712F1610F01D1420205D110F0004008BF6FF000402E
:402DC00070474FF000007047014B1868704700BF4481FF1F0E4B70B51E460E4C0025E41AA410A54204D056F8253098470135F8E700F03EFF084B094C1E46E41AA41000258C
:402E0000A54204D056F8253098470135F8E770BD7C3C00007C3C00007C3C0000843C000010B5431E0A44914204D011F8014B03F8014FF8E710BD03460244934202D003F893
:402E4000011BFAE7704700000EB400B54FF402719CB0ADF814106FF00041049107914FF6FF711DAB02900690084853F8042BADF81610006802A9019300F064F8029B0022A3
:402E80001A701CB05DF804EB03B070474481FF1F2DE9F0478E6882469E420C46914698463ED88A8912F4906F3AD02568096902236F1A656905EB450595FBF3F57B1C4344B6
:402EC0009D4238BF1D4653050FD5294600F040FB064698B13A462169FFF7A2FFA38923F4906343F08003A38113E02A4600F08EFB064670B92169504600F0DEFA0C23CAF853
:402F00000030A3894FF0FF3043F04003A381BDE8F08726613E44266046466561ED1BA560464528BF464649463246206800F0A8FAA36800209B1BA36023681E442660BDE808
:402F4000F08700002DE9F04F9DB003938B8980461C060D4616460DD50B695BB9402100F0F7FA2860286118B90C23C8F80030CDE040236B610023099320238DF82930DFF8B7
:402F80009CB130238DF82A3037463C4614F8013B1BB9B7EB060910D003E0252BF9D02746F3E74B46324629464046FFF771FF013000F0A780099B4B4409933B78002B00F05A
:402FC000A08000234FF0FF3204930793059206938DF853301A930126052221784E4800F041FA671C049B38B14B4A3C46801A06FA00F018430490EFE7D90644BF20228DF846
:4030000053201A0744BF2B228DF8532022782A2A03D0079A00210A200BE0039A111D12680391002A10DA524243F00200079204900BE027463B780134303B092B03D800FB84
:4030400002320121F5E701B107923B782E2B1ED17B782A2B0AD1039B02371A1D1B680392002BB8BF4FF0FF33059310E0002319460593781C0A2407463A780130303A092A4B
:4030800003D804FB01210123F5E703B1059103223978224800F0E6F940B14023CBEB000003FA00F0049B013718430490397806221B487E1C8DF8281000F0D4F988B1194B11
:4030C00033B9039B073323F007030833039314E003AB00932A46144B04A94046AFF3008007E003AB00932A460F4B04A9404600F093F8B0F1FF3F824603D0099B53440993D4
:4031000042E7AB895B0601D4099801E04FF0FF301DB0BDE8F08F00BF3A3C0000403C0000443C000000000000912E00002DE9F04791461F460A698B6806469342B8BF13464B
:40314000C9F8003091F843200C46DDF8208012B10133C9F800302368990642BFD9F800300233C9F80030256815F0060510D104F1190A07E00123524639463046C04701300B
:403180001AD00135E368D9F800209B1A9D42F1DB94F843302268003318BF012392060FD5E118302081F843005A1C94F845102244023382F8431003E04FF0FF30BDE8F087EF
:4031C00004F1430239463046C0470130F4D02268D9F80050E36802F00602042A08BF5D1B2269A3680CBF25EAE57500259342C4BF9B1AED184FF000091A344D4509D0012321
:40320000224639463046C0470130D5D009F10109F3E70020BDE8F0872DE9F04317460A7E85B06E2A984606460C460C9B01F1430E00F0AE8011D8632A22D009D8002A00F058
:40324000BB80582A40F0CA8081F84520834955E0642A1ED0692A1CD0C0E0732A00F0B08009D86F2A2ED0702A40F0B8800A6842F020020A603EE0752A24D0782A3AD0ADE04C
:403280001A6801F14205111D1960136884F84230A8E021681A6811F0800F02D0111D196008E011F0400F02F10401196002D0B2F9003000E01368002B3CDA2D225B4284F84D
:4032C000432037E021681A6811F0800F02D0111D196007E011F0400F02F10401196001D0138800E01368227E5C496F2A14BF0A2208221BE078225A4984F8452022681868A7
:4033000012F0800F00F104051D6003D1550601D5038800E00368D00744BF42F0200222601BB9226822F0200222601022002084F8430001E049490A226568002DA56008DB54
:40334000206820F0040020602BB9002D7DD175460CE0002B79D07546B3FBF2F002FB1033CB5C05F8013D03460028F5D1082A0BD12368DA0708D5236962689A42DEBF30231A
:4033800005F8013C05F1FF35C5EB0E0323612EE008681A6810F0800F496903D0101D1860136808E010F0400F02F104001860136801D0198000E0196000232361754616E0F4
:4033C0001A68111D1960156800216268284600F049F808B1401B6060636804E004F1420584F8422001232361002384F84330CDF800803B4603AA21463046FFF797FE01303A
:4034000002D14FF0FF3026E023692A4639463046C0470130F5D023689B0710D5002504F1190907E001234A4639463046C0470130E7D00135E368039A9B1A9D42F2DBE068C3
:40344000039B9842B8BF184605E00B7804F1420584F842308AE705B0BDE8F0834B3C00005C3C000010B5C9B202449042034605D01C7801308C42F8D1184610BD002010BD26
:40348000884210B501EB020301D8421E0BE09842FBD28118D21AD34204D013F8014D01F8014DF8E710BD994204D011F8014B02F8014FF8E710BD000038B50546002944D098
:4034C00051F8043C0C1F002BB8BFE41800F0D4F81E4A1368114613B96360146030E0A3420DD92268A018834201BF18685B681218226063600C6023E0A24203D813465A68E4
:40350000002AF9D118681918A1420BD12168014458188242196013D110685268014419605A600DE002D90C232B6009E021686018824201BF106852680918216062605C60DC
:403540002846BDE8384000F098B838BD9081FF1F70B5CD1C25F0030508350C2D38BF0C25002D064601DBA94202D90C23336046E000F082F8234B1C681A462146A1B10B68A8
:403580005B1B0ED40B2B03D90B60CC18CD501EE08C420BBF63684B681360636018BF0C4615E00C464968E9E7174C23681BB9304600F052F820602946304600F04DF8431C8F
:4035C00018D0C41C24F00304A0420DD12560304600F053F804F10B00231D20F00700C31A0ED05A42E25070BD211A304600F034F80130EBD10C233360304600F03EF80020AD
:4036000070BD00BF9081FF1F8C81FF1FF8B5074615460E4621B91146BDE8F840FFF798BF1AB9FFF749FF2846F8BD00F027F885420ED929463846FFF78BFF044650B1314620
:403640002A46FFF7EDFB31463846FFF735FF01E03046F8BD2046F8BD38B5064C0023054608462360FDF78CFD431C02D1236803B12B6038BD8482FF1F7047704751F8040CDF
:403680000028BEBF091851F8043CC01804387047000000002A2A2A2A2A2A2A2A2A2020202048454C503A20504F535349424C452053455454494E4753202020202A2A2A2A59
:4036C0002A2A2A2A2A0D0D00662E2046756C6C205363616C650D0A702E2053616D706C696E6720467265710D0A742E205365742054656D706572617475726520556E69745E
:403700000D0A762E205072696E742044617461206F6E204243500D0A622E20537461727420526567697374726174696F6E0D0A732E2053746F7020526567697374726174D2
:40374000696F6E0D0A0D00002A2A2A2A2A2A2A2A2A2A2A2A2A2A2A2A2A2A2A2A2A2A2A2A2A2A2A2A2A2A2A2A2A2A2A2A2A2A2A2A2A2A2A2A2A2A2A0D0A0000002A2A2A2A6A
:403780002A2A2A2A2A2020202043484F4F534520414343454C45524F4D455445522046554C4C205343414C45202020202A2A2A2A2A2A2A2A2A0D0D312E202B2D32670D0AA5
:4037C000322E202B2D34670D0A332E202B2D38670D0A342E202B2D3136670D0A352E20476F206261636B0D0A0D000000594F552043484F4F5345202B2D32670D0D000000DA
:40380000594F552043484F4F5345202B2D34670D0D000000594F552043484F4F5345202B2D38670D0D000000594F552043484F4F5345202B2D3136670D0D000045584954F6
:403840002E2E2E2E0D0D0000494E56414C494420494E5055542C20455849542E2E2E2E0D0D0D0D0D0D0000002A2A2A2A2A2A2A2A2A2020202043484F4F534520414343454C
:403880004C45524F4D455445522053414D504C494E47204652455155454E4359202020202A2A2A2A2A2A2A2A2A0D0D312E203120487A0D0A322E20313020487A0D0A332E14
:4038C00020323520487A0D0A342E20353020487A0D0A352E20476F206261636B0D0000002A2A2A2A2A2A2A2A2A2A2A2A2A2A2A2A2A2A2A2A2A2A2A2A2A2A2A2A2A2A2A2A31
:403900002A2A2A2A2A2A2A2A2A2A2A2A2A2A2A2A2A2A2A2A2A2A2A2A2A2A2A2A2A2A2A2A2A0D0A00594F552043484F4F5345203120487A0D0D000000594F552043484F4F95
:40394000534520313020487A0D0D0000594F552043484F4F534520323520487A0D0D0000594F552043484F4F534520353020487A0D0D00002A2A2A2A2A2A2A2A2A20202098
:403980002043484F4F53452054454D504552415455524520554E4954202020202A2A2A2A2A2A2A2A2A0D0D312E2043656C736975730D0A322E2046616872656E6865697458
:4039C0000D0A332E20476F204261636B0D000000594F552043484F4F53452043454C5349555320554E49540D0D000000594F552043484F4F53452046414852454E484549C3
:403A00005420554E49540D0D000000002A2A2A2A2A2A2A2A2A20202020524547495354524154494F4E20414C52454144592053544152544544202020202A2A2A2A2A2A2A24
:403A40002A2A0D002A2A2A2A2A2A2A2A2A20202020524547495354524154494F4E2053544152544544202020202A2A2A2A2A2A2A2A2A0D002A2A2A2A2A2A2A2A2A20202038
:403A800020524547495354524154494F4E20414C52454144592053544F50504544202020202A2A2A2A2A2A2A2A2A0D002A2A2A2A2A2A2A2A2A2020202052454749535452C9
:403AC0004154494F4E2053544F50504544202020202A2A2A2A2A2A2A2A2A0D002A2A2A2A2A2A2A2A2A2020202056495355414C495A4154494F4E20535441525445442020A2
:403B000020202A2A2A2A2A2A2A2A2A0D000000002A2A2A2A2A2A2A2A2A2020202056495355414C495A4154494F4E20414C52454144592053544152544544202020202A2AA5
:403B40002A2A2A2A2A2A2A0D000000002A2A2A2A2A2A2A2A2A2020202056495355414C495A4154494F4E2053544F50504544202020202A2A2A2A2A2A2A2A2A0D00000000E0
:403B8000494E56414C494420494E5055542E2E2E2E0D0D0D0D0D0D0052455345540000002A2A20454550524F4D2052656164203D202564202564202564202564200D0A00B5
:403BC000035B00402443004040000000004F00401800405100403000F0510040100000000140800A000B01400001800C014080030014014000048018014080030040014069
:403C0000000A004C014000020050014020000000605200402C0700480600800A0140340700488000000C0140B40700488000001801403408004880004300232D302B2000BE
:403C4000686C4C006566674546470030313233343536373839414243444546003031323334353637383961626364656600000000F8B500BFF8BC08BC9E4670474D00000050
:403C8000FD110000F8B500BFF8BC08BC9E46704729000000A83C0000C880FF1F800000004001000000000000000000008882FF1F01FF00000000E02EC05D000018000000D8
:403CC00000366E010000000000000000000000000000000000000000000000000000000000000000383C0000000000000000000000000000000000000000000000000000AB
:403D0000000000000000000000000000000000000000000000000000000000000000000000000000E480FF1F00000000000000000000000000000000000000000000000001
:403D40000000000000000000000000000000000000000000000000000000000000000000000000000000000000000000000000000000000000000000000000000000000043
:403D80000000000000000000000000000000000000000000000000000000000000000000000000000000000000000000000000000000000000000000000000000000000003
:403DC00000000000000000000000000000000000000000000000000000000000000000000000000000000000000000000000000000000000000000000000000000000000C3
:403E00000000000000000000000000000000000000000000000000000000000000000000000000000000000000000000000000000000000000000000000000000000000082
:020000040003F7
:0200000480007A
:40000000044F00400452004003640040036500400203014002050140010701404E08014038090140260A01404A0B01400F0C0140380D01400C1501404E16014035170140DB
:400040000F180140511901405F1A01404C1B0140074001400E4101400A42014008430140044401400845014006460140064701400A48014009490140064C0140084D014059
:40008000065001400251014001500A270D40161B006001401002110288728C0F8D0D860F8A0F8B38E208EE02E209EE02E210010402800404086709060A180E80110612049E
:4000C0001301147F1502183C19071A421C3C1E411F01224324082507281829012B062C10302031073280341F36583AA03E0556025710580459045B045C335D305F018401F7
:40010000860E8D01901C9203940196169A08A61CAA03B00FB41AB701BA22BF40C004C640C9FFCA07CBFFCC40CD20CEF0CF05D008D440D604D804D904DA04DB04DC03DD1327
:40014000DF01E040E1A8E240E320000405380601074009280A800EA91008122014401602171418041A801C401D841E0B1F102302260227402D202F10344036913704398075
:400180003E224240501851205C406010634A6D806E147420763277148B028C809010A305AE40AF10B094C0F4C2FEC4F6CA60CCF0CEA8D001D610D80FE2100E011104190765
:4001C0001D0726012E022F01310233013401350436023E104050410349FF4AFF4BFF4DA04F0450185280580459045A045B045C665D665F01604062C06440654066C068C01C
:400200006AC06CC06EC0018004040540064007080D010E1C0F021002110815011620171019801A081C141D40202821022550272029802E0430A03102354037083D203E088C
:400240004308440145444608472049804C204D825480550457085C015E405F1464016780700281108740900191039250930496089A609B189C809D429E08A204A305AE40D6
:40028000B409B528B642C0F1C2F0C475CA48CC5DCE60D042D218D6F0D8908505870A910E95039704AD04AF09B10FB902D405D904DB04DC10DD60DF01040205400622070A8A
:4002C0000E8A0F20150217151D281E802102240A2504268C272829402D802E02310232083680372938083D013E143F804408450447024C044E024F065640575458805902F7
:400300005A0866086D016E166F15758089808A20C0F0C2F0C470CA98CCF3CEF2D0E0D230D60BD840E208EE028E01A201A880AA08AD20B010B124B201B440E234EC02EE01CB
:4003400000700402061D08200C200E501450162018701CE31E0C2070240326F428A12A5A3060321F368038A03A083E105602572858045B045C025D205F01828084218520B1
:40038000861487D08803892E8A2C8B818CD28DD88F0190D29111932295D19708980399D99A389C029DD9A108A304A4D2A524A749A8D0AA02AC02ADD9AED0B040B280B3F02A
:4003C000B420B50FB61FB880BB38BE15D440D604D804D904DB04DC22DD20DF0100A20104050406080741088009210C280E01102A15241702185019201A021D151E02213446
:4004000028902980302831013340396859015A0160106140622265046C2A6D426F4174407580770282208602881189408A019D10A910C0FFC2EBC477CA0BCC0FCE0ED84F1C
:40044000E601EA20EC14850C871189108F039510970C99099B109D1C9F02A514B71FD904DC30DF0101800301050807840D810E28100411201440161217101C201D301E8000
:400480001F50214024402510260827012A042F403108326035223608382439803C483D013E20440146604D6657195C105D045E025F406480658079407A01831085018710C4
:4004C000882089018A408B81902492949580964098429A129C809D189E01A028A1C0A206A508A6F0B340B402B504C070C2F0C4F0CA82CCEECEFED0D0D230D6F0D890E28029
:40050000E480EA20EC14040E050D0710090D0B3010041208140E150217141B201C011D281F11250C260827102A0A30063201333C35033608380239203B083E454036410238
:4005400045EC470B481349FF4AFF4BFF4EF04F44500C5401580459045A045B045C305D335F0166C06A406B028122835185E789E78D809501970E99449B31B118B360B50735
:40058000B780BA08BF01C024C106C205C401C7CEC830C9FFCAFFCBFFCC62CDA0CEF0CF41D00CD418D604D804D904DA04DB04DC33DD33DF01E640E702E910EA30EB10ED10C9
:4005C000EE10EF12000409080A800B02103819841A401E202108222026802756281030083260371438043A203D803E1640044108422045204742482849014B024E024F10BE
:40060000520454045601581059855E215F1064868208889089088A0390049294964098069D089E059F14A018A160A20AA404A508A6B0A810AB08AC01AF40B120B220B540FF
:40064000C004C20DC406CA02CC6ECEF6D0B6D234D68FD8B0E220E860EA02EC8030103301358037023B40CCF0CE10308036405F01652084809C109D809F03AF40CC30D68006
:40068000D880E210EE408301858097019C109D809F03A640AD20E290EE40660272028F029C109F03A640D880DC2013027C08C408DE0100200108570284109C08AF02C00A75
:4006C000D60445029C08A702B508D001EA028B409C08A502B302E004EC01270487019F05A640AA02B010B704C820E240EE207B027C8083028A408C80A640DC80DE20E220E4
:400700000A049340A808B502C202EC081040734088409340AE04C408DC01E201004A0C4A0E42100C1A041C0C00FF013B04800000400000004000000002020D0D62001410A8
:40074000420008000D0080008D45003A11002200004980368D0000008D63000C8D000000000000000000800F0F3070400000A008000004405003000000D1000217FFFFFFAA
:4007800000AF0F04180000000900040004040404111600014000C0004040C000C000C000C000C00000000000000000000000000000000000049A0000849800020A0210986A
:4007C0005602090001980002602100D807133864843800C004FC80038000040084000000009A00007F008013080F00E0020000A0000014006403500002DEBC0F1FFFFFFF10
:400800002200F008040000000000022804040404111100010000C00040011011C00100114001400100000000000000000000000000000000046B00142100108063700009B7
:4008400000060000E3000C20EF0000180C55E3220F00E000000063800C0000004200000008000000100760380F80804080022000000000506304500001BEF0DC3BFFFFFF64
:400880002200F00C040000000900040004040404232200010000C00040011011C0010011400140010000000000000000000000000000000000606000600000008400508CBD
:4008C0008C008C00000000008000408B8B0000000000000010000116120002000000000000010100000010002500180100000000000000000000000000000000000000007F
:4009000000000000000000000000000000000000000000000000000000000000000000000000000000000000000000000000000000000000000000000000000000000000B7
:400940000000000000000000000000000000000000000000000000000000000000000000000000000000000000000000000000000000000000000000000000000000000077
:400980000000000000000000000000000000000000000000000000000000000000000000000000000000000000000000000000000000000000000000000000000000000037
:4009C00000000000000000000000000000000000000000000000000000000000000000000000000000000000000000000000000000000000000000000000000000000000F7
:0200000490006A
:0400000000004005B7
:0200000490105A
:04000000BC90ACAF55
:0200000490303A
:020000009D78E9
:0200000490402A
:4000000000000000000000000000000000000000000000000000000000000000000000000000000000000000000000000000000000000000000000000000000000000000C0
:400040000000000000000000000000000000000000000000000000000000000000000000000000000000000000000000000000000000000000000000000000000000000080
:400080000000000000000000000000000000000000000000000000000000000000000000000000000000000000000000000000000000000000000000000000000000000040
:4000C0000000000000000000000000000000000000000000000000000000000000000000000000000000000000000000000000000000000000000000000000000000000000
:0200000490501A
:0C00000000012E16106900012E2EADE14B
:00000001FF