:4000000000800020110000000D0600000D06000008B5044B1A6803F53F5302331A6000F0FDFA00BFFA46004010B5054C237833B9044B13B10448AFF300800123237010BD5A
:400040004881FF1F0000000020110000084B10B51BB108490848AFF300800848036803B910BD074B002BFBD0BDE81040184700BF000000004C81FF1F20110000C880FF1FA0
:400080000000000008B562B60122094B1A6000F04FFB00F0A7FD074800F0BCFF064800F0E1FF064800F0BEFB00F00AF8FEE700BF8881FF1F79020000CD020000C1000000D5
:4000C00010B500F043FB584B18703F2804D0574B1B68012B40F0A6800122554B1A609CE00122544B1A6093E0534800F06FFB534800F06CFB00F04CFB00F03EFB0028FBD05E
:4001000000F024FB484B1870662832D14C4800F05DFB4C4800F05AFB00F02EFB0028FBD000F014FB404C207000F032FB2378313B032B1ED8DFE803F002091017424800F07A
:4001400045FB02223A4B1A6013E0404800F03EFB0222374B1A600CE03D4800F037FB0222334B1A6005E03B4800F030FB0222304B1A602D4B1B78702B32D1374800F026FBD4
:40018000364800F023FB00F0F7FA0028FBD000F0DDFA254C207000F0FBFA2378313B032B1ED8DFE803F0020910172D4800F00EFB02221F4B1A6013E02A4800F007FB02222A
:4001C0001B4B1A600CE0284800F000FB0222184B1A6005E0254800F0F9FA0222144B1A60114B1B78622B01D0732B11D1204800F0EDFA204800F0EAFA00230D4A13600D4A19
:4002000013600A4B1B68012B02D10022074B1A60084B1B68012B3FF467AF054B1B68012B3FF45EAF10BD00BF8D81FF1F8881FF1F7C81FF1F8081FF1F24110000A8110000F5
:40024000DC110000041300004012000054120000681200007C12000090120000FC1200004013000054130000681300007C13000090130000B813000008B500F0A5FE0F4B2E
:400280001B78CBB100F020FD0D4B1860002801DA00221A600A4B1B68B3F5803F03DB4FF6FF72074B1A60064B1A681112054B59709A700122044B1A7008BD00BF6481FF1F78
:4002C0009081FF1F8481FF1F8C81FF1F054A538801339BB25380B3F5FA7F02D30122014B5A6070476481FF1FFEE700BFF0B40022174611E050F82760F3B226F0FF0608E0FB
:4003000001EB420511F812406D78A5550132013BDBB2002BF4D10137222FEBD9F0BC70470B4B1B78DBB203F007010A4A11701B09013213701023A2F23272137002F6C312D9
:400340001370583213704422034B1A70704700BFCF0100496E5800407658004008B50A46002100F0D4FE08BD08B500F0C5FE08BD38B50024394B1C80502202331A700B2293
:4003800002331A801823364A13703321023211800232137045F6BF5232490A8002310B7002310A80304A137047F22F522F4B1A80192502331D7004222D492E48FFF7D4FFFE
:4003C00002222D4B1A7008224FF040231A70032103F500731970294B1B78DBB228490B70284B1A8041F25122023B1A800CE0264B1B7803F0010343EA440404F003044FF4C5
:40040000F07000F03DFE013D0DB1032CEFD115B90320FFF769FF1D4B4FF480721A8007221A7000221A490A704820023108701A700222033B1A7004220A331A70154A1378AE
:4004400043F03F031370013A137843F001031370013A137843F08003137038BD80400040864000408C4000409240004094400040980700480041004000430040080100499B
:40048000A146004022420040254200400440004006400040A2430040012807D8044B53F820201844017A13780B431370704700BF00140000012808D8044B53F820201844BD
:4004C000017A137823EA0103137070470014000038B572B6394A137843F00403137000240BE0374863001A19510001440A46098AD068FFF733FF0134E4B2092CF1D90024CC
:400500000CE02F48A20011194B000344B3F85020D96C986CFFF728FF0134E4B2012CF0D928494FF09040FFF7E1FE0A24264B1C70264A137843F0020313701032137843F082
:4005400002031370224D2B7843F040032B70A2F58632513A137843F01003137022461D491D48FFF701FF22461C491D48FFF7FCFE08221C491C48FFF7F7FE22461B491C4849
:40058000FFF7F2FE08221B491B48FFF7EDFE1B4A137843F008031370194C61232370FFF7E7FE812323700122164B1A70FFF7B8FE0E2229461448FFF7D7FE38BDE846004061
:4005C000001400008C0000488358004003500140A0430040640700480051004070070048C05100407C070048125100408407004820510040900700483251004022430040B4
:400600000048004004000840B043004008B500F047FD03680C2B00D1FEE7FEE708B5104E104D16E029686B68AC68002204E051F8040B43F8040B0432A242F8D1E8680022A2
:4006400003E0002143F8041B04328242F9D11035013E002EE6D100F029FDFFF713FDFEE7010000008414000008B5104A104B1A60104A136843F40073136000230AE0032B3C
:4006800003D80D4A52F8231000E00C490C4A42F8231001332F2BF2D90A4B1A780A4B1A70074A0A4B1A60FFF713FF08BD0004FA050CED00E014ED00E0000000000D060000B7
:4006C0000080FF1FBC760040C080FF1F08ED00E07222084B1A70202203F201131A7006225F3B1A70472210331A7000224D331A70704700BF8964004010B500F0C9FC04465C
:400700000A4A137843F02003137002F20112137843F010031370023A137843F01003137000F0E8FA204600F0B7FC10BD9964004008B5054B1B7823B9FFF7CAFF0122024B86
:400740001A70FFF7D9FF08BD6C81FF1F084B1B78DBB213F0200F06D0064A1078C0B213F01E0F02D17047002070470020704700BF6A65004049650040044B1B7813F0200F54
:4007800001D0012070470020704700BF6A65004008B500F07DFC064B1A7842F001021A701A7802F0FE021A7000F076FC08BD00BF99650040034B1B7813F0040FFAD1024BE2
:4007C00018707047686500404864004038B5074B1B782BB938BDFFF7EDFF0134A4B201E005460024285D0028F5D138BD6C81FF1F014B1B68D864704708ED00E04001C0B29C
:40080000014B1870704700BF03E400E00822014B1A60704700E100E00822014B1A60704780E100E010B50446FFF7F6FF2046FFF7DFFF0720FFF7E2FFFFF7E8FF10BD00BFBC
:4008400010B59DF80840012C51D1013809282ED8DFE800F0052D2D052D2D0F192D230F2B03D92548007840B222E02448007840B21EE00F2B03D92248007840B218E021481C
:40088000007840B214E00F2B03D91F48007840B20EE01E48007840B20AE00F2B03D91C48007840B204E01B48007840B200E0002001EB401101FB02F1C90B8AB20D2B0BD85F
:4008C000C3F10E0289B211418AB2611E124800EB810101338B7005E0631E0F4901EB83030F219970013C0C4B23F8242010BD002000F032FB10BD00BF180100491C0100493C
:40090000190100491D0100491A0100491E0100491B0100491F0100497081FF1FF8B5074600F0B6FB06460D4D2B7843F003032B700B4C237843F0030323700A4B1F700320C7
:4009400000F00CFB2B7803F0FC032B70237803F0FC032370304600F09FFBF8BDF8460040F9460040925800400022324B1A7101285FD170B53822304B1A70042202331A7068
:40098000062201331A70002401331C7001331C703F2201331A7002331C7001331C7001331C7001250A331D70502203F527631A70272201331A702C2201331A7001331C700C
:4009C000552203331A705A2201331A70052601331E7002331D70112201331A70192201331A70972201331A705220FFF797FF5822124B1A7001331C7005331E700222013339
:400A00001A7001331C7001331C70204600F090F94CF6CD420A4B1A602946304600F0ACF92946252000F02CFA06491D2000F0A0FA70BD70477081FF1F004E004094580040A6
:400A40009481FF1FF10C0000F0B583B0284D01272F70284E00247471102000F07BF9102000F0FCF907211D2000F096FA0422224B1A7001331C7007331C70204A137843F05A
:400A8000180313701E4B1C7003F2F5231C7001331C700A22A3F209331A7001331C7002331C705B2205331A705E2201331A7004331C701422A3F68C231A70009710234FF4ED
:400AC000004249F2DA012046FFF7BAFE2B78013B06EB83039A780B4B1A702B78013B36F82320094B1A802878FFF73EFF03B0F0BDCC80FF1F7081FF1F96580040075B004088
:400B0000935800400E4E00400C4E004070B500F0BFFA06462A4B1B782A4B1A7842F001021A701A7842F010021A7010331A7842F001021A701A7842F010021A70224D2B7806
:400B400043F002032B70214C237843F0020323701F4A137843F003031370032000F0FEF92B7803F0FD032B70237803F0FD032370184A137843F0060313707A22164B1A7090
:400B8000164A137843F0010313701032137843F0010313700F3A137843F0010313701032137843F0010313704FF000530C4A1360A2F5C0721360304600F06EFA70BD00BFA3
:400BC000CC80FF1FAA430040F8460040F9460040915800407758004082580040A143004080E200E008B5084B9B794BB9064BDB7913F0FF0F01D1FFF727FF0122024B9A7162
:400C0000FFF784FF08BD00BF7081FF1F024A137843F0010313707047004E0040024A137803F0FE0313707047004E0040094B1B7913F0FF0F03D0074B5B79DBB203E0064B8C
:400C40001B7803F00103012B01D00028EED01846704700BF7081FF1F014E0040154B1B7803F00303012B07D8134B1888023B1B889BB243EA004013E0022B0AD10E4B188812
:400C8000023B1B7843EA00430C4A107843EA002006E00B4B188883B2074A108843EA0040084B1B7913F0FF0F02D00022054B5A71704700BF144E0040124E0040114E004004
:400CC000104E00407081FF1F10B5084A137843F004031370FFF79AFF0020FFF7A7FFFFF7BDFF0446FFF79AFF204610BD014E0040704700BF054A137843F004031370103201
:400D0000137843F004031370704700BFA243004010B5002404E02046FFF7CCFB0134E4B2012CF8D9FF22014B1A7010BDCD80FF1F10B50446FFF7ECFF2046FFF7ADFB014BA8
:400D40001C7010BDCD80FF1F014B188880B2704780400040034B1A7800F0F80010431870704700BF82400040024B187800F00700704700BF8240004070B505460E46FFF7B9
:400D8000F3FF0446FFF7E0FFA84256D02B4B1B7803F0010294B900B185B938B9284B1D80284A137803F0BF03137070BD254A137843F040031370224B1D8070BD22B3002352
:400DC00021490B7001240F310C7004310B700C390B7803F07F030B701A4B1B7813F0080F00D08DB9194B18800721013B1970164B1B7813F0010FFAD110490B7803F0FE0312
:400E00000B700021104B19700C4B1B7813F0010F0DD00E4B1D800EB1032200E001220A4B1A70094B1B7813F0010FFAD170BD044B1D8002490B7813430B7070BDA2430040CD
:400E400080400040824000400140004002400040014B188880B2704700410040034B1A7800F0F80010431870704700BF02410040024B187800F00700704700BF02410040AE
:400E800070B505460E46FFF7F3FF0446FFF7E0FFA84256D02B4B1B7803F0010294B900B185B938B9284B1D80284A137803F0BF03137070BD254A137843F040031370224B59
:400EC0001D8070BD22B3002321490B70012413310C7004390B7008390B7803F07F030B701A4B1B7813F0080F00D08DB9194B18800721013B1970164B1B7813F0010FFAD117
:400F000010490B7803F0FE030B700021104B19700C4B1B7813F0010F0DD00E4B1D800EB1032200E001220A4B1A70094B1B7813F0010FFAD170BD044B1D8002490B781343C9
:400F40000B7070BDA14300400041004002410040014000400240004001BE704708B5034B1B7A00FB03F000F08BF808BDD080FF1F70B504460E46074B1D681F2802D9002018
:400F8000FFF7EAFF04F01F04103455F8240045F8246070BD08ED00E038B504460D46072902D90020FFF7D8FF1F2C02D90020FFF7D3FF04F01F0000F1604000F564406D0188
:400FC000EDB2057038BD00BF014B1878704700BF034F0040024B1B68C3F88400704700BF08ED00E04001C0B2014B1870704700BF11E400E04FF40032014B1A60704700BF68
:4010000000E100E04FF40032014B1A60704700BF80E100E010B50446FFF7F4FF2046FFF7D9FF0720FFF7DEFFFFF7E4FF10BD00BF014B1B689864704708ED00E04001C0B268
:40104000014B1870704700BF02E400E00422014B1A60704700E100E00422014B1A60704780E100E010B50446FFF7F6FF2046FFF7DFFF0720FFF7E2FFFFF7E8FF10BD00BF7D
:401080000230800803D000BF01380046FCD17047EFF3108072B6704780F31088704700BF014B1868704700BF4081FF1F0E4B70B51E460E4C0025E41AA410A54204D056F8D2
:4010C000253098470135F8E700F0CAF9084B094C1E46E41AA4100025A54204D056F8253098470135F8E770BD6C1400006C1400006C1400007414000010B5431E0A44914243
:4011000004D011F8014B03F8014FF8E710BD03460244934202D003F8011BFAE770470000000000002A2A2A2A2A2A2A2A2A202020204D454E553A2043484F4F5345205345A8
:401140005454494E4753202020202A2A2A2A2A2A2A2A2A0D0D662E2046756C6C205363616C650D0A702E2053616D706C696E6720467265710D0A622E20537461727420522E
:401180006567697374726174696F6E0D0A732E2053746F7020526567697374726174696F6E0D0A0D000000002A2A2A2A2A2A2A2A2A2A2A2A2A2A2A2A2A2A2A2A2A2A2A2AD9
:4011C0002A2A2A2A2A2A2A2A2A2A2A2A2A2A2A2A2A2A2A2A2A2A2A0D0A0000002A2A2A2A2A2A2A2A2A2020202043484F4F534520414343454C45524F4D45544552204655C1
:401200004C4C205343414C45202020202A2A2A2A2A2A2A2A2A0D0D312E202B2D32670D0A322E202B2D34670D0A332E202B2D38670D0A342E202B2D3136670D0A0D0000000E
:40124000484149205343454C544F202B2D32670D0D000000484149205343454C544F202B2D34670D0D000000484149205343454C544F202B2D38670D0D00000048414920BF
:401280005343454C544F202B2D3136670D0D00002A2A2A2A2A2A2A2A2A2020202043484F4F534520414343454C45524F4D455445522053414D504C494E4720465245515550
:4012C000454E4359202020202A2A2A2A2A2A2A2A2A0D0D312E203120487A0D0A322E20313020487A0D0A332E20323520487A0D0A342E20353020487A0D0A0D002A2A2A2AB2
:401300002A2A2A2A2A2A2A2A2A2A2A2A2A2A2A2A2A2A2A2A2A2A2A2A2A2A2A2A2A2A2A2A2A2A2A2A2A2A2A2A2A2A2A2A2A2A2A2A2A2A2A2A2A2A2A2A2A2A2A2A2A0D0A0094
:40134000484149205343454C544F203120487A0D0D000000484149205343454C544F20313020487A0D0D0000484149205343454C544F20323520487A0D0D000048414920FA
:401380005343454C544F20353020487A0D0D00002A2A2A2A2A2A2A2A2A2020202046494E45204553454D50494F202020202A2A2A2A2A2A2A2A2A0D002A2A2A2A2A2A2A2A3D
:4013C0002A2A2A2A2A2A2A2A2A2A2A2A2A2A2A2A2A2A2A2A2A2A2A2A2A2A2A2A2A2A2A2A2A2A2A2A2A2A2A2A2A2A2A2A2A2A2A2A2A2A2A2A2A2A2A2A2A0D0D0D0A00000062
:40140000035B00402443004040000000004F00400C00405100403000F0510040100000000140000A800A01400002000D0140000300140140000800400140000A004C01401C
:401440000002005001402000000A0140640600488000800C0140E4060048800043000000F8B500BFF8BC08BC9E4670474D00000069060000F8B500BFF8BC08BC9E467047C0
:401480002900000098140000C880FF1F8000000050000000000000000000000001FF00000000E02EC05D00001800000000366E010000000000000000000000000000000039
:4014C000000000000000000000000000000000005C14000000000000000000000000000000000000000000000000000000000000000000000000000000000000000000007C
:4015000000000000000000000000000000000000E080FF1F00000000000000000000000000000000000000000000000000000000000000000000000000000000000000002D
:40154000000000000000000000000000000000000000000000000000000000000000000000000000000000000000000000000000000000000000000000000000000000006B
:40158000000000000000000000000000000000000000000000000000000000000000000000000000000000000000000000000000000000000000000000000000000000002B
:4015C00000000000000000000000000000000000000000000000000000000000000000000000000000000000000000000000000000000000000000000000000000000000EB
:4016000000000000000000000000000000000000000000000000000000000000000000000000000000000000000000000000000000000000000000000000000000000000AA
:020000040003F7
:0200000480007A
:40000000024F0040045200400364004002650040040001400101014003030140020501400107014058080140420901401B0A0140460B0140150C0140350D01400215014089
:40004000011701405718014045190140551A0140501B0140054001400C4101400B42014004430140024401400745014007460140034701400648014002490140024C01407B
:40008000094D0140055001400151014001300A4B004001306180644089728A0F8C0D880F8A38B808BE04D804DF011C10B410E602EA10E208EE04EE0101100340050907D06A
:4000C00009100A080BAC0D14121513201413150C160C17711B031C031E142413260428202C0A2DDC2E142F22320F331F342035E036103A083B203E504064410245C0460B1D
:40010000470E481649FF4AFF4BFF4EF04F44500C5280580459045A045B045C225D425F0166C06A406B028003820C85088B018C028D088E0D900992069405950C960A970276
:40014000A102A304A701A810B00FB10EB410B501BA02BB02BE10BF10D602D712D804D904DB04DC11DD20DF0100420102060809080B400C010D020E500F22132015401604A8
:400180001744184019211E1A2004210123402510272429062D4031083401372439083B603D013E1C3F80451249804A014F22560457405A086A806B18702872017680892013
:4001C00091089502974098049D019E80A001A108A810B001B108B520B702C049C2BCC4E2CA13CCE2CEFED0A0D220D602C030C102C5D1C702C833C9FFCAFFCBFFCDAFCE0F27
:40020000CF04D018D409D604DA04DB04DD14DF01E040E2C0E440E540E6C0E8C0EAC0ECC0EEC0009A021009080A010B4010281141181419601A40200A2108231029082A11D3
:4002400030283240388039093B1040204218442046084E204F01560857025E605F06610165406780682869416A807040720179087A1087409108921093049404954396018B
:40028000970198049A019E88A040A429A508A620A702AA10AE40B004B510C00FC20DC40FCA07CC0ECE0FD066D6F0D891EC0202010C0C160619012101240C2A022D013004E2
:4002C00031013201340236083E105405580459045B045C445D405F01014103080580068009080A010B800E1010A81201141016081A081B081E981F80225027802D802F828E
:40030000310832503410362039023A013B8040044109484149104B844E0C5080512452405E085F816120624863408740C09BC22DC46FCA90CC2ECE09D007D20CD6D0D80F02
:40034000E810EC10EE40E20400020320040406180730080109070B180C080E04141015071604173818011D321E011F0C241C281C2F0D313C321C34033503382039203B0A56
:400380003F105401580459045B045C225D205F01800182028513860189138F20950297099B209D10A501A70AAA04AB04B004B120B303B402B510B601B70CBF41C042C1036E
:4003C000C206C401C50EC60CC805C9FFCAFFCBFFCC62CDA0CEF0CF41D00CD804D904DA04DC25DD02DF01E640E702E910EA30EB10ED10EE10EF1201020320069207040C1009
:400400000D080E02100415021664171819021B601E041F08200121192220243025102601274028202A102B082EC02F0231183240374438803A243D013E144011411249147F
:40044000504058105A105D905E085F0182019004929193019501964C9720980499809B1C9D049F40A028A204A301AA04AB01C0FCC2E0C462CA16CC5ECEEED00FD204D6F04D
:400480000044050406E308C0091F0CFF0D08101C111312E1130C14801502183C1AC21B031C101D1F2101220423202408251C2703281829032CE72D0C2E1830C0310F321F92
:4004C0003310343837203A083B023F0454185604580459045B045C225D205F018201860188018D018F069001950697019B019D069F01A104A502A906AD07B107B401B820AE
:40050000BB02C002C540C9FFCA07CBFFCC40CD20CEF0CF05D008D804D904DA04DC22DD02DF01E040E1A8E240E320018002200388042005040740081009090A010F401028F1
:4005400011041280134019151F1021022284234025012740281029042A822B082C282D802E012F40310A32203340350436203740382039043B803F4045104D01570259015D
:400580006004624188088A808C308D808E028F80902492019501960897209A409C209D109E03A028A118A220A308A502A702AD10AF01B740C07FC21FC40FCAFFCC7FCE1E87
:4005C000D020D601D80DEC10EE403002322035803708CCF05C02630886209B029D809F08A402A620B702D680D840E6405B0285809B029C029D809F08A402AB04D640E210AA
:40060000EE209F08A402A802EE807C10DE01002001085220B410C00AD404E8084508AE20B010B508D001EA02EE018B40A508E004251083089F08A402C820E220B402B510D9
:400640009340A508128073408E809340B508C408DC01E202EC0800160C160E1210241C2400FF0000079A380004020000012100D8609A0000560009000A021098009800024B
:400680008498000284FC000384130064803804C00400800008007F0F80E002130800002800005100300200000000000000FFFFFF00A00004180000000000022C04040404E9
:4006C000111400014000C0004040C000C000C000C000C000000000000000000000000000000000001D0400390000000002000D000D231004010002000205043A000000108F
:400700001D0E0000000010001D0000001D0000000200080000000F001030000F00800800000010003405200006BEFD0C1FFFFFFF2200F00804000000400004000404040490
:40074000111100010000C00040011011C00100114001400100000000000000000000000000000000200000707000700000000000880040888800800000000000004B4B0082
:4007800000000000140001161200020000000000000000000000100025001801000000000000000000000000000000000000000000000000000000000000000000000000AC
:4007C00000000000000000000000000000000000000000000000000000000000000000000000000000000000000000000000000000000000000000000000000000000000F9
:4008000000000000000000000000000000000000000000000000000000000000000000000000000000000000000000000000000000000000000000000000000000000000B8
:400840000000000000000000000000000000000000000000000000000000000000000000000000000000000000000000000000000000000000000000000000000000000078
:400880000000000000000000000000000000000000000000000000000000000000000000000000000000000000000000000000000000000000000000000000000000000038
:0200000490006A
:0400000000004005B7
:0200000490105A
:04000000BC90ACAF55
:0200000490303A
:02000000855821
:0200000490402A
:4000000000000000000000000000000000000000000000000000000000000000000000000000000000000000000000000000000000000000000000000000000000000000C0
:400040000000000000000000000000000000000000000000000000000000000000000000000000000000000000000000000000000000000000000000000000000000000080
:400080000000000000000000000000000000000000000000000000000000000000000000000000000000000000000000000000000000000000000000000000000000000040
:4000C0000000000000000000000000000000000000000000000000000000000000000000000000000000000000000000000000000000000000000000000000000000000000
:0200000490501A
:0C00000000012E16106900012E1E95C193
:00000001FF